{"abi":[{"type":"function","name":"activeRecovery","inputs":[],"outputs":[{"name":"newOwner","type":"address","internalType":"address"},{"name":"proposedAt","type":"uint256","internalType":"uint256"},{"name":"approvalBitmap","type":"uint256","internalType":"uint256"},{"name":"cancellationBitmap","type":"uint256","internalType":"uint256"}],"stateMutability":"view"},{"type":"function","name":"addGuardianWithMixedSigs","inputs":[{"name":"_guardian","type":"address","internalType":"address"},{"name":"signerIdxs","type":"uint8[]","internalType":"uint8[]"},{"name":"sigs","type":"bytes[]","internalType":"bytes[]"}],"outputs":[],"stateMutability":"nonpayable"},{"type":"function","name":"addP256Guardian","inputs":[{"name":"x","type":"bytes32","internalType":"bytes32"},{"name":"y","type":"bytes32","internalType":"bytes32"}],"outputs":[],"stateMutability":"nonpayable"},{"type":"function","name":"addP256GuardianWithMixedSigs","inputs":[{"name":"x","type":"bytes32","internalType":"bytes32"},{"name":"y","type":"bytes32","internalType":"bytes32"},{"name":"signerIdxs","type":"uint8[]","internalType":"uint8[]"},{"name":"sigs","type":"bytes[]","internalType":"bytes[]"}],"outputs":[],"stateMutability":"nonpayable"},{"type":"function","name":"approveRecovery","inputs":[],"outputs":[],"stateMutability":"nonpayable"},{"type":"function","name":"approveRecoveryWithSig","inputs":[{"name":"gIdx","type":"uint8","internalType":"uint8"},{"name":"sig","type":"bytes","internalType":"bytes"}],"outputs":[],"stateMutability":"nonpayable"},{"type":"function","name":"approveWeightChange","inputs":[],"outputs":[],"stateMutability":"nonpayable"},{"type":"function","name":"approvedAlgorithms","inputs":[{"name":"","type":"uint8","internalType":"uint8"}],"outputs":[{"name":"","type":"bool","internalType":"bool"}],"stateMutability":"view"},{"type":"function","name":"bindERC8004AgentWallet","inputs":[{"name":"identityRegistry","type":"address","internalType":"address"},{"name":"agentId","type":"uint256","internalType":"uint256"},{"name":"agentWallet","type":"address","internalType":"address"},{"name":"deadline","type":"uint256","internalType":"uint256"},{"name":"signature","type":"bytes","internalType":"bytes"}],"outputs":[],"stateMutability":"nonpayable"},{"type":"function","name":"cancelModuleInstall","inputs":[],"outputs":[],"stateMutability":"nonpayable"},{"type":"function","name":"cancelRecovery","inputs":[],"outputs":[],"stateMutability":"nonpayable"},{"type":"function","name":"cancelRecoveryWithSig","inputs":[{"name":"gIdx","type":"uint8","internalType":"uint8"},{"name":"sig","type":"bytes","internalType":"bytes"}],"outputs":[],"stateMutability":"nonpayable"},{"type":"function","name":"cancelWeightChange","inputs":[],"outputs":[],"stateMutability":"nonpayable"},{"type":"function","name":"entryPoint","inputs":[],"outputs":[{"name":"","type":"address","internalType":"address"}],"stateMutability":"view"},{"type":"function","name":"executeModuleInstall","inputs":[{"name":"moduleInitData","type":"bytes","internalType":"bytes"}],"outputs":[],"stateMutability":"nonpayable"},{"type":"function","name":"executeRecovery","inputs":[],"outputs":[],"stateMutability":"nonpayable"},{"type":"function","name":"executeWeightChange","inputs":[],"outputs":[],"stateMutability":"nonpayable"},{"type":"function","name":"getGuardianP256Key","inputs":[{"name":"index","type":"uint8","internalType":"uint8"}],"outputs":[{"name":"x","type":"bytes32","internalType":"bytes32"},{"name":"y","type":"bytes32","internalType":"bytes32"}],"stateMutability":"view"},{"type":"function","name":"guard","inputs":[],"outputs":[{"name":"","type":"address","internalType":"contract AAStarGlobalGuard"}],"stateMutability":"view"},{"type":"function","name":"installModule","inputs":[{"name":"moduleTypeId","type":"uint256","internalType":"uint256"},{"name":"module","type":"address","internalType":"address"},{"name":"initData","type":"bytes","internalType":"bytes"}],"outputs":[],"stateMutability":"nonpayable"},{"type":"function","name":"mintAgentIdentity","inputs":[{"name":"identityRegistry","type":"address","internalType":"address"},{"name":"agentURI","type":"string","internalType":"string"}],"outputs":[{"name":"agentId","type":"uint256","internalType":"uint256"}],"stateMutability":"nonpayable"},{"type":"function","name":"modifyTierLimitsWithMixedGuardians","inputs":[{"name":"_tier1","type":"uint256","internalType":"uint256"},{"name":"_tier2","type":"uint256","internalType":"uint256"},{"name":"deadline","type":"uint256","internalType":"uint256"},{"name":"signerIdxs","type":"uint8[]","internalType":"uint8[]"},{"name":"sigs","type":"bytes[]","internalType":"bytes[]"}],"outputs":[],"stateMutability":"nonpayable"},{"type":"function","name":"moduleInstallTimelock","inputs":[],"outputs":[{"name":"","type":"uint256","internalType":"uint256"}],"stateMutability":"view"},{"type":"function","name":"owner","inputs":[],"outputs":[{"name":"","type":"address","internalType":"address"}],"stateMutability":"view"},{"type":"function","name":"p256KeyX","inputs":[],"outputs":[{"name":"","type":"bytes32","internalType":"bytes32"}],"stateMutability":"view"},{"type":"function","name":"p256KeyY","inputs":[],"outputs":[{"name":"","type":"bytes32","internalType":"bytes32"}],"stateMutability":"view"},{"type":"function","name":"parserRegistry","inputs":[],"outputs":[{"name":"","type":"address","internalType":"address"}],"stateMutability":"view"},{"type":"function","name":"pendingModuleInstall","inputs":[],"outputs":[{"name":"module","type":"address","internalType":"address"},{"name":"moduleTypeId","type":"uint8","internalType":"uint8"},{"name":"proposedAt","type":"uint40","internalType":"uint40"},{"name":"executeAfter","type":"uint40","internalType":"uint40"},{"name":"initDataHash","type":"bytes32","internalType":"bytes32"}],"stateMutability":"view"},{"type":"function","name":"pendingWeightChange","inputs":[],"outputs":[{"name":"proposed","type":"tuple","internalType":"struct AAStarAgentStorageLayout.WeightConfig","components":[{"name":"passkeyWeight","type":"uint8","internalType":"uint8"},{"name":"ecdsaWeight","type":"uint8","internalType":"uint8"},{"name":"blsWeight","type":"uint8","internalType":"uint8"},{"name":"guardian0Weight","type":"uint8","internalType":"uint8"},{"name":"guardian1Weight","type":"uint8","internalType":"uint8"},{"name":"guardian2Weight","type":"uint8","internalType":"uint8"},{"name":"_padding","type":"uint8","internalType":"uint8"},{"name":"tier1Threshold","type":"uint8","internalType":"uint8"},{"name":"tier2Threshold","type":"uint8","internalType":"uint8"},{"name":"tier3Threshold","type":"uint8","internalType":"uint8"}]},{"name":"proposedAt","type":"uint256","internalType":"uint256"},{"name":"approvalBitmap","type":"uint256","internalType":"uint256"}],"stateMutability":"view"},{"type":"function","name":"proposeModuleInstall","inputs":[{"name":"moduleTypeId","type":"uint256","internalType":"uint256"},{"name":"module","type":"address","internalType":"address"},{"name":"initData","type":"bytes","internalType":"bytes"}],"outputs":[],"stateMutability":"nonpayable"},{"type":"function","name":"proposeRecovery","inputs":[{"name":"newOwner","type":"address","internalType":"address"}],"outputs":[],"stateMutability":"nonpayable"},{"type":"function","name":"proposeRecoveryWithSig","inputs":[{"name":"newOwner","type":"address","internalType":"address"},{"name":"gIdx","type":"uint8","internalType":"uint8"},{"name":"sig","type":"bytes","internalType":"bytes"}],"outputs":[],"stateMutability":"nonpayable"},{"type":"function","name":"proposeWeightChange","inputs":[{"name":"proposed","type":"tuple","internalType":"struct AAStarAgentStorageLayout.WeightConfig","components":[{"name":"passkeyWeight","type":"uint8","internalType":"uint8"},{"name":"ecdsaWeight","type":"uint8","internalType":"uint8"},{"name":"blsWeight","type":"uint8","internalType":"uint8"},{"name":"guardian0Weight","type":"uint8","internalType":"uint8"},{"name":"guardian1Weight","type":"uint8","internalType":"uint8"},{"name":"guardian2Weight","type":"uint8","internalType":"uint8"},{"name":"_padding","type":"uint8","internalType":"uint8"},{"name":"tier1Threshold","type":"uint8","internalType":"uint8"},{"name":"tier2Threshold","type":"uint8","internalType":"uint8"},{"name":"tier3Threshold","type":"uint8","internalType":"uint8"}]}],"outputs":[],"stateMutability":"nonpayable"},{"type":"function","name":"queryAgentReputation","inputs":[{"name":"reputationRegistry","type":"address","internalType":"address"},{"name":"agentId","type":"uint256","internalType":"uint256"},{"name":"clientAddresses","type":"address[]","internalType":"address[]"},{"name":"tag1","type":"string","internalType":"string"},{"name":"tag2","type":"string","internalType":"string"}],"outputs":[{"name":"count","type":"uint64","internalType":"uint64"},{"name":"summaryValue","type":"int128","internalType":"int128"},{"name":"summaryDecimals","type":"uint8","internalType":"uint8"}],"stateMutability":"view"},{"type":"function","name":"removeGuardianWithMixedSigs","inputs":[{"name":"index","type":"uint8","internalType":"uint8"},{"name":"signerIdxs","type":"uint8[]","internalType":"uint8[]"},{"name":"sigs","type":"bytes[]","internalType":"bytes[]"}],"outputs":[],"stateMutability":"nonpayable"},{"type":"function","name":"setAgentWallet","inputs":[{"name":"agentId","type":"uint256","internalType":"uint256"},{"name":"agentWallet","type":"address","internalType":"address"},{"name":"agentRegistry","type":"address","internalType":"address"},{"name":"agentWalletSig","type":"bytes","internalType":"bytes"}],"outputs":[],"stateMutability":"nonpayable"},{"type":"function","name":"setModuleInstallTimelock","inputs":[{"name":"newTimelock","type":"uint256","internalType":"uint256"},{"name":"guardianSigs","type":"bytes","internalType":"bytes"}],"outputs":[],"stateMutability":"nonpayable"},{"type":"function","name":"setWeightConfig","inputs":[{"name":"config","type":"tuple","internalType":"struct AAStarAgentStorageLayout.WeightConfig","components":[{"name":"passkeyWeight","type":"uint8","internalType":"uint8"},{"name":"ecdsaWeight","type":"uint8","internalType":"uint8"},{"name":"blsWeight","type":"uint8","internalType":"uint8"},{"name":"guardian0Weight","type":"uint8","internalType":"uint8"},{"name":"guardian1Weight","type":"uint8","internalType":"uint8"},{"name":"guardian2Weight","type":"uint8","internalType":"uint8"},{"name":"_padding","type":"uint8","internalType":"uint8"},{"name":"tier1Threshold","type":"uint8","internalType":"uint8"},{"name":"tier2Threshold","type":"uint8","internalType":"uint8"},{"name":"tier3Threshold","type":"uint8","internalType":"uint8"}]}],"outputs":[],"stateMutability":"nonpayable"},{"type":"function","name":"submitAgentReputation","inputs":[{"name":"reputationRegistry","type":"address","internalType":"address"},{"name":"agentId","type":"uint256","internalType":"uint256"},{"name":"value","type":"int128","internalType":"int128"},{"name":"valueDecimals","type":"uint8","internalType":"uint8"},{"name":"tag1","type":"string","internalType":"string"},{"name":"tag2","type":"string","internalType":"string"},{"name":"endpoint","type":"string","internalType":"string"},{"name":"feedbackURI","type":"string","internalType":"string"},{"name":"feedbackHash","type":"bytes32","internalType":"bytes32"}],"outputs":[],"stateMutability":"nonpayable"},{"type":"function","name":"tier1Limit","inputs":[],"outputs":[{"name":"","type":"uint256","internalType":"uint256"}],"stateMutability":"view"},{"type":"function","name":"tier2Limit","inputs":[],"outputs":[{"name":"","type":"uint256","internalType":"uint256"}],"stateMutability":"view"},{"type":"function","name":"tierLimitNonce","inputs":[],"outputs":[{"name":"","type":"uint256","internalType":"uint256"}],"stateMutability":"view"},{"type":"function","name":"uninstallModule","inputs":[{"name":"moduleTypeId","type":"uint256","internalType":"uint256"},{"name":"module","type":"address","internalType":"address"},{"name":"deInitData","type":"bytes","internalType":"bytes"}],"outputs":[],"stateMutability":"nonpayable"},{"type":"function","name":"validator","inputs":[],"outputs":[{"name":"","type":"address","internalType":"contract IAAStarValidator"}],"stateMutability":"view"},{"type":"function","name":"weightConfig","inputs":[],"outputs":[{"name":"passkeyWeight","type":"uint8","internalType":"uint8"},{"name":"ecdsaWeight","type":"uint8","internalType":"uint8"},{"name":"blsWeight","type":"uint8","internalType":"uint8"},{"name":"guardian0Weight","type":"uint8","internalType":"uint8"},{"name":"guardian1Weight","type":"uint8","internalType":"uint8"},{"name":"guardian2Weight","type":"uint8","internalType":"uint8"},{"name":"_padding","type":"uint8","internalType":"uint8"},{"name":"tier1Threshold","type":"uint8","internalType":"uint8"},{"name":"tier2Threshold","type":"uint8","internalType":"uint8"},{"name":"tier3Threshold","type":"uint8","internalType":"uint8"}],"stateMutability":"view"},{"type":"event","name":"AgentIdentityMinted","inputs":[{"name":"agentId","type":"uint256","indexed":true,"internalType":"uint256"},{"name":"identityRegistry","type":"address","indexed":true,"internalType":"address"},{"name":"agentURI","type":"string","indexed":false,"internalType":"string"}],"anonymous":false},{"type":"event","name":"AgentReputationSubmitted","inputs":[{"name":"agentId","type":"uint256","indexed":true,"internalType":"uint256"},{"name":"reputationRegistry","type":"address","indexed":true,"internalType":"address"},{"name":"value","type":"int128","indexed":false,"internalType":"int128"},{"name":"tag1","type":"string","indexed":false,"internalType":"string"}],"anonymous":false},{"type":"event","name":"AgentWalletSet","inputs":[{"name":"agentId","type":"uint256","indexed":true,"internalType":"uint256"},{"name":"agentWallet","type":"address","indexed":true,"internalType":"address"},{"name":"agentRegistry","type":"address","indexed":false,"internalType":"address"}],"anonymous":false},{"type":"event","name":"ERC8004WalletBound","inputs":[{"name":"agentId","type":"uint256","indexed":true,"internalType":"uint256"},{"name":"agentWallet","type":"address","indexed":true,"internalType":"address"},{"name":"identityRegistry","type":"address","indexed":true,"internalType":"address"}],"anonymous":false},{"type":"event","name":"GuardianAdded","inputs":[{"name":"index","type":"uint8","indexed":true,"internalType":"uint8"},{"name":"guardian","type":"address","indexed":true,"internalType":"address"}],"anonymous":false},{"type":"event","name":"GuardianRemoved","inputs":[{"name":"index","type":"uint8","indexed":true,"internalType":"uint8"},{"name":"guardian","type":"address","indexed":true,"internalType":"address"}],"anonymous":false},{"type":"event","name":"Initialized","inputs":[{"name":"version","type":"uint64","indexed":false,"internalType":"uint64"}],"anonymous":false},{"type":"event","name":"ModuleInstallCancelled","inputs":[{"name":"moduleTypeId","type":"uint256","indexed":true,"internalType":"uint256"},{"name":"module","type":"address","indexed":true,"internalType":"address"},{"name":"cancelledBy","type":"address","indexed":false,"internalType":"address"}],"anonymous":false},{"type":"event","name":"ModuleInstallExecuted","inputs":[{"name":"moduleTypeId","type":"uint256","indexed":true,"internalType":"uint256"},{"name":"module","type":"address","indexed":true,"internalType":"address"}],"anonymous":false},{"type":"event","name":"ModuleInstallProposed","inputs":[{"name":"moduleTypeId","type":"uint256","indexed":true,"internalType":"uint256"},{"name":"module","type":"address","indexed":true,"internalType":"address"},{"name":"executeAfter","type":"uint256","indexed":false,"internalType":"uint256"}],"anonymous":false},{"type":"event","name":"ModuleInstallTimelockChanged","inputs":[{"name":"oldTimelock","type":"uint256","indexed":false,"internalType":"uint256"},{"name":"newTimelock","type":"uint256","indexed":false,"internalType":"uint256"}],"anonymous":false},{"type":"event","name":"ModuleInstalled","inputs":[{"name":"moduleTypeId","type":"uint256","indexed":true,"internalType":"uint256"},{"name":"module","type":"address","indexed":true,"internalType":"address"}],"anonymous":false},{"type":"event","name":"ModuleUninstalled","inputs":[{"name":"moduleTypeId","type":"uint256","indexed":true,"internalType":"uint256"},{"name":"module","type":"address","indexed":true,"internalType":"address"}],"anonymous":false},{"type":"event","name":"OwnerChanged","inputs":[{"name":"oldOwner","type":"address","indexed":true,"internalType":"address"},{"name":"newOwner","type":"address","indexed":true,"internalType":"address"}],"anonymous":false},{"type":"event","name":"P256GuardianAdded","inputs":[{"name":"index","type":"uint8","indexed":true,"internalType":"uint8"},{"name":"x","type":"bytes32","indexed":false,"internalType":"bytes32"},{"name":"y","type":"bytes32","indexed":false,"internalType":"bytes32"}],"anonymous":false},{"type":"event","name":"RecoveryApproved","inputs":[{"name":"newOwner","type":"address","indexed":true,"internalType":"address"},{"name":"approvedBy","type":"address","indexed":true,"internalType":"address"},{"name":"approvalCount","type":"uint256","indexed":false,"internalType":"uint256"},{"name":"guardianIdx","type":"uint8","indexed":false,"internalType":"uint8"}],"anonymous":false},{"type":"event","name":"RecoveryCancelVoted","inputs":[{"name":"votedBy","type":"address","indexed":true,"internalType":"address"},{"name":"cancelCount","type":"uint256","indexed":false,"internalType":"uint256"},{"name":"guardianIdx","type":"uint8","indexed":false,"internalType":"uint8"}],"anonymous":false},{"type":"event","name":"RecoveryCancelled","inputs":[],"anonymous":false},{"type":"event","name":"RecoveryExecuted","inputs":[{"name":"oldOwner","type":"address","indexed":true,"internalType":"address"},{"name":"newOwner","type":"address","indexed":true,"internalType":"address"}],"anonymous":false},{"type":"event","name":"RecoveryProposed","inputs":[{"name":"newOwner","type":"address","indexed":true,"internalType":"address"},{"name":"proposedBy","type":"address","indexed":true,"internalType":"address"},{"name":"guardianIdx","type":"uint8","indexed":false,"internalType":"uint8"}],"anonymous":false},{"type":"event","name":"TierLimitsSet","inputs":[{"name":"tier1","type":"uint256","indexed":false,"internalType":"uint256"},{"name":"tier2","type":"uint256","indexed":false,"internalType":"uint256"}],"anonymous":false},{"type":"event","name":"WeightChangeApproved","inputs":[{"name":"approvedBy","type":"address","indexed":true,"internalType":"address"},{"name":"approvalCount","type":"uint256","indexed":false,"internalType":"uint256"}],"anonymous":false},{"type":"event","name":"WeightChangeCancelled","inputs":[],"anonymous":false},{"type":"event","name":"WeightChangeExecuted","inputs":[{"name":"oldConfig","type":"tuple","indexed":false,"internalType":"struct AAStarAgentStorageLayout.WeightConfig","components":[{"name":"passkeyWeight","type":"uint8","internalType":"uint8"},{"name":"ecdsaWeight","type":"uint8","internalType":"uint8"},{"name":"blsWeight","type":"uint8","internalType":"uint8"},{"name":"guardian0Weight","type":"uint8","internalType":"uint8"},{"name":"guardian1Weight","type":"uint8","internalType":"uint8"},{"name":"guardian2Weight","type":"uint8","internalType":"uint8"},{"name":"_padding","type":"uint8","internalType":"uint8"},{"name":"tier1Threshold","type":"uint8","internalType":"uint8"},{"name":"tier2Threshold","type":"uint8","internalType":"uint8"},{"name":"tier3Threshold","type":"uint8","internalType":"uint8"}]},{"name":"newConfig","type":"tuple","indexed":false,"internalType":"struct AAStarAgentStorageLayout.WeightConfig","components":[{"name":"passkeyWeight","type":"uint8","internalType":"uint8"},{"name":"ecdsaWeight","type":"uint8","internalType":"uint8"},{"name":"blsWeight","type":"uint8","internalType":"uint8"},{"name":"guardian0Weight","type":"uint8","internalType":"uint8"},{"name":"guardian1Weight","type":"uint8","internalType":"uint8"},{"name":"guardian2Weight","type":"uint8","internalType":"uint8"},{"name":"_padding","type":"uint8","internalType":"uint8"},{"name":"tier1Threshold","type":"uint8","internalType":"uint8"},{"name":"tier2Threshold","type":"uint8","internalType":"uint8"},{"name":"tier3Threshold","type":"uint8","internalType":"uint8"}]}],"anonymous":false},{"type":"event","name":"WeightChangeProposed","inputs":[{"name":"proposed","type":"tuple","indexed":false,"internalType":"struct AAStarAgentStorageLayout.WeightConfig","components":[{"name":"passkeyWeight","type":"uint8","internalType":"uint8"},{"name":"ecdsaWeight","type":"uint8","internalType":"uint8"},{"name":"blsWeight","type":"uint8","internalType":"uint8"},{"name":"guardian0Weight","type":"uint8","internalType":"uint8"},{"name":"guardian1Weight","type":"uint8","internalType":"uint8"},{"name":"guardian2Weight","type":"uint8","internalType":"uint8"},{"name":"_padding","type":"uint8","internalType":"uint8"},{"name":"tier1Threshold","type":"uint8","internalType":"uint8"},{"name":"tier2Threshold","type":"uint8","internalType":"uint8"},{"name":"tier3Threshold","type":"uint8","internalType":"uint8"}]},{"name":"proposedBy","type":"address","indexed":true,"internalType":"address"}],"anonymous":false},{"type":"event","name":"WeightConfigUpdated","inputs":[{"name":"config","type":"tuple","indexed":false,"internalType":"struct AAStarAgentStorageLayout.WeightConfig","components":[{"name":"passkeyWeight","type":"uint8","internalType":"uint8"},{"name":"ecdsaWeight","type":"uint8","internalType":"uint8"},{"name":"blsWeight","type":"uint8","internalType":"uint8"},{"name":"guardian0Weight","type":"uint8","internalType":"uint8"},{"name":"guardian1Weight","type":"uint8","internalType":"uint8"},{"name":"guardian2Weight","type":"uint8","internalType":"uint8"},{"name":"_padding","type":"uint8","internalType":"uint8"},{"name":"tier1Threshold","type":"uint8","internalType":"uint8"},{"name":"tier2Threshold","type":"uint8","internalType":"uint8"},{"name":"tier3Threshold","type":"uint8","internalType":"uint8"}]}],"anonymous":false},{"type":"error","name":"AgentRegistrationFailed","inputs":[]},{"type":"error","name":"AlreadyApproved","inputs":[]},{"type":"error","name":"AlreadyCancelVoted","inputs":[]},{"type":"error","name":"CannotIncreaseTierLimit","inputs":[]},{"type":"error","name":"DuplicateGuardianSig","inputs":[]},{"type":"error","name":"DuplicateP256GuardianKey","inputs":[]},{"type":"error","name":"ECDSAInvalidSignature","inputs":[]},{"type":"error","name":"ECDSAInvalidSignatureLength","inputs":[{"name":"length","type":"uint256","internalType":"uint256"}]},{"type":"error","name":"ECDSAInvalidSignatureS","inputs":[{"name":"s","type":"bytes32","internalType":"bytes32"}]},{"type":"error","name":"GuardianAlreadySet","inputs":[]},{"type":"error","name":"IdentityRegistrationFailed","inputs":[]},{"type":"error","name":"InsecureWeightConfig","inputs":[]},{"type":"error","name":"InstallModuleUnauthorized","inputs":[]},{"type":"error","name":"InsufficientGuardianApprovals","inputs":[]},{"type":"error","name":"InvalidAuthenticatorData","inputs":[]},{"type":"error","name":"InvalidGuardian","inputs":[]},{"type":"error","name":"InvalidGuardianSignature","inputs":[]},{"type":"error","name":"InvalidInitialization","inputs":[]},{"type":"error","name":"InvalidModuleType","inputs":[]},{"type":"error","name":"InvalidNewOwner","inputs":[]},{"type":"error","name":"InvalidP256GuardianKey","inputs":[]},{"type":"error","name":"InvalidP256GuardianSignature","inputs":[{"name":"gIdx","type":"uint8","internalType":"uint8"}]},{"type":"error","name":"InvalidTierConfig","inputs":[]},{"type":"error","name":"MaxGuardiansReached","inputs":[]},{"type":"error","name":"MinGuardianRequired","inputs":[]},{"type":"error","name":"ModuleAlreadyInstalled","inputs":[]},{"type":"error","name":"ModuleInstallAuthChanged","inputs":[]},{"type":"error","name":"ModuleInstallCallbackFailed","inputs":[{"name":"moduleTypeId","type":"uint256","internalType":"uint256"},{"name":"module","type":"address","internalType":"address"}]},{"type":"error","name":"ModuleInstallDataMismatch","inputs":[]},{"type":"error","name":"ModuleInstallProposalExists","inputs":[]},{"type":"error","name":"ModuleInstallProposalExpired","inputs":[]},{"type":"error","name":"ModuleInstallTimelockDisabled","inputs":[]},{"type":"error","name":"ModuleInstallTimelockNotExpired","inputs":[]},{"type":"error","name":"ModuleInstallTimelockTooLong","inputs":[]},{"type":"error","name":"ModuleInvalid","inputs":[]},{"type":"error","name":"ModuleNotInstalled","inputs":[]},{"type":"error","name":"NoActiveRecovery","inputs":[]},{"type":"error","name":"NoModuleInstallProposal","inputs":[]},{"type":"error","name":"NoWeightChangeProposal","inputs":[]},{"type":"error","name":"NotGuardian","inputs":[]},{"type":"error","name":"NotInitializing","inputs":[]},{"type":"error","name":"NotOwner","inputs":[]},{"type":"error","name":"NotOwnerOrEntryPoint","inputs":[]},{"type":"error","name":"RecoveryAlreadyActive","inputs":[]},{"type":"error","name":"RecoveryAlreadyProposed","inputs":[]},{"type":"error","name":"RecoveryNotApproved","inputs":[]},{"type":"error","name":"RecoveryTimelockNotExpired","inputs":[]},{"type":"error","name":"Reentrancy","inputs":[]},{"type":"error","name":"TierLimitSigExpired","inputs":[]},{"type":"error","name":"UnauthorizedRegistry","inputs":[]},{"type":"error","name":"UnsupportedChain","inputs":[{"name":"chainId","type":"uint256","internalType":"uint256"}]},{"type":"error","name":"UseGuardianConsensus","inputs":[]},{"type":"error","name":"WeakeningRequiresProposal","inputs":[]},{"type":"error","name":"WeightChangeAlreadyApproved","inputs":[]},{"type":"error","name":"WeightChangeNotApproved","inputs":[]},{"type":"error","name":"WeightChangePending","inputs":[]},{"type":"error","name":"WeightChangeTimelockNotExpired","inputs":[]}],"bytecode":{"object":"0x608080604052346015576155c7908161001a8239f35b5f80fdfe60806040526004361015610011575f80fd5b5f3560e01c806304f79674146102e4578063085aa197146102df5780630ba234d6146102da57806310d47802146102d55780631110ac2e146102d057806320617b94146102cb57806320c5a3e1146102c6578063293e07f2146102c1578063353f0860146102bc57806335905bb0146102b75780633a5381b5146102b257806343538f9c146102ad57806347a90550146102a85780634bc15d2b146102a357806356dc31d01461029e5780635f9613dd14610299578063642c79891461029457806367e3afe71461028f5780636b56c6541461028a5780636e7953331461028557806379e26729146102805780637bea8f761461027b5780637ceab3b1146102765780637ee76082146102715780638450a9281461026c578063863ee512146102675780638abb1c2a146102625780638da5cb5b1461025d5780638dbbce84146102585780638efdc881146102535780639517e29f1461024e5780639bbbb8ae14610249578063a5b915b514610244578063a71763a81461023f578063b0d691fe1461023a578063b5cb7bb814610235578063b60295e114610230578063b61355961461022b578063c4bb056614610226578063c8175b3f14610221578063cc2b82d91461021c578063d99b0a3614610217578063dbaf0cc314610212578063f9c391f61461020d5763fcae8d3814610208575f80fd5b613072565b612fb8565b612f9b565b612e2f565b612d94565b612d77565b612d5a565b612d3d565b612c76565b612c37565b612c12565b612999565b61286e565b61254b565b6121ea565b61218b565b612122565b6120fc565b611e34565b611e17565b611ddc565b611da8565b611d82565b611d14565b6118bf565b6117fe565b61171e565b611609565b6113f6565b611355565b61132f565b610f5c565b610e92565b610e5b565b610e35565b610d26565b610bd5565b610ab8565b610965565b61089d565b61077d565b61047e565b61040d565b610376565b34610366576040366003190112610366576004356024356001600160a01b03600154163303610357576001600160a01b036012541661034857600260ff600c5460a01c161015610339576103379161400a565b005b63366c488960e11b5f5260045ffd5b63372a886760e11b5f5260045ffd5b6330cd747160e01b5f5260045ffd5b5f80fd5b5f91031261036657565b565b34610366575f366003190112610366576016546040805160ff8084168252600884901c8116602080840191909152601085901c821683850152601885901c8216606084015284901c81166080830152602884901c811660a0830152603084901c811660c0830152603884901c811660e08301529183901c821661010082015260489290921c166101208201528061014081015b0390f35b34610366575f366003190112610366576001600160a01b03601254161561045e5761043733614108565b601554600160ff83161b1661044f5761033790614159565b630f5ff7bf60e01b5f5260045ffd5b628267d160e81b5f5260045ffd5b61014090600319011261036657600490565b346103665761048c3661046c565b6001600160a01b03600154163303610357576104a781614209565b6104af611be1565b60ff60e082015116151590816106bc575b506106ad5760185461069e576106998161050f7f0c37cb722e39215324249ac820b21073307d8cf91ab4281713d68e95e9c7090a93356104ff8161072d565b60ff1660ff196016541617601655565b61053760208201356105208161072d565b61ff006016549160081b169061ff00191617601655565b61056160408201356105488161072d565b62ff00006016549160101b169062ff0000191617601655565b61058d60608201356105728161072d565b63ff0000006016549160181b169063ff000000191617601655565b6105b961059c60808301613173565b64ff000000006016549160201b169064ff00000000191617601655565b6105e36105c860a08301613173565b60ff60281b6016549160281b169060ff60281b191617601655565b61060d6105f260c08301613173565b60ff60301b6016549160301b169060ff60301b191617601655565b61063761061c60e08301613173565b60ff60381b6016549160381b169060ff60381b191617601655565b6106626106476101008301613173565b60ff60401b6016549160401b169060ff60401b191617601655565b61068d6106726101208301613173565b60ff60481b6016549160481b169060ff60481b191617601655565b60405191829182613180565b0390a1005b63c30fc6f560e01b5f5260045ffd5b630b83b16f60e21b5f5260045ffd5b6106d191506106cb36846130b4565b906143a6565b5f6104c0565b600435906001600160a01b038216820361036657565b602435906001600160a01b038216820361036657565b604435906001600160a01b038216820361036657565b35906001600160a01b038216820361036657565b60ff81160361036657565b606435906103748261072d565b35906103748261072d565b9181601f84011215610366578235916001600160401b038311610366576020838186019501011161036657565b34610366576060366003190112610366576107966106d7565b6024356107a28161072d565b6044356001600160401b038111610366576107c1903690600401610750565b6107cc8492946144f1565b60ff600c5460a01c1660ff841610801590610851575b610842576026546040805160208101929092526001600160a01b038416908201526103379461083d9261082e919061082784606081015b03601f198101865285611b92565b3691613293565b6108366132c9565b90856145a8565b61467e565b63a6c1146b60e01b5f5260045ffd5b5061085b8361458f565b156107e2565b9060406003198301126103665760043561087a8161072d565b91602435906001600160401b0382116103665761089991600401610750565b9091565b34610366576108ab36610861565b91906108bf6012546001600160a01b031690565b6001600160a01b0381161561045e57600c546108e29060a01c60ff165b60ff1690565b60ff84161080159061094f575b61084257601554600160ff85161b1661044f5761093b61094a9261033795610827602654610819604051968792602084019092916001600160a01b036020916040840195845216910152565b6109436132f7565b90846145a8565b614159565b5061096061095c8461458f565b1590565b6108ef565b34610366575f3660031901126103665761097d613324565b6001600160a01b0361099682516001600160a01b031690565b161561045e576109a9602082015161336d565b4210610aa95760026109be6040830151614757565b10610a9a576001600160a01b0380610a496109e16001546001600160a01b031690565b93610a146109f682516001600160a01b031690565b6001600160a01b03166001600160601b0360a01b6001541617600155565b610a295f6012555f6013555f6014555f601555565b610a3c610a376026546133c9565b602655565b516001600160a01b031690565b921691169081817f60f9f98be64687700419cfa6fdd7877bc88c6daeb10bc664a2be9fdd6b0c79215f80a37fb532073b38c83145e3e5135377a08bf9aab55bc0fd7c1179cd4fb995d2a5159c5f80a3005b631cea8e5960e11b5f5260045ffd5b63552067e360e11b5f5260045ffd5b3461036657608036600319011261036657600435610ad46106ed565b90610add610703565b6064356001600160401b03811161036657610afc903690600401610750565b906001600160a01b03600154163303610357576001600160a01b0385169485158015610bc4575b61084257833b15610bb5575f92610b648493610b566040519384926020840196630b93497160e21b8852602485016133f7565b03601f198101835282611b92565b519082855af1610b72613417565b5015610bb5576040516001600160a01b0390911681527fc8982c1ad4646a1ed6bb40061ac7f2a6aaffef7f2e096aa9805cf705fa12933b9080602081015b0390a3005b6371a31c2760e01b5f5260045ffd5b506001600160a01b03841615610b23565b3461036657604036600319011261036657610bee6106d7565b6024356001600160401b03811161036657610c0d903690600401610750565b916001600160a01b03600154163303610357575f5c610d19576001600160a01b039060015f5d610c3c8161477b565b16604051926379614c5f60e11b845260208480610c5d848760048401613455565b03815f865af1928315610d1457610409945f94610cbf575b5083917f169142414aeecec3d3dfa03ef8b7d72d56023ead068694f563affe4276792bed91610ca960405192839283613455565b0390a35f805d6040519081529081906020820190565b7f169142414aeecec3d3dfa03ef8b7d72d56023ead068694f563affe4276792bed91929450610d059060203d602011610d0d575b610cfd8183611b92565b810190613446565b939190610c75565b503d610cf3565b613466565b63ab143c065f526004601cfd5b34610366575f36600319011261036657610d3e613471565b60208101805115610e2657610d538151613382565b4211610e26576002610d686040840151614757565b10610e1757610d77905161336d565b4210610e08576106997f0c37cb722e39215324249ac820b21073307d8cf91ab4281713d68e95e9c7090a917fc94d426438944eb97ead040cba3930306dd959e6f9382bf215ad45427c03ecb6610dcb611be1565b610dd583516134c5565b610de65f6017555f6018555f601955565b825190610df860405192839283613677565b0390a15160405191829182613697565b6356176dfb60e11b5f5260045ffd5b631e10a99760e31b5f5260045ffd5b631e142ec160e01b5f5260045ffd5b34610366575f3660031901126103665760206001600160a01b0360025416604051908152f35b3461036657602036600319011261036657610e80600435610e7b8161072d565b6136a8565b60408051928352602083019190915290f35b3461036657610ea036610861565b9190610eb46012546001600160a01b031690565b6001600160a01b0381161561045e57600c54610ed59060a01c60ff166108dc565b60ff841610801590610f4a575b61084257601454600160ff85161b16610f3b57610f2e610f369261033795610827602654610819604051968792602084019092916001600160a01b036020916040840195845216910152565b6109436136ef565b6147d5565b63080fc0bd60e11b5f5260045ffd5b50610f5761095c8461458f565b610ee2565b34610366576020366003190112610366576004356001600160401b03811161036657610f8c903690600401610750565b905f5c610d195760015f5d610f9f61371d565b9064ffffffffff610fb8604084015164ffffffffff1690565b16156113205760608201610fde610fd4825164ffffffffff1690565b64ffffffffff1690565b421061131157610ff9610fd4610ffe925164ffffffffff1690565b613382565b42116113025761100c61483a565b60a0830151036112f357611021368483613293565b602081519101206080830151036112e4576110546110466108dc602085015160ff1690565b92516001600160a01b031690565b906001600160a01b03821693841580156112db575b6112cc576110a361109c84611086875f52600660205260405f2090565b906001600160a01b03165f5260205260405f2090565b5460ff1690565b611295576004841480806112a4575b6112955760015f5260066020526110ec61109c857f3e5fec24aa4dc4e5aee2e025e51e1392c72a2500577559fae9665c6d52bd6a31611086565b908115611257575b8115611219575b61112161111486611086895f52600660205260405f2090565b805460ff19166001179055565b6111f3575b6111375f601d555f601e555f601f55565b1561118f575b50505081817fd21d0b289f126c4b473ea641963e766833c2f13866e4ff480abd787c100ef1235f80a37fcb23826c065976de3d72ab586bb16e6910ad23028abf0885a015fa54face86b35f80a35f805d005b5f91610b566111b7849360405192839160208301956306d61fe760e41b875260248401613455565b519082855af16111c5613417565b50156111d257808061113d565b63f45e530b60e01b5f526004919091526001600160a01b031660245260445ffd5b60078054610100600160a81b031916600886901b610100600160a81b0316179055611126565b60045f526006602052905061125161109c857fc5069e24aaadb2addc3e52e868fcf3f4f8acf5a87e24300992fd4540c2a87eed611086565b906110fb565b60025f526006602052905061128f61109c857f8819ef417987f8ae7a81f42cdfb18815282fe989326fbff903d13cf0e03ace29611086565b906110f4565b631261bbf160e11b5f5260045ffd5b506007546112c59060081c6001600160a01b03165b6001600160a01b031690565b15156110b2565b6374be437f60e01b5f5260045ffd5b50823b15611069565b63253ee84960e01b5f5260045ffd5b637470caed60e11b5f5260045ffd5b6333afc34b60e01b5f5260045ffd5b6319c3ad6960e31b5f5260045ffd5b6369cc141f60e01b5f5260045ffd5b34610366575f3660031901126103665760206001600160a01b0360055416604051908152f35b34610366575f3660031901126103665760185415610e26576001600160a01b036001541633036113b7575b6113915f6017555f6018555f601955565b7f576deb2334d64aacc3de78fdc843b12c4601431d7d7546f8ef6ff413d18ad8e75f80a1005b6113c033614108565b50611380565b9181601f84011215610366578235916001600160401b038311610366576020808501948460051b01011161036657565b346103665760a0366003190112610366576044356024356004356064356001600160401b0381116103665761142f9036906004016113c6565b6084356001600160401b0381116103665761144e9036906004016113c6565b90926001600160a01b036001541633036103575785151580611600575b6115f1578642116115e25781830361155e576002831061155e5790610b566114bc601095949554986040519283918a8a8d602086019094939260609260808301968352602083015260408201520152565b5f945f946114d36108dc600c5460ff9060a01c1690565b915b80871061156d578a8a8a60026114ea8c614757565b1061155e5761152161151c7fcfe045f2bad73057c49e23a745cb13c8b763723eeb93336c01c3bcb32cb1fc91946133c9565b601055565b611533600160ff196011541617601155565b61153c81600a55565b61154582600b55565b6040805191825260208201929092529081908101610699565b63016730a760e41b5f5260045ffd5b9091929394959661158761158289848a6137bb565b613173565b978460ff8a16101561084257600160ff8a161b8083166115d357866115c791600194179a6115b9610827858c8a6137d0565b6115c1613811565b916145a8565b019594939291906114d5565b63a27fbc6360e01b5f5260045ffd5b632a091a3360e11b5f5260045ffd5b639100d34760e01b5f5260045ffd5b5085851161146b565b346103665760a0366003190112610366576116226106d7565b6024359061162e610703565b916064356084356001600160401b03811161036657611651903690600401610750565b90916001600160a01b03600154163303610357575f5c610d195760015f5d6116788561477b565b6001600160a01b038616948515611710576001600160a01b031695863b15610366576116bb5f93604051958694859463168f7ad760e11b86528960048701613841565b038183885af18015610d14576116f6575b507faadd69bae4c5060e9be224899997360e78e4ee632c9951aa0055eeeb5bfc66625f80a45f805d005b806117045f61170a93611b92565b8061036a565b5f6116cc565b6270251360e91b5f5260045ffd5b346103665761172c3661046c565b6001600160a01b036001541633036103575761174781614209565b61175f61095c611755611be1565b6106cb36856130b4565b6106ad5760185461069e576001600160a01b036117846012546001600160a01b031690565b16610348576117b1611794611bb3565b61179e36846130b4565b81524260208201525f604082015261386d565b7fba5c9da7994a2da6979c6d04d134da98d13c8cd4b70710bfc12400a72cb90072604051806117e1339482613180565b0390a2005b80600f0b0361036657565b60443590610374826117e6565b3461036657610120366003190112610366576118186106d7565b602435906118246117f1565b61182c610738565b926084356001600160401b0381116103665761184c903690600401610750565b9060a4356001600160401b0381116103665761186c903690600401610750565b9060c4356001600160401b0381116103665761188c903690600401610750565b94909360e435996001600160401b038b11610366576118b26103379b3690600401610750565b999098610104359b613a29565b34610366576060366003190112610366576118d86106d7565b6024356001600160401b038111610366576118f79036906004016113c6565b6044929192356001600160401b038111610366576119199036906004016113c6565b919093600154926001600160a01b0384163303610357576001600160a01b0361194a6012546001600160a01b031690565b16610348576001600160a01b038516938415908115611b27575b508015611b1c575b61084257600c5460a01c60ff1695600360ff88161015611b0d575f9660ff16965b8760ff821610611ae1575081840361155e576002841061155e5792919060275496604051906119e8826119da8a8c602084019092916001600160a01b036020916040840195845216910152565b03601f198101845283611b92565b5f955f955b808710611a86578a8a8a6002611a028c614757565b1061155e57611a30611a6792611a22611a1d610337966133c9565b602755565b600c5460a01c60ff166149fa565b600c5460a01c60ff169060ff82167feca9cd482b52ddd909a1a2ffcceae1b6dd76b5491ec997d8d9ac05c6426fa3445f80a3613ba4565b600c805460ff60a01b191660a09290921b60ff60a01b16919091179055565b90919293949596611a9b61158289848a6137bb565b978460ff8a16101561084257600160ff8a161b8083166115d35786611ad591600194179a611acd610827858c8a6137d0565b6115c1613b7a565b019594939291906119ed565b85611aee6112b983614922565b14611afe5760010160ff1661198d565b630536824360e41b5f5260045ffd5b636fe1a40d60e11b5f5260045ffd5b50617026841461196c565b611b3a91506001600160a01b03166112b9565b84145f611964565b634e487b7160e01b5f52604160045260245ffd5b61014081019081106001600160401b03821117611b7257604052565b611b42565b608081019081106001600160401b03821117611b7257604052565b90601f801991011681019081106001600160401b03821117611b7257604052565b60405190610374606083611b92565b6040519061037460c083611b92565b6040519061037461014083611b92565b60405190611bee82611b56565b61037482610120611c8360165460ff808216168452611c1e611c148260ff9060081c1690565b60ff166020860152565b60ff601082901c16604085015260ff601882901c16606085015260ff602082901c16608085015260ff602882901c1660a085015260ff603082901c1660c085015260ff603882901c1660e085015260ff604082901c1661010085015260481c60ff1690565b60ff16910152565b906101208061037493611ca184825160ff169052565b60208181015160ff169085015260408181015160ff169085015260608181015160ff169085015260808181015160ff169085015260a08181015160ff169085015260c08181015160ff169085015260e08181015160ff16908501526101008181015160ff1690850152015160ff16910152565b34610366575f36600319011261036657610180604051611d3381611b56565b60175460ff81168252611d6090611d55905b611c1e600882901c60ff16611c14565b60ff16610120830152565b60185460195490611d746040518094611c8b565b610140830152610160820152f35b34610366575f3660031901126103665760206001600160a01b0360045416604051908152f35b3461036657602036600319011261036657610337611dc46106d7565b611dcd816144f1565b611dd633614108565b9061467e565b346103665760203660031901126103665760ff600435611dfb8161072d565b165f52601a602052602060ff60405f2054166040519015158152f35b34610366575f366003190112610366576020600854604051908152f35b3461036657606036600319011261036657600435611e518161072d565b6024356001600160401b03811161036657611e709036906004016113c6565b91906044356001600160401b03811161036657611e919036906004016113c6565b936001600160a01b03600154163303610357576001600160a01b03611ebe6012546001600160a01b031690565b1661034857600c5460a01c60ff16600260ff821611156120ed5760ff169260ff851695848710156108425780830361155e576002831061155e5790611f529493929186611f0a81614922565b95611f14826147a6565b600f54604080516020810183905260ff909616908601526001600160a01b038a166060860152608085019290925260a0840152978260c081016119da565b5f955f955b808710612092578b8b8b8b6002611f6d8d614757565b1061155e57611f8b611f866001600160a01b03936133c9565b600f55565b16906170268214612084575b611fb26108dc611fad600c5460ff9060a01c1690565b613be2565b60ff82161015612026576001816170266001600160a01b03611fdd611fd860ff96613bf4565b614922565b611fe781856149fa565b1614611ff5575b0116611f97565b61201061200961200483613bf4565b6147a6565b9083614a86565b61202161201c82613bf4565b614a57565b611fee565b509061204361203e611fad600c5460ff9060a01c1690565b614960565b61205e611a67612059600c5460ff9060a01c1690565b613c06565b7f21d14a63615c145863fb5004c412ccf4ba2439b31bfd93baf5892142417ae5bf5f80a3005b61208d81614a57565b611f97565b909192939495966120a761158289848a6137bb565b978460ff8a16101561084257600160ff8a161b8083166115d357866120e191600194179a6120d9610827858c8a6137d0565b6115c1613bb5565b01959493929190611f57565b631b5f87d960e11b5f5260045ffd5b34610366575f3660031901126103665760206001600160a01b0360015416604051908152f35b34610366575f3660031901126103665760a061213c61371d565b6001600160a01b038151169060ff6020820151169064ffffffffff604082015116608064ffffffffff606084015116920151926040519485526020850152604084015260608301526080820152f35b34610366575f366003190112610366576020600a54604051908152f35b606060031982011261036657600435916024356001600160a01b03811681036103665791604435906001600160401b0382116103665761089991600401610750565b34610366576121f8366121a8565b9291906001600160a01b036001541633141580612537575b612528576001600160a01b038216938415801561251f575b6112cc57600184141580612514575b80612509575b6124fa576007549160ff8316806124f2575060ff60465b16606481106124dc57506002915b601c54151583816124ce575b506124c5575b60ff8316156124b3578161228d916122de930190613d2c565b9391866122d189610b56885160208a0120601b549060405195869460208601909493926001600160a01b036060936080840197845216602083015260408201520152565b6122d9613d91565b614ac3565b905b6122f961109c84611086875f52600660205260405f2090565b611295576004841480918192612495575b506112955760015f52600660205261234561109c847f3e5fec24aa4dc4e5aee2e025e51e1392c72a2500577559fae9665c6d52bd6a31611086565b908115612457575b8115612419575b61236d61111485611086885f52600660205260405f2090565b6123f3575b156123b4575b505061238e612389601b5460010190565b601b55565b7fd21d0b289f126c4b473ea641963e766833c2f13866e4ff480abd787c100ef1235f80a3005b5f80916040516123d981610b5660208201946306d61fe760e41b865260248301613de1565b519082855af16123e7613417565b50156111d25780612378565b60078054610100600160a81b031916600885901b610100600160a81b0316179055612372565b60045f526006602052905061245161109c847fc5069e24aaadb2addc3e52e868fcf3f4f8acf5a87e24300992fd4540c2a87eed611086565b90612354565b60025f526006602052905061248f61109c847f8819ef417987f8ae7a81f42cdfb18815282fe989326fbff903d13cf0e03ace29611086565b9061234d565b6124ab915060081c6001600160a01b03166112b9565b15155f61230a565b6124bf92503691613293565b906122e0565b60029250612274565b6002915060ff16105f61226e565b6046116124ec5760015b91612262565b5f6124e6565b60ff90612254565b631092ef5760e11b5f5260045ffd5b50600484141561223d565b506002841415612237565b50823b15612228565b63142888bd60e21b5f5260045ffd5b506001600160a01b035f5416331415612210565b3461036657612559366121a8565b6001600160a01b0360019493929454163314158061285a575b61252857601c54801561284b5761258761371d565b64ffffffffff61259f604083015164ffffffffff1690565b1615159081612829575b5061281a576001600160a01b0383169485158015612811575b6112cc57600185141580612806575b806127fb575b6124fa576125f461109c85611086885f52600660205260405f2090565b6112955760048514806127db575b61129557836126c7610fd4610bb0957f961131cbbaf1bc03ad2365a2fb7e266c712005e704c38832cfb7a3014a3580fb9761277f9561264360075460ff1690565b60ff81166127d3575060ff60465b16606481106127bb57508a6002915b60ff8316156127a65761267d816126bf95966122d1930190613d2c565b9691929093610b56885160208a0120601b549060405195869460208601909493926001600160a01b036060936080840197845216602083015260408201520152565b945b426133bc565b92602081519101206126d761483a565b906126f26126e3611bc2565b6001600160a01b039094168452565b60ff8816602084015264ffffffffff42818116604086015290861660608501526080840182905260a08085018490529351601d805460a89390931b64ffffffffff60a81b16958b901b60ff60a01b166001600160a01b039092166001600160f81b031990931692909217179390931760d086901b64ffffffffff60d01b1617909255601e91909155601f55565b61278e612389601b5460010190565b60405164ffffffffff90911681529081906020820190565b925050506127b5913691613293565b946126c1565b6046116127cc578a60015b91612660565b8a5f6127c6565b60ff90612651565b506007546127f49060081c6001600160a01b03166112b9565b1515612602565b5060048514156125d7565b5060028514156125d1565b50833b156125c2565b635dc24fad60e11b5f5260045ffd5b606001516128429150610ff99064ffffffffff16610fd4565b4211155f6125a9565b631bce553b60e01b5f5260045ffd5b506001600160a01b035f5416331415612572565b34610366576040366003190112610366576004356024356001600160401b038111610366576128a1903690600401610750565b91906001600160a01b036001541633141580612985575b6125285762278d008211612976577f27db7bd98a100c6f2a3ebfce33cb9dd05ee5a152452bd211e8535ac2becb861a92601c54918284106128ff575b505061154582601c55565b612966916129606129336123899361291d600c5460ff9060a01c1690565b600260ff8216101561296d57935b810190613df2565b601b5460408051602081018b9052908101829052909492906129588160608101610b56565b6122d9613e39565b60010190565b5f806128f4565b5060029361292b565b637d9f233760e11b5f5260045ffd5b506001600160a01b035f54163314156128b8565b34610366576129a7366121a8565b6001600160a01b036001541633141580612bfe575b61252857600184141580612bf3575b80612be8575b6124fa57600c54612a38926129fb9160a01c60ff16600260ff82161015612bdf5792810190613df2565b90610b56612a30601b54604051928391898b602085016001600160a01b03604092959493606083019683521660208201520152565b6122d9613e6a565b612a5461095c61109c83611086865f52600660205260405f2090565b612bd05780612a84612a7a6001600160a01b0393611086865f52600660205260405f2090565b805460ff19169055565b6004831480612bb5575b612b9a575b60015f526006602052612ac961109c827f3e5fec24aa4dc4e5aee2e025e51e1392c72a2500577559fae9665c6d52bd6a31611086565b8015612b5e575b8015612b22575b15612b14575b612aec612389601b5460010190565b16907f341347516a9de374859dfda710fa4828b2d48cb57d4fbe4c1149612b8e02276e5f80a3005b612b1d81614b89565b612add565b5060045f526006602052612b5961109c827fc5069e24aaadb2addc3e52e868fcf3f4f8acf5a87e24300992fd4540c2a87eed611086565b612ad7565b5060025f526006602052612b9561109c827f8819ef417987f8ae7a81f42cdfb18815282fe989326fbff903d13cf0e03ace29611086565b612ad0565b612bb0610100600160a81b031960075416600755565b612a93565b5060075460081c6001600160a01b0316821681831614612a8e565b632a6f792960e01b5f5260045ffd5b5060029261292b565b5060048414156129d1565b5060028414156129cb565b506001600160a01b035f54163314156129bc565b34610366575f3660031901126103665760206001600160a01b035f5416604051908152f35b34610366575f3660031901126103665760806001600160a01b036012541660135460145460155491604051938452602084015260408301526060820152f35b34610366575f36600319011261036657612c8e61371d565b64ffffffffff6040820151161561132057612cb46112b96001546001600160a01b031690565b3303612d2e575b612ccc5f601d555f601e555f601f55565b612ceb612cdd602083015160ff1690565b91516001600160a01b031690565b6040513381526001600160a01b03919091169160ff16907ffc129a9cf9c86292bfb325ad90f24fea23449a3870fdaa024bbfbf1afdf3db31908060208101610bb0565b612d3733614108565b50612cbb565b34610366575f366003190112610366576020601054604051908152f35b34610366575f366003190112610366576020600954604051908152f35b34610366575f366003190112610366576020601c54604051908152f35b34610366575f366003190112610366576018548015610e2657612db690613382565b4211610e2657612dd2612dc833614108565b60ff600191161b90565b60195490808216612e205717601955612dec601954614757565b60405190815233907f15f128f27bdfb175cfbe98c20eeca3038a9ee15470ec88a4fbd5a16a20a732679080602081016117e1565b631ed65d7760e31b5f5260045ffd5b34610366576080366003190112610366576004356024356044356001600160401b03811161036657612e659036906004016113c6565b6064939193356001600160401b03811161036657612e879036906004016113c6565b6001600160a01b03600193929354163303610357576001600160a01b03612eb66012546001600160a01b031690565b166103485780820361155e576002821061155e579460279291925495604051612ef981610b5689898c602085016040919493926060820195825260208201520152565b5f945f94612f106108dc600c5460ff9060a01c1690565b915b808710612f40578a8a8a6002612f278c614757565b1061155e57612f3b611a1d610337946133c9565b61400a565b90919293949596612f5561158289848a6137bb565b978460ff8a16101561084257600160ff8a161b8083166115d35786612f8f91600194179a612f87610827858c8a6137d0565b6115c1613e98565b01959493929190612f12565b34610366575f366003190112610366576020600b54604051908152f35b346103665760a036600319011261036657612fd16106d7565b6024356044356001600160401b03811161036657612ff39036906004016113c6565b9190926064356001600160401b03811161036657613015903690600401610750565b90608435946001600160401b038611610366576104099661303d613045973690600401610750565b969095613f01565b604080516001600160401b039094168452600f9290920b602084015260ff16908201529081906060820190565b34610366575f366003190112610366576001600160a01b03601254161561045e5761309c33614108565b601454600160ff83161b16610f3b57610337906147d5565b9190826101409103126103665761316b6101206130cf611bd1565b936130d981610745565b85526130e760208201610745565b60208601526130f860408201610745565b604086015261310960608201610745565b606086015261311a60808201610745565b608086015261312b60a08201610745565b60a086015261313c60c08201610745565b60c086015261314d60e08201610745565b60e086015261315f6101008201610745565b61010086015201610745565b610120830152565b3561317d8161072d565b90565b61037490929192610120611c83816101408401966131a8856131a183610745565b60ff169052565b6131c16131b760208301610745565b60ff166020870152565b6131da6131d060408301610745565b60ff166040870152565b6131f36131e960608301610745565b60ff166060870152565b61320c61320260808301610745565b60ff166080870152565b61322561321b60a08301610745565b60ff1660a0870152565b61323e61323460c08301610745565b60ff1660c0870152565b61325761324d60e08301610745565b60ff1660e0870152565b6132726132676101008301610745565b60ff16610100870152565b01610745565b6001600160401b038111611b7257601f01601f191660200190565b92919261329f82613278565b916132ad6040519384611b92565b829481845281830111610366578281602093845f960137010152565b604051906132d8604083611b92565b601082526f50524f504f53455f5245434f5645525960801b6020830152565b60405190613306604083611b92565b600f82526e43414e43454c5f5245434f5645525960881b6020830152565b6040519061333182611b77565b6012546001600160a01b03168252601354602083015260145460408301526015546060830152565b634e487b7160e01b5f52601160045260245ffd5b906202a300820180921161337d57565b613359565b9062278d00820180921161337d57565b906003820180921161337d57565b906001820180921161337d57565b906002820180921161337d57565b9190820180921161337d57565b5f19811461337d5760010190565b908060209392818452848401375f828201840152601f01601f1916010190565b6040906001600160a01b0361317d959316815281602082015201916133d7565b3d15613441573d9061342882613278565b916134366040519384611b92565b82523d5f602084013e565b606090565b90816020910312610366575190565b91602061317d9381815201916133d7565b6040513d5f823e3d90fd5b60405190606082018281106001600160401b03821117611b72576040528160405161349b81611b56565b60175460ff811682526134b190611d5590611d45565b815260185460208201526040601954910152565b61365b610120610374926134ee6134dd825160ff1690565b60169060ff1660ff19825416179055565b6135176134ff602083015160ff1690565b60169061ff0082549160081b169061ff001916179055565b613542613528604083015160ff1690565b60169062ff000082549160101b169062ff00001916179055565b61356f613553606083015160ff1690565b60169063ff00000082549160181b169063ff0000001916179055565b61359e613580608083015160ff1690565b60169064ff0000000082549160201b169064ff000000001916179055565b6135cb6135af60a083015160ff1690565b60169060ff60281b82549160281b169060ff60281b1916179055565b6135f86135dc60c083015160ff1690565b60169060ff60301b82549160301b169060ff60301b1916179055565b61362561360960e083015160ff1690565b60169060ff60381b82549160381b169060ff60381b1916179055565b61365361363761010083015160ff1690565b60169060ff60401b82549160401b169060ff60401b1916179055565b015160ff1690565b60169060ff60481b82549160481b169060ff60481b1916179055565b9161014061037492949361369081610280810197611c8b565b0190611c8b565b610140810192916103749190611c8b565b60ff600c5460a01c1660ff8216108015906136d2575b6136cb57610899906147a6565b505f905f90565b506170266001600160a01b036136e783614922565b1614156136be565b604051906136fe604083611b92565b601082526f415050524f56455f5245434f5645525960801b6020830152565b6040519060c082018281106001600160401b03821117611b725760405281613795613787601d546001600160a01b038116845260ff8160a01c16602085015261377a64ffffffffff8260a81c16604086019064ffffffffff169052565b60d01c64ffffffffff1690565b64ffffffffff166060830152565b601e54608082015260a0601f54910152565b634e487b7160e01b5f52603260045260245ffd5b91908110156137cb5760051b0190565b6137a7565b91908110156137cb5760051b81013590601e19813603018212156103665701908135916001600160401b038311610366576020018236038113610366579190565b60405190613820604083611b92565b60128252714d4f444946595f544945525f4c494d49545360701b6020830152565b90926001600160a01b0360809361317d97958452166020830152604082015281606082015201916133d7565b604090613a1a6139fe610120835161389a613889825160ff1690565b60179060ff1660ff19825416179055565b6138c36138ab602083015160ff1690565b60179061ff0082549160081b169061ff001916179055565b6138ed6138d38783015160ff1690565b60179062ff000082549160101b169062ff00001916179055565b61391a6138fe606083015160ff1690565b60179063ff00000082549160181b169063ff0000001916179055565b61394961392b608083015160ff1690565b60179064ff0000000082549160201b169064ff000000001916179055565b61397661395a60a083015160ff1690565b60179060ff60281b82549160281b169060ff60281b1916179055565b6139a361398760c083015160ff1690565b60179060ff60301b82549160301b169060ff60301b1916179055565b6139d06139b460e083015160ff1690565b60179060ff60381b82549160381b169060ff60381b1916179055565b6136536139e261010083015160ff1690565b60179060ff60401b82549160401b169060ff60401b1916179055565b60179060ff60481b82549160481b169060ff60481b1916179055565b60208101516018550151601955565b9b9294969991979b9a909a989593986001600160a01b03600154163303610357575f5c610d19576001600160a01b039060015f5d613a6681614910565b169b8c3b15610366578c968c956040519c8d988998631e01b53f60e11b8a5260048a01528c600f0b60248a015260ff1660448901526064880161010090528c8b6101048a0190613ab5926133d7565b906003198983030160848a0152613acb926133d7565b906003198783030160a4880152613ae1926133d7565b906003198583030160c4860152613af7926133d7565b9060e483015203815a5f948591f1908115610d14577fee0112c63253e47e4ff7403776240bef35d82b6feba08ea6ecb20f8a4ab75e9294613b4492613b4c575b5060405193849384613b60565b0390a35f805d565b806117045f613b5a93611b92565b5f613b37565b60409061317d9492600f0b815281602082015201916133d7565b60405190613b89604083611b92565b600c82526b20a2222fa3aaa0a92224a0a760a11b6020830152565b60ff1660ff811461337d5760010190565b60405190613bc4604083611b92565b600f82526e2922a6a7ab22afa3aaa0a92224a0a760891b6020830152565b60ff5f199116019060ff821161337d57565b60ff60019116019060ff821161337d57565b60ff16801561337d575f190190565b6001600160401b038111611b725760051b60200190565b9080601f83011215610366578135613c4381613c15565b92613c516040519485611b92565b81845260208085019260051b82010192831161036657602001905b828210613c795750505090565b602080918335613c888161072d565b815201910190613c6c565b9080601f830112156103665781602061317d93359101613293565b9080601f83011215610366578135613cc581613c15565b92613cd36040519485611b92565b81845260208085019260051b820101918383116103665760208201905b838210613cff57505050505090565b81356001600160401b03811161036657602091613d2187848094880101613c93565b815201910190613cf0565b916060838303126103665782356001600160401b0381116103665782613d53918501613c2c565b9260208101356001600160401b0381116103665783613d73918301613cae565b9260408201356001600160401b0381116103665761317d9201613c93565b60405190613da0604083611b92565b600e82526d494e5354414c4c5f4d4f44554c4560901b6020830152565b805180835260209291819084018484015e5f828201840152601f01601f1916010190565b90602061317d928181520190613dbd565b9190916040818403126103665780356001600160401b0381116103665783613e1b918301613c2c565b9260208201356001600160401b0381116103665761317d9201613cae565b60405190613e48604083611b92565b60138252725345545f4d4f44554c455f54494d454c4f434b60681b6020830152565b60405190613e79604083611b92565b601082526f554e494e5354414c4c5f4d4f44554c4560801b6020830152565b60405190613ea7604083611b92565b601182527020a2222fa8191a9b2fa3aaa0a92224a0a760791b6020830152565b908160609103126103665780516001600160401b0381168103610366579160406020830151613ef5816117e6565b92015161317d8161072d565b959397969297949094613f1387614910565b88604051998a97631037774b60e31b8952608489019060048a0152608060248a01525260a4870193905f5b818110613fd657505050606096948694613f716001600160a01b03958795613f83956003198884030160448901526133d7565b848103600319016064860152916133d7565b0392165afa908115610d14575f5f935f93613f9f575b50929190565b91935050613fc5915060603d606011613fcf575b613fbd8183611b92565b810190613ec7565b929092915f613f99565b503d613fb3565b91959697509192936020806001926001600160a01b03613ff58a610719565b1681520196019101918a979695949392613f3e565b9081158015614100575b6140f157600c5460a01c60ff169160ff8316926003841015611b0d5760ff81165f5b8160ff8216106140a4575050906140798382846140747f2ab721df8af22606080fcc695d2c255bf7bfb356dbe68e84057a3e29678de3ec97966149a7565b614a86565b604080519182526020820192909252a2610374611a6761409f600c5460ff9060a01c1690565b613ba4565b6140ad8161458f565b6140bd575b60010160ff16614036565b83856140c8836147a6565b921491826140e7575b5050156140b257630f1b555960e11b5f5260045ffd5b149050855f6140d1565b639b27bc5360e01b5f5260045ffd5b508015614014565b600c5460a01c60ff1691905f5b8360ff82161061412e576377b6878160e11b5f5260045ffd5b61413781614922565b6001600160a01b038084169116146141545760010160ff16614115565b925050565b600290614173600160ff83161b6015541780601555614757565b907f85d108740bb57aaf934ce63690f939704d2ce4cd099bc9c8ac11cd38db40392b604051806141b53394868390929160ff6020916040840195845216910152565b0390a210156141c057565b6141d55f6012555f6013555f6014555f601555565b6141e06026546133c9565b6026557fedd770ee01b7c0ef4f503125eafdc2725536cbf32342dffcaa300d95a7cafce35f80a1565b60e081019060ff61421983613173565b16156143405761422881613173565b60ff6142366108dc85613173565b911610156143405761424a60208201613173565b60ff6142586108dc85613173565b911610156143405761426c60408201613173565b60ff61427a6108dc85613173565b911610156143405761428e60608201613173565b60ff61429c6108dc85613173565b91161015614340576142b060808201613173565b60ff6142be6108dc85613173565b91161015614340576142d260a08201613173565b60ff6142e06108dc85613173565b91161015614340576101008101916142fa6108dc84613173565b15159081614384575b5061434057610120016143186108dc82613173565b151580614364575b614340576108dc61433091613173565b1515908161434f575b5061434057565b63a59a415160e01b5f5260045ffd5b61435d91506108dc90613173565b155f614339565b5061436e81613173565b60ff61437c6108dc85613173565b911610614320565b905060ff61439d6108dc61439786613173565b93613173565b9116105f614303565b906143b2815160ff1690565b60ff6143c26108dc855160ff1690565b9116106144ea57602081015160ff1660ff6143e46108dc602086015160ff1690565b9116106144ea57604081015160ff1660ff6144066108dc604086015160ff1690565b9116106144ea57606081015160ff1660ff6144286108dc606086015160ff1690565b9116106144ea57608081015160ff1660ff61444a6108dc608086015160ff1690565b9116106144ea5760a081015160ff1660ff61446c6108dc60a086015160ff1690565b9116106144ea5760e081015160ff1660ff61448e6108dc60e086015160ff1690565b9116106144ea5761010081015160ff1660ff6144b26108dc61010086015160ff1690565b9116106144ea576144da6108dc6101206144d18160ff95015160ff1690565b94015160ff1690565b9116106144e5575f90565b600190565b5050600190565b6001600160a01b031680158015614572575b614563575f9061451c6108dc600c5460ff9060a01c1690565b915b8260ff821610614546575050506145406112b96012546001600160a01b031690565b61034857565b816145536112b983614922565b146145635760010160ff1661451e565b632a52b3c360e11b5f5260045ffd5b506145886112b96001546001600160a01b031690565b8114614503565b6001600160a01b036145a361702692614922565b161490565b9290916145b48461458f565b156145cd5761037493916145c791614bee565b90614dc8565b6146606001600160a01b039361465b6112b993610b5661462b6146669760405192839161461960208401966004885246604086015230606086015260a0608086015260c0850190613dbd565b838103601f190160a085015290613dbd565b5190207f19457468657265756d205369676e6564204d6573736167653a0a3332000000005f52601c52603c5f2090565b614bd8565b93614922565b91160361466f57565b6301ea06f160e21b5f5260045ffd5b600160ff83161b5f60606001600160a01b036040519461469d86611b77565b169384815242602082015283604082015201526001600160a01b0382166001600160601b0360a01b6012541617601255426013556014555f601555604051817f201c40b4643e8b76c330a24e1a20d94dd5f798a3654180da40a29c00c18fe3b8339280614714878291909160ff6020820193169052565b0390a3604080516001815260ff909316602084015233927f3e6e8da9cdbaf0d18a1123306c76e088d32bb5e76edabe32eaaa4ba7a50adb3791819081015b0390a3565b90815f925b6147635750565b9160018316810180911161337d579160011c8061475c565b6001600160a01b038061478d46614fc1565b1691160361479757565b633d6ca29960e21b5f5260045ffd5b60ff1680156147ca576001146147c0576024549060255490565b6022549060235490565b506020549060215490565b6147ec600160ff83161b6014541780601455614757565b6012546040805192835260ff909316602083015233926001600160a01b0391909116917f3e6e8da9cdbaf0d18a1123306c76e088d32bb5e76edabe32eaaa4ba7a50adb379181908101614752565b6001546001600160a01b0316600c54600d546001600160a01b031691600e546001600160a01b03169060205460215460225460235490602454926025549460405198899860208a019b6101608d01996001600160a01b03168d528c6001600160a01b0384166001600160a01b031690602001526001600160a01b031660408d01526001600160a01b031660608c015260a01c60ff1660ff1660808b015260a08a015260c089015260e088015261010087015261012086015261014085015203601f198101825261490a9082611b92565b51902090565b6001600160a01b038061478d46615021565b60ff16801561495057600114614941576001600160a01b03600e541690565b6001600160a01b03600d541690565b506001600160a01b03600c541690565b60ff1680156149945760011461498257600e80546001600160a01b0319169055565b600d80546001600160a01b0319169055565b50600c80546001600160a01b0319169055565b60ff1680156149e3576001146149cd57600e80546001600160a01b031916617026179055565b600d80546001600160a01b031916617026179055565b50600c80546001600160a01b031916617026179055565b9060ff6001600160a01b0392168015614a4057600114614a2a57166001600160601b0360a01b600e541617600e55565b166001600160601b0360a01b600d541617600d55565b50166001600160601b0360a01b600c541617600c55565b60ff168015614a7b57600114614a71575f6024555f602555565b5f6022555f602355565b505f6020555f602155565b60ff168015614aa657600114614a9e57602455602555565b602255602355565b50602055602155565b80518210156137cb5760209160051b010190565b9091938451845103614b4e5760ff8551911611614b4e57600c545f95948691614af19060a01c60ff166108dc565b915b8151881015614b5d57614b10614b098984614aaf565b5160ff1690565b978360ff8a161015614b4e57600160ff8a161b91828116614b4e578686600194614b4793179b614b40858c614aaf565b51906145a8565b0196614af3565b6336d708bd60e21b5f5260045ffd5b5050505050509050565b60405160609190614b788382611b92565b602b815291601f1901366020840137565b604051614b97602082611b92565b5f81525f9182918236602083013782604051614bc881610b566020820195638a91b0e360e01b875260248301613de1565b51925af150614bd5613417565b50565b61317d91614be591615081565b909291926150d9565b9061490a610b5691604051928391614c4c60208401966004885246604086015230606086015260c06080860152600d60e08601526c28191a9b2fa3aaa0a92224a0a760991b61010086015261010060a0860152610120850190613dbd565b838103601f190160c085015290613dbd565b81601f8201121561036657805190614c7582613278565b92614c836040519485611b92565b8284526020838301011161036657815f9260208093018386015e8301015290565b9160a0838303126103665782516001600160401b0381116103665782614ccb918501614c5e565b9260208101516001600160401b0381116103665783614ceb918301614c5e565b926040820151906001600160401b03821161036657614d0b918301614c5e565b916080606083015192015190565b8051602010156137cb5760400190565b8051601e10156137cb57603e0190565b8051601f10156137cb57603f0190565b9081518110156137cb570160200190565b60405190614d69606083611b92565b602482527f7b2274797065223a22776562617574686e2e676574222c226368616c6c656e6760208301526332911d1160e11b6040830152565b805191908290602001825e015f815290565b614dc19060209392614da2565b9081520190565b91610160815110614fab5780602080614de693518301019101614ca4565b9392602584969392965110614f9c576001614e1a614e14614e0687614d19565b516001600160f81b03191690565b60f81c90565b1615614f9c5780516020820120614e2f614d5a565b6020815191012003614f9c57614e67614e6d614e7992610b565f95614e67614e586020996151b6565b6040519687958b870190614da2565b90614da2565b60405191828092614da2565b039060025afa15610d14575f614ea2602092614e6d835191610b56604051938492888401614db4565b039060025afa15610d14575f51917f7fffffff800000007fffffffffffffffde737d56d38bcf4279dce5617e3192a88211614f8657915f9291614f1d8493610b56614eec886147a6565b906040519586946020860198899192608093969594919660a084019784526020840152604083015260608201520152565b51906101005afa614f2c613417565b9015908115614f79575b8115614f5a575b50614f455750565b6304ea2f1f60e31b5f5260ff1660045260245ffd5b6001915080602080614f7193518301019101613446565b14155f614f3d565b9050602081511090614f36565b6304ea2f1f60e31b5f5260ff841660045260245ffd5b637e49a3c960e11b5f5260045ffd5b6304ea2f1f60e31b5f5260ff831660045260245ffd5b90614fcb826153e7565b61500857614fd8826154e1565b614fef5750631874ab9360e31b5f5260045260245ffd5b738004a818bfb912233c491871b3d84c89a494bd9e9150565b738004a169fb4a3325136eb29fa0ceb6d2e539a4329150565b9061502b826153e7565b61506857615038826154e1565b61504f5750631874ab9360e31b5f5260045260245ffd5b738004b663056a597dffe9eccc1965a193b73887139150565b738004baa17c55a88189ae136b182e5fda19de9b639150565b81519190604183036150b1576150aa9250602082015190606060408401519301515f1a90615538565b9192909190565b50505f9160029190565b600411156150c557565b634e487b7160e01b5f52602160045260245ffd5b6150e2816150bb565b806150eb575050565b6150f4816150bb565b6001810361510b5763f645eedf60e01b5f5260045ffd5b615114816150bb565b6002810361512f575063fce698f760e01b5f5260045260245ffd5b8061513b6003926150bb565b146151435750565b6335e2f38360e21b5f5260045260245ffd5b60405190615164606083611b92565b604082527f6768696a6b6c6d6e6f707172737475767778797a303132333435363738392d5f6040837f4142434445464748494a4b4c4d4e4f505152535455565758595a61626364656660208201520152565b90610b566151d96151c5614b67565b936040519283916020830160209181520190565b6151e1615155565b835f925f5b601e81106152a757506152a492615295600f61529b94615276614e066152656003886152306108dc614e14614e0661522a6108dc614e069f614e06614e1491614d29565b94614d39565b9561525d61524a614e066152448560021c90565b8d614d49565b9e615254816133c9565b9f5f1a92614d49565b531660041b90565b61526f8460041c90565b1786614d49565b9761528d615283826133c9565b995f1a918c614d49565b531660021b90565b90614d49565b5f1a9184614d49565b53565b9091506152b48183614d49565b5160f81c6152c1826133a0565b6152cb9084614d49565b5160f81c6152d8836133ae565b6152e29085614d49565b5160f81c916152f5600282901c87614d49565b516001600160f81b0319169661530a816133c9565b975f1a90615318908b614d49565b536003166153269060041b90565b6153308260041c90565b1761533b9086614d49565b516001600160f81b03191695615350816133c9565b965f1a9061535e908a614d49565b53600f1661536c9060021b90565b6153768260061c90565b176153819085614d49565b516001600160f81b03191694615396816133c9565b955f1a906153a49089614d49565b53603f166153b29084614d49565b516001600160f81b031916936153c7816133c9565b945f1a906153d59088614d49565b536153df90613392565b9085916151e6565b600181149081156154d6575b81156154cb575b81156154bf575b81156154b3575b81156154a7575b811561549c575b811561548f575b8115615484575b8115615478575b811561546c575b8115615460575b8115615453575b811561544a575090565b61016891501490565b62028c5881149150615440565b61138881149150615439565b61e70881149150615432565b61a4ec8114915061542b565b606481149150615424565b620827508114915061541d565b603881149150615416565b61a86a8114915061540f565b61a4b181149150615408565b61210581149150615401565b6089811491506153fa565b600a811491506153f3565b62aa36a7811490811561552b575b811561551e575b8115615511575b8115615507575090565b6201388291501490565b62066eee811491506154fd565b62014a34811491506154f6565b62aa37dc811491506154ef565b91907f7fffffffffffffffffffffffffffffff5d576e7357a4501ddfe92f46681b20a084116155af579160209360809260ff5f9560405194855216868401526040830152606082015282805260015afa15610d14575f516001600160a01b038116156155a557905f905f90565b505f906001905f90565b5050505f916003919056fea164736f6c6343000821000a","linkReferences":{}},"methodIdentifiers":{"activeRecovery()":"b5cb7bb8","addGuardianWithMixedSigs(address,uint8[],bytes[])":"79e26729","addP256Guardian(bytes32,bytes32)":"04f79674","addP256GuardianWithMixedSigs(bytes32,bytes32,uint8[],bytes[])":"d99b0a36","approveRecovery()":"fcae8d38","approveRecoveryWithSig(uint8,bytes)":"47a90550","approveWeightChange()":"cc2b82d9","approvedAlgorithms(uint8)":"8450a928","bindERC8004AgentWallet(address,uint256,address,uint256,bytes)":"67e3afe7","cancelModuleInstall()":"b60295e1","cancelRecovery()":"0ba234d6","cancelRecoveryWithSig(uint8,bytes)":"20617b94","cancelWeightChange()":"5f9613dd","entryPoint()":"b0d691fe","executeModuleInstall(bytes)":"4bc15d2b","executeRecovery()":"20c5a3e1","executeWeightChange()":"35905bb0","getGuardianP256Key(uint8)":"43538f9c","guard()":"7ceab3b1","installModule(uint256,address,bytes)":"9517e29f","mintAgentIdentity(address,string)":"353f0860","modifyTierLimitsWithMixedGuardians(uint256,uint256,uint256,uint8[],bytes[])":"642c7989","moduleInstallTimelock()":"c8175b3f","owner()":"8da5cb5b","p256KeyX()":"863ee512","p256KeyY()":"c4bb0566","parserRegistry()":"56dc31d0","pendingModuleInstall()":"8dbbce84","pendingWeightChange()":"7bea8f76","proposeModuleInstall(uint256,address,bytes)":"9bbbb8ae","proposeRecovery(address)":"7ee76082","proposeRecoveryWithSig(address,uint8,bytes)":"1110ac2e","proposeWeightChange((uint8,uint8,uint8,uint8,uint8,uint8,uint8,uint8,uint8,uint8))":"6b56c654","queryAgentReputation(address,uint256,address[],string,string)":"f9c391f6","removeGuardianWithMixedSigs(uint8,uint8[],bytes[])":"8abb1c2a","setAgentWallet(uint256,address,address,bytes)":"293e07f2","setModuleInstallTimelock(uint256,bytes)":"a5b915b5","setWeightConfig((uint8,uint8,uint8,uint8,uint8,uint8,uint8,uint8,uint8,uint8))":"10d47802","submitAgentReputation(address,uint256,int128,uint8,string,string,string,string,bytes32)":"6e795333","tier1Limit()":"8efdc881","tier2Limit()":"dbaf0cc3","tierLimitNonce()":"b6135596","uninstallModule(uint256,address,bytes)":"a71763a8","validator()":"3a5381b5","weightConfig()":"085aa197"},"id":56}