{"abi":[{"type":"function","name":"activeRecovery","inputs":[],"outputs":[{"name":"newOwner","type":"address","internalType":"address"},{"name":"proposedAt","type":"uint256","internalType":"uint256"},{"name":"approvalBitmap","type":"uint256","internalType":"uint256"},{"name":"cancellationBitmap","type":"uint256","internalType":"uint256"}],"stateMutability":"view"},{"type":"function","name":"addGuardianWithMixedSigs","inputs":[{"name":"_guardian","type":"address","internalType":"address"},{"name":"signerIdxs","type":"uint8[]","internalType":"uint8[]"},{"name":"sigs","type":"bytes[]","internalType":"bytes[]"}],"outputs":[],"stateMutability":"nonpayable"},{"type":"function","name":"addP256Guardian","inputs":[{"name":"x","type":"bytes32","internalType":"bytes32"},{"name":"y","type":"bytes32","internalType":"bytes32"}],"outputs":[],"stateMutability":"nonpayable"},{"type":"function","name":"addP256GuardianWithMixedSigs","inputs":[{"name":"x","type":"bytes32","internalType":"bytes32"},{"name":"y","type":"bytes32","internalType":"bytes32"},{"name":"signerIdxs","type":"uint8[]","internalType":"uint8[]"},{"name":"sigs","type":"bytes[]","internalType":"bytes[]"}],"outputs":[],"stateMutability":"nonpayable"},{"type":"function","name":"approveRecovery","inputs":[],"outputs":[],"stateMutability":"nonpayable"},{"type":"function","name":"approveRecoveryWithSig","inputs":[{"name":"gIdx","type":"uint8","internalType":"uint8"},{"name":"sig","type":"bytes","internalType":"bytes"}],"outputs":[],"stateMutability":"nonpayable"},{"type":"function","name":"approveWeightChange","inputs":[],"outputs":[],"stateMutability":"nonpayable"},{"type":"function","name":"approvedAlgorithms","inputs":[{"name":"","type":"uint8","internalType":"uint8"}],"outputs":[{"name":"","type":"bool","internalType":"bool"}],"stateMutability":"view"},{"type":"function","name":"bindERC8004AgentWallet","inputs":[{"name":"identityRegistry","type":"address","internalType":"address"},{"name":"agentId","type":"uint256","internalType":"uint256"},{"name":"agentWallet","type":"address","internalType":"address"},{"name":"deadline","type":"uint256","internalType":"uint256"},{"name":"signature","type":"bytes","internalType":"bytes"}],"outputs":[],"stateMutability":"nonpayable"},{"type":"function","name":"cancelModuleInstall","inputs":[],"outputs":[],"stateMutability":"nonpayable"},{"type":"function","name":"cancelRecovery","inputs":[],"outputs":[],"stateMutability":"nonpayable"},{"type":"function","name":"cancelRecoveryWithSig","inputs":[{"name":"gIdx","type":"uint8","internalType":"uint8"},{"name":"sig","type":"bytes","internalType":"bytes"}],"outputs":[],"stateMutability":"nonpayable"},{"type":"function","name":"cancelWeightChange","inputs":[],"outputs":[],"stateMutability":"nonpayable"},{"type":"function","name":"entryPoint","inputs":[],"outputs":[{"name":"","type":"address","internalType":"address"}],"stateMutability":"view"},{"type":"function","name":"executeModuleInstall","inputs":[{"name":"moduleInitData","type":"bytes","internalType":"bytes"}],"outputs":[],"stateMutability":"nonpayable"},{"type":"function","name":"executeRecovery","inputs":[],"outputs":[],"stateMutability":"nonpayable"},{"type":"function","name":"executeWeightChange","inputs":[],"outputs":[],"stateMutability":"nonpayable"},{"type":"function","name":"getGuardianP256Key","inputs":[{"name":"index","type":"uint8","internalType":"uint8"}],"outputs":[{"name":"x","type":"bytes32","internalType":"bytes32"},{"name":"y","type":"bytes32","internalType":"bytes32"}],"stateMutability":"view"},{"type":"function","name":"guard","inputs":[],"outputs":[{"name":"","type":"address","internalType":"contract AAStarGlobalGuard"}],"stateMutability":"view"},{"type":"function","name":"mintAgentIdentity","inputs":[{"name":"identityRegistry","type":"address","internalType":"address"},{"name":"agentURI","type":"string","internalType":"string"}],"outputs":[{"name":"agentId","type":"uint256","internalType":"uint256"}],"stateMutability":"nonpayable"},{"type":"function","name":"modifyTierLimitsWithMixedGuardians","inputs":[{"name":"_tier1","type":"uint256","internalType":"uint256"},{"name":"_tier2","type":"uint256","internalType":"uint256"},{"name":"deadline","type":"uint256","internalType":"uint256"},{"name":"signerIdxs","type":"uint8[]","internalType":"uint8[]"},{"name":"sigs","type":"bytes[]","internalType":"bytes[]"}],"outputs":[],"stateMutability":"nonpayable"},{"type":"function","name":"moduleInstallTimelock","inputs":[],"outputs":[{"name":"","type":"uint256","internalType":"uint256"}],"stateMutability":"view"},{"type":"function","name":"owner","inputs":[],"outputs":[{"name":"","type":"address","internalType":"address"}],"stateMutability":"view"},{"type":"function","name":"p256KeyX","inputs":[],"outputs":[{"name":"","type":"bytes32","internalType":"bytes32"}],"stateMutability":"view"},{"type":"function","name":"p256KeyY","inputs":[],"outputs":[{"name":"","type":"bytes32","internalType":"bytes32"}],"stateMutability":"view"},{"type":"function","name":"parserRegistry","inputs":[],"outputs":[{"name":"","type":"address","internalType":"address"}],"stateMutability":"view"},{"type":"function","name":"pendingModuleInstall","inputs":[],"outputs":[{"name":"module","type":"address","internalType":"address"},{"name":"moduleTypeId","type":"uint8","internalType":"uint8"},{"name":"proposedAt","type":"uint40","internalType":"uint40"},{"name":"executeAfter","type":"uint40","internalType":"uint40"},{"name":"initDataHash","type":"bytes32","internalType":"bytes32"}],"stateMutability":"view"},{"type":"function","name":"pendingWeightChange","inputs":[],"outputs":[{"name":"proposed","type":"tuple","internalType":"struct AAStarAgentStorageLayout.WeightConfig","components":[{"name":"passkeyWeight","type":"uint8","internalType":"uint8"},{"name":"ecdsaWeight","type":"uint8","internalType":"uint8"},{"name":"blsWeight","type":"uint8","internalType":"uint8"},{"name":"guardian0Weight","type":"uint8","internalType":"uint8"},{"name":"guardian1Weight","type":"uint8","internalType":"uint8"},{"name":"guardian2Weight","type":"uint8","internalType":"uint8"},{"name":"_padding","type":"uint8","internalType":"uint8"},{"name":"tier1Threshold","type":"uint8","internalType":"uint8"},{"name":"tier2Threshold","type":"uint8","internalType":"uint8"},{"name":"tier3Threshold","type":"uint8","internalType":"uint8"}]},{"name":"proposedAt","type":"uint256","internalType":"uint256"},{"name":"approvalBitmap","type":"uint256","internalType":"uint256"}],"stateMutability":"view"},{"type":"function","name":"proposeModuleInstall","inputs":[{"name":"moduleTypeId","type":"uint256","internalType":"uint256"},{"name":"module","type":"address","internalType":"address"},{"name":"initData","type":"bytes","internalType":"bytes"}],"outputs":[],"stateMutability":"nonpayable"},{"type":"function","name":"proposeRecovery","inputs":[{"name":"newOwner","type":"address","internalType":"address"}],"outputs":[],"stateMutability":"nonpayable"},{"type":"function","name":"proposeRecoveryWithSig","inputs":[{"name":"newOwner","type":"address","internalType":"address"},{"name":"gIdx","type":"uint8","internalType":"uint8"},{"name":"sig","type":"bytes","internalType":"bytes"}],"outputs":[],"stateMutability":"nonpayable"},{"type":"function","name":"proposeWeightChange","inputs":[{"name":"proposed","type":"tuple","internalType":"struct AAStarAgentStorageLayout.WeightConfig","components":[{"name":"passkeyWeight","type":"uint8","internalType":"uint8"},{"name":"ecdsaWeight","type":"uint8","internalType":"uint8"},{"name":"blsWeight","type":"uint8","internalType":"uint8"},{"name":"guardian0Weight","type":"uint8","internalType":"uint8"},{"name":"guardian1Weight","type":"uint8","internalType":"uint8"},{"name":"guardian2Weight","type":"uint8","internalType":"uint8"},{"name":"_padding","type":"uint8","internalType":"uint8"},{"name":"tier1Threshold","type":"uint8","internalType":"uint8"},{"name":"tier2Threshold","type":"uint8","internalType":"uint8"},{"name":"tier3Threshold","type":"uint8","internalType":"uint8"}]}],"outputs":[],"stateMutability":"nonpayable"},{"type":"function","name":"queryAgentReputation","inputs":[{"name":"reputationRegistry","type":"address","internalType":"address"},{"name":"agentId","type":"uint256","internalType":"uint256"},{"name":"clientAddresses","type":"address[]","internalType":"address[]"},{"name":"tag1","type":"string","internalType":"string"},{"name":"tag2","type":"string","internalType":"string"}],"outputs":[{"name":"count","type":"uint64","internalType":"uint64"},{"name":"summaryValue","type":"int128","internalType":"int128"},{"name":"summaryDecimals","type":"uint8","internalType":"uint8"}],"stateMutability":"view"},{"type":"function","name":"removeGuardianWithMixedSigs","inputs":[{"name":"index","type":"uint8","internalType":"uint8"},{"name":"signerIdxs","type":"uint8[]","internalType":"uint8[]"},{"name":"sigs","type":"bytes[]","internalType":"bytes[]"}],"outputs":[],"stateMutability":"nonpayable"},{"type":"function","name":"setAgentWallet","inputs":[{"name":"agentId","type":"uint256","internalType":"uint256"},{"name":"agentWallet","type":"address","internalType":"address"},{"name":"agentRegistry","type":"address","internalType":"address"},{"name":"agentWalletSig","type":"bytes","internalType":"bytes"}],"outputs":[],"stateMutability":"nonpayable"},{"type":"function","name":"setModuleInstallTimelock","inputs":[{"name":"newTimelock","type":"uint256","internalType":"uint256"},{"name":"guardianSigs","type":"bytes","internalType":"bytes"}],"outputs":[],"stateMutability":"nonpayable"},{"type":"function","name":"setWeightConfig","inputs":[{"name":"config","type":"tuple","internalType":"struct AAStarAgentStorageLayout.WeightConfig","components":[{"name":"passkeyWeight","type":"uint8","internalType":"uint8"},{"name":"ecdsaWeight","type":"uint8","internalType":"uint8"},{"name":"blsWeight","type":"uint8","internalType":"uint8"},{"name":"guardian0Weight","type":"uint8","internalType":"uint8"},{"name":"guardian1Weight","type":"uint8","internalType":"uint8"},{"name":"guardian2Weight","type":"uint8","internalType":"uint8"},{"name":"_padding","type":"uint8","internalType":"uint8"},{"name":"tier1Threshold","type":"uint8","internalType":"uint8"},{"name":"tier2Threshold","type":"uint8","internalType":"uint8"},{"name":"tier3Threshold","type":"uint8","internalType":"uint8"}]}],"outputs":[],"stateMutability":"nonpayable"},{"type":"function","name":"submitAgentReputation","inputs":[{"name":"reputationRegistry","type":"address","internalType":"address"},{"name":"agentId","type":"uint256","internalType":"uint256"},{"name":"value","type":"int128","internalType":"int128"},{"name":"valueDecimals","type":"uint8","internalType":"uint8"},{"name":"tag1","type":"string","internalType":"string"},{"name":"tag2","type":"string","internalType":"string"},{"name":"endpoint","type":"string","internalType":"string"},{"name":"feedbackURI","type":"string","internalType":"string"},{"name":"feedbackHash","type":"bytes32","internalType":"bytes32"}],"outputs":[],"stateMutability":"nonpayable"},{"type":"function","name":"tier1Limit","inputs":[],"outputs":[{"name":"","type":"uint256","internalType":"uint256"}],"stateMutability":"view"},{"type":"function","name":"tier2Limit","inputs":[],"outputs":[{"name":"","type":"uint256","internalType":"uint256"}],"stateMutability":"view"},{"type":"function","name":"tierLimitNonce","inputs":[],"outputs":[{"name":"","type":"uint256","internalType":"uint256"}],"stateMutability":"view"},{"type":"function","name":"validator","inputs":[],"outputs":[{"name":"","type":"address","internalType":"contract IAAStarValidator"}],"stateMutability":"view"},{"type":"function","name":"weightConfig","inputs":[],"outputs":[{"name":"passkeyWeight","type":"uint8","internalType":"uint8"},{"name":"ecdsaWeight","type":"uint8","internalType":"uint8"},{"name":"blsWeight","type":"uint8","internalType":"uint8"},{"name":"guardian0Weight","type":"uint8","internalType":"uint8"},{"name":"guardian1Weight","type":"uint8","internalType":"uint8"},{"name":"guardian2Weight","type":"uint8","internalType":"uint8"},{"name":"_padding","type":"uint8","internalType":"uint8"},{"name":"tier1Threshold","type":"uint8","internalType":"uint8"},{"name":"tier2Threshold","type":"uint8","internalType":"uint8"},{"name":"tier3Threshold","type":"uint8","internalType":"uint8"}],"stateMutability":"view"},{"type":"event","name":"AgentIdentityMinted","inputs":[{"name":"agentId","type":"uint256","indexed":true,"internalType":"uint256"},{"name":"identityRegistry","type":"address","indexed":true,"internalType":"address"},{"name":"agentURI","type":"string","indexed":false,"internalType":"string"}],"anonymous":false},{"type":"event","name":"AgentReputationSubmitted","inputs":[{"name":"agentId","type":"uint256","indexed":true,"internalType":"uint256"},{"name":"reputationRegistry","type":"address","indexed":true,"internalType":"address"},{"name":"value","type":"int128","indexed":false,"internalType":"int128"},{"name":"tag1","type":"string","indexed":false,"internalType":"string"}],"anonymous":false},{"type":"event","name":"AgentWalletSet","inputs":[{"name":"agentId","type":"uint256","indexed":true,"internalType":"uint256"},{"name":"agentWallet","type":"address","indexed":true,"internalType":"address"},{"name":"agentRegistry","type":"address","indexed":false,"internalType":"address"}],"anonymous":false},{"type":"event","name":"ERC8004WalletBound","inputs":[{"name":"agentId","type":"uint256","indexed":true,"internalType":"uint256"},{"name":"agentWallet","type":"address","indexed":true,"internalType":"address"},{"name":"identityRegistry","type":"address","indexed":true,"internalType":"address"}],"anonymous":false},{"type":"event","name":"GuardianAdded","inputs":[{"name":"index","type":"uint8","indexed":true,"internalType":"uint8"},{"name":"guardian","type":"address","indexed":true,"internalType":"address"}],"anonymous":false},{"type":"event","name":"GuardianRemoved","inputs":[{"name":"index","type":"uint8","indexed":true,"internalType":"uint8"},{"name":"guardian","type":"address","indexed":true,"internalType":"address"}],"anonymous":false},{"type":"event","name":"Initialized","inputs":[{"name":"version","type":"uint64","indexed":false,"internalType":"uint64"}],"anonymous":false},{"type":"event","name":"ModuleInstallCancelled","inputs":[{"name":"moduleTypeId","type":"uint256","indexed":true,"internalType":"uint256"},{"name":"module","type":"address","indexed":true,"internalType":"address"},{"name":"cancelledBy","type":"address","indexed":false,"internalType":"address"}],"anonymous":false},{"type":"event","name":"ModuleInstallExecuted","inputs":[{"name":"moduleTypeId","type":"uint256","indexed":true,"internalType":"uint256"},{"name":"module","type":"address","indexed":true,"internalType":"address"}],"anonymous":false},{"type":"event","name":"ModuleInstallProposed","inputs":[{"name":"moduleTypeId","type":"uint256","indexed":true,"internalType":"uint256"},{"name":"module","type":"address","indexed":true,"internalType":"address"},{"name":"executeAfter","type":"uint256","indexed":false,"internalType":"uint256"}],"anonymous":false},{"type":"event","name":"ModuleInstallTimelockChanged","inputs":[{"name":"oldTimelock","type":"uint256","indexed":false,"internalType":"uint256"},{"name":"newTimelock","type":"uint256","indexed":false,"internalType":"uint256"}],"anonymous":false},{"type":"event","name":"ModuleInstalled","inputs":[{"name":"moduleTypeId","type":"uint256","indexed":true,"internalType":"uint256"},{"name":"module","type":"address","indexed":true,"internalType":"address"}],"anonymous":false},{"type":"event","name":"OwnerChanged","inputs":[{"name":"oldOwner","type":"address","indexed":true,"internalType":"address"},{"name":"newOwner","type":"address","indexed":true,"internalType":"address"}],"anonymous":false},{"type":"event","name":"P256GuardianAdded","inputs":[{"name":"index","type":"uint8","indexed":true,"internalType":"uint8"},{"name":"x","type":"bytes32","indexed":false,"internalType":"bytes32"},{"name":"y","type":"bytes32","indexed":false,"internalType":"bytes32"}],"anonymous":false},{"type":"event","name":"RecoveryApproved","inputs":[{"name":"newOwner","type":"address","indexed":true,"internalType":"address"},{"name":"approvedBy","type":"address","indexed":true,"internalType":"address"},{"name":"approvalCount","type":"uint256","indexed":false,"internalType":"uint256"},{"name":"guardianIdx","type":"uint8","indexed":false,"internalType":"uint8"}],"anonymous":false},{"type":"event","name":"RecoveryCancelVoted","inputs":[{"name":"votedBy","type":"address","indexed":true,"internalType":"address"},{"name":"cancelCount","type":"uint256","indexed":false,"internalType":"uint256"},{"name":"guardianIdx","type":"uint8","indexed":false,"internalType":"uint8"}],"anonymous":false},{"type":"event","name":"RecoveryCancelled","inputs":[],"anonymous":false},{"type":"event","name":"RecoveryExecuted","inputs":[{"name":"oldOwner","type":"address","indexed":true,"internalType":"address"},{"name":"newOwner","type":"address","indexed":true,"internalType":"address"}],"anonymous":false},{"type":"event","name":"RecoveryProposed","inputs":[{"name":"newOwner","type":"address","indexed":true,"internalType":"address"},{"name":"proposedBy","type":"address","indexed":true,"internalType":"address"},{"name":"guardianIdx","type":"uint8","indexed":false,"internalType":"uint8"}],"anonymous":false},{"type":"event","name":"TierLimitsSet","inputs":[{"name":"tier1","type":"uint256","indexed":false,"internalType":"uint256"},{"name":"tier2","type":"uint256","indexed":false,"internalType":"uint256"}],"anonymous":false},{"type":"event","name":"WeightChangeApproved","inputs":[{"name":"approvedBy","type":"address","indexed":true,"internalType":"address"},{"name":"approvalCount","type":"uint256","indexed":false,"internalType":"uint256"}],"anonymous":false},{"type":"event","name":"WeightChangeCancelled","inputs":[],"anonymous":false},{"type":"event","name":"WeightChangeExecuted","inputs":[{"name":"oldConfig","type":"tuple","indexed":false,"internalType":"struct AAStarAgentStorageLayout.WeightConfig","components":[{"name":"passkeyWeight","type":"uint8","internalType":"uint8"},{"name":"ecdsaWeight","type":"uint8","internalType":"uint8"},{"name":"blsWeight","type":"uint8","internalType":"uint8"},{"name":"guardian0Weight","type":"uint8","internalType":"uint8"},{"name":"guardian1Weight","type":"uint8","internalType":"uint8"},{"name":"guardian2Weight","type":"uint8","internalType":"uint8"},{"name":"_padding","type":"uint8","internalType":"uint8"},{"name":"tier1Threshold","type":"uint8","internalType":"uint8"},{"name":"tier2Threshold","type":"uint8","internalType":"uint8"},{"name":"tier3Threshold","type":"uint8","internalType":"uint8"}]},{"name":"newConfig","type":"tuple","indexed":false,"internalType":"struct AAStarAgentStorageLayout.WeightConfig","components":[{"name":"passkeyWeight","type":"uint8","internalType":"uint8"},{"name":"ecdsaWeight","type":"uint8","internalType":"uint8"},{"name":"blsWeight","type":"uint8","internalType":"uint8"},{"name":"guardian0Weight","type":"uint8","internalType":"uint8"},{"name":"guardian1Weight","type":"uint8","internalType":"uint8"},{"name":"guardian2Weight","type":"uint8","internalType":"uint8"},{"name":"_padding","type":"uint8","internalType":"uint8"},{"name":"tier1Threshold","type":"uint8","internalType":"uint8"},{"name":"tier2Threshold","type":"uint8","internalType":"uint8"},{"name":"tier3Threshold","type":"uint8","internalType":"uint8"}]}],"anonymous":false},{"type":"event","name":"WeightChangeProposed","inputs":[{"name":"proposed","type":"tuple","indexed":false,"internalType":"struct AAStarAgentStorageLayout.WeightConfig","components":[{"name":"passkeyWeight","type":"uint8","internalType":"uint8"},{"name":"ecdsaWeight","type":"uint8","internalType":"uint8"},{"name":"blsWeight","type":"uint8","internalType":"uint8"},{"name":"guardian0Weight","type":"uint8","internalType":"uint8"},{"name":"guardian1Weight","type":"uint8","internalType":"uint8"},{"name":"guardian2Weight","type":"uint8","internalType":"uint8"},{"name":"_padding","type":"uint8","internalType":"uint8"},{"name":"tier1Threshold","type":"uint8","internalType":"uint8"},{"name":"tier2Threshold","type":"uint8","internalType":"uint8"},{"name":"tier3Threshold","type":"uint8","internalType":"uint8"}]},{"name":"proposedBy","type":"address","indexed":true,"internalType":"address"}],"anonymous":false},{"type":"event","name":"WeightConfigUpdated","inputs":[{"name":"config","type":"tuple","indexed":false,"internalType":"struct AAStarAgentStorageLayout.WeightConfig","components":[{"name":"passkeyWeight","type":"uint8","internalType":"uint8"},{"name":"ecdsaWeight","type":"uint8","internalType":"uint8"},{"name":"blsWeight","type":"uint8","internalType":"uint8"},{"name":"guardian0Weight","type":"uint8","internalType":"uint8"},{"name":"guardian1Weight","type":"uint8","internalType":"uint8"},{"name":"guardian2Weight","type":"uint8","internalType":"uint8"},{"name":"_padding","type":"uint8","internalType":"uint8"},{"name":"tier1Threshold","type":"uint8","internalType":"uint8"},{"name":"tier2Threshold","type":"uint8","internalType":"uint8"},{"name":"tier3Threshold","type":"uint8","internalType":"uint8"}]}],"anonymous":false},{"type":"error","name":"AgentRegistrationFailed","inputs":[]},{"type":"error","name":"AlreadyApproved","inputs":[]},{"type":"error","name":"AlreadyCancelVoted","inputs":[]},{"type":"error","name":"CannotIncreaseTierLimit","inputs":[]},{"type":"error","name":"DuplicateGuardianSig","inputs":[]},{"type":"error","name":"DuplicateP256GuardianKey","inputs":[]},{"type":"error","name":"ECDSAInvalidSignature","inputs":[]},{"type":"error","name":"ECDSAInvalidSignatureLength","inputs":[{"name":"length","type":"uint256","internalType":"uint256"}]},{"type":"error","name":"ECDSAInvalidSignatureS","inputs":[{"name":"s","type":"bytes32","internalType":"bytes32"}]},{"type":"error","name":"GuardianAlreadySet","inputs":[]},{"type":"error","name":"IdentityRegistrationFailed","inputs":[]},{"type":"error","name":"InsecureWeightConfig","inputs":[]},{"type":"error","name":"InstallModuleUnauthorized","inputs":[]},{"type":"error","name":"InsufficientGuardianApprovals","inputs":[]},{"type":"error","name":"InvalidAuthenticatorData","inputs":[]},{"type":"error","name":"InvalidGuardian","inputs":[]},{"type":"error","name":"InvalidGuardianSignature","inputs":[]},{"type":"error","name":"InvalidInitialization","inputs":[]},{"type":"error","name":"InvalidModuleType","inputs":[]},{"type":"error","name":"InvalidNewOwner","inputs":[]},{"type":"error","name":"InvalidP256GuardianKey","inputs":[]},{"type":"error","name":"InvalidP256GuardianSignature","inputs":[{"name":"gIdx","type":"uint8","internalType":"uint8"}]},{"type":"error","name":"InvalidTierConfig","inputs":[]},{"type":"error","name":"MaxGuardiansReached","inputs":[]},{"type":"error","name":"MinGuardianRequired","inputs":[]},{"type":"error","name":"ModuleAlreadyInstalled","inputs":[]},{"type":"error","name":"ModuleInstallAuthChanged","inputs":[]},{"type":"error","name":"ModuleInstallCallbackFailed","inputs":[{"name":"moduleTypeId","type":"uint256","internalType":"uint256"},{"name":"module","type":"address","internalType":"address"}]},{"type":"error","name":"ModuleInstallDataMismatch","inputs":[]},{"type":"error","name":"ModuleInstallProposalExists","inputs":[]},{"type":"error","name":"ModuleInstallProposalExpired","inputs":[]},{"type":"error","name":"ModuleInstallTimelockDisabled","inputs":[]},{"type":"error","name":"ModuleInstallTimelockNotExpired","inputs":[]},{"type":"error","name":"ModuleInstallTimelockTooLong","inputs":[]},{"type":"error","name":"ModuleInvalid","inputs":[]},{"type":"error","name":"NoActiveRecovery","inputs":[]},{"type":"error","name":"NoModuleInstallProposal","inputs":[]},{"type":"error","name":"NoWeightChangeProposal","inputs":[]},{"type":"error","name":"NotGuardian","inputs":[]},{"type":"error","name":"NotInitializing","inputs":[]},{"type":"error","name":"NotOwner","inputs":[]},{"type":"error","name":"NotOwnerOrEntryPoint","inputs":[]},{"type":"error","name":"RecoveryAlreadyActive","inputs":[]},{"type":"error","name":"RecoveryAlreadyProposed","inputs":[]},{"type":"error","name":"RecoveryNotApproved","inputs":[]},{"type":"error","name":"RecoveryTimelockNotExpired","inputs":[]},{"type":"error","name":"Reentrancy","inputs":[]},{"type":"error","name":"TierLimitSigExpired","inputs":[]},{"type":"error","name":"UnauthorizedRegistry","inputs":[]},{"type":"error","name":"UnsupportedChain","inputs":[{"name":"chainId","type":"uint256","internalType":"uint256"}]},{"type":"error","name":"UseGuardianConsensus","inputs":[]},{"type":"error","name":"WeakeningRequiresProposal","inputs":[]},{"type":"error","name":"WeightChangeAlreadyApproved","inputs":[]},{"type":"error","name":"WeightChangeNotApproved","inputs":[]},{"type":"error","name":"WeightChangePending","inputs":[]},{"type":"error","name":"WeightChangeTimelockNotExpired","inputs":[]}],"bytecode":{"object":"0x60808060405234601557614e38908161001a8239f35b5f80fdfe60806040526004361015610011575f80fd5b5f3560e01c806304f79674146102c4578063085aa197146102bf5780630ba234d6146102ba57806310d47802146102b55780631110ac2e146102b057806320617b94146102ab57806320c5a3e1146102a6578063293e07f2146102a1578063353f08601461029c57806335905bb0146102975780633a5381b51461029257806343538f9c1461028d57806347a90550146102885780634bc15d2b1461028357806356dc31d01461027e5780635f9613dd14610279578063642c79891461027457806367e3afe71461026f5780636b56c6541461026a5780636e7953331461026557806379e26729146102605780637bea8f761461025b5780637ceab3b1146102565780637ee76082146102515780638450a9281461024c578063863ee512146102475780638abb1c2a146102425780638da5cb5b1461023d5780638dbbce84146102385780638efdc881146102335780639bbbb8ae1461022e578063a5b915b514610229578063b0d691fe14610224578063b5cb7bb81461021f578063b60295e11461021a578063b613559614610215578063c4bb056614610210578063c8175b3f1461020b578063cc2b82d914610206578063d99b0a3614610201578063dbaf0cc3146101fc578063f9c391f6146101f75763fcae8d38146101f2575f80fd5b612b0c565b612a52565b612a35565b6128c9565b61282e565b612811565b6127f4565b6127d7565b612710565b6126d1565b6126ac565b61257e565b6121a2565b612185565b61211c565b6120f6565b611e2e565b611e11565b611dd6565b611da2565b611d7c565b611d0e565b6118b9565b6117f8565b611718565b611603565b6113f0565b61134f565b611329565b610f3c565b610e72565b610e3b565b610e15565b610d06565b610bb5565b610a98565b610945565b61087d565b61075d565b61045e565b6103ed565b610356565b34610346576040366003190112610346576004356024356001600160a01b03600154163303610337576001600160a01b036012541661032857600260ff600c5460a01c16101561031957610317916138ac565b005b63366c488960e11b5f5260045ffd5b63372a886760e11b5f5260045ffd5b6330cd747160e01b5f5260045ffd5b5f80fd5b5f91031261034657565b565b34610346575f366003190112610346576016546040805160ff8084168252600884901c8116602080840191909152601085901c821683850152601885901c8216606084015284901c81166080830152602884901c811660a0830152603084901c811660c0830152603884901c811660e08301529183901c821661010082015260489290921c166101208201528061014081015b0390f35b34610346575f366003190112610346576001600160a01b03601254161561043e57610417336139aa565b601554600160ff83161b1661042f57610317906139fb565b630f5ff7bf60e01b5f5260045ffd5b628267d160e81b5f5260045ffd5b61014090600319011261034657600490565b346103465761046c3661044c565b6001600160a01b036001541633036103375761048781613aab565b61048f611bdb565b60ff60e0820151161515908161069c575b5061068d5760185461067e57610679816104ef7f0c37cb722e39215324249ac820b21073307d8cf91ab4281713d68e95e9c7090a93356104df8161070d565b60ff1660ff196016541617601655565b61051760208201356105008161070d565b61ff006016549160081b169061ff00191617601655565b61054160408201356105288161070d565b62ff00006016549160101b169062ff0000191617601655565b61056d60608201356105528161070d565b63ff0000006016549160181b169063ff000000191617601655565b61059961057c60808301612c0d565b64ff000000006016549160201b169064ff00000000191617601655565b6105c36105a860a08301612c0d565b60ff60281b6016549160281b169060ff60281b191617601655565b6105ed6105d260c08301612c0d565b60ff60301b6016549160301b169060ff60301b191617601655565b6106176105fc60e08301612c0d565b60ff60381b6016549160381b169060ff60381b191617601655565b6106426106276101008301612c0d565b60ff60401b6016549160401b169060ff60401b191617601655565b61066d6106526101208301612c0d565b60ff60481b6016549160481b169060ff60481b191617601655565b60405191829182612c1a565b0390a1005b63c30fc6f560e01b5f5260045ffd5b630b83b16f60e21b5f5260045ffd5b6106b191506106ab3684612b4e565b90613c48565b5f6104a0565b600435906001600160a01b038216820361034657565b602435906001600160a01b038216820361034657565b604435906001600160a01b038216820361034657565b35906001600160a01b038216820361034657565b60ff81160361034657565b606435906103548261070d565b35906103548261070d565b9181601f84011215610346578235916001600160401b038311610346576020838186019501011161034657565b34610346576060366003190112610346576107766106b7565b6024356107828161070d565b6044356001600160401b038111610346576107a1903690600401610730565b6107ac849294613d93565b60ff600c5460a01c1660ff841610801590610831575b610822576026546040805160208101929092526001600160a01b038416908201526103179461081d9261080e919061080784606081015b03601f198101865285611b8c565b3691612d2d565b610816612d63565b9085613eae565b613fc3565b63a6c1146b60e01b5f5260045ffd5b5061083b83613e31565b156107c2565b9060406003198301126103465760043561085a8161070d565b91602435906001600160401b0382116103465761087991600401610730565b9091565b346103465761088b36610841565b919061089f6012546001600160a01b031690565b6001600160a01b0381161561043e57600c546108c29060a01c60ff165b60ff1690565b60ff84161080159061092f575b61082257601554600160ff85161b1661042f5761091b61092a92610317956108076026546107f9604051968792602084019092916001600160a01b036020916040840195845216910152565b610923612d91565b9084613eae565b6139fb565b5061094061093c84613e31565b1590565b6108cf565b34610346575f3660031901126103465761095d612dbe565b6001600160a01b0361097682516001600160a01b031690565b161561043e576109896020820151612e07565b4210610a8957600261099e604083015161409c565b10610a7a576001600160a01b0380610a296109c16001546001600160a01b031690565b936109f46109d682516001600160a01b031690565b6001600160a01b03166001600160601b0360a01b6001541617600155565b610a095f6012555f6013555f6014555f601555565b610a1c610a17602654612e63565b602655565b516001600160a01b031690565b921691169081817f60f9f98be64687700419cfa6fdd7877bc88c6daeb10bc664a2be9fdd6b0c79215f80a37fb532073b38c83145e3e5135377a08bf9aab55bc0fd7c1179cd4fb995d2a5159c5f80a3005b631cea8e5960e11b5f5260045ffd5b63552067e360e11b5f5260045ffd5b3461034657608036600319011261034657600435610ab46106cd565b90610abd6106e3565b6064356001600160401b03811161034657610adc903690600401610730565b906001600160a01b03600154163303610337576001600160a01b0385169485158015610ba4575b61082257833b15610b95575f92610b448493610b366040519384926020840196630b93497160e21b885260248501612e91565b03601f198101835282611b8c565b519082855af1610b52612eb1565b5015610b95576040516001600160a01b0390911681527fc8982c1ad4646a1ed6bb40061ac7f2a6aaffef7f2e096aa9805cf705fa12933b9080602081015b0390a3005b6371a31c2760e01b5f5260045ffd5b506001600160a01b03841615610b03565b3461034657604036600319011261034657610bce6106b7565b6024356001600160401b03811161034657610bed903690600401610730565b916001600160a01b03600154163303610337575f5c610cf9576001600160a01b039060015f5d610c1c816140c0565b16604051926379614c5f60e11b845260208480610c3d848760048401612eef565b03815f865af1928315610cf4576103e9945f94610c9f575b5083917f169142414aeecec3d3dfa03ef8b7d72d56023ead068694f563affe4276792bed91610c8960405192839283612eef565b0390a35f805d6040519081529081906020820190565b7f169142414aeecec3d3dfa03ef8b7d72d56023ead068694f563affe4276792bed91929450610ce59060203d602011610ced575b610cdd8183611b8c565b810190612ee0565b939190610c55565b503d610cd3565b612f00565b63ab143c065f526004601cfd5b34610346575f36600319011261034657610d1e612f0b565b60208101805115610e0657610d338151612e1c565b4211610e06576002610d48604084015161409c565b10610df757610d579051612e07565b4210610de8576106797f0c37cb722e39215324249ac820b21073307d8cf91ab4281713d68e95e9c7090a917fc94d426438944eb97ead040cba3930306dd959e6f9382bf215ad45427c03ecb6610dab611bdb565b610db58351612f5f565b610dc65f6017555f6018555f601955565b825190610dd860405192839283613111565b0390a15160405191829182613131565b6356176dfb60e11b5f5260045ffd5b631e10a99760e31b5f5260045ffd5b631e142ec160e01b5f5260045ffd5b34610346575f3660031901126103465760206001600160a01b0360025416604051908152f35b3461034657602036600319011261034657610e60600435610e5b8161070d565b613142565b60408051928352602083019190915290f35b3461034657610e8036610841565b9190610e946012546001600160a01b031690565b6001600160a01b0381161561043e57600c54610eb59060a01c60ff166108bc565b60ff841610801590610f2a575b61082257601454600160ff85161b16610f1b57610f0e610f1692610317956108076026546107f9604051968792602084019092916001600160a01b036020916040840195845216910152565b610923613189565b61411a565b63080fc0bd60e11b5f5260045ffd5b50610f3761093c84613e31565b610ec2565b34610346576020366003190112610346576004356001600160401b03811161034657610f6c903690600401610730565b905f5c610cf95760015f5d610f7f6131b7565b9064ffffffffff610f98604084015164ffffffffff1690565b161561131a5760608201610fbe610fb4825164ffffffffff1690565b64ffffffffff1690565b421061130b57610fd9610fb4610fde925164ffffffffff1690565b612e1c565b42116112fc57610fec61417f565b60a0830151036112ed57611001368483612d2d565b602081519101206080830151036112de576110346110266108bc602085015160ff1690565b92516001600160a01b031690565b906001600160a01b03821693841580156112d5575b6112c65761108361107c84611066875f52600660205260405f2090565b906001600160a01b03165f5260205260405f2090565b5460ff1690565b61128f5760048414808061129e575b61128f5760015f5260066020526110cc61107c857f3e5fec24aa4dc4e5aee2e025e51e1392c72a2500577559fae9665c6d52bd6a31611066565b908115611251575b8115611213575b6111016110f486611066895f52600660205260405f2090565b805460ff19166001179055565b6111d3575b6111175f601d555f601e555f601f55565b1561116f575b50505081817fd21d0b289f126c4b473ea641963e766833c2f13866e4ff480abd787c100ef1235f80a37fcb23826c065976de3d72ab586bb16e6910ad23028abf0885a015fa54face86b35f80a35f805d005b5f91610b36611197849360405192839160208301956306d61fe760e41b875260248401612eef565b519082855af16111a5612eb1565b50156111b257808061111d565b63f45e530b60e01b5f526004919091526001600160a01b031660245260445ffd5b6007805474ffffffffffffffffffffffffffffffffffffffff001916600886901b74ffffffffffffffffffffffffffffffffffffffff0016179055611106565b60045f526006602052905061124b61107c857fc5069e24aaadb2addc3e52e868fcf3f4f8acf5a87e24300992fd4540c2a87eed611066565b906110db565b60025f526006602052905061128961107c857f8819ef417987f8ae7a81f42cdfb18815282fe989326fbff903d13cf0e03ace29611066565b906110d4565b631261bbf160e11b5f5260045ffd5b506007546112bf9060081c6001600160a01b03165b6001600160a01b031690565b1515611092565b6374be437f60e01b5f5260045ffd5b50823b15611049565b63253ee84960e01b5f5260045ffd5b637470caed60e11b5f5260045ffd5b6333afc34b60e01b5f5260045ffd5b6319c3ad6960e31b5f5260045ffd5b6369cc141f60e01b5f5260045ffd5b34610346575f3660031901126103465760206001600160a01b0360055416604051908152f35b34610346575f3660031901126103465760185415610e06576001600160a01b036001541633036113b1575b61138b5f6017555f6018555f601955565b7f576deb2334d64aacc3de78fdc843b12c4601431d7d7546f8ef6ff413d18ad8e75f80a1005b6113ba336139aa565b5061137a565b9181601f84011215610346578235916001600160401b038311610346576020808501948460051b01011161034657565b346103465760a0366003190112610346576044356024356004356064356001600160401b038111610346576114299036906004016113c0565b6084356001600160401b038111610346576114489036906004016113c0565b90926001600160a01b0360015416330361033757851515806115fa575b6115eb578642116115dc5781830361155857600283106115585790610b366114b6601095949554986040519283918a8a8d602086019094939260609260808301968352602083015260408201520152565b5f945f946114cd6108bc600c5460ff9060a01c1690565b915b808710611567578a8a8a60026114e48c61409c565b106115585761151b6115167fcfe045f2bad73057c49e23a745cb13c8b763723eeb93336c01c3bcb32cb1fc9194612e63565b601055565b61152d600160ff196011541617601155565b61153681600a55565b61153f82600b55565b6040805191825260208201929092529081908101610679565b63016730a760e41b5f5260045ffd5b9091929394959661158161157c89848a613255565b612c0d565b978460ff8a16101561082257600160ff8a161b8083166115cd57866115c191600194179a6115b3610807858c8a61326a565b6115bb6132ab565b91613eae565b019594939291906114cf565b63a27fbc6360e01b5f5260045ffd5b632a091a3360e11b5f5260045ffd5b639100d34760e01b5f5260045ffd5b50858511611465565b346103465760a03660031901126103465761161c6106b7565b602435906116286106e3565b916064356084356001600160401b0381116103465761164b903690600401610730565b90916001600160a01b03600154163303610337575f5c610cf95760015f5d611672856140c0565b6001600160a01b03861694851561170a576001600160a01b031695863b15610346576116b55f93604051958694859463168f7ad760e11b865289600487016132db565b038183885af18015610cf4576116f0575b507faadd69bae4c5060e9be224899997360e78e4ee632c9951aa0055eeeb5bfc66625f80a45f805d005b806116fe5f61170493611b8c565b8061034a565b5f6116c6565b6270251360e91b5f5260045ffd5b34610346576117263661044c565b6001600160a01b036001541633036103375761174181613aab565b61175961093c61174f611bdb565b6106ab3685612b4e565b61068d5760185461067e576001600160a01b0361177e6012546001600160a01b031690565b16610328576117ab61178e611bad565b6117983684612b4e565b81524260208201525f6040820152613307565b7fba5c9da7994a2da6979c6d04d134da98d13c8cd4b70710bfc12400a72cb90072604051806117db339482612c1a565b0390a2005b80600f0b0361034657565b60443590610354826117e0565b3461034657610120366003190112610346576118126106b7565b6024359061181e6117eb565b611826610718565b926084356001600160401b03811161034657611846903690600401610730565b9060a4356001600160401b03811161034657611866903690600401610730565b9060c4356001600160401b03811161034657611886903690600401610730565b94909360e435996001600160401b038b11610346576118ac6103179b3690600401610730565b999098610104359b6134c3565b34610346576060366003190112610346576118d26106b7565b6024356001600160401b038111610346576118f19036906004016113c0565b6044929192356001600160401b038111610346576119139036906004016113c0565b919093600154926001600160a01b0384163303610337576001600160a01b036119446012546001600160a01b031690565b16610328576001600160a01b038516938415908115611b21575b508015611b16575b61082257600c5460a01c60ff1695600360ff88161015611b07575f9660ff16965b8760ff821610611adb575081840361155857600284106115585792919060275496604051906119e2826119d48a8c602084019092916001600160a01b036020916040840195845216910152565b03601f198101845283611b8c565b5f955f955b808710611a80578a8a8a60026119fc8c61409c565b1061155857611a2a611a6192611a1c611a1761031796612e63565b602755565b600c5460a01c60ff1661433f565b600c5460a01c60ff169060ff82167feca9cd482b52ddd909a1a2ffcceae1b6dd76b5491ec997d8d9ac05c6426fa3445f80a361363e565b600c805460ff60a01b191660a09290921b60ff60a01b16919091179055565b90919293949596611a9561157c89848a613255565b978460ff8a16101561082257600160ff8a161b8083166115cd5786611acf91600194179a611ac7610807858c8a61326a565b6115bb613614565b019594939291906119e7565b85611ae86112b383614267565b14611af85760010160ff16611987565b630536824360e41b5f5260045ffd5b636fe1a40d60e11b5f5260045ffd5b506170268414611966565b611b3491506001600160a01b03166112b3565b84145f61195e565b634e487b7160e01b5f52604160045260245ffd5b61014081019081106001600160401b03821117611b6c57604052565b611b3c565b608081019081106001600160401b03821117611b6c57604052565b90601f801991011681019081106001600160401b03821117611b6c57604052565b60405190610354606083611b8c565b6040519061035460c083611b8c565b6040519061035461014083611b8c565b60405190611be882611b50565b61035482610120611c7d60165460ff808216168452611c18611c0e8260ff9060081c1690565b60ff166020860152565b60ff601082901c16604085015260ff601882901c16606085015260ff602082901c16608085015260ff602882901c1660a085015260ff603082901c1660c085015260ff603882901c1660e085015260ff604082901c1661010085015260481c60ff1690565b60ff16910152565b906101208061035493611c9b84825160ff169052565b60208181015160ff169085015260408181015160ff169085015260608181015160ff169085015260808181015160ff169085015260a08181015160ff169085015260c08181015160ff169085015260e08181015160ff16908501526101008181015160ff1690850152015160ff16910152565b34610346575f36600319011261034657610180604051611d2d81611b50565b60175460ff81168252611d5a90611d4f905b611c18600882901c60ff16611c0e565b60ff16610120830152565b60185460195490611d6e6040518094611c85565b610140830152610160820152f35b34610346575f3660031901126103465760206001600160a01b0360045416604051908152f35b3461034657602036600319011261034657610317611dbe6106b7565b611dc781613d93565b611dd0336139aa565b90613fc3565b346103465760203660031901126103465760ff600435611df58161070d565b165f52601a602052602060ff60405f2054166040519015158152f35b34610346575f366003190112610346576020600854604051908152f35b3461034657606036600319011261034657600435611e4b8161070d565b6024356001600160401b03811161034657611e6a9036906004016113c0565b91906044356001600160401b03811161034657611e8b9036906004016113c0565b936001600160a01b03600154163303610337576001600160a01b03611eb86012546001600160a01b031690565b1661032857600c5460a01c60ff16600260ff821611156120e75760ff169260ff851695848710156108225780830361155857600283106115585790611f4c9493929186611f0481614267565b95611f0e826140eb565b600f54604080516020810183905260ff909616908601526001600160a01b038a166060860152608085019290925260a0840152978260c081016119d4565b5f955f955b80871061208c578b8b8b8b6002611f678d61409c565b1061155857611f85611f806001600160a01b0393612e63565b600f55565b1690617026821461207e575b611fac6108bc611fa7600c5460ff9060a01c1690565b61367c565b60ff82161015612020576001816170266001600160a01b03611fd7611fd260ff9661368e565b614267565b611fe1818561433f565b1614611fef575b0116611f91565b61200a612003611ffe8361368e565b6140eb565b90836143cb565b61201b6120168261368e565b61439c565b611fe8565b509061203d612038611fa7600c5460ff9060a01c1690565b6142a5565b612058611a61612053600c5460ff9060a01c1690565b6136a0565b7f21d14a63615c145863fb5004c412ccf4ba2439b31bfd93baf5892142417ae5bf5f80a3005b6120878161439c565b611f91565b909192939495966120a161157c89848a613255565b978460ff8a16101561082257600160ff8a161b8083166115cd57866120db91600194179a6120d3610807858c8a61326a565b6115bb61364f565b01959493929190611f51565b631b5f87d960e11b5f5260045ffd5b34610346575f3660031901126103465760206001600160a01b0360015416604051908152f35b34610346575f3660031901126103465760a06121366131b7565b6001600160a01b038151169060ff6020820151169064ffffffffff604082015116608064ffffffffff606084015116920151926040519485526020850152604084015260608301526080820152f35b34610346575f366003190112610346576020600a54604051908152f35b34610346576060366003190112610346576004356121be6106cd565b906044356001600160401b038111610346576121de903690600401610730565b6001600160a01b03600194929454163314158061256a575b61255b57601c5493841561254c5761220c6131b7565b64ffffffffff612224604083015164ffffffffff1690565b161515908161252a575b5061251b576001600160a01b0383169485158015612512575b6112c657600185141580612507575b806124fc575b6124ed5761227961107c85611066885f52600660205260405f2090565b61128f5760048514806124cd575b61128f5760075460ff16806124c5575060ff60465b16606481106124af57506002915b60ff83168015612471576122bd906136af565b80851061246257846122d09181846136c5565b939094858536906122e092612d2d565b8051602091820120601b54604080519384018c90526001600160a01b038b16908401526060830191909152608080830191909152815261232160a082611b8c565b6123296136dd565b90612333916143f4565b9261233d93614420565b7f961131cbbaf1bc03ad2365a2fb7e266c712005e704c38832cfb7a3014a3580fb9361237f610b9094612377610fb4612436955b42612e56565b943691612d2d565b6020815191012061238e61417f565b906123a961239a611bbc565b6001600160a01b039094168452565b60ff8816602084015264ffffffffff42818116604086015290861660608501526080840182905260a08085018490529351601d805460a89390931b64ffffffffff60a81b16958b901b60ff60a01b166001600160a01b039092166001600160f81b031990931692909217179390931760d086901b64ffffffffff60d01b1617909255601e91909155601f55565b61244a612445601b5460010190565b601b55565b60405164ffffffffff90911681529081906020820190565b6336d708bd60e21b5f5260045ffd5b506124369192509361237f610b9094612377610fb47f961131cbbaf1bc03ad2365a2fb7e266c712005e704c38832cfb7a3014a3580fb989296612371565b6046116124bf5760015b916122aa565b5f6124b9565b60ff9061229c565b506007546124e69060081c6001600160a01b03166112b3565b1515612287565b631092ef5760e11b5f5260045ffd5b50600485141561225c565b506002851415612256565b50833b15612247565b635dc24fad60e11b5f5260045ffd5b606001516125439150610fd99064ffffffffff16610fb4565b4211155f61222e565b631bce553b60e01b5f5260045ffd5b63142888bd60e21b5f5260045ffd5b506001600160a01b035f54163314156121f6565b34610346576040366003190112610346576004356024356001600160401b038111610346576125b1903690600401610730565b6001600160a01b036001939293541633141580612698575b61255b5762278d008211612689577f27db7bd98a100c6f2a3ebfce33cb9dd05ee5a152452bd211e8535ac2becb861a92601c5491828410612610575b505061153f82601c55565b612679916126736124459261262b600c5460ff9060a01c1690565b600260ff8216101561268057905b601b5460408051602081018b905290810182905290949061266e906126618160608101610b36565b612669613709565b6143f4565b614420565b60010190565b5f80612605565b50600290612639565b637d9f233760e11b5f5260045ffd5b506001600160a01b035f54163314156125c9565b34610346575f3660031901126103465760206001600160a01b035f5416604051908152f35b34610346575f3660031901126103465760806001600160a01b036012541660135460145460155491604051938452602084015260408301526060820152f35b34610346575f366003190112610346576127286131b7565b64ffffffffff6040820151161561131a5761274e6112b36001546001600160a01b031690565b33036127c8575b6127665f601d555f601e555f601f55565b612785612777602083015160ff1690565b91516001600160a01b031690565b6040513381526001600160a01b03919091169160ff16907ffc129a9cf9c86292bfb325ad90f24fea23449a3870fdaa024bbfbf1afdf3db31908060208101610b90565b6127d1336139aa565b50612755565b34610346575f366003190112610346576020601054604051908152f35b34610346575f366003190112610346576020600954604051908152f35b34610346575f366003190112610346576020601c54604051908152f35b34610346575f366003190112610346576018548015610e065761285090612e1c565b4211610e065761286c612862336139aa565b60ff600191161b90565b601954908082166128ba571760195561288660195461409c565b60405190815233907f15f128f27bdfb175cfbe98c20eeca3038a9ee15470ec88a4fbd5a16a20a732679080602081016117db565b631ed65d7760e31b5f5260045ffd5b34610346576080366003190112610346576004356024356044356001600160401b038111610346576128ff9036906004016113c0565b6064939193356001600160401b038111610346576129219036906004016113c0565b6001600160a01b03600193929354163303610337576001600160a01b036129506012546001600160a01b031690565b1661032857808203611558576002821061155857946027929192549560405161299381610b3689898c602085016040919493926060820195825260208201520152565b5f945f946129aa6108bc600c5460ff9060a01c1690565b915b8087106129da578a8a8a60026129c18c61409c565b10611558576129d5611a1761031794612e63565b6138ac565b909192939495966129ef61157c89848a613255565b978460ff8a16101561082257600160ff8a161b8083166115cd5786612a2991600194179a612a21610807858c8a61326a565b6115bb61373a565b019594939291906129ac565b34610346575f366003190112610346576020600b54604051908152f35b346103465760a036600319011261034657612a6b6106b7565b6024356044356001600160401b03811161034657612a8d9036906004016113c0565b9190926064356001600160401b03811161034657612aaf903690600401610730565b90608435946001600160401b038611610346576103e996612ad7612adf973690600401610730565b9690956137a3565b604080516001600160401b039094168452600f9290920b602084015260ff16908201529081906060820190565b34610346575f366003190112610346576001600160a01b03601254161561043e57612b36336139aa565b601454600160ff83161b16610f1b576103179061411a565b91908261014091031261034657612c05610120612b69611bcb565b93612b7381610725565b8552612b8160208201610725565b6020860152612b9260408201610725565b6040860152612ba360608201610725565b6060860152612bb460808201610725565b6080860152612bc560a08201610725565b60a0860152612bd660c08201610725565b60c0860152612be760e08201610725565b60e0860152612bf96101008201610725565b61010086015201610725565b610120830152565b35612c178161070d565b90565b61035490929192610120611c7d81610140840196612c4285612c3b83610725565b60ff169052565b612c5b612c5160208301610725565b60ff166020870152565b612c74612c6a60408301610725565b60ff166040870152565b612c8d612c8360608301610725565b60ff166060870152565b612ca6612c9c60808301610725565b60ff166080870152565b612cbf612cb560a08301610725565b60ff1660a0870152565b612cd8612cce60c08301610725565b60ff1660c0870152565b612cf1612ce760e08301610725565b60ff1660e0870152565b612d0c612d016101008301610725565b60ff16610100870152565b01610725565b6001600160401b038111611b6c57601f01601f191660200190565b929192612d3982612d12565b91612d476040519384611b8c565b829481845281830111610346578281602093845f960137010152565b60405190612d72604083611b8c565b601082526f50524f504f53455f5245434f5645525960801b6020830152565b60405190612da0604083611b8c565b600f82526e43414e43454c5f5245434f5645525960881b6020830152565b60405190612dcb82611b71565b6012546001600160a01b03168252601354602083015260145460408301526015546060830152565b634e487b7160e01b5f52601160045260245ffd5b906202a3008201809211612e1757565b612df3565b9062278d008201809211612e1757565b9060038201809211612e1757565b9060018201809211612e1757565b9060028201809211612e1757565b91908201809211612e1757565b5f198114612e175760010190565b908060209392818452848401375f828201840152601f01601f1916010190565b6040906001600160a01b03612c1795931681528160208201520191612e71565b3d15612edb573d90612ec282612d12565b91612ed06040519384611b8c565b82523d5f602084013e565b606090565b90816020910312610346575190565b916020612c17938181520191612e71565b6040513d5f823e3d90fd5b60405190606082018281106001600160401b03821117611b6c5760405281604051612f3581611b50565b60175460ff81168252612f4b90611d4f90611d3f565b815260185460208201526040601954910152565b6130f561012061035492612f88612f77825160ff1690565b60169060ff1660ff19825416179055565b612fb1612f99602083015160ff1690565b60169061ff0082549160081b169061ff001916179055565b612fdc612fc2604083015160ff1690565b60169062ff000082549160101b169062ff00001916179055565b613009612fed606083015160ff1690565b60169063ff00000082549160181b169063ff0000001916179055565b61303861301a608083015160ff1690565b60169064ff0000000082549160201b169064ff000000001916179055565b61306561304960a083015160ff1690565b60169060ff60281b82549160281b169060ff60281b1916179055565b61309261307660c083015160ff1690565b60169060ff60301b82549160301b169060ff60301b1916179055565b6130bf6130a360e083015160ff1690565b60169060ff60381b82549160381b169060ff60381b1916179055565b6130ed6130d161010083015160ff1690565b60169060ff60401b82549160401b169060ff60401b1916179055565b015160ff1690565b60169060ff60481b82549160481b169060ff60481b1916179055565b9161014061035492949361312a81610280810197611c85565b0190611c85565b610140810192916103549190611c85565b60ff600c5460a01c1660ff82161080159061316c575b61316557610879906140eb565b505f905f90565b506170266001600160a01b0361318183614267565b161415613158565b60405190613198604083611b8c565b601082526f415050524f56455f5245434f5645525960801b6020830152565b6040519060c082018281106001600160401b03821117611b6c576040528161322f613221601d546001600160a01b038116845260ff8160a01c16602085015261321464ffffffffff8260a81c16604086019064ffffffffff169052565b60d01c64ffffffffff1690565b64ffffffffff166060830152565b601e54608082015260a0601f54910152565b634e487b7160e01b5f52603260045260245ffd5b91908110156132655760051b0190565b613241565b91908110156132655760051b81013590601e19813603018212156103465701908135916001600160401b038311610346576020018236038113610346579190565b604051906132ba604083611b8c565b60128252714d4f444946595f544945525f4c494d49545360701b6020830152565b90926001600160a01b03608093612c179795845216602083015260408201528160608201520191612e71565b6040906134b46134986101208351613334613323825160ff1690565b60179060ff1660ff19825416179055565b61335d613345602083015160ff1690565b60179061ff0082549160081b169061ff001916179055565b61338761336d8783015160ff1690565b60179062ff000082549160101b169062ff00001916179055565b6133b4613398606083015160ff1690565b60179063ff00000082549160181b169063ff0000001916179055565b6133e36133c5608083015160ff1690565b60179064ff0000000082549160201b169064ff000000001916179055565b6134106133f460a083015160ff1690565b60179060ff60281b82549160281b169060ff60281b1916179055565b61343d61342160c083015160ff1690565b60179060ff60301b82549160301b169060ff60301b1916179055565b61346a61344e60e083015160ff1690565b60179060ff60381b82549160381b169060ff60381b1916179055565b6130ed61347c61010083015160ff1690565b60179060ff60401b82549160401b169060ff60401b1916179055565b60179060ff60481b82549160481b169060ff60481b1916179055565b60208101516018550151601955565b9b9294969991979b9a909a989593986001600160a01b03600154163303610337575f5c610cf9576001600160a01b039060015f5d61350081614255565b169b8c3b15610346578c968c956040519c8d988998631e01b53f60e11b8a5260048a01528c600f0b60248a015260ff1660448901526064880161010090528c8b6101048a019061354f92612e71565b906003198983030160848a015261356592612e71565b906003198783030160a488015261357b92612e71565b906003198583030160c486015261359192612e71565b9060e483015203815a5f948591f1908115610cf4577fee0112c63253e47e4ff7403776240bef35d82b6feba08ea6ecb20f8a4ab75e92946135de926135e6575b50604051938493846135fa565b0390a35f805d565b806116fe5f6135f493611b8c565b5f6135d1565b604090612c179492600f0b81528160208201520191612e71565b60405190613623604083611b8c565b600c82526b20a2222fa3aaa0a92224a0a760a11b6020830152565b60ff1660ff8114612e175760010190565b6040519061365e604083611b8c565b600f82526e2922a6a7ab22afa3aaa0a92224a0a760891b6020830152565b60ff5f199116019060ff8211612e1757565b60ff60019116019060ff8211612e1757565b60ff168015612e17575f190190565b90604182029180830460411490151715612e1757565b90939293848311610346578411610346578101920390565b604051906136ec604083611b8c565b600e82526d494e5354414c4c5f4d4f44554c4560901b6020830152565b60405190613718604083611b8c565b60138252725345545f4d4f44554c455f54494d454c4f434b60681b6020830152565b60405190613749604083611b8c565b601182527020a2222fa8191a9b2fa3aaa0a92224a0a760791b6020830152565b908160609103126103465780516001600160401b0381168103610346579160406020830151613797816117e0565b920151612c178161070d565b9593979692979490946137b587614255565b88604051998a97631037774b60e31b8952608489019060048a0152608060248a01525260a4870193905f5b818110613878575050506060969486946138136001600160a01b0395879561382595600319888403016044890152612e71565b84810360031901606486015291612e71565b0392165afa908115610cf4575f5f935f93613841575b50929190565b91935050613867915060603d606011613871575b61385f8183611b8c565b810190613769565b929092915f61383b565b503d613855565b91959697509192936020806001926001600160a01b036138978a6106f9565b1681520196019101918a9796959493926137e0565b90811580156139a2575b61399357600c5460a01c60ff169160ff8316926003841015611b075760ff81165f5b8160ff8216106139465750509061391b8382846139167f2ab721df8af22606080fcc695d2c255bf7bfb356dbe68e84057a3e29678de3ec97966142ec565b6143cb565b604080519182526020820192909252a2610354611a61613941600c5460ff9060a01c1690565b61363e565b61394f81613e31565b61395f575b60010160ff166138d8565b838561396a836140eb565b92149182613989575b50501561395457630f1b555960e11b5f5260045ffd5b149050855f613973565b639b27bc5360e01b5f5260045ffd5b5080156138b6565b600c5460a01c60ff1691905f5b8360ff8216106139d0576377b6878160e11b5f5260045ffd5b6139d981614267565b6001600160a01b038084169116146139f65760010160ff166139b7565b925050565b600290613a15600160ff83161b601554178060155561409c565b907f85d108740bb57aaf934ce63690f939704d2ce4cd099bc9c8ac11cd38db40392b60405180613a573394868390929160ff6020916040840195845216910152565b0390a21015613a6257565b613a775f6012555f6013555f6014555f601555565b613a82602654612e63565b6026557fedd770ee01b7c0ef4f503125eafdc2725536cbf32342dffcaa300d95a7cafce35f80a1565b60e081019060ff613abb83612c0d565b1615613be257613aca81612c0d565b60ff613ad86108bc85612c0d565b91161015613be257613aec60208201612c0d565b60ff613afa6108bc85612c0d565b91161015613be257613b0e60408201612c0d565b60ff613b1c6108bc85612c0d565b91161015613be257613b3060608201612c0d565b60ff613b3e6108bc85612c0d565b91161015613be257613b5260808201612c0d565b60ff613b606108bc85612c0d565b91161015613be257613b7460a08201612c0d565b60ff613b826108bc85612c0d565b91161015613be257610100810191613b9c6108bc84612c0d565b15159081613c26575b50613be25761012001613bba6108bc82612c0d565b151580613c06575b613be2576108bc613bd291612c0d565b15159081613bf1575b50613be257565b63a59a415160e01b5f5260045ffd5b613bff91506108bc90612c0d565b155f613bdb565b50613c1081612c0d565b60ff613c1e6108bc85612c0d565b911610613bc2565b905060ff613c3f6108bc613c3986612c0d565b93612c0d565b9116105f613ba5565b90613c54815160ff1690565b60ff613c646108bc855160ff1690565b911610613d8c57602081015160ff1660ff613c866108bc602086015160ff1690565b911610613d8c57604081015160ff1660ff613ca86108bc604086015160ff1690565b911610613d8c57606081015160ff1660ff613cca6108bc606086015160ff1690565b911610613d8c57608081015160ff1660ff613cec6108bc608086015160ff1690565b911610613d8c5760a081015160ff1660ff613d0e6108bc60a086015160ff1690565b911610613d8c5760e081015160ff1660ff613d306108bc60e086015160ff1690565b911610613d8c5761010081015160ff1660ff613d546108bc61010086015160ff1690565b911610613d8c57613d7c6108bc610120613d738160ff95015160ff1690565b94015160ff1690565b911610613d87575f90565b600190565b5050600190565b6001600160a01b031680158015613e14575b613e05575f90613dbe6108bc600c5460ff9060a01c1690565b915b8260ff821610613de857505050613de26112b36012546001600160a01b031690565b61032857565b81613df56112b383614267565b14613e055760010160ff16613dc0565b632a52b3c360e11b5f5260045ffd5b50613e2a6112b36001546001600160a01b031690565b8114613da5565b6001600160a01b03613e4561702692614267565b161490565b805180835260209291819084018484015e5f828201840152601f01601f1916010190565b926001600160a01b03612c179593613ea09360048752602087015216604085015260a0606085015260a0840190613e4a565b916080818403910152613e4a565b9091613eb982613e31565b15613f3957610b36613f3061035495604051928391613f1e60208401966004885246604086015230606086015260c06080860152600d60e08601526c28191a9b2fa3aaa0a92224a0a760991b61010086015261010060a0860152610120850190613e4a565b838103601f190160c085015290613e4a565b51902090614617565b6001600160a01b039291613fa18493613f9c613faa94610b36613f6c611fd29a6040519283916020830195304688613e6e565b5190207f19457468657265756d205369676e6564204d6573736167653a0a3332000000005f52601c52603c5f2090565b6148d0565b90969196614928565b16911603613fb457565b6301ea06f160e21b5f5260045ffd5b600160ff83161b5f60606001600160a01b0360405194613fe286611b71565b169384815242602082015283604082015201526001600160a01b0382166001600160601b0360a01b6012541617601255426013556014555f601555604051817f201c40b4643e8b76c330a24e1a20d94dd5f798a3654180da40a29c00c18fe3b8339280614059878291909160ff6020820193169052565b0390a3604080516001815260ff909316602084015233927f3e6e8da9cdbaf0d18a1123306c76e088d32bb5e76edabe32eaaa4ba7a50adb3791819081015b0390a3565b90815f925b6140a85750565b91600183168101809111612e17579160011c806140a1565b6001600160a01b03806140d246614810565b169116036140dc57565b633d6ca29960e21b5f5260045ffd5b60ff16801561410f57600114614105576024549060255490565b6022549060235490565b506020549060215490565b614131600160ff83161b601454178060145561409c565b6012546040805192835260ff909316602083015233926001600160a01b0391909116917f3e6e8da9cdbaf0d18a1123306c76e088d32bb5e76edabe32eaaa4ba7a50adb379181908101614097565b6001546001600160a01b0316600c54600d546001600160a01b031691600e546001600160a01b03169060205460215460225460235490602454926025549460405198899860208a019b6101608d01996001600160a01b03168d528c6001600160a01b0384166001600160a01b031690602001526001600160a01b031660408d01526001600160a01b031660608c015260a01c60ff1660ff1660808b015260a08a015260c089015260e088015261010087015261012086015261014085015203601f198101825261424f9082611b8c565b51902090565b6001600160a01b03806140d246614870565b60ff16801561429557600114614286576001600160a01b03600e541690565b6001600160a01b03600d541690565b506001600160a01b03600c541690565b60ff1680156142d9576001146142c757600e80546001600160a01b0319169055565b600d80546001600160a01b0319169055565b50600c80546001600160a01b0319169055565b60ff1680156143285760011461431257600e80546001600160a01b031916617026179055565b600d80546001600160a01b031916617026179055565b50600c80546001600160a01b031916617026179055565b9060ff6001600160a01b03921680156143855760011461436f57166001600160601b0360a01b600e541617600e55565b166001600160601b0360a01b600d541617600d55565b50166001600160601b0360a01b600c541617600c55565b60ff1680156143c0576001146143b6575f6024555f602555565b5f6022555f602355565b505f6020555f602155565b60ff1680156143eb576001146143e357602455602555565b602255602355565b50602055602155565b610b36613f6c612c17936040519283916020830195304688613e6e565b604019810191908211612e1757565b5f9290835b60ff861660ff86161061443a57505050505050565b61444e60ff6144488761368e565b166136af565b8084106124625761286261447b6144756108078461446e61448096614411565b898b6136c5565b85614497565b6139aa565b8082166124625760019590950160ff169417614425565b612c17916144a4916148d0565b90929192614928565b81601f82011215610346578051906144c482612d12565b926144d26040519485611b8c565b8284526020838301011161034657815f9260208093018386015e8301015290565b9160a0838303126103465782516001600160401b038111610346578261451a9185016144ad565b9260208101516001600160401b038111610346578361453a9183016144ad565b926040820151906001600160401b0382116103465761455a9183016144ad565b916080606083015192015190565b8051602010156132655760400190565b8051601e101561326557603e0190565b8051601f101561326557603f0190565b908151811015613265570160200190565b604051906145b8606083611b8c565b602482527f7b2274797065223a22776562617574686e2e676574222c226368616c6c656e6760208301526332911d1160e11b6040830152565b805191908290602001825e015f815290565b61461090602093926145f1565b9081520190565b916101608151106147fa5780602080614635935183010191016144f3565b93926025849693929651106147eb57600161466961466361465587614568565b516001600160f81b03191690565b60f81c90565b16156147eb578051602082012061467e6145a9565b60208151910120036147eb576146b66146bc6146c892610b365f956146b66146a7602099614a27565b6040519687958b8701906145f1565b906145f1565b604051918280926145f1565b039060025afa15610cf4575f6146f16020926146bc835191610b36604051938492888401614603565b039060025afa15610cf4575f51917f7fffffff800000007fffffffffffffffde737d56d38bcf4279dce5617e3192a882116147d557915f929161476c8493610b3661473b886140eb565b906040519586946020860198899192608093969594919660a084019784526020840152604083015260608201520152565b51906101005afa61477b612eb1565b90159081156147c8575b81156147a9575b506147945750565b6304ea2f1f60e31b5f5260ff1660045260245ffd5b60019150806020806147c093518301019101612ee0565b14155f61478c565b9050602081511090614785565b6304ea2f1f60e31b5f5260ff841660045260245ffd5b637e49a3c960e11b5f5260045ffd5b6304ea2f1f60e31b5f5260ff831660045260245ffd5b9061481a82614c58565b6148575761482782614d52565b61483e5750631874ab9360e31b5f5260045260245ffd5b738004a818bfb912233c491871b3d84c89a494bd9e9150565b738004a169fb4a3325136eb29fa0ceb6d2e539a4329150565b9061487a82614c58565b6148b75761488782614d52565b61489e5750631874ab9360e31b5f5260045260245ffd5b738004b663056a597dffe9eccc1965a193b73887139150565b738004baa17c55a88189ae136b182e5fda19de9b639150565b8151919060418303614900576148f99250602082015190606060408401519301515f1a90614da9565b9192909190565b50505f9160029190565b6004111561491457565b634e487b7160e01b5f52602160045260245ffd5b6149318161490a565b8061493a575050565b6149438161490a565b6001810361495a5763f645eedf60e01b5f5260045ffd5b6149638161490a565b6002810361497e575063fce698f760e01b5f5260045260245ffd5b8061498a60039261490a565b146149925750565b6335e2f38360e21b5f5260045260245ffd5b604051606091906149b58382611b8c565b602b815291601f1901366020840137565b604051906149d5606083611b8c565b604082527f6768696a6b6c6d6e6f707172737475767778797a303132333435363738392d5f6040837f4142434445464748494a4b4c4d4e4f505152535455565758595a61626364656660208201520152565b90610b36614a4a614a366149a4565b936040519283916020830160209181520190565b614a526149c6565b835f925f5b601e8110614b185750614b1592614b06600f614b0c94614ae7614655614ad6600388614aa16108bc614663614655614a9b6108bc6146559f61465561466391614578565b94614588565b95614ace614abb614655614ab58560021c90565b8d614598565b9e614ac581612e63565b9f5f1a92614598565b531660041b90565b614ae08460041c90565b1786614598565b97614afe614af482612e63565b995f1a918c614598565b531660021b90565b90614598565b5f1a9184614598565b53565b909150614b258183614598565b5160f81c614b3282612e3a565b614b3c9084614598565b5160f81c614b4983612e48565b614b539085614598565b5160f81c91614b66600282901c87614598565b516001600160f81b03191696614b7b81612e63565b975f1a90614b89908b614598565b53600316614b979060041b90565b614ba18260041c90565b17614bac9086614598565b516001600160f81b03191695614bc181612e63565b965f1a90614bcf908a614598565b53600f16614bdd9060021b90565b614be78260061c90565b17614bf29085614598565b516001600160f81b03191694614c0781612e63565b955f1a90614c159089614598565b53603f16614c239084614598565b516001600160f81b03191693614c3881612e63565b945f1a90614c469088614598565b53614c5090612e2c565b908591614a57565b60018114908115614d47575b8115614d3c575b8115614d30575b8115614d24575b8115614d18575b8115614d0d575b8115614d00575b8115614cf5575b8115614ce9575b8115614cdd575b8115614cd1575b8115614cc4575b8115614cbb575090565b61016891501490565b62028c5881149150614cb1565b61138881149150614caa565b61e70881149150614ca3565b61a4ec81149150614c9c565b606481149150614c95565b6208275081149150614c8e565b603881149150614c87565b61a86a81149150614c80565b61a4b181149150614c79565b61210581149150614c72565b608981149150614c6b565b600a81149150614c64565b62aa36a78114908115614d9c575b8115614d8f575b8115614d82575b8115614d78575090565b6201388291501490565b62066eee81149150614d6e565b62014a3481149150614d67565b62aa37dc81149150614d60565b91907f7fffffffffffffffffffffffffffffff5d576e7357a4501ddfe92f46681b20a08411614e20579160209360809260ff5f9560405194855216868401526040830152606082015282805260015afa15610cf4575f516001600160a01b03811615614e1657905f905f90565b505f906001905f90565b5050505f916003919056fea164736f6c6343000821000a","linkReferences":{}},"methodIdentifiers":{"activeRecovery()":"b5cb7bb8","addGuardianWithMixedSigs(address,uint8[],bytes[])":"79e26729","addP256Guardian(bytes32,bytes32)":"04f79674","addP256GuardianWithMixedSigs(bytes32,bytes32,uint8[],bytes[])":"d99b0a36","approveRecovery()":"fcae8d38","approveRecoveryWithSig(uint8,bytes)":"47a90550","approveWeightChange()":"cc2b82d9","approvedAlgorithms(uint8)":"8450a928","bindERC8004AgentWallet(address,uint256,address,uint256,bytes)":"67e3afe7","cancelModuleInstall()":"b60295e1","cancelRecovery()":"0ba234d6","cancelRecoveryWithSig(uint8,bytes)":"20617b94","cancelWeightChange()":"5f9613dd","entryPoint()":"b0d691fe","executeModuleInstall(bytes)":"4bc15d2b","executeRecovery()":"20c5a3e1","executeWeightChange()":"35905bb0","getGuardianP256Key(uint8)":"43538f9c","guard()":"7ceab3b1","mintAgentIdentity(address,string)":"353f0860","modifyTierLimitsWithMixedGuardians(uint256,uint256,uint256,uint8[],bytes[])":"642c7989","moduleInstallTimelock()":"c8175b3f","owner()":"8da5cb5b","p256KeyX()":"863ee512","p256KeyY()":"c4bb0566","parserRegistry()":"56dc31d0","pendingModuleInstall()":"8dbbce84","pendingWeightChange()":"7bea8f76","proposeModuleInstall(uint256,address,bytes)":"9bbbb8ae","proposeRecovery(address)":"7ee76082","proposeRecoveryWithSig(address,uint8,bytes)":"1110ac2e","proposeWeightChange((uint8,uint8,uint8,uint8,uint8,uint8,uint8,uint8,uint8,uint8))":"6b56c654","queryAgentReputation(address,uint256,address[],string,string)":"f9c391f6","removeGuardianWithMixedSigs(uint8,uint8[],bytes[])":"8abb1c2a","setAgentWallet(uint256,address,address,bytes)":"293e07f2","setModuleInstallTimelock(uint256,bytes)":"a5b915b5","setWeightConfig((uint8,uint8,uint8,uint8,uint8,uint8,uint8,uint8,uint8,uint8))":"10d47802","submitAgentReputation(address,uint256,int128,uint8,string,string,string,string,bytes32)":"6e795333","tier1Limit()":"8efdc881","tier2Limit()":"dbaf0cc3","tierLimitNonce()":"b6135596","validator()":"3a5381b5","weightConfig()":"085aa197"},"id":56}