{"abi":[{"type":"constructor","inputs":[{"name":"_g","type":"address","internalType":"address"},{"name":"_s","type":"address","internalType":"address"},{"name":"_r","type":"address","internalType":"address"},{"name":"_d","type":"address","internalType":"address"}],"stateMutability":"nonpayable"},{"type":"function","name":"GTOKEN","inputs":[],"outputs":[{"name":"","type":"address","internalType":"address"}],"stateMutability":"view"},{"type":"function","name":"GTOKEN_STAKING","inputs":[],"outputs":[{"name":"","type":"address","internalType":"address"}],"stateMutability":"view"},{"type":"function","name":"REGISTRY","inputs":[],"outputs":[{"name":"","type":"address","internalType":"address"}],"stateMutability":"view"},{"type":"function","name":"SUPER_PAYMASTER","inputs":[],"outputs":[{"name":"","type":"address","internalType":"address"}],"stateMutability":"view"},{"type":"function","name":"VERSION","inputs":[],"outputs":[{"name":"","type":"string","internalType":"string"}],"stateMutability":"view"},{"type":"function","name":"VERSION_CODE","inputs":[],"outputs":[{"name":"","type":"uint256","internalType":"uint256"}],"stateMutability":"view"},{"type":"function","name":"airdropMint","inputs":[{"name":"u","type":"address","internalType":"address"},{"name":"roleId","type":"bytes32","internalType":"bytes32"},{"name":"roleData","type":"bytes","internalType":"bytes"}],"outputs":[{"name":"tid","type":"uint256","internalType":"uint256"},{"name":"isNew","type":"bool","internalType":"bool"}],"stateMutability":"nonpayable"},{"type":"function","name":"approve","inputs":[{"name":"to","type":"address","internalType":"address"},{"name":"tokenId","type":"uint256","internalType":"uint256"}],"outputs":[],"stateMutability":"nonpayable"},{"type":"function","name":"balanceOf","inputs":[{"name":"owner","type":"address","internalType":"address"}],"outputs":[{"name":"","type":"uint256","internalType":"uint256"}],"stateMutability":"view"},{"type":"function","name":"burnSBT","inputs":[],"outputs":[],"stateMutability":"nonpayable"},{"type":"function","name":"daoMultisig","inputs":[],"outputs":[{"name":"","type":"address","internalType":"address"}],"stateMutability":"view"},{"type":"function","name":"deactivateMembership","inputs":[{"name":"user","type":"address","internalType":"address"},{"name":"community","type":"address","internalType":"address"}],"outputs":[],"stateMutability":"nonpayable"},{"type":"function","name":"getActiveMemberships","inputs":[{"name":"tid","type":"uint256","internalType":"uint256"}],"outputs":[{"name":"active","type":"address[]","internalType":"address[]"}],"stateMutability":"view"},{"type":"function","name":"getApproved","inputs":[{"name":"tokenId","type":"uint256","internalType":"uint256"}],"outputs":[{"name":"","type":"address","internalType":"address"}],"stateMutability":"view"},{"type":"function","name":"getCommunityMembership","inputs":[{"name":"tid","type":"uint256","internalType":"uint256"},{"name":"comm","type":"address","internalType":"address"}],"outputs":[{"name":"mem","type":"tuple","internalType":"struct MySBT.CommunityMembership","components":[{"name":"community","type":"address","internalType":"address"},{"name":"joinedAt","type":"uint256","internalType":"uint256"},{"name":"lastActiveTime","type":"uint256","internalType":"uint256"},{"name":"isActive","type":"bool","internalType":"bool"},{"name":"metadata","type":"string","internalType":"string"}]}],"stateMutability":"view"},{"type":"function","name":"getMemberships","inputs":[{"name":"tid","type":"uint256","internalType":"uint256"}],"outputs":[{"name":"","type":"tuple[]","internalType":"struct MySBT.CommunityMembership[]","components":[{"name":"community","type":"address","internalType":"address"},{"name":"joinedAt","type":"uint256","internalType":"uint256"},{"name":"lastActiveTime","type":"uint256","internalType":"uint256"},{"name":"isActive","type":"bool","internalType":"bool"},{"name":"metadata","type":"string","internalType":"string"}]}],"stateMutability":"view"},{"type":"function","name":"getSBTData","inputs":[{"name":"tid","type":"uint256","internalType":"uint256"}],"outputs":[{"name":"","type":"tuple","internalType":"struct MySBT.SBTData","components":[{"name":"holder","type":"address","internalType":"address"},{"name":"firstCommunity","type":"address","internalType":"address"},{"name":"mintedAt","type":"uint256","internalType":"uint256"},{"name":"totalCommunities","type":"uint256","internalType":"uint256"}]}],"stateMutability":"view"},{"type":"function","name":"getUserSBT","inputs":[{"name":"u","type":"address","internalType":"address"}],"outputs":[{"name":"","type":"uint256","internalType":"uint256"}],"stateMutability":"view"},{"type":"function","name":"isApprovedForAll","inputs":[{"name":"owner","type":"address","internalType":"address"},{"name":"operator","type":"address","internalType":"address"}],"outputs":[{"name":"","type":"bool","internalType":"bool"}],"stateMutability":"view"},{"type":"function","name":"lastActivityTime","inputs":[{"name":"","type":"uint256","internalType":"uint256"},{"name":"","type":"address","internalType":"address"}],"outputs":[{"name":"","type":"uint256","internalType":"uint256"}],"stateMutability":"view"},{"type":"function","name":"leaveCommunity","inputs":[{"name":"comm","type":"address","internalType":"address"}],"outputs":[],"stateMutability":"nonpayable"},{"type":"function","name":"membershipIndex","inputs":[{"name":"","type":"uint256","internalType":"uint256"},{"name":"","type":"address","internalType":"address"}],"outputs":[{"name":"","type":"uint256","internalType":"uint256"}],"stateMutability":"view"},{"type":"function","name":"minLockAmount","inputs":[],"outputs":[{"name":"","type":"uint256","internalType":"uint256"}],"stateMutability":"view"},{"type":"function","name":"mintFee","inputs":[],"outputs":[{"name":"","type":"uint256","internalType":"uint256"}],"stateMutability":"view"},{"type":"function","name":"mintForRole","inputs":[{"name":"user","type":"address","internalType":"address"},{"name":"roleId","type":"bytes32","internalType":"bytes32"},{"name":"roleData","type":"bytes","internalType":"bytes"}],"outputs":[{"name":"tokenId","type":"uint256","internalType":"uint256"},{"name":"isNewMint","type":"bool","internalType":"bool"}],"stateMutability":"nonpayable"},{"type":"function","name":"name","inputs":[],"outputs":[{"name":"","type":"string","internalType":"string"}],"stateMutability":"view"},{"type":"function","name":"nextTokenId","inputs":[],"outputs":[{"name":"","type":"uint256","internalType":"uint256"}],"stateMutability":"view"},{"type":"function","name":"ownerOf","inputs":[{"name":"tokenId","type":"uint256","internalType":"uint256"}],"outputs":[{"name":"","type":"address","internalType":"address"}],"stateMutability":"view"},{"type":"function","name":"pause","inputs":[],"outputs":[],"stateMutability":"nonpayable"},{"type":"function","name":"paused","inputs":[],"outputs":[{"name":"","type":"bool","internalType":"bool"}],"stateMutability":"view"},{"type":"function","name":"recordActivity","inputs":[{"name":"u","type":"address","internalType":"address"}],"outputs":[],"stateMutability":"nonpayable"},{"type":"function","name":"reputationCalculator","inputs":[],"outputs":[{"name":"","type":"address","internalType":"address"}],"stateMutability":"view"},{"type":"function","name":"safeTransferFrom","inputs":[{"name":"from","type":"address","internalType":"address"},{"name":"to","type":"address","internalType":"address"},{"name":"tokenId","type":"uint256","internalType":"uint256"}],"outputs":[],"stateMutability":"nonpayable"},{"type":"function","name":"safeTransferFrom","inputs":[{"name":"from","type":"address","internalType":"address"},{"name":"to","type":"address","internalType":"address"},{"name":"tokenId","type":"uint256","internalType":"uint256"},{"name":"data","type":"bytes","internalType":"bytes"}],"outputs":[],"stateMutability":"nonpayable"},{"type":"function","name":"sbtData","inputs":[{"name":"","type":"uint256","internalType":"uint256"}],"outputs":[{"name":"holder","type":"address","internalType":"address"},{"name":"firstCommunity","type":"address","internalType":"address"},{"name":"mintedAt","type":"uint256","internalType":"uint256"},{"name":"totalCommunities","type":"uint256","internalType":"uint256"}],"stateMutability":"view"},{"type":"function","name":"setApprovalForAll","inputs":[{"name":"operator","type":"address","internalType":"address"},{"name":"approved","type":"bool","internalType":"bool"}],"outputs":[],"stateMutability":"nonpayable"},{"type":"function","name":"setBaseURI","inputs":[{"name":"baseURI","type":"string","internalType":"string"}],"outputs":[],"stateMutability":"nonpayable"},{"type":"function","name":"setDAOMultisig","inputs":[{"name":"d","type":"address","internalType":"address"}],"outputs":[],"stateMutability":"nonpayable"},{"type":"function","name":"setMinLockAmount","inputs":[{"name":"a","type":"uint256","internalType":"uint256"}],"outputs":[],"stateMutability":"nonpayable"},{"type":"function","name":"setMintFee","inputs":[{"name":"f","type":"uint256","internalType":"uint256"}],"outputs":[],"stateMutability":"nonpayable"},{"type":"function","name":"setRegistry","inputs":[{"name":"r","type":"address","internalType":"address"}],"outputs":[],"stateMutability":"nonpayable"},{"type":"function","name":"setReputationCalculator","inputs":[{"name":"c","type":"address","internalType":"address"}],"outputs":[],"stateMutability":"nonpayable"},{"type":"function","name":"setSuperPaymaster","inputs":[{"name":"_paymaster","type":"address","internalType":"address"}],"outputs":[],"stateMutability":"nonpayable"},{"type":"function","name":"supportsInterface","inputs":[{"name":"interfaceId","type":"bytes4","internalType":"bytes4"}],"outputs":[{"name":"","type":"bool","internalType":"bool"}],"stateMutability":"view"},{"type":"function","name":"symbol","inputs":[],"outputs":[{"name":"","type":"string","internalType":"string"}],"stateMutability":"view"},{"type":"function","name":"tokenURI","inputs":[{"name":"tokenId","type":"uint256","internalType":"uint256"}],"outputs":[{"name":"","type":"string","internalType":"string"}],"stateMutability":"view"},{"type":"function","name":"transferFrom","inputs":[{"name":"from","type":"address","internalType":"address"},{"name":"to","type":"address","internalType":"address"},{"name":"tokenId","type":"uint256","internalType":"uint256"}],"outputs":[],"stateMutability":"nonpayable"},{"type":"function","name":"unpause","inputs":[],"outputs":[],"stateMutability":"nonpayable"},{"type":"function","name":"userToSBT","inputs":[{"name":"","type":"address","internalType":"address"}],"outputs":[{"name":"","type":"uint256","internalType":"uint256"}],"stateMutability":"view"},{"type":"function","name":"verifyCommunityMembership","inputs":[{"name":"u","type":"address","internalType":"address"},{"name":"comm","type":"address","internalType":"address"}],"outputs":[{"name":"","type":"bool","internalType":"bool"}],"stateMutability":"view"},{"type":"function","name":"version","inputs":[],"outputs":[{"name":"","type":"uint256","internalType":"uint256"}],"stateMutability":"pure"},{"type":"function","name":"versionString","inputs":[],"outputs":[{"name":"","type":"string","internalType":"string"}],"stateMutability":"pure"},{"type":"function","name":"weeklyActivity","inputs":[{"name":"","type":"uint256","internalType":"uint256"},{"name":"","type":"address","internalType":"address"},{"name":"","type":"uint256","internalType":"uint256"}],"outputs":[{"name":"","type":"bool","internalType":"bool"}],"stateMutability":"view"},{"type":"event","name":"ActivityRecorded","inputs":[{"name":"tokenId","type":"uint256","indexed":true,"internalType":"uint256"},{"name":"community","type":"address","indexed":true,"internalType":"address"},{"name":"week","type":"uint256","indexed":false,"internalType":"uint256"},{"name":"timestamp","type":"uint256","indexed":false,"internalType":"uint256"}],"anonymous":false},{"type":"event","name":"Approval","inputs":[{"name":"owner","type":"address","indexed":true,"internalType":"address"},{"name":"approved","type":"address","indexed":true,"internalType":"address"},{"name":"tokenId","type":"uint256","indexed":true,"internalType":"uint256"}],"anonymous":false},{"type":"event","name":"ApprovalForAll","inputs":[{"name":"owner","type":"address","indexed":true,"internalType":"address"},{"name":"operator","type":"address","indexed":true,"internalType":"address"},{"name":"approved","type":"bool","indexed":false,"internalType":"bool"}],"anonymous":false},{"type":"event","name":"ContractPaused","inputs":[{"name":"by","type":"address","indexed":true,"internalType":"address"},{"name":"timestamp","type":"uint256","indexed":false,"internalType":"uint256"}],"anonymous":false},{"type":"event","name":"ContractUnpaused","inputs":[{"name":"by","type":"address","indexed":true,"internalType":"address"},{"name":"timestamp","type":"uint256","indexed":false,"internalType":"uint256"}],"anonymous":false},{"type":"event","name":"DAOMultisigUpdated","inputs":[{"name":"oldDAO","type":"address","indexed":true,"internalType":"address"},{"name":"newDAO","type":"address","indexed":true,"internalType":"address"},{"name":"timestamp","type":"uint256","indexed":false,"internalType":"uint256"}],"anonymous":false},{"type":"event","name":"MembershipAdded","inputs":[{"name":"tokenId","type":"uint256","indexed":true,"internalType":"uint256"},{"name":"community","type":"address","indexed":true,"internalType":"address"},{"name":"metadata","type":"string","indexed":false,"internalType":"string"},{"name":"timestamp","type":"uint256","indexed":false,"internalType":"uint256"}],"anonymous":false},{"type":"event","name":"MembershipDeactivated","inputs":[{"name":"tokenId","type":"uint256","indexed":true,"internalType":"uint256"},{"name":"community","type":"address","indexed":true,"internalType":"address"},{"name":"timestamp","type":"uint256","indexed":false,"internalType":"uint256"}],"anonymous":false},{"type":"event","name":"MinLockAmountUpdated","inputs":[{"name":"oldAmount","type":"uint256","indexed":false,"internalType":"uint256"},{"name":"newAmount","type":"uint256","indexed":false,"internalType":"uint256"},{"name":"timestamp","type":"uint256","indexed":false,"internalType":"uint256"}],"anonymous":false},{"type":"event","name":"MintFeeUpdated","inputs":[{"name":"oldFee","type":"uint256","indexed":false,"internalType":"uint256"},{"name":"newFee","type":"uint256","indexed":false,"internalType":"uint256"},{"name":"timestamp","type":"uint256","indexed":false,"internalType":"uint256"}],"anonymous":false},{"type":"event","name":"Paused","inputs":[{"name":"account","type":"address","indexed":false,"internalType":"address"}],"anonymous":false},{"type":"event","name":"RegistryUpdated","inputs":[{"name":"oldRegistry","type":"address","indexed":true,"internalType":"address"},{"name":"newRegistry","type":"address","indexed":true,"internalType":"address"},{"name":"timestamp","type":"uint256","indexed":false,"internalType":"uint256"}],"anonymous":false},{"type":"event","name":"ReputationCalculatorUpdated","inputs":[{"name":"oldCalculator","type":"address","indexed":true,"internalType":"address"},{"name":"newCalculator","type":"address","indexed":true,"internalType":"address"},{"name":"timestamp","type":"uint256","indexed":false,"internalType":"uint256"}],"anonymous":false},{"type":"event","name":"SBTBurned","inputs":[{"name":"user","type":"address","indexed":true,"internalType":"address"},{"name":"tokenId","type":"uint256","indexed":true,"internalType":"uint256"},{"name":"grossAmount","type":"uint256","indexed":false,"internalType":"uint256"},{"name":"netAmount","type":"uint256","indexed":false,"internalType":"uint256"},{"name":"timestamp","type":"uint256","indexed":false,"internalType":"uint256"}],"anonymous":false},{"type":"event","name":"SBTMinted","inputs":[{"name":"user","type":"address","indexed":true,"internalType":"address"},{"name":"tokenId","type":"uint256","indexed":true,"internalType":"uint256"},{"name":"firstCommunity","type":"address","indexed":true,"internalType":"address"},{"name":"timestamp","type":"uint256","indexed":false,"internalType":"uint256"}],"anonymous":false},{"type":"event","name":"SuperPaymasterUpdated","inputs":[{"name":"oldPaymaster","type":"address","indexed":true,"internalType":"address"},{"name":"newPaymaster","type":"address","indexed":true,"internalType":"address"},{"name":"timestamp","type":"uint256","indexed":false,"internalType":"uint256"}],"anonymous":false},{"type":"event","name":"Transfer","inputs":[{"name":"from","type":"address","indexed":true,"internalType":"address"},{"name":"to","type":"address","indexed":true,"internalType":"address"},{"name":"tokenId","type":"uint256","indexed":true,"internalType":"uint256"}],"anonymous":false},{"type":"event","name":"Unpaused","inputs":[{"name":"account","type":"address","indexed":false,"internalType":"address"}],"anonymous":false},{"type":"error","name":"E","inputs":[]},{"type":"error","name":"ERC721IncorrectOwner","inputs":[{"name":"sender","type":"address","internalType":"address"},{"name":"tokenId","type":"uint256","internalType":"uint256"},{"name":"owner","type":"address","internalType":"address"}]},{"type":"error","name":"ERC721InsufficientApproval","inputs":[{"name":"operator","type":"address","internalType":"address"},{"name":"tokenId","type":"uint256","internalType":"uint256"}]},{"type":"error","name":"ERC721InvalidApprover","inputs":[{"name":"approver","type":"address","internalType":"address"}]},{"type":"error","name":"ERC721InvalidOperator","inputs":[{"name":"operator","type":"address","internalType":"address"}]},{"type":"error","name":"ERC721InvalidOwner","inputs":[{"name":"owner","type":"address","internalType":"address"}]},{"type":"error","name":"ERC721InvalidReceiver","inputs":[{"name":"receiver","type":"address","internalType":"address"}]},{"type":"error","name":"ERC721InvalidSender","inputs":[{"name":"sender","type":"address","internalType":"address"}]},{"type":"error","name":"ERC721NonexistentToken","inputs":[{"name":"tokenId","type":"uint256","internalType":"uint256"}]},{"type":"error","name":"EnforcedPause","inputs":[]},{"type":"error","name":"ExpectedPause","inputs":[]},{"type":"error","name":"ReentrancyGuardReentrantCall","inputs":[]}],"bytecode":{"object":"0x60c06040523461020a5761360c6080813803918261001c81610428565b93849283398101031261020a576100328161044d565b9061003f6020820161044d565b61005760606100506040850161044d565b930161044d565b926100626040610428565b601981527f4d7963656c69756d20536f756c20426f756e6420546f6b656e0000000000000060208201526100966040610428565b6005815264135e54d09560da1b6020820152815190916001600160401b03821161032f575f5490600182811c9216801561041e575b60208310146103115781601f8493116103b1575b50602090601f831160011461034e575f92610343575b50508160011b915f199060031b1c1916175f555b8051906001600160401b03821161032f5760015490600182811c92168015610325575b60208310146103115781601f8493116102a3575b50602090601f831160011461023d575f92610232575b50508160011b915f199060031b1c1916176001555b600160068190556007805460ff19169055601355670429d069189e000060145567016345785d8a00006015556001600160a01b038116151580610220575b8061020e575b1561020a5760805260a052600e80546001600160a01b039283166001600160a01b031991821617909155600f80549390921692169190911790556040516131aa9081610462823960805181610f1e015260a05181610ea00152f35b5f80fd5b506001600160a01b03841615156101af565b506001600160a01b03821615156101a9565b015190505f80610156565b60015f9081528281209350601f198516905b81811061028b5750908460019594939210610273575b505050811b0160015561016b565b01515f1960f88460031b161c191690555f8080610265565b9293602060018192878601518155019501930161024f565b60015f529091507fb10e2d527612073b26eecdfd717e6a320cf44b4afac2b0732d9fcbe2b7fa0cf6601f840160051c81019160208510610307575b90601f859493920160051c01905b8181106102f95750610140565b5f81558493506001016102ec565b90915081906102de565b634e487b7160e01b5f52602260045260245ffd5b91607f169161012c565b634e487b7160e01b5f52604160045260245ffd5b015190505f806100f5565b5f8080528281209350601f198516905b8181106103995750908460019594939210610381575b505050811b015f55610109565b01515f1960f88460031b161c191690555f8080610374565b9293602060018192878601518155019501930161035e565b5f80529091507f290decd9548b62a8d60345a988386fc84ba6bc95484008f6362f93160ef3e563601f840160051c81019160208510610414575b90601f859493920160051c01905b81811061040657506100df565b5f81558493506001016103f9565b90915081906103eb565b91607f16916100cb565b6040519190601f01601f191682016001600160401b0381118382101761032f57604052565b51906001600160a01b038216820361020a5756fe6080806040526004361015610012575f80fd5b5f905f3560e01c90816301ffc9a714611f645750806306433b1b14611f3c57806306fdde0314611e75578063081812fc14611e395780630880427514611e1c578063095ea7b314611d325780630f68ae4014611cc357806311c4517014611a9557806313966db514611a7757806323b872dd14611a5f5780632d5a7f4f14610ecf5780632f7c88f5146119145780633e3e6842146115755780633f4ba83a146114d457806342842e0e146114aa5780634f8cc0651461142857806354fd4d501461140a578063556697da1461133557806355f804b3146111bb5780635bb5bf0c146111845780635c975abb146111615780636352211e1461113057806370a08231146110dd57806371eb90a11461101957806375794a3c14610ffb578063776fafac14610f9e5780637e21579114610f4d5780637f6b337b14610f0857806380f4b8c814610ecf578063826600ce14610e8a5780638456cb5914610df65780638ceebd8f14610c6e578063908c101814610c29578063919d1e2c14610c0057806395d89b4114610b31578063a1141b0714610aec578063a22cb46514610a45578063a6109650146109c4578063a91ee0dc14610933578063b88d4fde146108cf578063bead051314610894578063bf1fb0f2146107f0578063c0d0aa69146107c7578063c580163e14610770578063c87b56dd146104ca578063ccbc10d0146104a1578063d977b66b1461045e578063dcaff6c514610414578063e79e973914610393578063e976306314610376578063e985e9c51461031e578063eddd0d9c146102b45763ffa1ad7414610265575f80fd5b346102b157806003193601126102b157506102ad604051610287604082612171565b60058152640332e302e360dc1b6020820152604051918291602083526020830190611fcf565b0390f35b80fd5b50346102b15760203660031901126102b1577fd3950a5507479ea19c5c7766f5191546ace60f0a00dc360d52ce083b58f223316004356102ff60018060a01b03600f5416331461221d565b6015549080601555610318604051928392429184612254565b0390a180f35b50346102b15760403660031901126102b157604061033a611ff3565b91610343612009565b9260018060a01b031681526005602052209060018060a01b03165f52602052602060ff60405f2054166040519015158152f35b50346102b157806003193601126102b15760206040516175308152f35b50346102b15760203660031901126102b1576103ad611ff3565b6103c260018060a01b03600f5416331461221d565b601280546001600160a01b039283166001600160a01b031982168117909255604051428152919216907f3aef062d014a7168191b96fb2a9e3c807b09e2a887a23c265114bc08f9e5cf0290602090a380f35b50346102b157806003193601126102b157506102ad604051610437604082612171565b6006815265076332e312e360d41b6020820152604051918291602083526020830190611fcf565b50346102b15760403660031901126102b15761049e61047b611ff3565b610483612009565b9061049960018060a01b03600e54163314612435565b612ff6565b80f35b50346102b157806003193601126102b1576010546040516001600160a01b039091168152602090f35b50346102b15760203660031901126102b1576004356104e881612d3d565b50604051601154919083816104fc856121e5565b9182825260208201956001811690815f146107545750600114610709575b61052692500382612171565b8051156106ec5790929081848072184f03e93ff9f4daa797ed6e38ed64bf6a1f0160401b8110156106c6575b50600a906904ee2d6d415b85acef8160201b8110156106aa575b662386f26fc10000811015610696575b6305f5e100811015610685575b612710811015610676575b6064811015610668575b101561065e575b6001830194600a60216105d06105ba89612194565b986105c86040519a8b612171565b808a52612194565b602089019690601f19013688378801015b5f1901916f181899199a1a9b1b9c1cb0b131b232b360811b8282061a83530490811561060f57600a906105e1565b5050602061064a936102ad966040519687955180918588015e85019083820190858252519283915e010190815203601f198101835282612171565b604051918291602083526020830190611fcf565b91600101916105a5565b60646002910494019361059e565b61271060049104940193610594565b6305f5e10060089104940193610589565b662386f26fc100006010910494019361057c565b602094909401936904ee2d6d415b85acef8160201b900461056c565b6040945072184f03e93ff9f4daa797ed6e38ed64bf6a1f0160401b90049050600a610552565b5050506102ad9060405190610702602083612171565b815261064a565b50601186529085905f5160206130d55f395f51905f525b8183106107385750509060206105269282010161051a565b6020919350806001915483858801015201910190918392610720565b60ff191687525061052692151560051b8201602001905061051a565b50346102b1576107b06107823661209a565b9290915061078e612d71565b610796612d8c565b6107ab60018060a01b03600e54163314612435565b6129b3565b600160065560408051928352901515602083015290f35b50346102b157806003193601126102b157600f546040516001600160a01b039091168152602090f35b50346102b15760203660031901126102b1576040816080926060835161081581612156565b82815282602082015282858201520152600435815260096020522060405161083c81612156565b81546001600160a01b0390811680835260018401548216602080850191825260028601546040808701918252600390970154606096870190815287519485529251909416908301529151938101939093525190820152f35b50346102b15760203660031901126102b1576108c76108b1611ff3565b6108b9612d71565b6108c1612d8c565b33612ff6565b600160065580f35b50346102b15760803660031901126102b1576108e9611ff3565b6108f1612009565b606435916001600160401b03831161092f573660238401121561092f5761092561049e9336906024816004013591016121af565b9160443591612873565b8380fd5b50346102b15760203660031901126102b15761094d611ff3565b61096260018060a01b03600f5416331461221d565b6001600160a01b031680156109c057600e80546001600160a01b0319811683179091556040514281526001600160a01b03909116907f724c89272c35417e239c6cd89ada342e0717632938f38b47eaacecacf291ace290602090a380f35b5080fd5b50346102b15760203660031901126102b1576109de611ff3565b6109f360018060a01b03600f5416331461221d565b601080546001600160a01b039283166001600160a01b031982168117909255604051428152919216907fb71a92720c720f655d24a8ebbeeb4c9875d85189ca58d32cb0e6997aa5e6c29190602090a380f35b50346102b15760403660031901126102b157610a5f611ff3565b602435908115159081830361092f576001600160a01b0316918215610ad857610aa990338552600560205260408520845f5260205260405f209060ff801983541691151516179055565b6040519081527f17307eab39ab6107e8899845ad3d59bd9653f200f220920489ca2b5937696c3160203392a380f35b630b61174360e31b84526004839052602484fd5b50346102b15760403660031901126102b1576040610b08612009565b916004358152600b602052209060018060a01b03165f52602052602060405f2054604051908152f35b50346102b157806003193601126102b157604051908060015490610b54826121e5565b8085529160018116908115610bd95750600114610b7c575b6102ad8461064a81860382612171565b600181527fb10e2d527612073b26eecdfd717e6a320cf44b4afac2b0732d9fcbe2b7fa0cf6939250905b808210610bbf5750909150810160200161064a82610b6c565b919260018160209254838588010152019101909291610ba6565b60ff191660208087019190915292151560051b8501909201925061064a9150839050610b6c565b50346102b157806003193601126102b1576012546040516001600160a01b039091168152602090f35b50346102b15760403660031901126102b1576040610c45612009565b916004358152600d602052209060018060a01b03165f52602052602060405f2054604051908152f35b50346102b15760203660031901126102b1576004358152600a602052604081208054610c99816126c2565b91610ca76040519384612171565b81835283526020808420849184015b838310610dd857858086815b8151811015610cfb576060610cd7828461285f565b510151610ce7575b600101610cc2565b91610cf3600191612684565b929050610cdf565b50610d1e610d08836126c2565b92610d166040519485612171565b8084526126c2565b602083019290601f19013684378390845b8351811015610d89576060610d44828661285f565b510151610d54575b600101610d2f565b91600190610d81906001600160a01b03610d6e868861285f565b515116610d7b828661285f565b52612684565b929050610d4c565b5092915050604051928392602084019060208552518091526040840192915b818110610db6575050500390f35b82516001600160a01b0316845285945060209384019390920191600101610da8565b60056020600192610de8856126d9565b815201920192019190610cb6565b50346102b157806003193601126102b157610e1c60018060a01b03600f5416331461221d565b610e24612d71565b600160ff1960075416176007557f62e78cea01bee320cd4e420270b5ea74000d11b0c9f74754ebdbfc544b05a2586020604051338152a16040514281527f80170b5fcdd2bf1e0660ef4b8851f86685f64d41b1a19de1471947ece8725aac60203392a280f35b50346102b157806003193601126102b1576040517f00000000000000000000000000000000000000000000000000000000000000006001600160a01b03168152602090f35b50346102b15760203660031901126102b1576020906040906001600160a01b03610ef7611ff3565b168152600883522054604051908152f35b50346102b157806003193601126102b1576040517f00000000000000000000000000000000000000000000000000000000000000006001600160a01b03168152602090f35b50346102b15760603660031901126102b15760ff6040602092610f6e612009565b6004358252600c85528282209060018060a01b03165f528452815f20604435825284522054166040519015158152f35b50346102b15760203660031901126102b1576040608091600435815260096020522060018060a01b038154169060018060a01b03600182015416906003600282015491015491604051938452602084015260408301526060820152f35b50346102b157806003193601126102b1576020601354604051908152f35b50346102b15760403660031901126102b157600435611036612009565b906060608060405161104781612127565b85815285602082015285604082015285838201520152808352600b6020526040832060018060a01b0383165f5260205260405f205490808452600a602052604084205482101561092f576110af916110a9918552600a6020526040852061226a565b506126d9565b805190916001600160a01b039182169116036109c0576102ad906040519182916020835260208301906120e0565b50346102b15760203660031901126102b1576001600160a01b036110ff611ff3565b16801561111c578160409160209352600383522054604051908152f35b6322718ad960e21b82526004829052602482fd5b50346102b15760203660031901126102b157602061114f600435612d3d565b6040516001600160a01b039091168152f35b50346102b157806003193601126102b157602060ff600754166040519015158152f35b50346102b15760403660031901126102b15760206111b16111a3611ff3565b6111ab612009565b906127c1565b6040519015158152f35b50346102b15760203660031901126102b1576004356001600160401b0381116109c0576111ec90369060040161206d565b61120460018060a09594951b03600f5416331461221d565b6001600160401b0381116113215761121d6011546121e5565b601f81116112d1575b5081601f82116001146112665781908394611255949261125b575b50508160011b915f199060031b1c19161790565b60115580f35b013590505f80611241565b60118352601f198216935f5160206130d55f395f51905f5291845b8681106112b957508360019596106112a0575b505050811b0160115580f35b01355f19600384901b60f8161c191690555f8080611294565b90926020600181928686013581550194019101611281565b601183525f5160206130d55f395f51905f52601f830160051c81019160208410611317575b601f0160051c01905b81811061130c5750611226565b8381556001016112ff565b90915081906112f6565b634e487b7160e01b82526041600452602482fd5b50346102b15760203660031901126102b1576004358152600a602052604081208054611360816126c2565b9061136e6040519283612171565b80825260208201809385526020852085915b8383106113ec57868587604051928392602084019060208552518091526040840160408260051b8601019392905b8282106113bd57505050500390f35b919360019193955060206113dc8192603f198a820301865288516120e0565b96019201920185949391926113ae565b600560206001926113fc856126d9565b815201920192019190611380565b50346102b157806003193601126102b1576020604051622dcaa88152f35b50346102b15760203660031901126102b157611442611ff3565b600f54906001600160a01b0382169061145c33831461221d565b6001600160a01b031691821561092f576001600160a01b0319168217600f556040514281527f90de8705b1aaf3966be0e8ec8acf9aed10a6d3d0d572ec8f96112409e2820c6190602090a380f35b50346102b15761049e6114bc36612033565b90604051926114cc602085612171565b858452612873565b50346102b157806003193601126102b1576114fa60018060a01b03600f5416331461221d565b60075460ff8116156115665760ff19166007557f5db9ee0a495bf2e6ff9c91a7834c1ba4fdd244a5e8aa4e537bd38aeae4b073aa6020604051338152a16040514281527f107553d8191d85b405879cf752997865edd48d94e20bda4dd27223c94b31a7cc60203392a280f35b638dfc202b60e01b8252600482fd5b50346102b1576115843661209a565b915061158e612d71565b611596612d8c565b6115ab60018060a01b03600e54163314612435565b6001600160a01b0383166115c0811515612471565b80855260086020526040852054806117575750601354916115e083612684565b6013558294600196858301956020848803126109c0575f5160206130f55f395f51905f5293926117269287926116f8908c906001600160a01b036116238961201f565b169b8c60036040519161163583612156565b8d83526020808401918252426040808601918252606086018981528d8c5260098452818c20965187546001600160a01b03199081166001600160a01b039283161789559551888c01805490971691161790945590516002860155915192909301919091558c875260088252808720899055519099908a906116b68282612171565b8781529311611744575b5050858452600a88526040842090604051926116db84612127565b8d8452428a850152426040850152606084015260808301526124f2565b828152600b855260408082206001600160a01b038b165f90815290875220556117218282612ebb565b612f95565b604051428152a45b6001600655604080519182529115156020820152f35b61174e92506124ac565b90505f806116c0565b9350509083818301926020818503126109c0576001600160a01b0361177b8261201f565b1693858352600b6020526040832060018060a01b0386165f5260205260405f2054868452600a6020528560408520548210918215926118e9575b5050156118b357602091826040516117cd8282612171565b858152951161189e575b5050848252600a815261181460408320604051906117f482612127565b8682524284830152426040830152600160608301528560808301526124f2565b848252600a815260408220545f19810190811161188a579260036040846009611882958a98895f5160206131555f395f51905f529952600b825284842060018060a01b038c165f528252845f20558883525220016118728154612684565b90556040519182914290836126a6565b0390a361172e565b634e487b7160e01b83526011600452602483fd5b6118a99294506124ac565b9050915f806117d7565b60405162461bcd60e51b815260206004820152600e60248201526d20b63932b0b23c9036b2b6b132b960911b6044820152606490fd5b611900919250888652600a6020526040862061226a565b50546001600160a01b03161415855f6117b5565b50346102b15760203660031901126102b15761192e611ff3565b611936612d71565b61193f33612dc4565b156109c0576001600160a01b031681526008602052604081205480156109c057808252600b6020526040822060018060a01b0333165f5260205260405f2054818352600a602052604083205481109081611a36575b50156109c057808252600d60209081526040808420335f90815292529020548015908115611a1f575b50156109c057808252600d6020526040822060018060a01b0333165f5260205260405f204290556040519062093a80420482524260208301527f0bd2c5444bc0126737809a3970e1c3bc8cf29e5efb7d5448cbaa6a9c1af8120760403393a380f35b905061012c810180911161188a574210155f6119bd565b611a4c9150828452600a6020526040842061226a565b50546001600160a01b031633145f611994565b50346102b15761049e611a7136612033565b91612297565b50346102b157806003193601126102b1576020601554604051908152f35b5034611ca5575f366003190112611ca557611aae612d71565b611ab6612d8c565b335f52600860205260405f205480151580611ca9575b15611ca5576012546001600160a01b031680611c66575b50808252600a6020526040822090825b8254811015611b63578060ff6003611b0d6001948761226a565b50015416611b1c575b01611af3565b6003611b28828661226a565b5001805460ff19169055611b3c818561226a565b50828060a01b03905416835f5160206131155f395f51905f526020604051428152a3611b16565b83823382526008602052816040812055808252600260205260018060a01b03604083205416158015611c5e575b156109c057808252600260205260408220546001600160a01b03168015908115611c3d575b82845260026020526040842080546001600160a01b03191690558284825f5160206131355f395f51905f528280a450611c2b576014546040519081528260208201524260408201527f108d98610c6944880c68d31a01ab6252b635e7c7a9728687f31e68a76538c86560603392a3600160065580f35b637e27328960e01b8252600452602490fd5b611c46836130b7565b80845260036020526040842080545f19019055611bb5565b506001611b90565b803b15611ca5575f80916024604051809481936338319e6f60e01b83523360048401525af115611ae357611c9d9192505f90612171565b5f905f611ae3565b5f80fd5b50336001600160a01b03611cbc83612d3d565b1614611acc565b34611ca5576020366003190112611ca557600435611cec60018060a01b03600f5416331461221d565b8015611ca5577f5d1f56e31e5dc1f29354822b887b1463ececf7edfad7c39216980b7dfd7ea97d906014549080601455611d2d604051928392429184612254565b0390a1005b34611ca5576040366003190112611ca557611d4b611ff3565b602435611d5781612d3d565b33151580611e09575b80611ddc575b611dc95781906001600160a01b0384811691167f8c5be1e5ebec7d5bd14f71427d1e84f3dd0314c0f7b2291e5b200ac8c7c3b9255f80a45f90815260046020526040902080546001600160a01b0319166001600160a01b03909216919091179055005b63a9fbf51f60e01b5f523360045260245ffd5b506001600160a01b0381165f90815260056020908152604080832033845290915290205460ff1615611d66565b506001600160a01b038116331415611d60565b34611ca5575f366003190112611ca5576020601454604051908152f35b34611ca5576020366003190112611ca557600435611e5681612d3d565b505f526004602052602060018060a01b0360405f205416604051908152f35b34611ca5575f366003190112611ca5576040515f5f54611e94816121e5565b8084529060018116908115611f185750600114611ebc575b6102ad8361064a81850382612171565b5f8080527f290decd9548b62a8d60345a988386fc84ba6bc95484008f6362f93160ef3e563939250905b808210611efe5750909150810160200161064a611eac565b919260018160209254838588010152019101909291611ee6565b60ff191660208086019190915291151560051b8401909101915061064a9050611eac565b34611ca5575f366003190112611ca557600e546040516001600160a01b039091168152602090f35b34611ca5576020366003190112611ca5576004359063ffffffff60e01b8216809203611ca5576020916380ac58cd60e01b8114908115611fbe575b8115611fad575b5015158152f35b6301ffc9a760e01b14905083611fa6565b635b5e139f60e01b81149150611f9f565b805180835260209291819084018484015e5f828201840152601f01601f1916010190565b600435906001600160a01b0382168203611ca557565b602435906001600160a01b0382168203611ca557565b35906001600160a01b0382168203611ca557565b6060906003190112611ca5576004356001600160a01b0381168103611ca557906024356001600160a01b0381168103611ca5579060443590565b9181601f84011215611ca5578235916001600160401b038311611ca55760208381860195010111611ca557565b6060600319820112611ca5576004356001600160a01b0381168103611ca5579160243591604435906001600160401b038211611ca5576120dc9160040161206d565b9091565b9060a0608061212493600180841b03815116845260208101516020850152604081015160408501526060810151151560608501520151918160808201520190611fcf565b90565b60a081019081106001600160401b0382111761214257604052565b634e487b7160e01b5f52604160045260245ffd5b608081019081106001600160401b0382111761214257604052565b601f909101601f19168101906001600160401b0382119082101761214257604052565b6001600160401b03811161214257601f01601f191660200190565b9291926121bb82612194565b916121c96040519384612171565b829481845281830111611ca5578281602093845f960137010152565b90600182811c92168015612213575b60208310146121ff57565b634e487b7160e01b5f52602260045260245ffd5b91607f16916121f4565b1561222457565b60405162461bcd60e51b81526020600482015260086024820152674f6e6c792044414f60c01b6044820152606490fd5b6040919493926060820195825260208201520152565b8054821015612283575f52600560205f20910201905f90565b634e487b7160e01b5f52603260045260245ffd5b6001600160a01b0390911691908215612422575f828152600260205260409020546001600160a01b031615801561241b575b15611ca5575f828152600260205260409020546001600160a01b031692829033151580612386575b5084612365575b805f52600360205260405f2060018154019055815f52600260205260405f208160018060a01b0319825416179055845f5160206131355f395f51905f525f80a46001600160a01b031680830361234d57505050565b6364283d7b60e01b5f5260045260245260445260645ffd5b61236e826130b7565b845f52600360205260405f205f1981540190556122f8565b909150806123ca575b1561239c5782905f6122f1565b82846123b457637e27328960e01b5f5260045260245ffd5b63177e802f60e01b5f523360045260245260445ffd5b5033841480156123f9575b8061238f57505f838152600460205260409020546001600160a01b0316331461238f565b505f84815260056020908152604080832033845290915290205460ff166123d5565b505f6122c9565b633250574960e11b5f525f60045260245ffd5b1561243c57565b60405162461bcd60e51b815260206004820152600d60248201526c4f6e6c7920526567697374727960981b6044820152606490fd5b1561247857565b60405162461bcd60e51b815260206004820152600c60248201526b24b73b30b634b2103ab9b2b960a11b6044820152606490fd5b9190604083820312611ca5576124c18361201f565b926020810135906001600160401b038211611ca557019080601f83011215611ca557816020612124933591016121af565b8054919291600160401b811015612142576125129160018201815561226a565b61267157825181546001600160a01b039091166001600160a01b03199091161781556020830151600182015560408301516002820155606083015160038201805460ff191691151560ff1691909117905560809060040192015191825160018060401b0381116121425761258682546121e5565b601f811161262c575b506020601f82116001146125ce5781906125bf9394955f926125c35750508160011b915f199060031b1c19161790565b9055565b015190505f80611241565b601f19821690835f52805f20915f5b818110612614575095836001959697106125fc575b505050811b019055565b01515f1960f88460031b161c191690555f80806125f2565b9192602060018192868b0151815501940192016125dd565b825f5260205f20601f830160051c81019160208410612667575b601f0160051c01905b81811061265c575061258f565b5f815560010161264f565b9091508190612646565b634e487b7160e01b5f525f60045260245ffd5b5f1981146126925760010190565b634e487b7160e01b5f52601160045260245ffd5b9291906126bd602091604086526040860190611fcf565b930152565b6001600160401b0381116121425760051b60200190565b906040516126e681612127565b6004819360018060a01b038154168352600181015460208401526002810154604084015260ff60038201541615156060840152019060405180925f9080549061272e826121e5565b808552916001811690811561279a575060011461275b575b505060809291612757910384612171565b0152565b5f908152602081209092505b81831061277e575050810160200181612757612746565b6020919350806001915483858901015201910190918492612767565b60ff191660208681019190915292151560051b850190920192508391506127579050612746565b6001600160a01b03165f90815260086020526040902054801561285957805f52600b60205260405f2060018060a01b0383165f5260205260405f205490805f52600a60205260405f20548210156128525761282a916110a9915f52600a60205260405f2061226a565b80516001600160a01b039283169216919091149081612847575090565b606091500151151590565b5050505f90565b50505f90565b80518210156122835760209160051b010190565b9291612880818386612297565b813b61288d575b50505050565b604051630a85bd0160e11b81523360048201526001600160a01b03948516602482015260448101919091526080606482015292169190602090829081906128d8906084830190611fcf565b03815f865af15f918161296e575b5061293b57503d15612934573d6128fc81612194565b9061290a6040519283612171565b81523d5f602083013e5b8051908161292f5782633250574960e11b5f5260045260245ffd5b602001fd5b6060612914565b6001600160e01b03191663757a42ff60e11b0161295c57505f808080612887565b633250574960e11b5f5260045260245ffd5b9091506020813d6020116129ab575b8161298a60209383612171565b81010312611ca557516001600160e01b031981168103611ca557905f6128e6565b3d915061297d565b919290916001600160a01b0381166129cc811515612471565b805f52600860205260405f205480155f14612b4e5750601354906129ef82612684565b601355819560019581810194602082870312611ca5575f5160206130f55f395f51905f5292612b32918691612b0a906001600160a01b03612a2f8761201f565b16998c60038c60405192612a4284612156565b8c84526020808501928352426040808701918252606087018481525f8d815260098552828120985189546001600160a01b03199081166001600160a01b03928316178b559751968a01805490981696169590951790955590516002870155925193909401929092558b82526008835290819020879055519097908890612ac88282612171565b5f81529311612b3b575b5050835f52600a865260405f2060405191612aec83612127565b8b835242888401524260408401528d606084015260808301526124f2565b5f828152600b855260408082206001600160a01b038b16835286528120556117218282612ebb565b604051428152a4565b612b4592506124ac565b90505f80612ad2565b94939150505f9280820191602081840312611ca5576001600160a01b03612b748261201f565b169260209182604051612b878282612171565b5f81529411612d28575b50505f868152600b825260408082206001600160a01b0386168352835280822054888352600a8452912054811080612d01575b612c6a5750855f52600a8152612c0460405f2060405190612be482612127565b8582524284830152426040830152600160608301528460808301526124f2565b855f52600a815260405f2054905f1982019182116126925786926009612c65925f5160206131555f395f51905f5294865f52600b825260405f2060018060a01b0389165f52825260405f2055855f5252600360405f20016118728154612684565b0390a3565b9091868096505f9794959752600a835260ff6003612c8b8460405f2061226a565b50015416612cf757612cda612cef92600a5f5160206131555f395f51905f5295875f528181526003612cc08460405f2061226a565b5001600160ff19825416179055875f525260405f2061226a565b506001429101556040519182914290836126a6565b0390a3905f90565b5050505050905f90565b50865f52600a825283612d178260405f2061226a565b50546001600160a01b031614612bc4565b612d339293506124ac565b9050905f80612b91565b5f818152600260205260409020546001600160a01b0316908115612d5f575090565b637e27328960e01b5f5260045260245ffd5b60ff60075416612d7d57565b63d93c066560e01b5f5260045ffd5b600260065414612d9d576002600655565b633ee5aeb560e01b5f5260045ffd5b90816020910312611ca557518015158103611ca55790565b600e546001600160a01b031690811561285957604051632474521560e21b81527fe94d78b6d8fb99b2c21131eb4552924a60f564d8515a3cc90ef300fc9735c07460048201526001600160a01b039091166024820181905290602081604481865afa5f9181612e9a575b50612e945750602090602460405180948193636b10437f60e01b835260048301525afa5f9181612e63575b5061212457505f90565b612e8691925060203d602011612e8d575b612e7e8183612171565b810190612dac565b905f612e59565b503d612e74565b91505090565b612eb491925060203d602011612e8d57612e7e8183612171565b905f612e2e565b6001600160a01b0316908115612422575f818152600260205260409020546001600160a01b0316158015612f8e575b15611ca5575f818152600260205260409020546001600160a01b03168015159290919083612f6d575b805f52600360205260405f2060018154019055815f52600260205260405f208160018060a01b0319825416179055825f5160206131355f395f51905f525f80a450612f5a57565b6339e3563760e11b5f525f60045260245ffd5b612f76826130b7565b825f52600360205260405f205f198154019055612f13565b505f612eea565b6012546001600160a01b03169182612fac57505050565b823b15611ca55760405163f8ac15e360e01b81526001600160a01b0390921660048301526024820152905f908290604490829084905af1612fea5750565b5f612ff491612171565b565b6001600160a01b03165f9081526008602052604090205480156130b357805f52600b60205260405f2060018060a01b0383165f5260205260405f2054815f52600a60205260405f20548110156130ae5761305b90825f52600a60205260405f2061226a565b5080546001600160a01b0393841693168314806130a0575b61307c57505050565b60030160ff1981541690555f5160206131155f395f51905f526020604051428152a3565b5060ff600382015416613073565b505050565b5050565b5f90815260046020526040902080546001600160a01b031916905556fe31ecc21a745e3968a04e9570e4425bc18fa8019c68028196b546d1669c200c68f5491bdb765a4be5a1bdc9bfd09cf61e1b89962ac33ed2e928f11a59a5e72331ee0396c067d25a2fde86b8e1c13e3995b0940b5f98651052d79fada14ea7dba5ddf252ad1be2c89b69c2b068fc378daa952ba7f163c4a11628f55a4df523b3efdce074e613075d639af3f726477d52ac48d3fbdb03f4aa8a9b1e6cede312db10a264697066735822122015973e138ba2db77b83392812791f98b7b2a4449ef3cb307962a40d30d7f11c164736f6c634300081c0033","linkReferences":{}},"methodIdentifiers":{"GTOKEN()":"7f6b337b","GTOKEN_STAKING()":"826600ce","REGISTRY()":"06433b1b","SUPER_PAYMASTER()":"919d1e2c","VERSION()":"ffa1ad74","VERSION_CODE()":"e9763063","airdropMint(address,bytes32,bytes)":"c580163e","approve(address,uint256)":"095ea7b3","balanceOf(address)":"70a08231","burnSBT()":"11c45170","daoMultisig()":"c0d0aa69","deactivateMembership(address,address)":"d977b66b","getActiveMemberships(uint256)":"8ceebd8f","getApproved(uint256)":"081812fc","getCommunityMembership(uint256,address)":"71eb90a1","getMemberships(uint256)":"556697da","getSBTData(uint256)":"bf1fb0f2","getUserSBT(address)":"80f4b8c8","isApprovedForAll(address,address)":"e985e9c5","lastActivityTime(uint256,address)":"908c1018","leaveCommunity(address)":"bead0513","membershipIndex(uint256,address)":"a1141b07","minLockAmount()":"08804275","mintFee()":"13966db5","mintForRole(address,bytes32,bytes)":"3e3e6842","name()":"06fdde03","nextTokenId()":"75794a3c","ownerOf(uint256)":"6352211e","pause()":"8456cb59","paused()":"5c975abb","recordActivity(address)":"2f7c88f5","reputationCalculator()":"ccbc10d0","safeTransferFrom(address,address,uint256)":"42842e0e","safeTransferFrom(address,address,uint256,bytes)":"b88d4fde","sbtData(uint256)":"776fafac","setApprovalForAll(address,bool)":"a22cb465","setBaseURI(string)":"55f804b3","setDAOMultisig(address)":"4f8cc065","setMinLockAmount(uint256)":"0f68ae40","setMintFee(uint256)":"eddd0d9c","setRegistry(address)":"a91ee0dc","setReputationCalculator(address)":"a6109650","setSuperPaymaster(address)":"e79e9739","supportsInterface(bytes4)":"01ffc9a7","symbol()":"95d89b41","tokenURI(uint256)":"c87b56dd","transferFrom(address,address,uint256)":"23b872dd","unpause()":"3f4ba83a","userToSBT(address)":"2d5a7f4f","verifyCommunityMembership(address,address)":"5bb5bf0c","version()":"54fd4d50","versionString()":"dcaff6c5","weeklyActivity(uint256,address,uint256)":"7e215791"},"id":68}