{"abi":[{"type":"constructor","inputs":[{"name":"_gtoken","type":"address","internalType":"address"}],"stateMutability":"nonpayable"},{"type":"function","name":"GTOKEN","inputs":[],"outputs":[{"name":"","type":"address","internalType":"address"}],"stateMutability":"view"},{"type":"function","name":"MIN_STAKE","inputs":[],"outputs":[{"name":"","type":"uint256","internalType":"uint256"}],"stateMutability":"view"},{"type":"function","name":"UNSTAKE_DELAY","inputs":[],"outputs":[{"name":"","type":"uint256","internalType":"uint256"}],"stateMutability":"view"},{"type":"function","name":"VERSION","inputs":[],"outputs":[{"name":"","type":"string","internalType":"string"}],"stateMutability":"view"},{"type":"function","name":"VERSION_CODE","inputs":[],"outputs":[{"name":"","type":"uint256","internalType":"uint256"}],"stateMutability":"view"},{"type":"function","name":"authorizeSlasher","inputs":[{"name":"slasher","type":"address","internalType":"address"},{"name":"authorized","type":"bool","internalType":"bool"}],"outputs":[],"stateMutability":"nonpayable"},{"type":"function","name":"authorizedSlashers","inputs":[{"name":"","type":"address","internalType":"address"}],"outputs":[{"name":"","type":"bool","internalType":"bool"}],"stateMutability":"view"},{"type":"function","name":"availableBalance","inputs":[{"name":"user","type":"address","internalType":"address"}],"outputs":[{"name":"","type":"uint256","internalType":"uint256"}],"stateMutability":"view"},{"type":"function","name":"balanceOf","inputs":[{"name":"user","type":"address","internalType":"address"}],"outputs":[{"name":"balance","type":"uint256","internalType":"uint256"}],"stateMutability":"view"},{"type":"function","name":"calculateExitFee","inputs":[{"name":"locker","type":"address","internalType":"address"},{"name":"user","type":"address","internalType":"address"},{"name":"unlockAmount","type":"uint256","internalType":"uint256"}],"outputs":[{"name":"fee","type":"uint256","internalType":"uint256"}],"stateMutability":"view"},{"type":"function","name":"calculateShares","inputs":[{"name":"amount","type":"uint256","internalType":"uint256"}],"outputs":[{"name":"shares","type":"uint256","internalType":"uint256"}],"stateMutability":"view"},{"type":"function","name":"configureLocker","inputs":[{"name":"locker","type":"address","internalType":"address"},{"name":"authorized","type":"bool","internalType":"bool"},{"name":"feeRateBps","type":"uint256","internalType":"uint256"},{"name":"minExitFee","type":"uint256","internalType":"uint256"},{"name":"maxFeePercent","type":"uint256","internalType":"uint256"},{"name":"timeTiers","type":"uint256[]","internalType":"uint256[]"},{"name":"tierFees","type":"uint256[]","internalType":"uint256[]"},{"name":"feeRecipient","type":"address","internalType":"address"}],"outputs":[],"stateMutability":"nonpayable"},{"type":"function","name":"gTokenToShares","inputs":[{"name":"amount","type":"uint256","internalType":"uint256"}],"outputs":[{"name":"","type":"uint256","internalType":"uint256"}],"stateMutability":"pure"},{"type":"function","name":"getGlobalStats","inputs":[],"outputs":[{"name":"_totalStaked","type":"uint256","internalType":"uint256"},{"name":"_totalShares","type":"uint256","internalType":"uint256"},{"name":"effectiveValue","type":"uint256","internalType":"uint256"}],"stateMutability":"view"},{"type":"function","name":"getLockInfo","inputs":[{"name":"user","type":"address","internalType":"address"},{"name":"locker","type":"address","internalType":"address"}],"outputs":[{"name":"","type":"tuple","internalType":"struct GTokenStaking.LockInfo","components":[{"name":"amount","type":"uint256","internalType":"uint256"},{"name":"lockedAt","type":"uint256","internalType":"uint256"},{"name":"purpose","type":"string","internalType":"string"},{"name":"beneficiary","type":"address","internalType":"address"}]}],"stateMutability":"view"},{"type":"function","name":"getLockedStake","inputs":[{"name":"user","type":"address","internalType":"address"},{"name":"locker","type":"address","internalType":"address"}],"outputs":[{"name":"","type":"uint256","internalType":"uint256"}],"stateMutability":"view"},{"type":"function","name":"getLockerConfig","inputs":[{"name":"locker","type":"address","internalType":"address"}],"outputs":[{"name":"","type":"tuple","internalType":"struct GTokenStaking.LockerConfig","components":[{"name":"authorized","type":"bool","internalType":"bool"},{"name":"feeRateBps","type":"uint256","internalType":"uint256"},{"name":"minExitFee","type":"uint256","internalType":"uint256"},{"name":"maxFeePercent","type":"uint256","internalType":"uint256"},{"name":"timeTiers","type":"uint256[]","internalType":"uint256[]"},{"name":"tierFees","type":"uint256[]","internalType":"uint256[]"},{"name":"feeRecipient","type":"address","internalType":"address"}]}],"stateMutability":"view"},{"type":"function","name":"getStakeInfo","inputs":[{"name":"user","type":"address","internalType":"address"}],"outputs":[{"name":"","type":"tuple","internalType":"struct GTokenStaking.StakeInfo","components":[{"name":"amount","type":"uint256","internalType":"uint256"},{"name":"stGTokenShares","type":"uint256","internalType":"uint256"},{"name":"slashedAmount","type":"uint256","internalType":"uint256"},{"name":"stakedAt","type":"uint256","internalType":"uint256"},{"name":"unstakeRequestedAt","type":"uint256","internalType":"uint256"}]}],"stateMutability":"view"},{"type":"function","name":"getUnstakeTimeRemaining","inputs":[{"name":"user","type":"address","internalType":"address"}],"outputs":[{"name":"remaining","type":"uint256","internalType":"uint256"}],"stateMutability":"view"},{"type":"function","name":"lockStake","inputs":[{"name":"user","type":"address","internalType":"address"},{"name":"amount","type":"uint256","internalType":"uint256"},{"name":"purpose","type":"string","internalType":"string"}],"outputs":[],"stateMutability":"nonpayable"},{"type":"function","name":"lockedBalanceBy","inputs":[{"name":"user","type":"address","internalType":"address"},{"name":"locker","type":"address","internalType":"address"}],"outputs":[{"name":"","type":"uint256","internalType":"uint256"}],"stateMutability":"view"},{"type":"function","name":"lockerConfigs","inputs":[{"name":"","type":"address","internalType":"address"}],"outputs":[{"name":"authorized","type":"bool","internalType":"bool"},{"name":"feeRateBps","type":"uint256","internalType":"uint256"},{"name":"minExitFee","type":"uint256","internalType":"uint256"},{"name":"maxFeePercent","type":"uint256","internalType":"uint256"},{"name":"feeRecipient","type":"address","internalType":"address"}],"stateMutability":"view"},{"type":"function","name":"locks","inputs":[{"name":"","type":"address","internalType":"address"},{"name":"","type":"address","internalType":"address"}],"outputs":[{"name":"amount","type":"uint256","internalType":"uint256"},{"name":"lockedAt","type":"uint256","internalType":"uint256"},{"name":"purpose","type":"string","internalType":"string"},{"name":"beneficiary","type":"address","internalType":"address"}],"stateMutability":"view"},{"type":"function","name":"owner","inputs":[],"outputs":[{"name":"","type":"address","internalType":"address"}],"stateMutability":"view"},{"type":"function","name":"previewExitFee","inputs":[{"name":"user","type":"address","internalType":"address"},{"name":"locker","type":"address","internalType":"address"}],"outputs":[{"name":"fee","type":"uint256","internalType":"uint256"},{"name":"netAmount","type":"uint256","internalType":"uint256"}],"stateMutability":"view"},{"type":"function","name":"renounceOwnership","inputs":[],"outputs":[],"stateMutability":"nonpayable"},{"type":"function","name":"requestUnstake","inputs":[],"outputs":[],"stateMutability":"nonpayable"},{"type":"function","name":"setTreasury","inputs":[{"name":"newTreasury","type":"address","internalType":"address"}],"outputs":[],"stateMutability":"nonpayable"},{"type":"function","name":"sharesToGToken","inputs":[{"name":"shares","type":"uint256","internalType":"uint256"}],"outputs":[{"name":"","type":"uint256","internalType":"uint256"}],"stateMutability":"pure"},{"type":"function","name":"slash","inputs":[{"name":"user","type":"address","internalType":"address"},{"name":"amount","type":"uint256","internalType":"uint256"},{"name":"reason","type":"string","internalType":"string"}],"outputs":[{"name":"slashedAmount","type":"uint256","internalType":"uint256"}],"stateMutability":"nonpayable"},{"type":"function","name":"stake","inputs":[{"name":"amount","type":"uint256","internalType":"uint256"}],"outputs":[{"name":"shares","type":"uint256","internalType":"uint256"}],"stateMutability":"nonpayable"},{"type":"function","name":"stakes","inputs":[{"name":"","type":"address","internalType":"address"}],"outputs":[{"name":"amount","type":"uint256","internalType":"uint256"},{"name":"stGTokenShares","type":"uint256","internalType":"uint256"},{"name":"slashedAmount","type":"uint256","internalType":"uint256"},{"name":"stakedAt","type":"uint256","internalType":"uint256"},{"name":"unstakeRequestedAt","type":"uint256","internalType":"uint256"}],"stateMutability":"view"},{"type":"function","name":"totalLocked","inputs":[{"name":"","type":"address","internalType":"address"}],"outputs":[{"name":"","type":"uint256","internalType":"uint256"}],"stateMutability":"view"},{"type":"function","name":"totalShares","inputs":[],"outputs":[{"name":"","type":"uint256","internalType":"uint256"}],"stateMutability":"view"},{"type":"function","name":"totalStaked","inputs":[],"outputs":[{"name":"","type":"uint256","internalType":"uint256"}],"stateMutability":"view"},{"type":"function","name":"transferOwnership","inputs":[{"name":"newOwner","type":"address","internalType":"address"}],"outputs":[],"stateMutability":"nonpayable"},{"type":"function","name":"treasury","inputs":[],"outputs":[{"name":"","type":"address","internalType":"address"}],"stateMutability":"view"},{"type":"function","name":"unlockStake","inputs":[{"name":"user","type":"address","internalType":"address"},{"name":"grossAmount","type":"uint256","internalType":"uint256"}],"outputs":[{"name":"netAmount","type":"uint256","internalType":"uint256"}],"stateMutability":"nonpayable"},{"type":"function","name":"unstake","inputs":[],"outputs":[],"stateMutability":"nonpayable"},{"type":"event","name":"LockerConfigured","inputs":[{"name":"locker","type":"address","indexed":true,"internalType":"address"},{"name":"authorized","type":"bool","indexed":false,"internalType":"bool"},{"name":"feeRateBps","type":"uint256","indexed":false,"internalType":"uint256"},{"name":"timeTiers","type":"uint256[]","indexed":false,"internalType":"uint256[]"},{"name":"tierFees","type":"uint256[]","indexed":false,"internalType":"uint256[]"},{"name":"feeRecipient","type":"address","indexed":false,"internalType":"address"}],"anonymous":false},{"type":"event","name":"OwnershipTransferred","inputs":[{"name":"previousOwner","type":"address","indexed":true,"internalType":"address"},{"name":"newOwner","type":"address","indexed":true,"internalType":"address"}],"anonymous":false},{"type":"event","name":"Slashed","inputs":[{"name":"operator","type":"address","indexed":true,"internalType":"address"},{"name":"amount","type":"uint256","indexed":false,"internalType":"uint256"},{"name":"reason","type":"string","indexed":false,"internalType":"string"},{"name":"timestamp","type":"uint256","indexed":false,"internalType":"uint256"}],"anonymous":false},{"type":"event","name":"SlasherAuthorized","inputs":[{"name":"slasher","type":"address","indexed":true,"internalType":"address"},{"name":"authorized","type":"bool","indexed":false,"internalType":"bool"}],"anonymous":false},{"type":"event","name":"StakeLocked","inputs":[{"name":"user","type":"address","indexed":true,"internalType":"address"},{"name":"locker","type":"address","indexed":true,"internalType":"address"},{"name":"amount","type":"uint256","indexed":false,"internalType":"uint256"},{"name":"purpose","type":"string","indexed":false,"internalType":"string"}],"anonymous":false},{"type":"event","name":"StakeSlashed","inputs":[{"name":"user","type":"address","indexed":true,"internalType":"address"},{"name":"slasher","type":"address","indexed":true,"internalType":"address"},{"name":"amount","type":"uint256","indexed":false,"internalType":"uint256"},{"name":"reason","type":"string","indexed":false,"internalType":"string"},{"name":"timestamp","type":"uint256","indexed":false,"internalType":"uint256"}],"anonymous":false},{"type":"event","name":"StakeUnlocked","inputs":[{"name":"user","type":"address","indexed":true,"internalType":"address"},{"name":"locker","type":"address","indexed":true,"internalType":"address"},{"name":"grossAmount","type":"uint256","indexed":false,"internalType":"uint256"},{"name":"exitFee","type":"uint256","indexed":false,"internalType":"uint256"},{"name":"netAmount","type":"uint256","indexed":false,"internalType":"uint256"}],"anonymous":false},{"type":"event","name":"Staked","inputs":[{"name":"user","type":"address","indexed":true,"internalType":"address"},{"name":"amount","type":"uint256","indexed":false,"internalType":"uint256"},{"name":"shares","type":"uint256","indexed":false,"internalType":"uint256"},{"name":"timestamp","type":"uint256","indexed":false,"internalType":"uint256"}],"anonymous":false},{"type":"event","name":"TreasuryUpdated","inputs":[{"name":"oldTreasury","type":"address","indexed":true,"internalType":"address"},{"name":"newTreasury","type":"address","indexed":true,"internalType":"address"}],"anonymous":false},{"type":"event","name":"UnstakeRequested","inputs":[{"name":"user","type":"address","indexed":true,"internalType":"address"},{"name":"requestTime","type":"uint256","indexed":false,"internalType":"uint256"}],"anonymous":false},{"type":"event","name":"Unstaked","inputs":[{"name":"user","type":"address","indexed":true,"internalType":"address"},{"name":"originalAmount","type":"uint256","indexed":false,"internalType":"uint256"},{"name":"actualAmount","type":"uint256","indexed":false,"internalType":"uint256"},{"name":"timestamp","type":"uint256","indexed":false,"internalType":"uint256"}],"anonymous":false},{"type":"error","name":"AddressEmptyCode","inputs":[{"name":"target","type":"address","internalType":"address"}]},{"type":"error","name":"AddressInsufficientBalance","inputs":[{"name":"account","type":"address","internalType":"address"}]},{"type":"error","name":"AlreadyStaked","inputs":[{"name":"user","type":"address","internalType":"address"}]},{"type":"error","name":"BelowMinimumStake","inputs":[{"name":"amount","type":"uint256","internalType":"uint256"},{"name":"minimum","type":"uint256","internalType":"uint256"}]},{"type":"error","name":"ExitFeeTooHigh","inputs":[{"name":"fee","type":"uint256","internalType":"uint256"},{"name":"amount","type":"uint256","internalType":"uint256"}]},{"type":"error","name":"FailedInnerCall","inputs":[]},{"type":"error","name":"InsufficientAvailableBalance","inputs":[{"name":"available","type":"uint256","internalType":"uint256"},{"name":"required","type":"uint256","internalType":"uint256"}]},{"type":"error","name":"InsufficientLockedAmount","inputs":[{"name":"locked","type":"uint256","internalType":"uint256"},{"name":"required","type":"uint256","internalType":"uint256"}]},{"type":"error","name":"InvalidAddress","inputs":[{"name":"addr","type":"address","internalType":"address"}]},{"type":"error","name":"InvalidFeeRecipient","inputs":[]},{"type":"error","name":"InvalidTierConfig","inputs":[]},{"type":"error","name":"NoStakeFound","inputs":[{"name":"user","type":"address","internalType":"address"}]},{"type":"error","name":"OwnableInvalidOwner","inputs":[{"name":"owner","type":"address","internalType":"address"}]},{"type":"error","name":"OwnableUnauthorizedAccount","inputs":[{"name":"account","type":"address","internalType":"address"}]},{"type":"error","name":"SafeERC20FailedOperation","inputs":[{"name":"token","type":"address","internalType":"address"}]},{"type":"error","name":"SlashAmountExceedsBalance","inputs":[{"name":"amount","type":"uint256","internalType":"uint256"},{"name":"balance","type":"uint256","internalType":"uint256"}]},{"type":"error","name":"StakeIsLocked","inputs":[{"name":"user","type":"address","internalType":"address"},{"name":"lockedAmount","type":"uint256","internalType":"uint256"}]},{"type":"error","name":"UnauthorizedLocker","inputs":[{"name":"caller","type":"address","internalType":"address"}]},{"type":"error","name":"UnauthorizedSlasher","inputs":[{"name":"caller","type":"address","internalType":"address"}]},{"type":"error","name":"UnstakeDelayNotPassed","inputs":[{"name":"remainingTime","type":"uint256","internalType":"uint256"}]},{"type":"error","name":"UnstakeNotRequested","inputs":[{"name":"user","type":"address","internalType":"address"}]}],"bytecode":{"object":"0x60a0346100f857601f61241e38819003918201601f19168301916001600160401b038311848410176100fc578084926020946040528339810103126100f857516001600160a01b038116908181036100f85733156100e5575f8054336001600160a01b0319821681178355604051949290916001600160a01b0316907f8be0079c531659141344cd1fd0a4f28419497f9722a3daafe3b4186f6b6457e09080a380156100d3575060805261230d90816101118239608051818181610767015281816109aa01528181610f7001526113ba0152f35b634726455360e11b5f5260045260245ffd5b631e4fbdf760e01b5f525f60045260245ffd5b5f80fd5b634e487b7160e01b5f52604160045260245ffdfe6080806040526004361015610012575f80fd5b5f3560e01c908163061c9040146118025750806311ce17c91461179157806316934fc41461172d5780631720af70146114965780631c0b5cd81461109c5780632def6620146112ab57806332d5a2e31461120f5780633a98ef39146111f25780633ec16194146111d457806361d027b3146111ac578063678b3ee2146110a157806367e66d751461109c5780636b4169c31461103557806370a0823114611012578063715018a614610fce57806373e5b17f14610f9f5780637f6b337b14610f5b578063817b1cd214610f3e5780638da5cb5b14610f175780638e89dc2114610e9c5780638fce1a5214610b15578063965af6c7146108d3578063a0821be3146108b0578063a694fc3a1461070d578063aed2d908146106d0578063b3699401146106a5578063c05f615514610610578063c345315314610559578063cb1c2b5c14610538578063d8fb933714610500578063dd2368c914610386578063e35e5d84146104e3578063e83477ed146103a7578063e97630631461038b578063eaf1ae0e14610386578063f0f4426014610301578063f2fde38b1461028f578063fc63958e146102185763ffa1ad74146101c9575f80fd5b34610214575f366003190112610214576102106040516101ea60408261198c565b60058152640322e302e360dc1b6020820152604051918291602083526020830190611917565b0390f35b5f80fd5b34610214575f36600319011261021457335f526001602052600160405f2001541561027c57335f52600160205242600460405f2001556040514281527f828764c21e74c28710e19919735825aba966621c95cbd913f8ed65a2d298f48c60203392a2005b63198342c960e31b5f523360045260245ffd5b34610214576020366003190112610214576102a86118eb565b6102b0612157565b6001600160a01b031680156102ee575f80546001600160a01b03198116831782556001600160a01b0316905f5160206122b85f395f51905f529080a3005b631e4fbdf760e01b5f525f60045260245ffd5b346102145760203660031901126102145761031a6118eb565b610322612157565b6001600160a01b0316801561037457600880546001600160a01b0319811683179091556001600160a01b03167f4ab5be82436d353e61ca18726e984e561f5c1cc7c6d38b29d2553c790434705a5f80a3005b634726455360e11b5f5260045260245ffd5b611b93565b34610214575f366003190112610214576020604051614e208152f35b34610214576020366003190112610214576103c06118eb565b5f60c06040516103cf81611956565b82815282602082015282604082015282606082015260606080820152606060a0820152015260018060a01b03165f52600460205260405f2060405161041381611956565b60ff82541615158152600182015491602082019283526104cf600282015491604084019283526104bc60038201546060860190815261045460048401611c16565b906080870191825261046860058501611c16565b9360a08801948552600660018060a01b03910154169560c0880196875260405198899860208a5251151560208a01525160408901525160608801525160808701525160e060a0870152610100860190611be3565b9051848203601f190160c0860152611be3565b90516001600160a01b031660e08301520390f35b34610214575f36600319011261021457602060405162093a808152f35b34610214576020366003190112610214576001600160a01b036105216118eb565b165f526003602052602060405f2054604051908152f35b34610214575f366003190112610214576020604051662386f26fc100008152f35b34610214576020366003190112610214576105726118eb565b5f608060405161058181611971565b828152826020820152826040820152826060820152015260018060a01b03165f52600160205260a060405f206040516105b981611971565b81549182825260018101546020830190815260028201549060408401918252608060046003850154946060870195865201549401938452604051948552516020850152516040840152516060830152516080820152f35b34610214576040366003190112610214576106296118eb565b610631611901565b9060018060a01b03165f52600260205260405f209060018060a01b03165f5260205260405f20805460018201549161069b61066e60028301611af3565b91600360018060a01b03910154169160405194859485526020850152608060408501526080840190611917565b9060608301520390f35b346102145760203660031901126102145760206106c86106c36118eb565b612092565b604051908152f35b34610214576020366003190112610214576001600160a01b036106f16118eb565b165f526007602052602060ff60405f2054166040519015158152f35b3461021457602036600319011261021457600435662386f26fc100008110610894576020906107946040516323b872dd60e01b848201523360248201523060448201528260648201526064815261076560848261198c565b7f00000000000000000000000000000000000000000000000000000000000000006001600160a01b031661217d565b335f526001825260405f206001810190815415155f1461083a576004916107bc848354611c5e565b82556107c9848254611c5e565b9055018054610831575b505b6107e181600554611c5e565b6005556107f081600654611c5e565b6006556040517fb4caaf29adda3eefee3ad552a8e85058589bf834c7466cae4ee58787f70589ed33918061082642868084611a75565b0390a2604051908152f35b5f9055826107d3565b505060405161084881611971565b8181526004838201838152604083015f8152606084019042825260808501925f8452335f526001885260405f2095518655516001860155516002850155516003840155519101556107d5565b62d46a8160e31b5f52600452662386f26fc1000060245260445ffd5b346102145760203660031901126102145760206106c86108ce6118eb565b61205f565b34610214576040366003190112610214576108ec6118eb565b6001600160a01b0381165f81815260026020908152604080832033845290915290208054919260243590818410610afe57816109289133611de7565b9181831015610ae7576109458261093f8582611c81565b95611c81565b9055835f52600360205260405f2061095e828254611c81565b90555f915f9181151591826109de575b955f5160206122985f395f51905f5286602098610992604051928392339784611a75565b0390a36109a4575b5050604051908152f35b6109d7917f00000000000000000000000000000000000000000000000000000000000000006001600160a01b0316612117565b828061099a565b92509250335f52600460205260c060405f20604051906109fd82611956565b60ff81541615158252600181015460208301526002810154604083015260038101546060830152610a3060048201611c16565b6080830152610a4160058201611c16565b60a0830152600601546001600160a01b031691018190528015610ad457925b6001600160a01b03841615610ac5576020955f5160206122985f395f51905f528685610a8e81600554611c81565b600555610a9d81600654611c81565b600655835f5260018a52600160405f2001610ab9828254611c81565b9055929850505061096e565b630ed1b8b360e31b5f5260045ffd5b506008546001600160a01b031692610a60565b5090631051834f60e11b5f5260045260245260445ffd5b5082631e657b2d60e01b5f5260045260245260445ffd5b346102145761010036600319011261021457610b2f6118eb565b610b37611a66565b60843591906044359060a4356001600160401b03811161021457610b5f903690600401611a8b565b939060c4356001600160401b03811161021457610b80903690600401611a8b565b909160e4359360018060a01b03851680950361021457610b9e612157565b6001600160a01b0316968715610e89576101f48711610e35576103e88911610e355780610dee575b60405195610bd387611956565b15159586815260208101888152604082019a6064358c5260608301908152610bfc368587611fe6565b9060808401918252610c0f36888a611fe6565b9c60a085019d8e5260c08501938a85528d5f526004602052610c4460405f2096511515879060ff801983541691151516179055565b5160018601555160028501555160038401555180519060048401906001600160401b038311610dab57600160401b8311610dab576020908254848455808510610dd3575b5001905f5260205f205f5b838110610dbf5750509b518051600585019d5091506001600160401b038211610dab57600160401b8211610dab576020908d8054848255808510610d90575b5050019b5f5260205f209b5f905b828210610d7c5750509051600690920180546001600160a01b0319166001600160a01b0393909316929092179091555060408051968752602087019790975260a09686018790529697507f66877f4d53b478ebc114d551b1d87e1ef6f28167dd890ec9a5605038a0908e449694958695610d71949392610d63928801919061203b565b91858303606087015261203b565b9060808301520390a2005b80518e830155600190910190602001610ce0565b610da4915f5284845f209182019101611c6b565b8d8f610cd2565b634e487b7160e01b5f52604160045260245ffd5b600190602084519401938184015501610c93565b610de890845f5285845f209182019101611c6b565b8f610c88565b60018101808211610e75578303610e355760015b818110610e4457505f5b838110610e195750610bc6565b6101f4610e27828688611fd6565b3511610e3557600101610e0c565b639100d34760e01b5f5260045ffd5b610e4f818385611fd6565b355f198201828111610e7557610e66908486611fd6565b351015610e3557600101610e02565b634e487b7160e01b5f52601160045260245ffd5b87634726455360e11b5f5260045260245ffd5b34610214576040366003190112610214576040610eb76118eb565b610ef0610ec2611901565b6001600160a01b038381165f9081526002602090815286822092841682529190915284902054928391611de7565b908180821115610f0f57610f0391611c81565b82519182526020820152f35b50505f610f03565b34610214575f366003190112610214575f546040516001600160a01b039091168152602090f35b34610214575f366003190112610214576020600554604051908152f35b34610214575f366003190112610214576040517f00000000000000000000000000000000000000000000000000000000000000006001600160a01b03168152602090f35b346102145760603660031901126102145760206106c8610fbd6118eb565b610fc5611901565b60443591611de7565b34610214575f36600319011261021457610fe6612157565b5f80546001600160a01b0319811682556001600160a01b03165f5160206122b85f395f51905f528280a3005b346102145760203660031901126102145760206106c86110306118eb565b611d53565b34610214575f3660031901126102145760055460065490811561108b57670de0b6b3a76400008102818104670de0b6b3a76400001482151715610e755761107f8361021092611ca1565b60405193849384611a75565b610210670de0b6b3a764000061107f565b611a49565b34610214576110af366119ca565b335f52600760205260ff60405f20541615611199576001600160a01b0383165f818152600160205260409020936110e590611d53565b808411156111935780935b841561117e575050600260209401611109848254611c5e565b9055807f733600d662f803775adfe53e1702a60cfdf58d303b5da43e498aa6dc4427c31c6040518061113d42878984611d31565b0390a27fadb9a49340a01a0b9f401b8850a1f6428e94caed400a41942f42d27e5c9921db60405180611173339542908884611d31565b0390a3604051908152f35b6310e0de6760e31b5f5260045260245260445ffd5b836110f0565b635f6fb82960e11b5f523360045260245ffd5b34610214575f366003190112610214576008546040516001600160a01b039091168152602090f35b346102145760203660031901126102145760206106c8600435611cbf565b34610214575f366003190112610214576020600654604051908152f35b34610214576040366003190112610214576112286118eb565b611230611a66565b90611239612157565b6001600160a01b03169081156112985760207f07279e33951aa6ce64c70a4d6e3d46ff5995b1d4a523613765b05fd9aed2a40b91835f526007825261128d8160405f209060ff801983541691151516179055565b6040519015158152a2005b50634726455360e11b5f5260045260245ffd5b34610214575f36600319011261021457335f52600160205260405f206040516112d381611971565b8154815260018201546020820190815260046002840154936040840194855260038101546060850152015460808301908082521561148357611316905142611c81565b62093a8081106114625750335f52600360205260405f205461143f577f204fccf0d92ed8d48f204adb39b2e81e92bad0dedb93f5716ca9478cfb57de00916114079161138861136433611d53565b95519161137c6113748489611c5e565b600554611c81565b60055551600654611c81565b600655335f5260016020525f600460408220828155826001820155826002820155826003820155015560018060a01b037f000000000000000000000000000000000000000000000000000000000000000016906113e6863384612117565b8015158061142b575b61140c575b5050516040519182913395429184611a75565b0390a2005b600854611424926001600160a01b0390911690612117565b84806113f4565b506008546001600160a01b031615156113ef565b335f52600360205260405f2054633bdf1f5160e01b5f523360045260245260445ffd5b62093a800362093a808111610e755763f8717df960e01b5f5260045260245ffd5b6309a59af960e31b5f523360045260245ffd5b34610214576114a4366119ca565b91335f52600460205260405f20604051906114be82611956565b60ff815416151582526001810154602083015260028101546040830152600381015460608301526114f160048201611c16565b608083015261150260058201611c16565b60a0830152600601546001600160a01b031660c0820152511561171a576115288161205f565b82811061170357506001600160a01b03165f81815260026020908152604080832033845290915290208054919291611561908390611c5e565b90555f82815260026020818152604080842033855290915290912042600182015584519101906001600160401b038111610dab5761159f8254611abb565b601f81116116c8575b506020601f82116001146116585790805f5160206122785f395f51905f529493925f9161164d575b508160011b915f199060031b1c19161790555b5f83815260026020908152604080832033808552908352818420600390810180546001600160a01b03191690921790915586845290915290208054611629908390611c5e565b9055604051908152604060208201528061164833956040830190611917565b0390a3005b9050860151876115d0565b601f19821690835f52805f20915f5b8181106116b057509183915f5160206122785f395f51905f5296959460019410611698575b5050811b0190556115e3565b8801515f1960f88460031b161c19169055878061168c565b9192602060018192868c015181550194019201611667565b6116f390835f5260205f20601f840160051c810191602085106116f9575b601f0160051c0190611c6b565b856115a8565b90915081906116e6565b905063adb9e04360e01b5f5260045260245260445ffd5b630136555160e21b5f523360045260245ffd5b34610214576020366003190112610214576001600160a01b0361174e6118eb565b165f52600160205260a060405f20805490600181015490600281015460046003830154920154926040519485526020850152604084015260608301526080820152f35b34610214576020366003190112610214576001600160a01b036117b26118eb565b165f52600460205260a060405f2060ff8154169060018101549060028101546003820154916006600180881b03910154169260405194151585526020850152604084015260608301526080820152f35b346102145760403660031901126102145761181b6118eb565b5f6060611826611901565b936118308161193b565b828152826020820152816040820152015260018060a01b03165f52600260205260405f209060018060a01b03165f5260205260405f206040516118728161193b565b81548152600182015491602082019283526118d761189260028301611af3565b9160408401928352600360018060a01b0391015416916060840192835260405194859460208652516020860152516040850152516080606085015260a0840190611917565b90516001600160a01b031660808301520390f35b600435906001600160a01b038216820361021457565b602435906001600160a01b038216820361021457565b805180835260209291819084018484015e5f828201840152601f01601f1916010190565b608081019081106001600160401b03821117610dab57604052565b60e081019081106001600160401b03821117610dab57604052565b60a081019081106001600160401b03821117610dab57604052565b601f909101601f19168101906001600160401b03821190821017610dab57604052565b6001600160401b038111610dab57601f01601f191660200190565b6060600319820112610214576004356001600160a01b03811681036102145791602435916044356001600160401b038111610214578160238201121561021457806004013590611a19826119af565b92611a27604051948561198c565b8284526024838301011161021457815f92602460209301838601378301015290565b346102145760203660031901126102145760206040516004358152f35b60243590811515820361021457565b6040919493926060820195825260208201520152565b9181601f84011215610214578235916001600160401b038311610214576020808501948460051b01011161021457565b90600182811c92168015611ae9575b6020831014611ad557565b634e487b7160e01b5f52602260045260245ffd5b91607f1691611aca565b9060405191825f825492611b0684611abb565b8084529360018116908115611b715750600114611b2d575b50611b2b9250038361198c565b565b90505f9291925260205f20905f915b818310611b55575050906020611b2b928201015f611b1e565b6020919350806001915483858901015201910190918492611b3c565b905060209250611b2b94915060ff191682840152151560051b8201015f611b1e565b3461021457604036600319011261021457611bac6118eb565b611bb4611901565b6001600160a01b039182165f908152600260209081526040808320949093168252928352819020549051908152f35b90602080835192838152019201905f5b818110611c005750505090565b8251845260209384019390920191600101611bf3565b90604051918281549182825260208201905f5260205f20925f5b818110611c45575050611b2b9250038361198c565b8454835260019485019487945060209093019201611c30565b91908201809211610e7557565b818110611c76575050565b5f8155600101611c6b565b91908203918211610e7557565b81810292918115918404141715610e7557565b8115611cab570490565b634e487b7160e01b5f52601260045260245ffd5b600654908115611d2c57600554908115611ce857611ce592611ce091611c8e565b611ca1565b90565b60405162461bcd60e51b815260206004820152601c60248201527b47546f6b656e5374616b696e673a20696e76616c696420737461746560201b6044820152606490fd5b905090565b939291611d4e906040928652606060208701526060860190611917565b930152565b60018060a01b03165f52600160205260405f2060405190611d7382611971565b80548252600181015491826020820152608060046002840154938460408501526003810154606085015201549101528115611db95780821115611db957611ce591611c81565b50505f90565b8051821015611dd35760209160051b010190565b634e487b7160e01b5f52603260045260245ffd5b909160018060a01b0382165f52600460205260405f209260405193611e0b85611956565b60ff81541615158552600181015494602081019586526002820154946040820195865260038301549360608301948552611e4760048501611c16565b926080810193845260c0611e5d60058701611c16565b9560a08301968752600660018060a01b039101541691015260018060a01b03165f52600260205260405f209060018060a01b03165f5260205260405f20604051611ea68161193b565b8154815260018201549160208201928352611ec360028201611af3565b6040830152600301546001600160a01b0316606082015251158015611fce575b611fc3578151515f979015611fad5750611efe905142611c81565b5f5b82518051821015611f995781611f1591611dbf565b518210611f2457600101611f00565b612710949596975083929150611f3e90611f519451611dbf565b51915b8215611f82575b50505b84611c8e565b049251808410611f78575b5061271091611f6c915190611c8e565b04808211611d2c575090565b9250612710611f5c565b611f9192505190515190611dbf565b515f80611f48565b5050509461271092939495611f5192611f41565b9150506127109293949550611f51915051611f4b565b505050505050505f90565b508415611ee3565b9190811015611dd35760051b0190565b909291906001600160401b038411610dab578360051b90602060405161200e8285018261198c565b809681520191810192831161021457905b82821061202b57505050565b813581526020918201910161201f565b81835290916001600160fb1b0383116102145760209260051b809284830137010190565b61206881611d53565b6001600160a01b039091165f9081526003602052604090205480821115611db957611ce591611c81565b60018060a01b03165f526001602052608060405f206004604051916120b683611971565b80548352600181015460208401526002810154604084015260038101546060840152015491829101528015612111576120ef9042611c81565b62093a8081101561210c5762093a800362093a808111610e755790565b505f90565b505f1990565b60405163a9059cbb60e01b60208201526001600160a01b039092166024830152604480830193909352918152611b2b9161215260648361198c565b61217d565b5f546001600160a01b0316330361216a57565b63118cdaa760e01b5f523360045260245ffd5b5f806121c59260018060a01b03169360208151910182865af13d15612211573d906121a7826119af565b916121b5604051938461198c565b82523d5f602084013e5b83612219565b80519081151591826121ed575b50506121db5750565b635274afe760e01b5f5260045260245ffd5b81925090602091810103126102145760200151801590811503610214575f806121d2565b6060906121bf565b9061223d575080511561222e57805190602001fd5b630a12f52160e11b5f5260045ffd5b8151158061226e575b61224e575090565b639996b31560e01b5f9081526001600160a01b0391909116600452602490fd5b50803b1561224656fee9785bd15e30b64383450cfa478cc401c5e85ff8af192673e392f168df420678bd2c92e9545442bc8234f21592c7e8aa0dceb32c7dd38030f185ca35a38dd5978be0079c531659141344cd1fd0a4f28419497f9722a3daafe3b4186f6b6457e0a26469706673582212202c53f44ad413f840a818242677c8014d88498de5e668ec08e1268c4c6c8d7d5a64736f6c634300081c0033","linkReferences":{}},"methodIdentifiers":{"GTOKEN()":"7f6b337b","MIN_STAKE()":"cb1c2b5c","UNSTAKE_DELAY()":"e35e5d84","VERSION()":"ffa1ad74","VERSION_CODE()":"e9763063","authorizeSlasher(address,bool)":"32d5a2e3","authorizedSlashers(address)":"aed2d908","availableBalance(address)":"a0821be3","balanceOf(address)":"70a08231","calculateExitFee(address,address,uint256)":"73e5b17f","calculateShares(uint256)":"3ec16194","configureLocker(address,bool,uint256,uint256,uint256,uint256[],uint256[],address)":"8fce1a52","gTokenToShares(uint256)":"1c0b5cd8","getGlobalStats()":"6b4169c3","getLockInfo(address,address)":"061c9040","getLockedStake(address,address)":"dd2368c9","getLockerConfig(address)":"e83477ed","getStakeInfo(address)":"c3453153","getUnstakeTimeRemaining(address)":"b3699401","lockStake(address,uint256,string)":"1720af70","lockedBalanceBy(address,address)":"eaf1ae0e","lockerConfigs(address)":"11ce17c9","locks(address,address)":"c05f6155","owner()":"8da5cb5b","previewExitFee(address,address)":"8e89dc21","renounceOwnership()":"715018a6","requestUnstake()":"fc63958e","setTreasury(address)":"f0f44260","sharesToGToken(uint256)":"67e66d75","slash(address,uint256,string)":"678b3ee2","stake(uint256)":"a694fc3a","stakes(address)":"16934fc4","totalLocked(address)":"d8fb9337","totalShares()":"3a98ef39","totalStaked()":"817b1cd2","transferOwnership(address)":"f2fde38b","treasury()":"61d027b3","unlockStake(address,uint256)":"965af6c7","unstake()":"2def6620"},"id":26}