{"abi":[{"type":"constructor","inputs":[{"name":"cap_","type":"uint256","internalType":"uint256"}],"stateMutability":"nonpayable"},{"type":"function","name":"VERSION","inputs":[],"outputs":[{"name":"","type":"string","internalType":"string"}],"stateMutability":"view"},{"type":"function","name":"VERSION_CODE","inputs":[],"outputs":[{"name":"","type":"uint256","internalType":"uint256"}],"stateMutability":"view"},{"type":"function","name":"allowance","inputs":[{"name":"owner","type":"address","internalType":"address"},{"name":"spender","type":"address","internalType":"address"}],"outputs":[{"name":"","type":"uint256","internalType":"uint256"}],"stateMutability":"view"},{"type":"function","name":"approve","inputs":[{"name":"spender","type":"address","internalType":"address"},{"name":"value","type":"uint256","internalType":"uint256"}],"outputs":[{"name":"","type":"bool","internalType":"bool"}],"stateMutability":"nonpayable"},{"type":"function","name":"balanceOf","inputs":[{"name":"account","type":"address","internalType":"address"}],"outputs":[{"name":"","type":"uint256","internalType":"uint256"}],"stateMutability":"view"},{"type":"function","name":"cap","inputs":[],"outputs":[{"name":"","type":"uint256","internalType":"uint256"}],"stateMutability":"view"},{"type":"function","name":"decimals","inputs":[],"outputs":[{"name":"","type":"uint8","internalType":"uint8"}],"stateMutability":"view"},{"type":"function","name":"mint","inputs":[{"name":"to","type":"address","internalType":"address"},{"name":"amount","type":"uint256","internalType":"uint256"}],"outputs":[],"stateMutability":"nonpayable"},{"type":"function","name":"name","inputs":[],"outputs":[{"name":"","type":"string","internalType":"string"}],"stateMutability":"view"},{"type":"function","name":"owner","inputs":[],"outputs":[{"name":"","type":"address","internalType":"address"}],"stateMutability":"view"},{"type":"function","name":"renounceOwnership","inputs":[],"outputs":[],"stateMutability":"nonpayable"},{"type":"function","name":"symbol","inputs":[],"outputs":[{"name":"","type":"string","internalType":"string"}],"stateMutability":"view"},{"type":"function","name":"totalSupply","inputs":[],"outputs":[{"name":"","type":"uint256","internalType":"uint256"}],"stateMutability":"view"},{"type":"function","name":"transfer","inputs":[{"name":"to","type":"address","internalType":"address"},{"name":"value","type":"uint256","internalType":"uint256"}],"outputs":[{"name":"","type":"bool","internalType":"bool"}],"stateMutability":"nonpayable"},{"type":"function","name":"transferFrom","inputs":[{"name":"from","type":"address","internalType":"address"},{"name":"to","type":"address","internalType":"address"},{"name":"value","type":"uint256","internalType":"uint256"}],"outputs":[{"name":"","type":"bool","internalType":"bool"}],"stateMutability":"nonpayable"},{"type":"function","name":"transferOwnership","inputs":[{"name":"newOwner","type":"address","internalType":"address"}],"outputs":[],"stateMutability":"nonpayable"},{"type":"event","name":"Approval","inputs":[{"name":"owner","type":"address","indexed":true,"internalType":"address"},{"name":"spender","type":"address","indexed":true,"internalType":"address"},{"name":"value","type":"uint256","indexed":false,"internalType":"uint256"}],"anonymous":false},{"type":"event","name":"OwnershipTransferred","inputs":[{"name":"previousOwner","type":"address","indexed":true,"internalType":"address"},{"name":"newOwner","type":"address","indexed":true,"internalType":"address"}],"anonymous":false},{"type":"event","name":"Transfer","inputs":[{"name":"from","type":"address","indexed":true,"internalType":"address"},{"name":"to","type":"address","indexed":true,"internalType":"address"},{"name":"value","type":"uint256","indexed":false,"internalType":"uint256"}],"anonymous":false},{"type":"error","name":"ERC20ExceededCap","inputs":[{"name":"increasedSupply","type":"uint256","internalType":"uint256"},{"name":"cap","type":"uint256","internalType":"uint256"}]},{"type":"error","name":"ERC20InsufficientAllowance","inputs":[{"name":"spender","type":"address","internalType":"address"},{"name":"allowance","type":"uint256","internalType":"uint256"},{"name":"needed","type":"uint256","internalType":"uint256"}]},{"type":"error","name":"ERC20InsufficientBalance","inputs":[{"name":"sender","type":"address","internalType":"address"},{"name":"balance","type":"uint256","internalType":"uint256"},{"name":"needed","type":"uint256","internalType":"uint256"}]},{"type":"error","name":"ERC20InvalidApprover","inputs":[{"name":"approver","type":"address","internalType":"address"}]},{"type":"error","name":"ERC20InvalidCap","inputs":[{"name":"cap","type":"uint256","internalType":"uint256"}]},{"type":"error","name":"ERC20InvalidReceiver","inputs":[{"name":"receiver","type":"address","internalType":"address"}]},{"type":"error","name":"ERC20InvalidSender","inputs":[{"name":"sender","type":"address","internalType":"address"}]},{"type":"error","name":"ERC20InvalidSpender","inputs":[{"name":"spender","type":"address","internalType":"address"}]},{"type":"error","name":"OwnableInvalidOwner","inputs":[{"name":"owner","type":"address","internalType":"address"}]},{"type":"error","name":"OwnableUnauthorizedAccount","inputs":[{"name":"account","type":"address","internalType":"address"}]}],"bytecode":{"object":"0x60a0604052346103a957610cd36020813803918261001c816103ad565b9384928339810103126103a9575161003460406103ad565b90601082526f23b7bb32b93730b731b2902a37b5b2b760811b602083015261005c60406103ad565b600681526523aa37b5b2b760d11b602082015282519091906001600160401b0381116102ba57600354600181811c9116801561039f575b602082101461029c57601f811161033c575b506020601f82116001146102d957819293945f926102ce575b50508160011b915f199060031b1c1916176003555b81516001600160401b0381116102ba57600454600181811c911680156102b0575b602082101461029c57601f8111610239575b50602092601f82116001146101d857928192935f926101cd575b50508160011b915f199060031b1c1916176004555b80156101ba5760805233156101a75760058054336001600160a01b03198216811790925560405191906001600160a01b03167f8be0079c531659141344cd1fd0a4f28419497f9722a3daafe3b4186f6b6457e05f80a361090090816103d3823960805181818161046001526104de0152f35b631e4fbdf760e01b5f525f60045260245ffd5b63392e1e2760e01b5f525f60045260245ffd5b015190505f80610120565b601f1982169360045f52805f20915f5b8681106102215750836001959610610209575b505050811b01600455610135565b01515f1960f88460031b161c191690555f80806101fb565b919260206001819286850151815501940192016101e8565b60045f527f8a35acfbc15ff81a39ae7d344fd709f28e8600b4aa8c65c6b64bfe7fe36bd19b601f830160051c81019160208410610292575b601f0160051c01905b8181106102875750610106565b5f815560010161027a565b9091508190610271565b634e487b7160e01b5f52602260045260245ffd5b90607f16906100f4565b634e487b7160e01b5f52604160045260245ffd5b015190505f806100be565b601f1982169060035f52805f20915f5b8181106103245750958360019596971061030c575b505050811b016003556100d3565b01515f1960f88460031b161c191690555f80806102fe565b9192602060018192868b0151815501940192016102e9565b60035f527fc2575a0e9e593c00f959f8c92f12db2869c3395a3b0502d05e2516446f71f85b601f830160051c81019160208410610395575b601f0160051c01905b81811061038a57506100a5565b5f815560010161037d565b9091508190610374565b90607f1690610093565b5f80fd5b6040519190601f01601f191682016001600160401b038111838210176102ba5760405256fe6080806040526004361015610012575f80fd5b5f3560e01c90816306fdde031461069b57508063095ea7b31461061957806318160ddd146105fc57806323b872dd1461051c578063313ce56714610501578063355274ea146104c757806340c10f19146103ee57806370a08231146103b7578063715018a61461036f5780638da5cb5b1461034757806395d89b4114610247578063a9059cbb14610216578063dd62ed3e146101c6578063e9763063146101aa578063f2fde38b146101375763ffa1ad74146100cc575f80fd5b34610133575f3660031901126101335760408051908101906001600160401b0382118183101761011f5761011b9160405260058152640322e302e360dc1b602082015260405191829182610753565b0390f35b634e487b7160e01b5f52604160045260245ffd5b5f80fd5b346101335760203660031901126101335761015061077d565b610158610863565b6001600160a01b0316801561019757600580546001600160a01b0319811683179091556001600160a01b03165f51602061088b5f395f51905f525f80a3005b631e4fbdf760e01b5f525f60045260245ffd5b34610133575f366003190112610133576020604051614e208152f35b34610133576040366003190112610133576101df61077d565b6101e7610793565b6001600160a01b039182165f908152600160209081526040808320949093168252928352819020549051908152f35b346101335760403660031901126101335761023c61023261077d565b60243590336107cc565b602060405160018152f35b34610133575f366003190112610133576040515f6004548060011c9060018116801561033d575b6020831081146103295782855290811561030557506001146102a7575b61011b8361029b818503826107a9565b60405191829182610753565b60045f9081527f8a35acfbc15ff81a39ae7d344fd709f28e8600b4aa8c65c6b64bfe7fe36bd19b939250905b8082106102eb5750909150810160200161029b61028b565b9192600181602092548385880101520191019092916102d3565b60ff191660208086019190915291151560051b8401909101915061029b905061028b565b634e487b7160e01b5f52602260045260245ffd5b91607f169161026e565b34610133575f366003190112610133576005546040516001600160a01b039091168152602090f35b34610133575f36600319011261013357610387610863565b600580546001600160a01b031981169091555f906001600160a01b03165f51602061088b5f395f51905f528280a3005b34610133576020366003190112610133576001600160a01b036103d861077d565b165f525f602052602060405f2054604051908152f35b346101335760403660031901126101335761040761077d565b60243590610413610863565b6001600160a01b03169081156104b457600254908082018092116104a05760205f5160206108ab5f395f51905f52915f9360025584845283825260408420818154019055604051908152a37f000000000000000000000000000000000000000000000000000000000000000060025481811161048b57005b63279e7e1560e21b5f5260045260245260445ffd5b634e487b7160e01b5f52601160045260245ffd5b63ec442f0560e01b5f525f60045260245ffd5b34610133575f3660031901126101335760206040517f00000000000000000000000000000000000000000000000000000000000000008152f35b34610133575f36600319011261013357602060405160128152f35b346101335760603660031901126101335761053561077d565b61053d610793565b6001600160a01b0382165f81815260016020818152604080842033855290915290912054919360443593929091810161057c575b5061023c93506107cc565b8381106105e15784156105ce5733156105bb5761023c945f52600160205260405f2060018060a01b0333165f526020528360405f209103905584610571565b634a1406b160e11b5f525f60045260245ffd5b63e602df0560e01b5f525f60045260245ffd5b8390637dc7a0d960e11b5f523360045260245260445260645ffd5b34610133575f366003190112610133576020600254604051908152f35b346101335760403660031901126101335761063261077d565b6024359033156105ce576001600160a01b03169081156105bb57335f52600160205260405f20825f526020528060405f20556040519081527f8c5be1e5ebec7d5bd14f71427d1e84f3dd0314c0f7b2291e5b200ac8c7c3b92560203392a3602060405160018152f35b34610133575f366003190112610133575f6003548060011c90600181168015610749575b6020831081146103295782855290811561030557506001146106eb5761011b8361029b818503826107a9565b60035f9081527fc2575a0e9e593c00f959f8c92f12db2869c3395a3b0502d05e2516446f71f85b939250905b80821061072f5750909150810160200161029b61028b565b919260018160209254838588010152019101909291610717565b91607f16916106bf565b602060409281835280519182918282860152018484015e5f828201840152601f01601f1916010190565b600435906001600160a01b038216820361013357565b602435906001600160a01b038216820361013357565b601f909101601f19168101906001600160401b0382119082101761011f57604052565b6001600160a01b0316908115610850576001600160a01b03169182156104b457815f525f60205260405f205481811061083757815f5160206108ab5f395f51905f5292602092855f525f84520360405f2055845f525f825260405f20818154019055604051908152a3565b8263391434e360e21b5f5260045260245260445260645ffd5b634b637e8f60e11b5f525f60045260245ffd5b6005546001600160a01b0316330361087757565b63118cdaa760e01b5f523360045260245ffdfe8be0079c531659141344cd1fd0a4f28419497f9722a3daafe3b4186f6b6457e0ddf252ad1be2c89b69c2b068fc378daa952ba7f163c4a11628f55a4df523b3efa2646970667358221220635fe84c157e3b41f7fbd186cc7024c773db6dc966a7d32ff567dcdb5e8bb2b164736f6c634300081c0033","linkReferences":{}},"methodIdentifiers":{"VERSION()":"ffa1ad74","VERSION_CODE()":"e9763063","allowance(address,address)":"dd62ed3e","approve(address,uint256)":"095ea7b3","balanceOf(address)":"70a08231","cap()":"355274ea","decimals()":"313ce567","mint(address,uint256)":"40c10f19","name()":"06fdde03","owner()":"8da5cb5b","renounceOwnership()":"715018a6","symbol()":"95d89b41","totalSupply()":"18160ddd","transfer(address,uint256)":"a9059cbb","transferFrom(address,address,uint256)":"23b872dd","transferOwnership(address)":"f2fde38b"},"id":44}