{"abi":[{"type":"constructor","inputs":[{"name":"_gtoken","type":"address","internalType":"address"},{"name":"_treasury","type":"address","internalType":"address"}],"stateMutability":"nonpayable"},{"type":"function","name":"BURN_ADDRESS","inputs":[],"outputs":[{"name":"","type":"address","internalType":"address"}],"stateMutability":"view"},{"type":"function","name":"GTOKEN","inputs":[],"outputs":[{"name":"","type":"address","internalType":"contract IERC20"}],"stateMutability":"view"},{"type":"function","name":"REGISTRY","inputs":[],"outputs":[{"name":"","type":"address","internalType":"address"}],"stateMutability":"view"},{"type":"function","name":"VERSION","inputs":[],"outputs":[{"name":"","type":"string","internalType":"string"}],"stateMutability":"view"},{"type":"function","name":"VERSION_CODE","inputs":[],"outputs":[{"name":"","type":"uint256","internalType":"uint256"}],"stateMutability":"view"},{"type":"function","name":"authorizedSlashers","inputs":[{"name":"","type":"address","internalType":"address"}],"outputs":[{"name":"","type":"bool","internalType":"bool"}],"stateMutability":"view"},{"type":"function","name":"availableBalance","inputs":[{"name":"","type":"address","internalType":"address"}],"outputs":[{"name":"","type":"uint256","internalType":"uint256"}],"stateMutability":"pure"},{"type":"function","name":"balanceOf","inputs":[{"name":"user","type":"address","internalType":"address"}],"outputs":[{"name":"","type":"uint256","internalType":"uint256"}],"stateMutability":"view"},{"type":"function","name":"convertToAssets","inputs":[{"name":"shares","type":"uint256","internalType":"uint256"}],"outputs":[{"name":"","type":"uint256","internalType":"uint256"}],"stateMutability":"pure"},{"type":"function","name":"convertToShares","inputs":[{"name":"amount","type":"uint256","internalType":"uint256"}],"outputs":[{"name":"","type":"uint256","internalType":"uint256"}],"stateMutability":"pure"},{"type":"function","name":"getLockedStake","inputs":[{"name":"user","type":"address","internalType":"address"},{"name":"roleId","type":"bytes32","internalType":"bytes32"}],"outputs":[{"name":"","type":"uint256","internalType":"uint256"}],"stateMutability":"view"},{"type":"function","name":"getUserRoleLocks","inputs":[{"name":"user","type":"address","internalType":"address"}],"outputs":[{"name":"","type":"tuple[]","internalType":"struct IGTokenStakingV3.RoleLock[]","components":[{"name":"roleId","type":"bytes32","internalType":"bytes32"},{"name":"amount","type":"uint256","internalType":"uint256"},{"name":"entryBurn","type":"uint256","internalType":"uint256"},{"name":"lockedAt","type":"uint256","internalType":"uint256"},{"name":"metadata","type":"bytes","internalType":"bytes"}]}],"stateMutability":"view"},{"type":"function","name":"hasRoleLock","inputs":[{"name":"user","type":"address","internalType":"address"},{"name":"roleId","type":"bytes32","internalType":"bytes32"}],"outputs":[{"name":"","type":"bool","internalType":"bool"}],"stateMutability":"view"},{"type":"function","name":"lockStake","inputs":[{"name":"user","type":"address","internalType":"address"},{"name":"roleId","type":"bytes32","internalType":"bytes32"},{"name":"stakeAmount","type":"uint256","internalType":"uint256"},{"name":"entryBurn","type":"uint256","internalType":"uint256"},{"name":"payer","type":"address","internalType":"address"}],"outputs":[{"name":"lockId","type":"uint256","internalType":"uint256"}],"stateMutability":"nonpayable"},{"type":"function","name":"owner","inputs":[],"outputs":[{"name":"","type":"address","internalType":"address"}],"stateMutability":"view"},{"type":"function","name":"previewExitFee","inputs":[{"name":"user","type":"address","internalType":"address"},{"name":"roleId","type":"bytes32","internalType":"bytes32"}],"outputs":[{"name":"fee","type":"uint256","internalType":"uint256"},{"name":"netAmount","type":"uint256","internalType":"uint256"}],"stateMutability":"view"},{"type":"function","name":"renounceOwnership","inputs":[],"outputs":[],"stateMutability":"nonpayable"},{"type":"function","name":"roleExitConfigs","inputs":[{"name":"","type":"bytes32","internalType":"bytes32"}],"outputs":[{"name":"feePercent","type":"uint256","internalType":"uint256"},{"name":"minFee","type":"uint256","internalType":"uint256"}],"stateMutability":"view"},{"type":"function","name":"roleLocks","inputs":[{"name":"","type":"address","internalType":"address"},{"name":"","type":"bytes32","internalType":"bytes32"}],"outputs":[{"name":"roleId","type":"bytes32","internalType":"bytes32"},{"name":"amount","type":"uint256","internalType":"uint256"},{"name":"entryBurn","type":"uint256","internalType":"uint256"},{"name":"lockedAt","type":"uint256","internalType":"uint256"},{"name":"metadata","type":"bytes","internalType":"bytes"}],"stateMutability":"view"},{"type":"function","name":"setAuthorizedSlasher","inputs":[{"name":"slasher","type":"address","internalType":"address"},{"name":"authorized","type":"bool","internalType":"bool"}],"outputs":[],"stateMutability":"nonpayable"},{"type":"function","name":"setRegistry","inputs":[{"name":"_registry","type":"address","internalType":"address"}],"outputs":[],"stateMutability":"nonpayable"},{"type":"function","name":"setRoleExitFee","inputs":[{"name":"roleId","type":"bytes32","internalType":"bytes32"},{"name":"feePercent","type":"uint256","internalType":"uint256"},{"name":"minFee","type":"uint256","internalType":"uint256"}],"outputs":[],"stateMutability":"nonpayable"},{"type":"function","name":"sharesOf","inputs":[{"name":"user","type":"address","internalType":"address"}],"outputs":[{"name":"","type":"uint256","internalType":"uint256"}],"stateMutability":"view"},{"type":"function","name":"slash","inputs":[{"name":"user","type":"address","internalType":"address"},{"name":"amount","type":"uint256","internalType":"uint256"},{"name":"reason","type":"string","internalType":"string"}],"outputs":[{"name":"slashedAmount","type":"uint256","internalType":"uint256"}],"stateMutability":"nonpayable"},{"type":"function","name":"stakes","inputs":[{"name":"","type":"address","internalType":"address"}],"outputs":[{"name":"amount","type":"uint256","internalType":"uint256"},{"name":"stGTokenShares","type":"uint256","internalType":"uint256"},{"name":"slashedAmount","type":"uint256","internalType":"uint256"},{"name":"stakedAt","type":"uint256","internalType":"uint256"},{"name":"unstakeRequestedAt","type":"uint256","internalType":"uint256"}],"stateMutability":"view"},{"type":"function","name":"totalShares","inputs":[],"outputs":[{"name":"","type":"uint256","internalType":"uint256"}],"stateMutability":"view"},{"type":"function","name":"totalStaked","inputs":[],"outputs":[{"name":"","type":"uint256","internalType":"uint256"}],"stateMutability":"view"},{"type":"function","name":"transferOwnership","inputs":[{"name":"newOwner","type":"address","internalType":"address"}],"outputs":[],"stateMutability":"nonpayable"},{"type":"function","name":"treasury","inputs":[],"outputs":[{"name":"","type":"address","internalType":"address"}],"stateMutability":"view"},{"type":"function","name":"unlockAndTransfer","inputs":[{"name":"user","type":"address","internalType":"address"},{"name":"roleId","type":"bytes32","internalType":"bytes32"}],"outputs":[{"name":"netAmount","type":"uint256","internalType":"uint256"}],"stateMutability":"nonpayable"},{"type":"function","name":"userActiveRoles","inputs":[{"name":"","type":"address","internalType":"address"},{"name":"","type":"uint256","internalType":"uint256"}],"outputs":[{"name":"","type":"bytes32","internalType":"bytes32"}],"stateMutability":"view"},{"type":"event","name":"OwnershipTransferred","inputs":[{"name":"previousOwner","type":"address","indexed":true,"internalType":"address"},{"name":"newOwner","type":"address","indexed":true,"internalType":"address"}],"anonymous":false},{"type":"event","name":"StakeLocked","inputs":[{"name":"user","type":"address","indexed":true,"internalType":"address"},{"name":"roleId","type":"bytes32","indexed":true,"internalType":"bytes32"},{"name":"amount","type":"uint256","indexed":false,"internalType":"uint256"},{"name":"entryBurn","type":"uint256","indexed":false,"internalType":"uint256"},{"name":"timestamp","type":"uint256","indexed":false,"internalType":"uint256"}],"anonymous":false},{"type":"event","name":"StakeUnlocked","inputs":[{"name":"user","type":"address","indexed":true,"internalType":"address"},{"name":"roleId","type":"bytes32","indexed":true,"internalType":"bytes32"},{"name":"grossAmount","type":"uint256","indexed":false,"internalType":"uint256"},{"name":"exitFee","type":"uint256","indexed":false,"internalType":"uint256"},{"name":"netAmount","type":"uint256","indexed":false,"internalType":"uint256"},{"name":"timestamp","type":"uint256","indexed":false,"internalType":"uint256"}],"anonymous":false},{"type":"event","name":"TokensBurned","inputs":[{"name":"user","type":"address","indexed":true,"internalType":"address"},{"name":"roleId","type":"bytes32","indexed":true,"internalType":"bytes32"},{"name":"amount","type":"uint256","indexed":false,"internalType":"uint256"},{"name":"purpose","type":"string","indexed":false,"internalType":"string"}],"anonymous":false},{"type":"event","name":"UserSlashed","inputs":[{"name":"user","type":"address","indexed":true,"internalType":"address"},{"name":"amount","type":"uint256","indexed":false,"internalType":"uint256"},{"name":"reason","type":"string","indexed":false,"internalType":"string"},{"name":"timestamp","type":"uint256","indexed":false,"internalType":"uint256"}],"anonymous":false},{"type":"error","name":"AddressEmptyCode","inputs":[{"name":"target","type":"address","internalType":"address"}]},{"type":"error","name":"AddressInsufficientBalance","inputs":[{"name":"account","type":"address","internalType":"address"}]},{"type":"error","name":"FailedInnerCall","inputs":[]},{"type":"error","name":"OwnableInvalidOwner","inputs":[{"name":"owner","type":"address","internalType":"address"}]},{"type":"error","name":"OwnableUnauthorizedAccount","inputs":[{"name":"account","type":"address","internalType":"address"}]},{"type":"error","name":"ReentrancyGuardReentrantCall","inputs":[]},{"type":"error","name":"SafeERC20FailedOperation","inputs":[{"name":"token","type":"address","internalType":"address"}]}],"bytecode":{"object":"0x60a03461018e57601f611a7f38819003918201601f19168301916001600160401b0383118484101761019257808492604094855283398101031261018e57610052602061004b836101a6565b92016101a6565b331561017b575f8054336001600160a01b0319821681178355604051949290916001600160a01b0316907f8be0079c531659141344cd1fd0a4f28419497f9722a3daafe3b4186f6b6457e09080a3600180556001600160a01b031691821561014857506001600160a01b031690811561011057608052600380546001600160a01b0319169190911790556040516118c490816101bb823960805181818161038501528181610b9101528181611162015281816111a101526112820152f35b60405162461bcd60e51b815260206004820152601060248201526f496e76616c696420547265617375727960801b6044820152606490fd5b62461bcd60e51b815260206004820152600e60248201526d24b73b30b634b21023aa37b5b2b760911b6044820152606490fd5b631e4fbdf760e01b5f525f60045260245ffd5b5f80fd5b634e487b7160e01b5f52604160045260245ffd5b51906001600160a01b038216820361018e5756fe6080806040526004361015610012575f80fd5b5f3560e01c90816306433b1b146114245750806307a2d13a146102f457806316934fc4146113c057806330b039ee1461133c57806336cb2b82146112e9578063374e4d7314610f015780633a98ef3914610ee457806361d027b314610ebc578063678b3ee214610d175780636d265c1114610cce5780636da12d0c14610c7657806370a0823114610c4b578063715018a614610c075780637c50309f14610bc05780637f6b337b14610b7c578063817b1cd214610b5f5780638da5cb5b14610b3857806391b65cd61461093957806394e2b21e14610906578063a0821be3146108e2578063a91ee0dc14610864578063aed2d90814610827578063b4d81fb31461075d578063befa570e146102f9578063c6e6f592146102f4578063d64c66aa146102a5578063e976306314610289578063f2fde38b14610217578063f5eb42dc146101dc578063fccc2813146101c05763ffa1ad7414610171575f80fd5b346101bc575f3660031901126101bc576101b86040516101926040826114e8565b60058152640332e302e360dc1b60208201526040519182916020835260208301906115ab565b0390f35b5f80fd5b346101bc575f3660031901126101bc57602060405161dead8152f35b346101bc5760203660031901126101bc576001600160a01b036101fd611464565b165f5260046020526020600160405f200154604051908152f35b346101bc5760203660031901126101bc57610230611464565b6102386116bc565b6001600160a01b03168015610276575f80546001600160a01b03198116831782556001600160a01b0316905f51602061184f5f395f51905f529080a3005b631e4fbdf760e01b5f525f60045260245ffd5b346101bc575f3660031901126101bc5760206040516175308152f35b346101bc5760603660031901126101bc576102be6116bc565b6040516102ca816114b2565b602435815260016020820160443581526004355f52600760205260405f2092518355519101555f80f35b611447565b346101bc5760a03660031901126101bc57610312611464565b6044359060243590606435906084356001600160a01b03811691908290036101bc5761033c6116e2565b6002546001600160a01b031633036107285760018060a01b031690815f52600560205260405f20845f52602052600160405f2001546106ed576103db610382848761161b565b917f000000000000000000000000000000000000000000000000000000000000000092604051916323b872dd60e01b602084015260248301523060448301526064820152606481526103d56084826114e8565b8261173d565b82610664575b50805f52600460205260405f206103f985825461161b565b9055805f526004602052600160405f200161041585825461161b565b9055805f526004602052600360405f2001541561064e575b6040519361043a856114cd565b838552602085018181526004604087019685885260608101428152602098604051946104668b876114e8565b5f865260808401958652875f5260058b5260405f208a5f528b5260405f209351845551600184015551600283015551600382015501905180519060018060401b0382116105935781906104b9845461147a565b601f8111610615575b508890601f83116001146105b2575f926105a7575b50508160011b915f199060031b1c19161790555b5f828152600686526040902080549091600160401b82101561059357859485610556610540857fe4c76dcad70ec0bf6b921afbe6bb7b4950aedf705245ec68942ea9ecf00f8a0c9760016060980181556115cf565b819391549060031b91821b915f19901b19161790565b90556105648260085461161b565b6008556105738260095461161b565b60095560405191825287820152426040820152a360018055604051908152f35b634e487b7160e01b5f52604160045260245ffd5b0151905088806104d7565b5f8581528a81209350601f198516905b8b8282106105ff5750509084600195949392106105e7575b505050811b0190556104eb565b01515f1960f88460031b161c191690558880806105da565b60018596829396860151815501950193016105c2565b61063e90855f528a5f20601f850160051c8101918c8610610644575b601f0160051c0190611605565b896104c2565b9091508190610631565b805f52600460205242600360405f20015561042d565b60405163a9059cbb60e01b602082015261dead60248201526044808201859052815261069a916106956064836114e8565b61173d565b82817fbbd5bd0123b04ed83c5d79cf2f6fca38e7b242f17f09d9eea712fb1cbe2fb861608060405186815260406020820152600a60408201526922b73a393c90213ab93760b11b6060820152a3846103e1565b60405162461bcd60e51b8152602060048201526013602482015272149bdb1948185b1c9958591e481b1bd8dad959606a1b6044820152606490fd5b60405162461bcd60e51b815260206004820152600d60248201526c4f6e6c7920526567697374727960981b6044820152606490fd5b346101bc5760403660031901126101bc57610776611464565b6001600160a01b03165f90815260056020908152604080832060243584528252808320600101546007909252918290209151906107b2826114b2565b60206001845494858552015492019182528281029281840414811517156108135761271060409304915180831061080b575b50808211610803575b816107f7916115f8565b82519182526020820152f35b9050806107ed565b9150836107e4565b634e487b7160e01b5f52601160045260245ffd5b346101bc5760203660031901126101bc576001600160a01b03610848611464565b165f52600a602052602060ff60405f2054166040519015158152f35b346101bc5760203660031901126101bc5761087d611464565b6108856116bc565b6001600160a01b031680156108aa57600280546001600160a01b031916919091179055005b60405162461bcd60e51b815260206004820152601060248201526f496e76616c696420526567697374727960801b6044820152606490fd5b346101bc5760203660031901126101bc576108fb611464565b5060206040515f8152f35b346101bc5760203660031901126101bc576004355f5260076020526040805f206001815491015482519182526020820152f35b346101bc5760203660031901126101bc576001600160a01b0361095a611464565b16805f52600660205260405f2090604051808360208295549384815201905f5260205f20925f5b818110610b1f575050610996925003836114e8565b8151916109a283611691565b926109b060405194856114e8565b8084526109bf601f1991611691565b015f5b818110610ae95750505f5b8151811015610a5357600190835f52600560205260405f206109ef82856116a8565b515f5260205260405f20610a32600460405192610a0b846114cd565b8054845285810154602085015260028101546040850152600381015460608501520161150b565b6080820152610a4182876116a8565b52610a4c81866116a8565b50016109cd565b836040518091602082016020835281518091526040830190602060408260051b8601019301915f905b828210610a8b57505050500390f35b91936001919395506020610ad98192603f198a820301865260a060808a51805184528581015186850152604081015160408501526060810151606085015201519181608082015201906115ab565b9601920192018594939192610a7c565b602090604051610af8816114cd565b5f81525f838201525f60408201525f606082015260606080820152828288010152016109c2565b8454835260019485019487945060209093019201610981565b346101bc575f3660031901126101bc575f546040516001600160a01b039091168152602090f35b346101bc575f3660031901126101bc576020600854604051908152f35b346101bc575f3660031901126101bc576040517f00000000000000000000000000000000000000000000000000000000000000006001600160a01b03168152602090f35b346101bc5760403660031901126101bc576001600160a01b03610be1611464565b165f52600560205260405f206024355f526020526020600160405f200154604051908152f35b346101bc575f3660031901126101bc57610c1f6116bc565b5f80546001600160a01b0319811682556001600160a01b03165f51602061184f5f395f51905f528280a3005b346101bc5760203660031901126101bc576020610c6e610c69611464565b611628565b604051908152f35b346101bc5760403660031901126101bc57610c8f611464565b6001600160a01b03165f908152600660205260409020805460243591908210156101bc57602091610cbf916115cf565b90549060031b1c604051908152f35b346101bc5760403660031901126101bc576001600160a01b03610cef611464565b165f52600560205260405f206024355f526020526020600160405f2001541515604051908152f35b346101bc5760603660031901126101bc57610d30611464565b60443590602435906001600160401b0383116101bc57366023840112156101bc576004830135906001600160401b0382116101bc5736602483860101116101bc57610d796116e2565b335f52600a60205260ff60405f2054161580610ea7575b610e6b57602460806020957f6951689eba99e77d7e3b622f276c0ad8e36126c3c510f181b86d05d685eaa0749360018060a01b031694855f526004885260405f209660028854980190815498898082115f14610e6257610def916115f8565b905b81811115610e5a5750975b8880610e47575b5050508060405194859389855260608b86015282606086015201848401375f828201840152426040830152601f01601f19168101030190a260018055604051908152f35b610e509161161b565b9055888088610e03565b905097610dfc565b50505f90610df1565b60405162461bcd60e51b81526020600482015260146024820152732ab730baba3437b934bd32b21039b630b9b432b960611b6044820152606490fd5b506002546001600160a01b0316331415610d90565b346101bc575f3660031901126101bc576003546040516001600160a01b039091168152602090f35b346101bc575f3660031901126101bc576020600954604051908152f35b346101bc5760403660031901126101bc57610f1a611464565b602435610f256116e2565b6002546001600160a01b031633036107285760018060a01b03821690815f52600560205260405f20815f52602052600160405f2001549081156112b4575f92805f526004602052600260405f200180549081611255575b5050610f8884846115f8565b94825f52600760205260405f209560405196610fa3886114b2565b60206001825492838b5201549801978852808202908282041482151715610813576127109004965180881061124d575b50808711611245575b86610fe6916115f8565b93825f52600560205260405f20845f52602052600460405f205f81555f60018201555f60028201555f60038201550161101f815461147a565b9081611202575b5050825f52600660205260405f20905f5b8254808210156111de578661104c83866115cf565b90549060031b1c146110615750600101611037565b5f98929394959697981981019081116108135761054061108461109292876115cf565b90549060031b1c92866115cf565b905582549081156111ca576020985f51602061186f5f395f51905f5295608095611139945f1901906110c482826115cf565b8154905f199060031b1b19169055555b875f5260048b5260405f206110ea8682546115f8565b9055875f5260048b52600160405f20016111058682546115f8565b9055611113856008546115f8565b600855611122856009546115f8565b6009558161118d575b898061115c575b505061161b565b60405191825287820152856040820152426060820152a360018055604051908152f35b611186917f0000000000000000000000000000000000000000000000000000000000000000611702565b8a89611132565b6003546111c59083906001600160a01b03167f0000000000000000000000000000000000000000000000000000000000000000611702565b61112b565b634e487b7160e01b5f52603160045260245ffd5b505090506111395f51602061186f5f395f51905f52939495966020986080946110d4565b81601f5f93116001146112195750555b8780611026565b8183526020832061123591601f0160051c810190600101611605565b8082528160208120915555611212565b955085610fdc565b965087610fd3565b6112a69195508585115f146112ad5785905b6112728280986115f8565b90556003546001600160a01b03167f0000000000000000000000000000000000000000000000000000000000000000611702565b8580610f7c565b8490611267565b60405162461bcd60e51b815260206004820152600d60248201526c139bc81b1bd8dac8199bdd5b99609a1b6044820152606490fd5b346101bc5760403660031901126101bc57611302611464565b602435908115158092036101bc576113186116bc565b60018060a01b03165f52600a60205260405f209060ff801983541691161790555f80f35b346101bc5760403660031901126101bc576001600160a01b0361135d611464565b165f52600560205260405f206024355f5260205260405f2080546101b860018301549260028101549061139760046003830154920161150b565b91604051958695865260208601526040850152606084015260a0608084015260a08301906115ab565b346101bc5760203660031901126101bc576001600160a01b036113e1611464565b165f52600460205260a060405f20805490600181015490600281015460046003830154920154926040519485526020850152604084015260608301526080820152f35b346101bc575f3660031901126101bc576002546001600160a01b03168152602090f35b346101bc5760203660031901126101bc5760206040516004358152f35b600435906001600160a01b03821682036101bc57565b90600182811c921680156114a8575b602083101461149457565b634e487b7160e01b5f52602260045260245ffd5b91607f1691611489565b604081019081106001600160401b0382111761059357604052565b60a081019081106001600160401b0382111761059357604052565b601f909101601f19168101906001600160401b0382119082101761059357604052565b9060405191825f82549261151e8461147a565b80845293600181169081156115895750600114611545575b50611543925003836114e8565b565b90505f9291925260205f20905f915b81831061156d575050906020611543928201015f611536565b6020919350806001915483858901015201910190918492611554565b90506020925061154394915060ff191682840152151560051b8201015f611536565b805180835260209291819084018484015e5f828201840152601f01601f1916010190565b80548210156115e4575f5260205f2001905f90565b634e487b7160e01b5f52603260045260245ffd5b9190820391821161081357565b818110611610575050565b5f8155600101611605565b9190820180921161081357565b60018060a01b03165f52600460205260405f2060405190611648826114cd565b80549182815260018201546020820152608060046002840154938460408501526003810154606085015201549101528181101561168b57611688916115f8565b90565b50505f90565b6001600160401b0381116105935760051b60200190565b80518210156115e45760209160051b010190565b5f546001600160a01b031633036116cf57565b63118cdaa760e01b5f523360045260245ffd5b6002600154146116f3576002600155565b633ee5aeb560e01b5f5260045ffd5b60405163a9059cbb60e01b60208201526001600160a01b039092166024830152604480830193909352918152611543916106956064836114e8565b81516001600160a01b03909116915f91829160200182855af13d156117e4573d6001600160401b03811161059357604051611798929091611788601f8201601f1916602001846114e8565b82523d5f602084013e5b836117f0565b80519081151591826117c0575b50506117ae5750565b635274afe760e01b5f5260045260245ffd5b81925090602091810103126101bc57602001518015908115036101bc575f806117a5565b61179890606090611792565b90611814575080511561180557805190602001fd5b630a12f52160e11b5f5260045ffd5b81511580611845575b611825575090565b639996b31560e01b5f9081526001600160a01b0391909116600452602490fd5b50803b1561181d56fe8be0079c531659141344cd1fd0a4f28419497f9722a3daafe3b4186f6b6457e09cadbc33680e22a2f04ed8eb0d7cc7f218ee9231b3473ed05904c7ec5e2d483da26469706673582212207c98632442a2c6c79bb7d4b42d5f1ec86f8dea3c7c6d89a785a130ecff482bab64736f6c634300081c0033","linkReferences":{}},"methodIdentifiers":{"BURN_ADDRESS()":"fccc2813","GTOKEN()":"7f6b337b","REGISTRY()":"06433b1b","VERSION()":"ffa1ad74","VERSION_CODE()":"e9763063","authorizedSlashers(address)":"aed2d908","availableBalance(address)":"a0821be3","balanceOf(address)":"70a08231","convertToAssets(uint256)":"07a2d13a","convertToShares(uint256)":"c6e6f592","getLockedStake(address,bytes32)":"7c50309f","getUserRoleLocks(address)":"91b65cd6","hasRoleLock(address,bytes32)":"6d265c11","lockStake(address,bytes32,uint256,uint256,address)":"befa570e","owner()":"8da5cb5b","previewExitFee(address,bytes32)":"b4d81fb3","renounceOwnership()":"715018a6","roleExitConfigs(bytes32)":"94e2b21e","roleLocks(address,bytes32)":"30b039ee","setAuthorizedSlasher(address,bool)":"36cb2b82","setRegistry(address)":"a91ee0dc","setRoleExitFee(bytes32,uint256,uint256)":"d64c66aa","sharesOf(address)":"f5eb42dc","slash(address,uint256,string)":"678b3ee2","stakes(address)":"16934fc4","totalShares()":"3a98ef39","totalStaked()":"817b1cd2","transferOwnership(address)":"f2fde38b","treasury()":"61d027b3","unlockAndTransfer(address,bytes32)":"374e4d73","userActiveRoles(address,uint256)":"6da12d0c"},"id":44}