{"abi":[{"type":"constructor","inputs":[{"name":"_gtoken","type":"address","internalType":"address"},{"name":"_treasury","type":"address","internalType":"address"}],"stateMutability":"nonpayable"},{"type":"function","name":"BURN_ADDRESS","inputs":[],"outputs":[{"name":"","type":"address","internalType":"address"}],"stateMutability":"view"},{"type":"function","name":"GTOKEN","inputs":[],"outputs":[{"name":"","type":"address","internalType":"contract IERC20"}],"stateMutability":"view"},{"type":"function","name":"REGISTRY","inputs":[],"outputs":[{"name":"","type":"address","internalType":"address"}],"stateMutability":"view"},{"type":"function","name":"VERSION","inputs":[],"outputs":[{"name":"","type":"string","internalType":"string"}],"stateMutability":"view"},{"type":"function","name":"VERSION_CODE","inputs":[],"outputs":[{"name":"","type":"uint256","internalType":"uint256"}],"stateMutability":"view"},{"type":"function","name":"authorizedSlashers","inputs":[{"name":"","type":"address","internalType":"address"}],"outputs":[{"name":"","type":"bool","internalType":"bool"}],"stateMutability":"view"},{"type":"function","name":"availableBalance","inputs":[{"name":"","type":"address","internalType":"address"}],"outputs":[{"name":"","type":"uint256","internalType":"uint256"}],"stateMutability":"pure"},{"type":"function","name":"balanceOf","inputs":[{"name":"user","type":"address","internalType":"address"}],"outputs":[{"name":"","type":"uint256","internalType":"uint256"}],"stateMutability":"view"},{"type":"function","name":"convertToAssets","inputs":[{"name":"shares","type":"uint256","internalType":"uint256"}],"outputs":[{"name":"","type":"uint256","internalType":"uint256"}],"stateMutability":"pure"},{"type":"function","name":"convertToShares","inputs":[{"name":"amount","type":"uint256","internalType":"uint256"}],"outputs":[{"name":"","type":"uint256","internalType":"uint256"}],"stateMutability":"pure"},{"type":"function","name":"getLockedStake","inputs":[{"name":"user","type":"address","internalType":"address"},{"name":"roleId","type":"bytes32","internalType":"bytes32"}],"outputs":[{"name":"","type":"uint256","internalType":"uint256"}],"stateMutability":"view"},{"type":"function","name":"getUserRoleLocks","inputs":[{"name":"user","type":"address","internalType":"address"}],"outputs":[{"name":"","type":"tuple[]","internalType":"struct IGTokenStakingV3.RoleLock[]","components":[{"name":"roleId","type":"bytes32","internalType":"bytes32"},{"name":"amount","type":"uint256","internalType":"uint256"},{"name":"entryBurn","type":"uint256","internalType":"uint256"},{"name":"lockedAt","type":"uint256","internalType":"uint256"},{"name":"metadata","type":"bytes","internalType":"bytes"}]}],"stateMutability":"view"},{"type":"function","name":"hasRoleLock","inputs":[{"name":"user","type":"address","internalType":"address"},{"name":"roleId","type":"bytes32","internalType":"bytes32"}],"outputs":[{"name":"","type":"bool","internalType":"bool"}],"stateMutability":"view"},{"type":"function","name":"lockStake","inputs":[{"name":"user","type":"address","internalType":"address"},{"name":"roleId","type":"bytes32","internalType":"bytes32"},{"name":"stakeAmount","type":"uint256","internalType":"uint256"},{"name":"entryBurn","type":"uint256","internalType":"uint256"},{"name":"payer","type":"address","internalType":"address"}],"outputs":[{"name":"lockId","type":"uint256","internalType":"uint256"}],"stateMutability":"nonpayable"},{"type":"function","name":"owner","inputs":[],"outputs":[{"name":"","type":"address","internalType":"address"}],"stateMutability":"view"},{"type":"function","name":"previewExitFee","inputs":[{"name":"user","type":"address","internalType":"address"},{"name":"roleId","type":"bytes32","internalType":"bytes32"}],"outputs":[{"name":"fee","type":"uint256","internalType":"uint256"},{"name":"netAmount","type":"uint256","internalType":"uint256"}],"stateMutability":"view"},{"type":"function","name":"renounceOwnership","inputs":[],"outputs":[],"stateMutability":"nonpayable"},{"type":"function","name":"roleExitConfigs","inputs":[{"name":"","type":"bytes32","internalType":"bytes32"}],"outputs":[{"name":"feePercent","type":"uint256","internalType":"uint256"},{"name":"minFee","type":"uint256","internalType":"uint256"}],"stateMutability":"view"},{"type":"function","name":"roleLocks","inputs":[{"name":"","type":"address","internalType":"address"},{"name":"","type":"bytes32","internalType":"bytes32"}],"outputs":[{"name":"roleId","type":"bytes32","internalType":"bytes32"},{"name":"amount","type":"uint256","internalType":"uint256"},{"name":"entryBurn","type":"uint256","internalType":"uint256"},{"name":"lockedAt","type":"uint256","internalType":"uint256"},{"name":"metadata","type":"bytes","internalType":"bytes"}],"stateMutability":"view"},{"type":"function","name":"setAuthorizedSlasher","inputs":[{"name":"slasher","type":"address","internalType":"address"},{"name":"authorized","type":"bool","internalType":"bool"}],"outputs":[],"stateMutability":"nonpayable"},{"type":"function","name":"setRegistry","inputs":[{"name":"_registry","type":"address","internalType":"address"}],"outputs":[],"stateMutability":"nonpayable"},{"type":"function","name":"setRoleExitFee","inputs":[{"name":"roleId","type":"bytes32","internalType":"bytes32"},{"name":"feePercent","type":"uint256","internalType":"uint256"},{"name":"minFee","type":"uint256","internalType":"uint256"}],"outputs":[],"stateMutability":"nonpayable"},{"type":"function","name":"sharesOf","inputs":[{"name":"user","type":"address","internalType":"address"}],"outputs":[{"name":"","type":"uint256","internalType":"uint256"}],"stateMutability":"view"},{"type":"function","name":"slash","inputs":[{"name":"user","type":"address","internalType":"address"},{"name":"amount","type":"uint256","internalType":"uint256"},{"name":"reason","type":"string","internalType":"string"}],"outputs":[{"name":"slashedAmount","type":"uint256","internalType":"uint256"}],"stateMutability":"nonpayable"},{"type":"function","name":"stakes","inputs":[{"name":"","type":"address","internalType":"address"}],"outputs":[{"name":"amount","type":"uint256","internalType":"uint256"},{"name":"stGTokenShares","type":"uint256","internalType":"uint256"},{"name":"slashedAmount","type":"uint256","internalType":"uint256"},{"name":"stakedAt","type":"uint256","internalType":"uint256"},{"name":"unstakeRequestedAt","type":"uint256","internalType":"uint256"}],"stateMutability":"view"},{"type":"function","name":"totalShares","inputs":[],"outputs":[{"name":"","type":"uint256","internalType":"uint256"}],"stateMutability":"view"},{"type":"function","name":"totalStaked","inputs":[],"outputs":[{"name":"","type":"uint256","internalType":"uint256"}],"stateMutability":"view"},{"type":"function","name":"transferOwnership","inputs":[{"name":"newOwner","type":"address","internalType":"address"}],"outputs":[],"stateMutability":"nonpayable"},{"type":"function","name":"treasury","inputs":[],"outputs":[{"name":"","type":"address","internalType":"address"}],"stateMutability":"view"},{"type":"function","name":"unlockAndTransfer","inputs":[{"name":"user","type":"address","internalType":"address"},{"name":"roleId","type":"bytes32","internalType":"bytes32"}],"outputs":[{"name":"netAmount","type":"uint256","internalType":"uint256"}],"stateMutability":"nonpayable"},{"type":"function","name":"userActiveRoles","inputs":[{"name":"","type":"address","internalType":"address"},{"name":"","type":"uint256","internalType":"uint256"}],"outputs":[{"name":"","type":"bytes32","internalType":"bytes32"}],"stateMutability":"view"},{"type":"event","name":"OwnershipTransferred","inputs":[{"name":"previousOwner","type":"address","indexed":true,"internalType":"address"},{"name":"newOwner","type":"address","indexed":true,"internalType":"address"}],"anonymous":false},{"type":"event","name":"StakeLocked","inputs":[{"name":"user","type":"address","indexed":true,"internalType":"address"},{"name":"roleId","type":"bytes32","indexed":true,"internalType":"bytes32"},{"name":"amount","type":"uint256","indexed":false,"internalType":"uint256"},{"name":"entryBurn","type":"uint256","indexed":false,"internalType":"uint256"},{"name":"timestamp","type":"uint256","indexed":false,"internalType":"uint256"}],"anonymous":false},{"type":"event","name":"StakeUnlocked","inputs":[{"name":"user","type":"address","indexed":true,"internalType":"address"},{"name":"roleId","type":"bytes32","indexed":true,"internalType":"bytes32"},{"name":"grossAmount","type":"uint256","indexed":false,"internalType":"uint256"},{"name":"exitFee","type":"uint256","indexed":false,"internalType":"uint256"},{"name":"netAmount","type":"uint256","indexed":false,"internalType":"uint256"},{"name":"timestamp","type":"uint256","indexed":false,"internalType":"uint256"}],"anonymous":false},{"type":"event","name":"TokensBurned","inputs":[{"name":"user","type":"address","indexed":true,"internalType":"address"},{"name":"roleId","type":"bytes32","indexed":true,"internalType":"bytes32"},{"name":"amount","type":"uint256","indexed":false,"internalType":"uint256"},{"name":"purpose","type":"string","indexed":false,"internalType":"string"}],"anonymous":false},{"type":"event","name":"UserSlashed","inputs":[{"name":"user","type":"address","indexed":true,"internalType":"address"},{"name":"amount","type":"uint256","indexed":false,"internalType":"uint256"},{"name":"reason","type":"string","indexed":false,"internalType":"string"},{"name":"timestamp","type":"uint256","indexed":false,"internalType":"uint256"}],"anonymous":false},{"type":"error","name":"AddressEmptyCode","inputs":[{"name":"target","type":"address","internalType":"address"}]},{"type":"error","name":"AddressInsufficientBalance","inputs":[{"name":"account","type":"address","internalType":"address"}]},{"type":"error","name":"FailedInnerCall","inputs":[]},{"type":"error","name":"OwnableInvalidOwner","inputs":[{"name":"owner","type":"address","internalType":"address"}]},{"type":"error","name":"OwnableUnauthorizedAccount","inputs":[{"name":"account","type":"address","internalType":"address"}]},{"type":"error","name":"ReentrancyGuardReentrantCall","inputs":[]},{"type":"error","name":"SafeERC20FailedOperation","inputs":[{"name":"token","type":"address","internalType":"address"}]}],"bytecode":{"object":"0x60a03461018e57601f611ae238819003918201601f19168301916001600160401b0383118484101761019257808492604094855283398101031261018e57610052602061004b836101a6565b92016101a6565b331561017b575f8054336001600160a01b0319821681178355604051949290916001600160a01b0316907f8be0079c531659141344cd1fd0a4f28419497f9722a3daafe3b4186f6b6457e09080a3600180556001600160a01b031691821561014857506001600160a01b031690811561011057608052600380546001600160a01b03191691909117905560405161192790816101bb82396080518181816103e801528181610bf4015281816111c50152818161120401526112e50152f35b60405162461bcd60e51b815260206004820152601060248201526f496e76616c696420547265617375727960801b6044820152606490fd5b62461bcd60e51b815260206004820152600e60248201526d24b73b30b634b21023aa37b5b2b760911b6044820152606490fd5b631e4fbdf760e01b5f525f60045260245ffd5b5f80fd5b634e487b7160e01b5f52604160045260245ffd5b51906001600160a01b038216820361018e5756fe6080806040526004361015610012575f80fd5b5f3560e01c90816306433b1b146114875750806307a2d13a1461035757806316934fc41461142357806330b039ee1461139f57806336cb2b821461134c578063374e4d7314610f645780633a98ef3914610f4757806361d027b314610f1f578063678b3ee214610d7a5780636d265c1114610d315780636da12d0c14610cd957806370a0823114610cae578063715018a614610c6a5780637c50309f14610c235780637f6b337b14610bdf578063817b1cd214610bc25780638da5cb5b14610b9b57806391b65cd61461099c57806394e2b21e14610969578063a0821be314610945578063a91ee0dc146108c7578063aed2d9081461088a578063b4d81fb3146107c0578063befa570e1461035c578063c6e6f59214610357578063d64c66aa146102a5578063e976306314610289578063f2fde38b14610217578063f5eb42dc146101dc578063fccc2813146101c05763ffa1ad7414610171575f80fd5b346101bc575f3660031901126101bc576101b860405161019260408261154b565b60058152640332e302e360dc1b602082015260405191829160208352602083019061160e565b0390f35b5f80fd5b346101bc575f3660031901126101bc57602060405161dead8152f35b346101bc5760203660031901126101bc576001600160a01b036101fd6114c7565b165f5260046020526020600160405f200154604051908152f35b346101bc5760203660031901126101bc576102306114c7565b61023861171f565b6001600160a01b03168015610276575f80546001600160a01b03198116831782556001600160a01b0316905f5160206118b25f395f51905f529080a3005b631e4fbdf760e01b5f525f60045260245ffd5b346101bc575f3660031901126101bc5760206040516175308152f35b346101bc5760603660031901126101bc575f546001600160a01b031633148015610343575b15610305576040516102db81611515565b602435815260016020820160443581526004355f52600760205260405f2092518355519101555f80f35b60405162461bcd60e51b81526020600482015260166024820152754f6e6c79206f776e6572206f7220726567697374727960501b6044820152606490fd5b506002546001600160a01b031633146102ca565b6114aa565b346101bc5760a03660031901126101bc576103756114c7565b6044359060243590606435906084356001600160a01b03811691908290036101bc5761039f611745565b6002546001600160a01b0316330361078b5760018060a01b031690815f52600560205260405f20845f52602052600160405f2001546107505761043e6103e5848761167e565b917f000000000000000000000000000000000000000000000000000000000000000092604051916323b872dd60e01b6020840152602483015230604483015260648201526064815261043860848261154b565b826117a0565b826106c7575b50805f52600460205260405f2061045c85825461167e565b9055805f526004602052600160405f200161047885825461167e565b9055805f526004602052600360405f200154156106b1575b6040519361049d85611530565b838552602085018181526004604087019685885260608101428152602098604051946104c98b8761154b565b5f865260808401958652875f5260058b5260405f208a5f528b5260405f209351845551600184015551600283015551600382015501905180519060018060401b0382116105f657819061051c84546114dd565b601f8111610678575b508890601f8311600114610615575f9261060a575b50508160011b915f199060031b1c19161790555b5f828152600686526040902080549091600160401b8210156105f6578594856105b96105a3857fe4c76dcad70ec0bf6b921afbe6bb7b4950aedf705245ec68942ea9ecf00f8a0c976001606098018155611632565b819391549060031b91821b915f19901b19161790565b90556105c78260085461167e565b6008556105d68260095461167e565b60095560405191825287820152426040820152a360018055604051908152f35b634e487b7160e01b5f52604160045260245ffd5b01519050888061053a565b5f8581528a81209350601f198516905b8b82821061066257505090846001959493921061064a575b505050811b01905561054e565b01515f1960f88460031b161c1916905588808061063d565b6001859682939686015181550195019301610625565b6106a190855f528a5f20601f850160051c8101918c86106106a7575b601f0160051c0190611668565b89610525565b9091508190610694565b805f52600460205242600360405f200155610490565b60405163a9059cbb60e01b602082015261dead6024820152604480820185905281526106fd916106f860648361154b565b6117a0565b82817fbbd5bd0123b04ed83c5d79cf2f6fca38e7b242f17f09d9eea712fb1cbe2fb861608060405186815260406020820152600a60408201526922b73a393c90213ab93760b11b6060820152a384610444565b60405162461bcd60e51b8152602060048201526013602482015272149bdb1948185b1c9958591e481b1bd8dad959606a1b6044820152606490fd5b60405162461bcd60e51b815260206004820152600d60248201526c4f6e6c7920526567697374727960981b6044820152606490fd5b346101bc5760403660031901126101bc576107d96114c7565b6001600160a01b03165f908152600560209081526040808320602435845282528083206001015460079092529182902091519061081582611515565b60206001845494858552015492019182528281029281840414811517156108765761271060409304915180831061086e575b50808211610866575b8161085a9161165b565b82519182526020820152f35b905080610850565b915083610847565b634e487b7160e01b5f52601160045260245ffd5b346101bc5760203660031901126101bc576001600160a01b036108ab6114c7565b165f52600a602052602060ff60405f2054166040519015158152f35b346101bc5760203660031901126101bc576108e06114c7565b6108e861171f565b6001600160a01b0316801561090d57600280546001600160a01b031916919091179055005b60405162461bcd60e51b815260206004820152601060248201526f496e76616c696420526567697374727960801b6044820152606490fd5b346101bc5760203660031901126101bc5761095e6114c7565b5060206040515f8152f35b346101bc5760203660031901126101bc576004355f5260076020526040805f206001815491015482519182526020820152f35b346101bc5760203660031901126101bc576001600160a01b036109bd6114c7565b16805f52600660205260405f2090604051808360208295549384815201905f5260205f20925f5b818110610b825750506109f99250038361154b565b815191610a05836116f4565b92610a13604051948561154b565b808452610a22601f19916116f4565b015f5b818110610b4c5750505f5b8151811015610ab657600190835f52600560205260405f20610a52828561170b565b515f5260205260405f20610a95600460405192610a6e84611530565b8054845285810154602085015260028101546040850152600381015460608501520161156e565b6080820152610aa4828761170b565b52610aaf818661170b565b5001610a30565b836040518091602082016020835281518091526040830190602060408260051b8601019301915f905b828210610aee57505050500390f35b91936001919395506020610b3c8192603f198a820301865260a060808a518051845285810151868501526040810151604085015260608101516060850152015191816080820152019061160e565b9601920192018594939192610adf565b602090604051610b5b81611530565b5f81525f838201525f60408201525f60608201526060608082015282828801015201610a25565b84548352600194850194879450602090930192016109e4565b346101bc575f3660031901126101bc575f546040516001600160a01b039091168152602090f35b346101bc575f3660031901126101bc576020600854604051908152f35b346101bc575f3660031901126101bc576040517f00000000000000000000000000000000000000000000000000000000000000006001600160a01b03168152602090f35b346101bc5760403660031901126101bc576001600160a01b03610c446114c7565b165f52600560205260405f206024355f526020526020600160405f200154604051908152f35b346101bc575f3660031901126101bc57610c8261171f565b5f80546001600160a01b0319811682556001600160a01b03165f5160206118b25f395f51905f528280a3005b346101bc5760203660031901126101bc576020610cd1610ccc6114c7565b61168b565b604051908152f35b346101bc5760403660031901126101bc57610cf26114c7565b6001600160a01b03165f908152600660205260409020805460243591908210156101bc57602091610d2291611632565b90549060031b1c604051908152f35b346101bc5760403660031901126101bc576001600160a01b03610d526114c7565b165f52600560205260405f206024355f526020526020600160405f2001541515604051908152f35b346101bc5760603660031901126101bc57610d936114c7565b60443590602435906001600160401b0383116101bc57366023840112156101bc576004830135906001600160401b0382116101bc5736602483860101116101bc57610ddc611745565b335f52600a60205260ff60405f2054161580610f0a575b610ece57602460806020957f6951689eba99e77d7e3b622f276c0ad8e36126c3c510f181b86d05d685eaa0749360018060a01b031694855f526004885260405f209660028854980190815498898082115f14610ec557610e529161165b565b905b81811115610ebd5750975b8880610eaa575b5050508060405194859389855260608b86015282606086015201848401375f828201840152426040830152601f01601f19168101030190a260018055604051908152f35b610eb39161167e565b9055888088610e66565b905097610e5f565b50505f90610e54565b60405162461bcd60e51b81526020600482015260146024820152732ab730baba3437b934bd32b21039b630b9b432b960611b6044820152606490fd5b506002546001600160a01b0316331415610df3565b346101bc575f3660031901126101bc576003546040516001600160a01b039091168152602090f35b346101bc575f3660031901126101bc576020600954604051908152f35b346101bc5760403660031901126101bc57610f7d6114c7565b602435610f88611745565b6002546001600160a01b0316330361078b5760018060a01b03821690815f52600560205260405f20815f52602052600160405f200154908115611317575f92805f526004602052600260405f2001805490816112b8575b5050610feb848461165b565b94825f52600760205260405f20956040519661100688611515565b60206001825492838b520154980197885280820290828204148215171561087657612710900496518088106112b0575b508087116112a8575b866110499161165b565b93825f52600560205260405f20845f52602052600460405f205f81555f60018201555f60028201555f60038201550161108281546114dd565b9081611265575b5050825f52600660205260405f20905f5b82548082101561124157866110af8386611632565b90549060031b1c146110c4575060010161109a565b5f9892939495969798198101908111610876576105a36110e76110f59287611632565b90549060031b1c9286611632565b9055825490811561122d576020985f5160206118d25f395f51905f529560809561119c945f1901906111278282611632565b8154905f199060031b1b19169055555b875f5260048b5260405f2061114d86825461165b565b9055875f5260048b52600160405f200161116886825461165b565b90556111768560085461165b565b6008556111858560095461165b565b600955816111f0575b89806111bf575b505061167e565b60405191825287820152856040820152426060820152a360018055604051908152f35b6111e9917f0000000000000000000000000000000000000000000000000000000000000000611765565b8a89611195565b6003546112289083906001600160a01b03167f0000000000000000000000000000000000000000000000000000000000000000611765565b61118e565b634e487b7160e01b5f52603160045260245ffd5b5050905061119c5f5160206118d25f395f51905f5293949596602098608094611137565b81601f5f931160011461127c5750555b8780611089565b8183526020832061129891601f0160051c810190600101611668565b8082528160208120915555611275565b95508561103f565b965087611036565b6113099195508585115f146113105785905b6112d582809861165b565b90556003546001600160a01b03167f0000000000000000000000000000000000000000000000000000000000000000611765565b8580610fdf565b84906112ca565b60405162461bcd60e51b815260206004820152600d60248201526c139bc81b1bd8dac8199bdd5b99609a1b6044820152606490fd5b346101bc5760403660031901126101bc576113656114c7565b602435908115158092036101bc5761137b61171f565b60018060a01b03165f52600a60205260405f209060ff801983541691161790555f80f35b346101bc5760403660031901126101bc576001600160a01b036113c06114c7565b165f52600560205260405f206024355f5260205260405f2080546101b86001830154926002810154906113fa60046003830154920161156e565b91604051958695865260208601526040850152606084015260a0608084015260a083019061160e565b346101bc5760203660031901126101bc576001600160a01b036114446114c7565b165f52600460205260a060405f20805490600181015490600281015460046003830154920154926040519485526020850152604084015260608301526080820152f35b346101bc575f3660031901126101bc576002546001600160a01b03168152602090f35b346101bc5760203660031901126101bc5760206040516004358152f35b600435906001600160a01b03821682036101bc57565b90600182811c9216801561150b575b60208310146114f757565b634e487b7160e01b5f52602260045260245ffd5b91607f16916114ec565b604081019081106001600160401b038211176105f657604052565b60a081019081106001600160401b038211176105f657604052565b601f909101601f19168101906001600160401b038211908210176105f657604052565b9060405191825f825492611581846114dd565b80845293600181169081156115ec57506001146115a8575b506115a69250038361154b565b565b90505f9291925260205f20905f915b8183106115d05750509060206115a6928201015f611599565b60209193508060019154838589010152019101909184926115b7565b9050602092506115a694915060ff191682840152151560051b8201015f611599565b805180835260209291819084018484015e5f828201840152601f01601f1916010190565b8054821015611647575f5260205f2001905f90565b634e487b7160e01b5f52603260045260245ffd5b9190820391821161087657565b818110611673575050565b5f8155600101611668565b9190820180921161087657565b60018060a01b03165f52600460205260405f20604051906116ab82611530565b8054918281526001820154602082015260806004600284015493846040850152600381015460608501520154910152818110156116ee576116eb9161165b565b90565b50505f90565b6001600160401b0381116105f65760051b60200190565b80518210156116475760209160051b010190565b5f546001600160a01b0316330361173257565b63118cdaa760e01b5f523360045260245ffd5b600260015414611756576002600155565b633ee5aeb560e01b5f5260045ffd5b60405163a9059cbb60e01b60208201526001600160a01b0390921660248301526044808301939093529181526115a6916106f860648361154b565b81516001600160a01b03909116915f91829160200182855af13d15611847573d6001600160401b0381116105f6576040516117fb9290916117eb601f8201601f19166020018461154b565b82523d5f602084013e5b83611853565b8051908115159182611823575b50506118115750565b635274afe760e01b5f5260045260245ffd5b81925090602091810103126101bc57602001518015908115036101bc575f80611808565b6117fb906060906117f5565b90611877575080511561186857805190602001fd5b630a12f52160e11b5f5260045ffd5b815115806118a8575b611888575090565b639996b31560e01b5f9081526001600160a01b0391909116600452602490fd5b50803b1561188056fe8be0079c531659141344cd1fd0a4f28419497f9722a3daafe3b4186f6b6457e09cadbc33680e22a2f04ed8eb0d7cc7f218ee9231b3473ed05904c7ec5e2d483da264697066735822122014e55efbeac3059e14572d75f893d26616e55a5f63a0e4b6f86b71f34c921d5764736f6c634300081c0033","linkReferences":{}},"methodIdentifiers":{"BURN_ADDRESS()":"fccc2813","GTOKEN()":"7f6b337b","REGISTRY()":"06433b1b","VERSION()":"ffa1ad74","VERSION_CODE()":"e9763063","authorizedSlashers(address)":"aed2d908","availableBalance(address)":"a0821be3","balanceOf(address)":"70a08231","convertToAssets(uint256)":"07a2d13a","convertToShares(uint256)":"c6e6f592","getLockedStake(address,bytes32)":"7c50309f","getUserRoleLocks(address)":"91b65cd6","hasRoleLock(address,bytes32)":"6d265c11","lockStake(address,bytes32,uint256,uint256,address)":"befa570e","owner()":"8da5cb5b","previewExitFee(address,bytes32)":"b4d81fb3","renounceOwnership()":"715018a6","roleExitConfigs(bytes32)":"94e2b21e","roleLocks(address,bytes32)":"30b039ee","setAuthorizedSlasher(address,bool)":"36cb2b82","setRegistry(address)":"a91ee0dc","setRoleExitFee(bytes32,uint256,uint256)":"d64c66aa","sharesOf(address)":"f5eb42dc","slash(address,uint256,string)":"678b3ee2","stakes(address)":"16934fc4","totalShares()":"3a98ef39","totalStaked()":"817b1cd2","transferOwnership(address)":"f2fde38b","treasury()":"61d027b3","unlockAndTransfer(address,bytes32)":"374e4d73","userActiveRoles(address,uint256)":"6da12d0c"},"id":50}