{"abi":[{"type":"constructor","inputs":[],"stateMutability":"nonpayable"},{"type":"function","name":"allowance","inputs":[{"name":"owner","type":"address","internalType":"address"},{"name":"spender","type":"address","internalType":"address"}],"outputs":[{"name":"","type":"uint256","internalType":"uint256"}],"stateMutability":"view"},{"type":"function","name":"approve","inputs":[{"name":"spender","type":"address","internalType":"address"},{"name":"value","type":"uint256","internalType":"uint256"}],"outputs":[{"name":"","type":"bool","internalType":"bool"}],"stateMutability":"nonpayable"},{"type":"function","name":"attacker","inputs":[],"outputs":[{"name":"","type":"address","internalType":"address"}],"stateMutability":"view"},{"type":"function","name":"attacking","inputs":[],"outputs":[{"name":"","type":"bool","internalType":"bool"}],"stateMutability":"view"},{"type":"function","name":"balanceOf","inputs":[{"name":"account","type":"address","internalType":"address"}],"outputs":[{"name":"","type":"uint256","internalType":"uint256"}],"stateMutability":"view"},{"type":"function","name":"decimals","inputs":[],"outputs":[{"name":"","type":"uint8","internalType":"uint8"}],"stateMutability":"view"},{"type":"function","name":"name","inputs":[],"outputs":[{"name":"","type":"string","internalType":"string"}],"stateMutability":"view"},{"type":"function","name":"setAttacker","inputs":[{"name":"_attacker","type":"address","internalType":"address"}],"outputs":[],"stateMutability":"nonpayable"},{"type":"function","name":"setSuperPaymaster","inputs":[{"name":"_sp","type":"address","internalType":"address"}],"outputs":[],"stateMutability":"nonpayable"},{"type":"function","name":"superPaymaster","inputs":[],"outputs":[{"name":"","type":"address","internalType":"contract ISuperPaymaster"}],"stateMutability":"view"},{"type":"function","name":"symbol","inputs":[],"outputs":[{"name":"","type":"string","internalType":"string"}],"stateMutability":"view"},{"type":"function","name":"totalSupply","inputs":[],"outputs":[{"name":"","type":"uint256","internalType":"uint256"}],"stateMutability":"view"},{"type":"function","name":"transfer","inputs":[{"name":"to","type":"address","internalType":"address"},{"name":"amount","type":"uint256","internalType":"uint256"}],"outputs":[{"name":"","type":"bool","internalType":"bool"}],"stateMutability":"nonpayable"},{"type":"function","name":"transferFrom","inputs":[{"name":"from","type":"address","internalType":"address"},{"name":"to","type":"address","internalType":"address"},{"name":"value","type":"uint256","internalType":"uint256"}],"outputs":[{"name":"","type":"bool","internalType":"bool"}],"stateMutability":"nonpayable"},{"type":"event","name":"Approval","inputs":[{"name":"owner","type":"address","indexed":true,"internalType":"address"},{"name":"spender","type":"address","indexed":true,"internalType":"address"},{"name":"value","type":"uint256","indexed":false,"internalType":"uint256"}],"anonymous":false},{"type":"event","name":"Transfer","inputs":[{"name":"from","type":"address","indexed":true,"internalType":"address"},{"name":"to","type":"address","indexed":true,"internalType":"address"},{"name":"value","type":"uint256","indexed":false,"internalType":"uint256"}],"anonymous":false},{"type":"error","name":"ERC20InsufficientAllowance","inputs":[{"name":"spender","type":"address","internalType":"address"},{"name":"allowance","type":"uint256","internalType":"uint256"},{"name":"needed","type":"uint256","internalType":"uint256"}]},{"type":"error","name":"ERC20InsufficientBalance","inputs":[{"name":"sender","type":"address","internalType":"address"},{"name":"balance","type":"uint256","internalType":"uint256"},{"name":"needed","type":"uint256","internalType":"uint256"}]},{"type":"error","name":"ERC20InvalidApprover","inputs":[{"name":"approver","type":"address","internalType":"address"}]},{"type":"error","name":"ERC20InvalidReceiver","inputs":[{"name":"receiver","type":"address","internalType":"address"}]},{"type":"error","name":"ERC20InvalidSender","inputs":[{"name":"sender","type":"address","internalType":"address"}]},{"type":"error","name":"ERC20InvalidSpender","inputs":[{"name":"spender","type":"address","internalType":"address"}]}],"bytecode":{"object":"0x6080604052346103b157604080519081016001600160401b038111828210176102c4576040908152600f82526e4d616c6963696f75732061504e547360881b602083015280519081016001600160401b038111828210176102c45760405260068152656d41504e547360d01b602082015281516001600160401b0381116102c457600354600181811c911680156103a7575b60208210146102a657601f8111610344575b50602092601f82116001146102e357928192935f926102d8575b50508160011b915f199060031b1c1916176003555b80516001600160401b0381116102c457600454600181811c911680156102ba575b60208210146102a657601f8111610243575b50602091601f82116001146101e3579181925f926101d8575b50508160011b915f199060031b1c1916176004555b33156101c557600254683635c9adc5dea0000081018091116101b157600255335f525f60205260405f20683635c9adc5dea000008154019055604051683635c9adc5dea0000081525f7fddf252ad1be2c89b69c2b068fc378daa952ba7f163c4a11628f55a4df523b3ef60203393a36040516107dc90816103b68239f35b634e487b7160e01b5f52601160045260245ffd5b63ec442f0560e01b5f525f60045260245ffd5b015190505f8061011e565b601f1982169260045f52805f20915f5b85811061022b57508360019510610213575b505050811b01600455610133565b01515f1960f88460031b161c191690555f8080610205565b919260206001819286850151815501940192016101f3565b60045f527f8a35acfbc15ff81a39ae7d344fd709f28e8600b4aa8c65c6b64bfe7fe36bd19b601f830160051c8101916020841061029c575b601f0160051c01905b8181106102915750610105565b5f8155600101610284565b909150819061027b565b634e487b7160e01b5f52602260045260245ffd5b90607f16906100f3565b634e487b7160e01b5f52604160045260245ffd5b015190505f806100bd565b601f1982169360035f52805f20915f5b86811061032c5750836001959610610314575b505050811b016003556100d2565b01515f1960f88460031b161c191690555f8080610306565b919260206001819286850151815501940192016102f3565b60035f527fc2575a0e9e593c00f959f8c92f12db2869c3395a3b0502d05e2516446f71f85b601f830160051c8101916020841061039d575b601f0160051c01905b81811061039257506100a3565b5f8155600101610385565b909150819061037c565b90607f1690610091565b5f80fdfe6080806040526004361015610012575f80fd5b5f905f3560e01c90816306fdde03146105a457508063095ea7b31461052257806318160ddd1461050557806323b872dd14610426578063313ce5671461040b5780633c0bbcd9146103e657806348eb76ee146103be57806370a08231146103875780638123350b1461035f57806395d89b411461025b578063a6e1bb6514610225578063a9059cbb14610143578063dd62ed3e146100f05763e79e9739146100b8575f80fd5b346100ed5760203660031901126100ed576001600160a01b036100d9610686565b1660018060a01b0319600554161760055580f35b80fd5b50346100ed5760403660031901126100ed57604061010c610686565b9161011561069c565b9260018060a01b031681526001602052209060018060a01b03165f52602052602060405f2054604051908152f35b346102135760403660031901126102135761015c610686565b6006546001600160a01b038281169082161480610217575b610191575b61018660243583336106e9565b602060405160018152f35b60ff60a01b1916600160a01b176006556005546001600160a01b031690813b15610213575f8092602460405180958193632e1a7d4d60e01b8352600160048401525af191821561020857610186926101f8575b506006805460ff60a01b1916905590610179565b5f610202916106b2565b5f6101e4565b6040513d5f823e3d90fd5b5f80fd5b5060ff8160a01c1615610174565b34610213576020366003190112610213576001600160a01b03610246610686565b1660018060a01b031960065416176006555f80f35b34610213575f366003190112610213576040515f6004548060011c90600181168015610355575b6020831081146103415782855290811561031d57506001146102bf575b6102bb836102af818503826106b2565b6040519182918261065c565b0390f35b60045f9081527f8a35acfbc15ff81a39ae7d344fd709f28e8600b4aa8c65c6b64bfe7fe36bd19b939250905b808210610303575090915081016020016102af61029f565b9192600181602092548385880101520191019092916102eb565b60ff191660208086019190915291151560051b840190910191506102af905061029f565b634e487b7160e01b5f52602260045260245ffd5b91607f1691610282565b34610213575f366003190112610213576005546040516001600160a01b039091168152602090f35b34610213576020366003190112610213576001600160a01b036103a8610686565b165f525f602052602060405f2054604051908152f35b34610213575f366003190112610213576006546040516001600160a01b039091168152602090f35b34610213575f36600319011261021357602060ff60065460a01c166040519015158152f35b34610213575f36600319011261021357602060405160128152f35b346102135760603660031901126102135761043f610686565b61044761069c565b6001600160a01b0382165f818152600160209081526040808320338452909152902054909260443592915f198110610485575b5061018693506106e9565b8381106104ea5784156104d75733156104c457610186945f52600160205260405f2060018060a01b0333165f526020528360405f20910390558461047a565b634a1406b160e11b5f525f60045260245ffd5b63e602df0560e01b5f525f60045260245ffd5b8390637dc7a0d960e11b5f523360045260245260445260645ffd5b34610213575f366003190112610213576020600254604051908152f35b346102135760403660031901126102135761053b610686565b6024359033156104d7576001600160a01b03169081156104c457335f52600160205260405f20825f526020528060405f20556040519081527f8c5be1e5ebec7d5bd14f71427d1e84f3dd0314c0f7b2291e5b200ac8c7c3b92560203392a3602060405160018152f35b34610213575f366003190112610213575f6003548060011c90600181168015610652575b6020831081146103415782855290811561031d57506001146105f4576102bb836102af818503826106b2565b60035f9081527fc2575a0e9e593c00f959f8c92f12db2869c3395a3b0502d05e2516446f71f85b939250905b808210610638575090915081016020016102af61029f565b919260018160209254838588010152019101909291610620565b91607f16916105c8565b602060409281835280519182918282860152018484015e5f828201840152601f01601f1916010190565b600435906001600160a01b038216820361021357565b602435906001600160a01b038216820361021357565b601f909101601f19168101906001600160401b038211908210176106d557604052565b634e487b7160e01b5f52604160045260245ffd5b6001600160a01b0316908115610793576001600160a01b031691821561078057815f525f60205260405f205481811061076757817fddf252ad1be2c89b69c2b068fc378daa952ba7f163c4a11628f55a4df523b3ef92602092855f525f84520360405f2055845f525f825260405f20818154019055604051908152a3565b8263391434e360e21b5f5260045260245260445260645ffd5b63ec442f0560e01b5f525f60045260245ffd5b634b637e8f60e11b5f525f60045260245ffdfea2646970667358221220db7ca7f4909366ae95cef080e3cfdba277bcf2db835c9b14485d26a3c254867564736f6c634300081c0033","linkReferences":{}},"methodIdentifiers":{"allowance(address,address)":"dd62ed3e","approve(address,uint256)":"095ea7b3","attacker()":"48eb76ee","attacking()":"3c0bbcd9","balanceOf(address)":"70a08231","decimals()":"313ce567","name()":"06fdde03","setAttacker(address)":"a6e1bb65","setSuperPaymaster(address)":"e79e9739","superPaymaster()":"8123350b","symbol()":"95d89b41","totalSupply()":"18160ddd","transfer(address,uint256)":"a9059cbb","transferFrom(address,address,uint256)":"23b872dd"},"id":5}