{"abi":[{"type":"constructor","inputs":[{"name":"_g","type":"address","internalType":"address"},{"name":"_s","type":"address","internalType":"address"},{"name":"_r","type":"address","internalType":"address"},{"name":"_d","type":"address","internalType":"address"}],"stateMutability":"nonpayable"},{"type":"function","name":"GTOKEN","inputs":[],"outputs":[{"name":"","type":"address","internalType":"address"}],"stateMutability":"view"},{"type":"function","name":"GTOKEN_STAKING","inputs":[],"outputs":[{"name":"","type":"address","internalType":"address"}],"stateMutability":"view"},{"type":"function","name":"REGISTRY","inputs":[],"outputs":[{"name":"","type":"address","internalType":"address"}],"stateMutability":"view"},{"type":"function","name":"SUPER_PAYMASTER","inputs":[],"outputs":[{"name":"","type":"address","internalType":"address"}],"stateMutability":"view"},{"type":"function","name":"VERSION","inputs":[],"outputs":[{"name":"","type":"string","internalType":"string"}],"stateMutability":"view"},{"type":"function","name":"VERSION_CODE","inputs":[],"outputs":[{"name":"","type":"uint256","internalType":"uint256"}],"stateMutability":"view"},{"type":"function","name":"airdropMint","inputs":[{"name":"u","type":"address","internalType":"address"},{"name":"roleId","type":"bytes32","internalType":"bytes32"},{"name":"roleData","type":"bytes","internalType":"bytes"}],"outputs":[{"name":"tid","type":"uint256","internalType":"uint256"},{"name":"isNew","type":"bool","internalType":"bool"}],"stateMutability":"nonpayable"},{"type":"function","name":"approve","inputs":[{"name":"to","type":"address","internalType":"address"},{"name":"tokenId","type":"uint256","internalType":"uint256"}],"outputs":[],"stateMutability":"nonpayable"},{"type":"function","name":"balanceOf","inputs":[{"name":"owner","type":"address","internalType":"address"}],"outputs":[{"name":"","type":"uint256","internalType":"uint256"}],"stateMutability":"view"},{"type":"function","name":"burnSBT","inputs":[],"outputs":[],"stateMutability":"nonpayable"},{"type":"function","name":"daoMultisig","inputs":[],"outputs":[{"name":"","type":"address","internalType":"address"}],"stateMutability":"view"},{"type":"function","name":"deactivateMembership","inputs":[{"name":"user","type":"address","internalType":"address"},{"name":"community","type":"address","internalType":"address"}],"outputs":[],"stateMutability":"nonpayable"},{"type":"function","name":"getApproved","inputs":[{"name":"tokenId","type":"uint256","internalType":"uint256"}],"outputs":[{"name":"","type":"address","internalType":"address"}],"stateMutability":"view"},{"type":"function","name":"getCommunityMembership","inputs":[{"name":"tid","type":"uint256","internalType":"uint256"},{"name":"comm","type":"address","internalType":"address"}],"outputs":[{"name":"mem","type":"tuple","internalType":"struct MySBT.CommunityMembership","components":[{"name":"community","type":"address","internalType":"address"},{"name":"joinedAt","type":"uint256","internalType":"uint256"},{"name":"lastActiveTime","type":"uint256","internalType":"uint256"},{"name":"isActive","type":"bool","internalType":"bool"},{"name":"metadata","type":"string","internalType":"string"}]}],"stateMutability":"view"},{"type":"function","name":"getMemberships","inputs":[{"name":"tid","type":"uint256","internalType":"uint256"}],"outputs":[{"name":"","type":"tuple[]","internalType":"struct MySBT.CommunityMembership[]","components":[{"name":"community","type":"address","internalType":"address"},{"name":"joinedAt","type":"uint256","internalType":"uint256"},{"name":"lastActiveTime","type":"uint256","internalType":"uint256"},{"name":"isActive","type":"bool","internalType":"bool"},{"name":"metadata","type":"string","internalType":"string"}]}],"stateMutability":"view"},{"type":"function","name":"getSBTData","inputs":[{"name":"tid","type":"uint256","internalType":"uint256"}],"outputs":[{"name":"","type":"tuple","internalType":"struct MySBT.SBTData","components":[{"name":"holder","type":"address","internalType":"address"},{"name":"firstCommunity","type":"address","internalType":"address"},{"name":"mintedAt","type":"uint256","internalType":"uint256"},{"name":"totalCommunities","type":"uint256","internalType":"uint256"}]}],"stateMutability":"view"},{"type":"function","name":"getUserSBT","inputs":[{"name":"u","type":"address","internalType":"address"}],"outputs":[{"name":"","type":"uint256","internalType":"uint256"}],"stateMutability":"view"},{"type":"function","name":"isApprovedForAll","inputs":[{"name":"owner","type":"address","internalType":"address"},{"name":"operator","type":"address","internalType":"address"}],"outputs":[{"name":"","type":"bool","internalType":"bool"}],"stateMutability":"view"},{"type":"function","name":"lastActivityTime","inputs":[{"name":"","type":"uint256","internalType":"uint256"},{"name":"","type":"address","internalType":"address"}],"outputs":[{"name":"","type":"uint256","internalType":"uint256"}],"stateMutability":"view"},{"type":"function","name":"leaveCommunity","inputs":[{"name":"comm","type":"address","internalType":"address"}],"outputs":[],"stateMutability":"nonpayable"},{"type":"function","name":"membershipIndex","inputs":[{"name":"","type":"uint256","internalType":"uint256"},{"name":"","type":"address","internalType":"address"}],"outputs":[{"name":"","type":"uint256","internalType":"uint256"}],"stateMutability":"view"},{"type":"function","name":"minLockAmount","inputs":[],"outputs":[{"name":"","type":"uint256","internalType":"uint256"}],"stateMutability":"view"},{"type":"function","name":"mintFee","inputs":[],"outputs":[{"name":"","type":"uint256","internalType":"uint256"}],"stateMutability":"view"},{"type":"function","name":"mintForRole","inputs":[{"name":"user","type":"address","internalType":"address"},{"name":"roleId","type":"bytes32","internalType":"bytes32"},{"name":"roleData","type":"bytes","internalType":"bytes"}],"outputs":[{"name":"tokenId","type":"uint256","internalType":"uint256"},{"name":"isNewMint","type":"bool","internalType":"bool"}],"stateMutability":"nonpayable"},{"type":"function","name":"name","inputs":[],"outputs":[{"name":"","type":"string","internalType":"string"}],"stateMutability":"view"},{"type":"function","name":"nextTokenId","inputs":[],"outputs":[{"name":"","type":"uint256","internalType":"uint256"}],"stateMutability":"view"},{"type":"function","name":"ownerOf","inputs":[{"name":"tokenId","type":"uint256","internalType":"uint256"}],"outputs":[{"name":"","type":"address","internalType":"address"}],"stateMutability":"view"},{"type":"function","name":"pause","inputs":[],"outputs":[],"stateMutability":"nonpayable"},{"type":"function","name":"paused","inputs":[],"outputs":[{"name":"","type":"bool","internalType":"bool"}],"stateMutability":"view"},{"type":"function","name":"recordActivity","inputs":[{"name":"u","type":"address","internalType":"address"}],"outputs":[],"stateMutability":"nonpayable"},{"type":"function","name":"reputationCalculator","inputs":[],"outputs":[{"name":"","type":"address","internalType":"address"}],"stateMutability":"view"},{"type":"function","name":"safeTransferFrom","inputs":[{"name":"from","type":"address","internalType":"address"},{"name":"to","type":"address","internalType":"address"},{"name":"tokenId","type":"uint256","internalType":"uint256"}],"outputs":[],"stateMutability":"nonpayable"},{"type":"function","name":"safeTransferFrom","inputs":[{"name":"from","type":"address","internalType":"address"},{"name":"to","type":"address","internalType":"address"},{"name":"tokenId","type":"uint256","internalType":"uint256"},{"name":"data","type":"bytes","internalType":"bytes"}],"outputs":[],"stateMutability":"nonpayable"},{"type":"function","name":"sbtData","inputs":[{"name":"","type":"uint256","internalType":"uint256"}],"outputs":[{"name":"holder","type":"address","internalType":"address"},{"name":"firstCommunity","type":"address","internalType":"address"},{"name":"mintedAt","type":"uint256","internalType":"uint256"},{"name":"totalCommunities","type":"uint256","internalType":"uint256"}],"stateMutability":"view"},{"type":"function","name":"setApprovalForAll","inputs":[{"name":"operator","type":"address","internalType":"address"},{"name":"approved","type":"bool","internalType":"bool"}],"outputs":[],"stateMutability":"nonpayable"},{"type":"function","name":"setDAOMultisig","inputs":[{"name":"d","type":"address","internalType":"address"}],"outputs":[],"stateMutability":"nonpayable"},{"type":"function","name":"setMinLockAmount","inputs":[{"name":"a","type":"uint256","internalType":"uint256"}],"outputs":[],"stateMutability":"nonpayable"},{"type":"function","name":"setMintFee","inputs":[{"name":"f","type":"uint256","internalType":"uint256"}],"outputs":[],"stateMutability":"nonpayable"},{"type":"function","name":"setRegistry","inputs":[{"name":"r","type":"address","internalType":"address"}],"outputs":[],"stateMutability":"nonpayable"},{"type":"function","name":"setReputationCalculator","inputs":[{"name":"c","type":"address","internalType":"address"}],"outputs":[],"stateMutability":"nonpayable"},{"type":"function","name":"setSuperPaymaster","inputs":[{"name":"_paymaster","type":"address","internalType":"address"}],"outputs":[],"stateMutability":"nonpayable"},{"type":"function","name":"supportsInterface","inputs":[{"name":"interfaceId","type":"bytes4","internalType":"bytes4"}],"outputs":[{"name":"","type":"bool","internalType":"bool"}],"stateMutability":"view"},{"type":"function","name":"symbol","inputs":[],"outputs":[{"name":"","type":"string","internalType":"string"}],"stateMutability":"view"},{"type":"function","name":"tokenURI","inputs":[{"name":"tokenId","type":"uint256","internalType":"uint256"}],"outputs":[{"name":"","type":"string","internalType":"string"}],"stateMutability":"view"},{"type":"function","name":"transferFrom","inputs":[{"name":"from","type":"address","internalType":"address"},{"name":"to","type":"address","internalType":"address"},{"name":"tokenId","type":"uint256","internalType":"uint256"}],"outputs":[],"stateMutability":"nonpayable"},{"type":"function","name":"unpause","inputs":[],"outputs":[],"stateMutability":"nonpayable"},{"type":"function","name":"userToSBT","inputs":[{"name":"","type":"address","internalType":"address"}],"outputs":[{"name":"","type":"uint256","internalType":"uint256"}],"stateMutability":"view"},{"type":"function","name":"verifyCommunityMembership","inputs":[{"name":"u","type":"address","internalType":"address"},{"name":"comm","type":"address","internalType":"address"}],"outputs":[{"name":"","type":"bool","internalType":"bool"}],"stateMutability":"view"},{"type":"function","name":"version","inputs":[],"outputs":[{"name":"","type":"uint256","internalType":"uint256"}],"stateMutability":"pure"},{"type":"function","name":"versionString","inputs":[],"outputs":[{"name":"","type":"string","internalType":"string"}],"stateMutability":"pure"},{"type":"function","name":"weeklyActivity","inputs":[{"name":"","type":"uint256","internalType":"uint256"},{"name":"","type":"address","internalType":"address"},{"name":"","type":"uint256","internalType":"uint256"}],"outputs":[{"name":"","type":"bool","internalType":"bool"}],"stateMutability":"view"},{"type":"event","name":"ActivityRecorded","inputs":[{"name":"tokenId","type":"uint256","indexed":true,"internalType":"uint256"},{"name":"community","type":"address","indexed":true,"internalType":"address"},{"name":"week","type":"uint256","indexed":false,"internalType":"uint256"},{"name":"timestamp","type":"uint256","indexed":false,"internalType":"uint256"}],"anonymous":false},{"type":"event","name":"Approval","inputs":[{"name":"owner","type":"address","indexed":true,"internalType":"address"},{"name":"approved","type":"address","indexed":true,"internalType":"address"},{"name":"tokenId","type":"uint256","indexed":true,"internalType":"uint256"}],"anonymous":false},{"type":"event","name":"ApprovalForAll","inputs":[{"name":"owner","type":"address","indexed":true,"internalType":"address"},{"name":"operator","type":"address","indexed":true,"internalType":"address"},{"name":"approved","type":"bool","indexed":false,"internalType":"bool"}],"anonymous":false},{"type":"event","name":"ContractPaused","inputs":[{"name":"by","type":"address","indexed":true,"internalType":"address"},{"name":"timestamp","type":"uint256","indexed":false,"internalType":"uint256"}],"anonymous":false},{"type":"event","name":"ContractUnpaused","inputs":[{"name":"by","type":"address","indexed":true,"internalType":"address"},{"name":"timestamp","type":"uint256","indexed":false,"internalType":"uint256"}],"anonymous":false},{"type":"event","name":"DAOMultisigUpdated","inputs":[{"name":"oldDAO","type":"address","indexed":true,"internalType":"address"},{"name":"newDAO","type":"address","indexed":true,"internalType":"address"},{"name":"timestamp","type":"uint256","indexed":false,"internalType":"uint256"}],"anonymous":false},{"type":"event","name":"MembershipAdded","inputs":[{"name":"tokenId","type":"uint256","indexed":true,"internalType":"uint256"},{"name":"community","type":"address","indexed":true,"internalType":"address"},{"name":"metadata","type":"string","indexed":false,"internalType":"string"},{"name":"timestamp","type":"uint256","indexed":false,"internalType":"uint256"}],"anonymous":false},{"type":"event","name":"MembershipDeactivated","inputs":[{"name":"tokenId","type":"uint256","indexed":true,"internalType":"uint256"},{"name":"community","type":"address","indexed":true,"internalType":"address"},{"name":"timestamp","type":"uint256","indexed":false,"internalType":"uint256"}],"anonymous":false},{"type":"event","name":"MinLockAmountUpdated","inputs":[{"name":"oldAmount","type":"uint256","indexed":false,"internalType":"uint256"},{"name":"newAmount","type":"uint256","indexed":false,"internalType":"uint256"},{"name":"timestamp","type":"uint256","indexed":false,"internalType":"uint256"}],"anonymous":false},{"type":"event","name":"MintFeeUpdated","inputs":[{"name":"oldFee","type":"uint256","indexed":false,"internalType":"uint256"},{"name":"newFee","type":"uint256","indexed":false,"internalType":"uint256"},{"name":"timestamp","type":"uint256","indexed":false,"internalType":"uint256"}],"anonymous":false},{"type":"event","name":"Paused","inputs":[{"name":"account","type":"address","indexed":false,"internalType":"address"}],"anonymous":false},{"type":"event","name":"RegistryUpdated","inputs":[{"name":"oldRegistry","type":"address","indexed":true,"internalType":"address"},{"name":"newRegistry","type":"address","indexed":true,"internalType":"address"},{"name":"timestamp","type":"uint256","indexed":false,"internalType":"uint256"}],"anonymous":false},{"type":"event","name":"ReputationCalculatorUpdated","inputs":[{"name":"oldCalculator","type":"address","indexed":true,"internalType":"address"},{"name":"newCalculator","type":"address","indexed":true,"internalType":"address"},{"name":"timestamp","type":"uint256","indexed":false,"internalType":"uint256"}],"anonymous":false},{"type":"event","name":"SBTBurned","inputs":[{"name":"user","type":"address","indexed":true,"internalType":"address"},{"name":"tokenId","type":"uint256","indexed":true,"internalType":"uint256"},{"name":"grossAmount","type":"uint256","indexed":false,"internalType":"uint256"},{"name":"netAmount","type":"uint256","indexed":false,"internalType":"uint256"},{"name":"timestamp","type":"uint256","indexed":false,"internalType":"uint256"}],"anonymous":false},{"type":"event","name":"SBTMinted","inputs":[{"name":"user","type":"address","indexed":true,"internalType":"address"},{"name":"tokenId","type":"uint256","indexed":true,"internalType":"uint256"},{"name":"firstCommunity","type":"address","indexed":true,"internalType":"address"},{"name":"timestamp","type":"uint256","indexed":false,"internalType":"uint256"}],"anonymous":false},{"type":"event","name":"SuperPaymasterUpdated","inputs":[{"name":"oldPaymaster","type":"address","indexed":true,"internalType":"address"},{"name":"newPaymaster","type":"address","indexed":true,"internalType":"address"},{"name":"timestamp","type":"uint256","indexed":false,"internalType":"uint256"}],"anonymous":false},{"type":"event","name":"Transfer","inputs":[{"name":"from","type":"address","indexed":true,"internalType":"address"},{"name":"to","type":"address","indexed":true,"internalType":"address"},{"name":"tokenId","type":"uint256","indexed":true,"internalType":"uint256"}],"anonymous":false},{"type":"event","name":"Unpaused","inputs":[{"name":"account","type":"address","indexed":false,"internalType":"address"}],"anonymous":false},{"type":"error","name":"E","inputs":[]},{"type":"error","name":"ERC721IncorrectOwner","inputs":[{"name":"sender","type":"address","internalType":"address"},{"name":"tokenId","type":"uint256","internalType":"uint256"},{"name":"owner","type":"address","internalType":"address"}]},{"type":"error","name":"ERC721InsufficientApproval","inputs":[{"name":"operator","type":"address","internalType":"address"},{"name":"tokenId","type":"uint256","internalType":"uint256"}]},{"type":"error","name":"ERC721InvalidApprover","inputs":[{"name":"approver","type":"address","internalType":"address"}]},{"type":"error","name":"ERC721InvalidOperator","inputs":[{"name":"operator","type":"address","internalType":"address"}]},{"type":"error","name":"ERC721InvalidOwner","inputs":[{"name":"owner","type":"address","internalType":"address"}]},{"type":"error","name":"ERC721InvalidReceiver","inputs":[{"name":"receiver","type":"address","internalType":"address"}]},{"type":"error","name":"ERC721InvalidSender","inputs":[{"name":"sender","type":"address","internalType":"address"}]},{"type":"error","name":"ERC721NonexistentToken","inputs":[{"name":"tokenId","type":"uint256","internalType":"uint256"}]},{"type":"error","name":"EnforcedPause","inputs":[]},{"type":"error","name":"ExpectedPause","inputs":[]},{"type":"error","name":"ReentrancyGuardReentrantCall","inputs":[]}],"bytecode":{"object":"0x60c06040523461020a576130796080813803918261001c81610428565b93849283398101031261020a576100328161044d565b9061003f6020820161044d565b61005760606100506040850161044d565b930161044d565b926100626040610428565b601981527f4d7963656c69756d20536f756c20426f756e6420546f6b656e0000000000000060208201526100966040610428565b6005815264135e54d09560da1b6020820152815190916001600160401b03821161032f575f5490600182811c9216801561041e575b60208310146103115781601f8493116103b1575b50602090601f831160011461034e575f92610343575b50508160011b915f199060031b1c1916175f555b8051906001600160401b03821161032f5760015490600182811c92168015610325575b60208310146103115781601f8493116102a3575b50602090601f831160011461023d575f92610232575b50508160011b915f199060031b1c1916176001555b600160068190556007805460ff19169055601255670429d069189e000060135567016345785d8a00006014556001600160a01b038116151580610220575b8061020e575b1561020a5760805260a052600e80546001600160a01b039283166001600160a01b031991821617909155600f8054939092169216919091179055604051612c179081610462823960805181610b43015260a05181610ac50152f35b5f80fd5b506001600160a01b03841615156101af565b506001600160a01b03821615156101a9565b015190505f80610156565b60015f9081528281209350601f198516905b81811061028b5750908460019594939210610273575b505050811b0160015561016b565b01515f1960f88460031b161c191690555f8080610265565b9293602060018192878601518155019501930161024f565b60015f529091507fb10e2d527612073b26eecdfd717e6a320cf44b4afac2b0732d9fcbe2b7fa0cf6601f840160051c81019160208510610307575b90601f859493920160051c01905b8181106102f95750610140565b5f81558493506001016102ec565b90915081906102de565b634e487b7160e01b5f52602260045260245ffd5b91607f169161012c565b634e487b7160e01b5f52604160045260245ffd5b015190505f806100f5565b5f8080528281209350601f198516905b8181106103995750908460019594939210610381575b505050811b015f55610109565b01515f1960f88460031b161c191690555f8080610374565b9293602060018192878601518155019501930161035e565b5f80529091507f290decd9548b62a8d60345a988386fc84ba6bc95484008f6362f93160ef3e563601f840160051c81019160208510610414575b90601f859493920160051c01905b81811061040657506100df565b5f81558493506001016103f9565b90915081906103eb565b91607f16916100cb565b6040519190601f01601f191682016001600160401b0381118382101761032f57604052565b51906001600160a01b038216820361020a5756fe6080806040526004361015610012575f80fd5b5f905f3560e01c90816301ffc9a714611a2e5750806306433b1b14611a0657806306fdde031461193f578063081812fc1461190357806308804275146118e6578063095ea7b3146117fc5780630f68ae401461178d57806311c451701461155f57806313966db51461154157806323b872dd146115295780632d5a7f4f14610af45780632f7c88f5146113de5780633e3e68421461103f5780633f4ba83a14610f9e57806342842e0e14610f745780634f8cc06514610ef257806354fd4d5014610ed4578063556697da14610de05780635bb5bf0c14610da95780635c975abb14610d865780636352211e14610d5557806370a0823114610d0257806371eb90a114610c3e57806375794a3c14610c20578063776fafac14610bc35780637e21579114610b725780637f6b337b14610b2d57806380f4b8c814610af4578063826600ce14610aaf5780638456cb5914610a1b578063908c1018146109d6578063919d1e2c146109ad57806395d89b41146108ca578063a1141b0714610885578063a22cb465146107de578063a61096501461075d578063a91ee0dc146106cc578063b88d4fde14610668578063bead05131461062d578063bf1fb0f214610589578063c0d0aa6914610560578063c580163e14610509578063c87b56dd146104b2578063ccbc10d014610489578063d977b66b14610446578063dcaff6c5146103fd578063e79e97391461037c578063e97630631461035f578063e985e9c514610307578063eddd0d9c1461029d5763ffa1ad741461024f575f80fd5b3461029a578060031936011261029a57610296604051610270604082611c2f565b60058152640332e302e360dc1b6020820152604051918291602083526020830190611a99565b0390f35b80fd5b503461029a57602036600319011261029a577fd3950a5507479ea19c5c7766f5191546ace60f0a00dc360d52ce083b58f223316004356102e860018060a01b03600f54163314611cdb565b6014549080601455610301604051928392429184611d12565b0390a180f35b503461029a57604036600319011261029a576040610323611abd565b9161032c611ad3565b9260018060a01b031681526005602052209060018060a01b03165f52602052602060ff60405f2054166040519015158152f35b503461029a578060031936011261029a5760206040516175308152f35b503461029a57602036600319011261029a57610396611abd565b6103ab60018060a01b03600f54163314611cdb565b601180546001600160a01b039283166001600160a01b031982168117909255604051428152919216907f3aef062d014a7168191b96fb2a9e3c807b09e2a887a23c265114bc08f9e5cf0290602090a380f35b503461029a578060031936011261029a5761029660405161041f604082611c2f565b6006815265076332e312e360d41b6020820152604051918291602083526020830190611a99565b503461029a57604036600319011261029a57610486610463611abd565b61046b611ad3565b9061048160018060a01b03600e54163314611ef3565b612a83565b80f35b503461029a578060031936011261029a576010546040516001600160a01b039091168152602090f35b503461029a57602036600319011261029a576104cf6004356127ca565b50806040516104df602082611c2f565b52506102966040516104f2602082611c2f565b5f8152604051918291602083526020830190611a99565b503461029a5761054961051b36611b37565b929091506105276127fe565b61052f612819565b61054460018060a01b03600e54163314611ef3565b612440565b600160065560408051928352901515602083015290f35b503461029a578060031936011261029a57600f546040516001600160a01b039091168152602090f35b503461029a57602036600319011261029a57604081608092606083516105ae81611c14565b8281528260208201528285820152015260043581526009602052206040516105d581611c14565b81546001600160a01b0390811680835260018401548216602080850191825260028601546040808701918252600390970154606096870190815287519485529251909416908301529151938101939093525190820152f35b503461029a57602036600319011261029a5761066061064a611abd565b6106526127fe565b61065a612819565b33612a83565b600160065580f35b503461029a57608036600319011261029a57610682611abd565b61068a611ad3565b606435916001600160401b0383116106c857366023840112156106c8576106be610486933690602481600401359101611c6d565b9160443591612300565b8380fd5b503461029a57602036600319011261029a576106e6611abd565b6106fb60018060a01b03600f54163314611cdb565b6001600160a01b0316801561075957600e80546001600160a01b0319811683179091556040514281526001600160a01b03909116907f724c89272c35417e239c6cd89ada342e0717632938f38b47eaacecacf291ace290602090a380f35b5080fd5b503461029a57602036600319011261029a57610777611abd565b61078c60018060a01b03600f54163314611cdb565b601080546001600160a01b039283166001600160a01b031982168117909255604051428152919216907fb71a92720c720f655d24a8ebbeeb4c9875d85189ca58d32cb0e6997aa5e6c29190602090a380f35b503461029a57604036600319011261029a576107f8611abd565b60243590811515908183036106c8576001600160a01b03169182156108715761084290338552600560205260408520845f5260205260405f209060ff801983541691151516179055565b6040519081527f17307eab39ab6107e8899845ad3d59bd9653f200f220920489ca2b5937696c3160203392a380f35b630b61174360e31b84526004839052602484fd5b503461029a57604036600319011261029a5760406108a1611ad3565b916004358152600b602052209060018060a01b03165f52602052602060405f2054604051908152f35b503461029a578060031936011261029a576040519080600154906108ed82611ca3565b80855291600181169081156109865750600114610929575b6102968461091581860382611c2f565b604051918291602083526020830190611a99565b600181527fb10e2d527612073b26eecdfd717e6a320cf44b4afac2b0732d9fcbe2b7fa0cf6939250905b80821061096c5750909150810160200161091582610905565b919260018160209254838588010152019101909291610953565b60ff191660208087019190915292151560051b850190920192506109159150839050610905565b503461029a578060031936011261029a576011546040516001600160a01b039091168152602090f35b503461029a57604036600319011261029a5760406109f2611ad3565b916004358152600d602052209060018060a01b03165f52602052602060405f2054604051908152f35b503461029a578060031936011261029a57610a4160018060a01b03600f54163314611cdb565b610a496127fe565b600160ff1960075416176007557f62e78cea01bee320cd4e420270b5ea74000d11b0c9f74754ebdbfc544b05a2586020604051338152a16040514281527f80170b5fcdd2bf1e0660ef4b8851f86685f64d41b1a19de1471947ece8725aac60203392a280f35b503461029a578060031936011261029a576040517f00000000000000000000000000000000000000000000000000000000000000006001600160a01b03168152602090f35b503461029a57602036600319011261029a576020906040906001600160a01b03610b1c611abd565b168152600883522054604051908152f35b503461029a578060031936011261029a576040517f00000000000000000000000000000000000000000000000000000000000000006001600160a01b03168152602090f35b503461029a57606036600319011261029a5760ff6040602092610b93611ad3565b6004358252600c85528282209060018060a01b03165f528452815f20604435825284522054166040519015158152f35b503461029a57602036600319011261029a576040608091600435815260096020522060018060a01b038154169060018060a01b03600182015416906003600282015491015491604051938452602084015260408301526060820152f35b503461029a578060031936011261029a576020601254604051908152f35b503461029a57604036600319011261029a57600435610c5b611ad3565b9060606080604051610c6c81611be5565b85815285602082015285604082015285838201520152808352600b6020526040832060018060a01b0383165f5260205260405f205490808452600a60205260408420548210156106c857610cd491610cce918552600a60205260408520611d28565b5061217a565b805190916001600160a01b039182169116036107595761029690604051918291602083526020830190611b9e565b503461029a57602036600319011261029a576001600160a01b03610d24611abd565b168015610d41578160409160209352600383522054604051908152f35b6322718ad960e21b82526004829052602482fd5b503461029a57602036600319011261029a576020610d746004356127ca565b6040516001600160a01b039091168152f35b503461029a578060031936011261029a57602060ff600754166040519015158152f35b503461029a57604036600319011261029a576020610dd6610dc8611abd565b610dd0611ad3565b90612262565b6040519015158152f35b503461029a57602036600319011261029a576004358152600a6020526040812080546001600160401b038111610ec05760405190610e2460208260051b0183611c2f565b80825260208201809385526020852085915b838310610ea257868587604051928392602084019060208552518091526040840160408260051b8601019392905b828210610e7357505050500390f35b91936001919395506020610e928192603f198a82030186528851611b9e565b9601920192018594939192610e64565b60056020600192610eb28561217a565b815201920192019190610e36565b634e487b7160e01b83526041600452602483fd5b503461029a578060031936011261029a576020604051622dcaa88152f35b503461029a57602036600319011261029a57610f0c611abd565b600f54906001600160a01b03821690610f26338314611cdb565b6001600160a01b03169182156106c8576001600160a01b0319168217600f556040514281527f90de8705b1aaf3966be0e8ec8acf9aed10a6d3d0d572ec8f96112409e2820c6190602090a380f35b503461029a57610486610f8636611afd565b9060405192610f96602085611c2f565b858452612300565b503461029a578060031936011261029a57610fc460018060a01b03600f54163314611cdb565b60075460ff8116156110305760ff19166007557f5db9ee0a495bf2e6ff9c91a7834c1ba4fdd244a5e8aa4e537bd38aeae4b073aa6020604051338152a16040514281527f107553d8191d85b405879cf752997865edd48d94e20bda4dd27223c94b31a7cc60203392a280f35b638dfc202b60e01b8252600482fd5b503461029a5761104e36611b37565b91506110586127fe565b611060612819565b61107560018060a01b03600e54163314611ef3565b6001600160a01b03831661108a811515611f2f565b80855260086020526040852054806112215750601254916110aa8361213c565b601255829460019685830195602084880312610759575f516020612b625f395f51905f5293926111f09287926111c2908c906001600160a01b036110ed89611ae9565b169b8c6003604051916110ff83611c14565b8d83526020808401918252426040808601918252606086018981528d8c5260098452818c20965187546001600160a01b03199081166001600160a01b039283161789559551888c01805490971691161790945590516002860155915192909301919091558c875260088252808720899055519099908a906111808282611c2f565b878152931161120e575b5050858452600a88526040842090604051926111a584611be5565b8d8452428a85015242604085015260608401526080830152611fb0565b828152600b855260408082206001600160a01b038b165f90815290875220556111eb8282612948565b612a22565b604051428152a45b6001600655604080519182529115156020820152f35b6112189250611f6a565b90505f8061118a565b935050908381830192602081850312610759576001600160a01b0361124582611ae9565b1693858352600b6020526040832060018060a01b0386165f5260205260405f2054868452600a6020528560408520548210918215926113b3575b50501561137d57602091826040516112978282611c2f565b8581529511611368575b5050848252600a81526112de60408320604051906112be82611be5565b868252428483015242604083015260016060830152856080830152611fb0565b848252600a815260408220545f19810190811161135457926003604084600961134c958a98895f516020612bc25f395f51905f529952600b825284842060018060a01b038c165f528252845f205588835252200161133c815461213c565b905560405191829142908361215e565b0390a36111f8565b634e487b7160e01b83526011600452602483fd5b611373929450611f6a565b9050915f806112a1565b60405162461bcd60e51b815260206004820152600e60248201526d20b63932b0b23c9036b2b6b132b960911b6044820152606490fd5b6113ca919250888652600a60205260408620611d28565b50546001600160a01b03161415855f61127f565b503461029a57602036600319011261029a576113f8611abd565b6114006127fe565b61140933612851565b15610759576001600160a01b0316815260086020526040812054801561075957808252600b6020526040822060018060a01b0333165f5260205260405f2054818352600a602052604083205481109081611500575b501561075957808252600d60209081526040808420335f908152925290205480159081156114e9575b501561075957808252600d6020526040822060018060a01b0333165f5260205260405f204290556040519062093a80420482524260208301527f0bd2c5444bc0126737809a3970e1c3bc8cf29e5efb7d5448cbaa6a9c1af8120760403393a380f35b905061012c8101809111611354574210155f611487565b6115169150828452600a60205260408420611d28565b50546001600160a01b031633145f61145e565b503461029a5761048661153b36611afd565b91611d55565b503461029a578060031936011261029a576020601454604051908152f35b503461176f575f36600319011261176f576115786127fe565b611580612819565b335f52600860205260405f205480151580611773575b1561176f576011546001600160a01b031680611730575b50808252600a6020526040822090825b825481101561162d578060ff60036115d760019487611d28565b500154166115e6575b016115bd565b60036115f28286611d28565b5001805460ff191690556116068185611d28565b50828060a01b03905416835f516020612b825f395f51905f526020604051428152a36115e0565b83823382526008602052816040812055808252600260205260018060a01b03604083205416158015611728575b1561075957808252600260205260408220546001600160a01b03168015908115611707575b82845260026020526040842080546001600160a01b03191690558284825f516020612ba25f395f51905f528280a4506116f5576013546040519081528260208201524260408201527f108d98610c6944880c68d31a01ab6252b635e7c7a9728687f31e68a76538c86560603392a3600160065580f35b637e27328960e01b8252600452602490fd5b61171083612b44565b80845260036020526040842080545f1901905561167f565b50600161165a565b803b1561176f575f80916024604051809481936338319e6f60e01b83523360048401525af1156115ad576117679192505f90611c2f565b5f905f6115ad565b5f80fd5b50336001600160a01b03611786836127ca565b1614611596565b3461176f57602036600319011261176f576004356117b660018060a01b03600f54163314611cdb565b801561176f577f5d1f56e31e5dc1f29354822b887b1463ececf7edfad7c39216980b7dfd7ea97d9060135490806013556117f7604051928392429184611d12565b0390a1005b3461176f57604036600319011261176f57611815611abd565b602435611821816127ca565b331515806118d3575b806118a6575b6118935781906001600160a01b0384811691167f8c5be1e5ebec7d5bd14f71427d1e84f3dd0314c0f7b2291e5b200ac8c7c3b9255f80a45f90815260046020526040902080546001600160a01b0319166001600160a01b03909216919091179055005b63a9fbf51f60e01b5f523360045260245ffd5b506001600160a01b0381165f90815260056020908152604080832033845290915290205460ff1615611830565b506001600160a01b03811633141561182a565b3461176f575f36600319011261176f576020601354604051908152f35b3461176f57602036600319011261176f57600435611920816127ca565b505f526004602052602060018060a01b0360405f205416604051908152f35b3461176f575f36600319011261176f576040515f5f5461195e81611ca3565b80845290600181169081156119e25750600114611986575b6102968361091581850382611c2f565b5f8080527f290decd9548b62a8d60345a988386fc84ba6bc95484008f6362f93160ef3e563939250905b8082106119c857509091508101602001610915611976565b9192600181602092548385880101520191019092916119b0565b60ff191660208086019190915291151560051b840190910191506109159050611976565b3461176f575f36600319011261176f57600e546040516001600160a01b039091168152602090f35b3461176f57602036600319011261176f576004359063ffffffff60e01b821680920361176f576020916380ac58cd60e01b8114908115611a88575b8115611a77575b5015158152f35b6301ffc9a760e01b14905083611a70565b635b5e139f60e01b81149150611a69565b805180835260209291819084018484015e5f828201840152601f01601f1916010190565b600435906001600160a01b038216820361176f57565b602435906001600160a01b038216820361176f57565b35906001600160a01b038216820361176f57565b606090600319011261176f576004356001600160a01b038116810361176f57906024356001600160a01b038116810361176f579060443590565b90606060031983011261176f576004356001600160a01b038116810361176f5791602435916044356001600160401b03811161176f578260238201121561176f576004810135926001600160401b03841161176f576024848301011161176f576024019190565b9060a06080611be293600180841b03815116845260208101516020850152604081015160408501526060810151151560608501520151918160808201520190611a99565b90565b60a081019081106001600160401b03821117611c0057604052565b634e487b7160e01b5f52604160045260245ffd5b608081019081106001600160401b03821117611c0057604052565b601f909101601f19168101906001600160401b03821190821017611c0057604052565b6001600160401b038111611c0057601f01601f191660200190565b929192611c7982611c52565b91611c876040519384611c2f565b82948184528183011161176f578281602093845f960137010152565b90600182811c92168015611cd1575b6020831014611cbd57565b634e487b7160e01b5f52602260045260245ffd5b91607f1691611cb2565b15611ce257565b60405162461bcd60e51b81526020600482015260086024820152674f6e6c792044414f60c01b6044820152606490fd5b6040919493926060820195825260208201520152565b8054821015611d41575f52600560205f20910201905f90565b634e487b7160e01b5f52603260045260245ffd5b6001600160a01b0390911691908215611ee0575f828152600260205260409020546001600160a01b0316158015611ed9575b1561176f575f828152600260205260409020546001600160a01b031692829033151580611e44575b5084611e23575b805f52600360205260405f2060018154019055815f52600260205260405f208160018060a01b0319825416179055845f516020612ba25f395f51905f525f80a46001600160a01b0316808303611e0b57505050565b6364283d7b60e01b5f5260045260245260445260645ffd5b611e2c82612b44565b845f52600360205260405f205f198154019055611db6565b90915080611e88575b15611e5a5782905f611daf565b8284611e7257637e27328960e01b5f5260045260245ffd5b63177e802f60e01b5f523360045260245260445ffd5b503384148015611eb7575b80611e4d57505f838152600460205260409020546001600160a01b03163314611e4d565b505f84815260056020908152604080832033845290915290205460ff16611e93565b505f611d87565b633250574960e11b5f525f60045260245ffd5b15611efa57565b60405162461bcd60e51b815260206004820152600d60248201526c4f6e6c7920526567697374727960981b6044820152606490fd5b15611f3657565b60405162461bcd60e51b815260206004820152600c60248201526b24b73b30b634b2103ab9b2b960a11b6044820152606490fd5b919060408382031261176f57611f7f83611ae9565b926020810135906001600160401b03821161176f57019080601f8301121561176f57816020611be293359101611c6d565b8054919291600160401b811015611c0057611fd091600182018155611d28565b61212957825181546001600160a01b039091166001600160a01b03199091161781556020830151600182015560408301516002820155606083015160038201805460ff191691151560ff1691909117905560809060040192015191825160018060401b038111611c00576120448254611ca3565b601f81116120e4575b506020601f821160011461208657819293945f9261207b575b50508160011b915f199060031b1c1916179055565b015190505f80612066565b601f19821690835f52805f20915f5b8181106120cc575095836001959697106120b4575b505050811b019055565b01515f1960f88460031b161c191690555f80806120aa565b9192602060018192868b015181550194019201612095565b825f5260205f20601f830160051c8101916020841061211f575b601f0160051c01905b818110612114575061204d565b5f8155600101612107565b90915081906120fe565b634e487b7160e01b5f525f60045260245ffd5b5f19811461214a5760010190565b634e487b7160e01b5f52601160045260245ffd5b929190612175602091604086526040860190611a99565b930152565b9060405161218781611be5565b6004819360018060a01b038154168352600181015460208401526002810154604084015260ff60038201541615156060840152019060405180925f908054906121cf82611ca3565b808552916001811690811561223b57506001146121fc575b5050608092916121f8910384611c2f565b0152565b5f908152602081209092505b81831061221f5750508101602001816121f86121e7565b6020919350806001915483858901015201910190918492612208565b60ff191660208681019190915292151560051b850190920192508391506121f890506121e7565b6001600160a01b03165f9081526008602052604090205480156122fa57805f52600b60205260405f2060018060a01b0383165f5260205260405f205490805f52600a60205260405f20548210156122f3576122cb91610cce915f52600a60205260405f20611d28565b80516001600160a01b0392831692169190911490816122e8575090565b606091500151151590565b5050505f90565b50505f90565b929161230d818386611d55565b813b61231a575b50505050565b604051630a85bd0160e11b81523360048201526001600160a01b0394851660248201526044810191909152608060648201529216919060209082908190612365906084830190611a99565b03815f865af15f91816123fb575b506123c857503d156123c1573d61238981611c52565b906123976040519283611c2f565b81523d5f602083013e5b805190816123bc5782633250574960e11b5f5260045260245ffd5b602001fd5b60606123a1565b6001600160e01b03191663757a42ff60e11b016123e957505f808080612314565b633250574960e11b5f5260045260245ffd5b9091506020813d602011612438575b8161241760209383611c2f565b8101031261176f57516001600160e01b03198116810361176f57905f612373565b3d915061240a565b919290916001600160a01b038116612459811515611f2f565b805f52600860205260405f205480155f146125db57506012549061247c8261213c565b60125581956001958181019460208287031261176f575f516020612b625f395f51905f52926125bf918691612597906001600160a01b036124bc87611ae9565b16998c60038c604051926124cf84611c14565b8c84526020808501928352426040808701918252606087018481525f8d815260098552828120985189546001600160a01b03199081166001600160a01b03928316178b559751968a01805490981696169590951790955590516002870155925193909401929092558b825260088352908190208790555190979088906125558282611c2f565b5f815293116125c8575b5050835f52600a865260405f206040519161257983611be5565b8b835242888401524260408401528d60608401526080830152611fb0565b5f828152600b855260408082206001600160a01b038b16835286528120556111eb8282612948565b604051428152a4565b6125d29250611f6a565b90505f8061255f565b94939150505f928082019160208184031261176f576001600160a01b0361260182611ae9565b1692602091826040516126148282611c2f565b5f815294116127b5575b50505f868152600b825260408082206001600160a01b0386168352835280822054888352600a845291205481108061278e575b6126f75750855f52600a815261269160405f206040519061267182611be5565b858252428483015242604083015260016060830152846080830152611fb0565b855f52600a815260405f2054905f19820191821161214a57869260096126f2925f516020612bc25f395f51905f5294865f52600b825260405f2060018060a01b0389165f52825260405f2055855f5252600360405f200161133c815461213c565b0390a3565b9091868096505f9794959752600a835260ff60036127188460405f20611d28565b500154166127845761276761277c92600a5f516020612bc25f395f51905f5295875f52818152600361274d8460405f20611d28565b5001600160ff19825416179055875f525260405f20611d28565b5060014291015560405191829142908361215e565b0390a3905f90565b5050505050905f90565b50865f52600a8252836127a48260405f20611d28565b50546001600160a01b031614612651565b6127c0929350611f6a565b9050905f8061261e565b5f818152600260205260409020546001600160a01b03169081156127ec575090565b637e27328960e01b5f5260045260245ffd5b60ff6007541661280a57565b63d93c066560e01b5f5260045ffd5b60026006541461282a576002600655565b633ee5aeb560e01b5f5260045ffd5b9081602091031261176f5751801515810361176f5790565b600e546001600160a01b03169081156122fa57604051632474521560e21b81527fe94d78b6d8fb99b2c21131eb4552924a60f564d8515a3cc90ef300fc9735c07460048201526001600160a01b039091166024820181905290602081604481865afa5f9181612927575b506129215750602090602460405180948193636b10437f60e01b835260048301525afa5f91816128f0575b50611be257505f90565b61291391925060203d60201161291a575b61290b8183611c2f565b810190612839565b905f6128e6565b503d612901565b91505090565b61294191925060203d60201161291a5761290b8183611c2f565b905f6128bb565b6001600160a01b0316908115611ee0575f818152600260205260409020546001600160a01b0316158015612a1b575b1561176f575f818152600260205260409020546001600160a01b031680151592909190836129fa575b805f52600360205260405f2060018154019055815f52600260205260405f208160018060a01b0319825416179055825f516020612ba25f395f51905f525f80a4506129e757565b6339e3563760e11b5f525f60045260245ffd5b612a0382612b44565b825f52600360205260405f205f1981540190556129a0565b505f612977565b6011546001600160a01b03169182612a3957505050565b823b1561176f5760405163f8ac15e360e01b81526001600160a01b0390921660048301526024820152905f908290604490829084905af1612a775750565b5f612a8191611c2f565b565b6001600160a01b03165f908152600860205260409020548015612b4057805f52600b60205260405f2060018060a01b0383165f5260205260405f2054815f52600a60205260405f2054811015612b3b57612ae890825f52600a60205260405f20611d28565b5080546001600160a01b039384169316831480612b2d575b612b0957505050565b60030160ff1981541690555f516020612b825f395f51905f526020604051428152a3565b5060ff600382015416612b00565b505050565b5050565b5f90815260046020526040902080546001600160a01b031916905556fef5491bdb765a4be5a1bdc9bfd09cf61e1b89962ac33ed2e928f11a59a5e72331ee0396c067d25a2fde86b8e1c13e3995b0940b5f98651052d79fada14ea7dba5ddf252ad1be2c89b69c2b068fc378daa952ba7f163c4a11628f55a4df523b3efdce074e613075d639af3f726477d52ac48d3fbdb03f4aa8a9b1e6cede312db10a264697066735822122017a6db87e10ece8f3204789c64e501e4af134b45f07d1fad46e07a55d9060e7764736f6c634300081c0033","linkReferences":{}},"methodIdentifiers":{"GTOKEN()":"7f6b337b","GTOKEN_STAKING()":"826600ce","REGISTRY()":"06433b1b","SUPER_PAYMASTER()":"919d1e2c","VERSION()":"ffa1ad74","VERSION_CODE()":"e9763063","airdropMint(address,bytes32,bytes)":"c580163e","approve(address,uint256)":"095ea7b3","balanceOf(address)":"70a08231","burnSBT()":"11c45170","daoMultisig()":"c0d0aa69","deactivateMembership(address,address)":"d977b66b","getApproved(uint256)":"081812fc","getCommunityMembership(uint256,address)":"71eb90a1","getMemberships(uint256)":"556697da","getSBTData(uint256)":"bf1fb0f2","getUserSBT(address)":"80f4b8c8","isApprovedForAll(address,address)":"e985e9c5","lastActivityTime(uint256,address)":"908c1018","leaveCommunity(address)":"bead0513","membershipIndex(uint256,address)":"a1141b07","minLockAmount()":"08804275","mintFee()":"13966db5","mintForRole(address,bytes32,bytes)":"3e3e6842","name()":"06fdde03","nextTokenId()":"75794a3c","ownerOf(uint256)":"6352211e","pause()":"8456cb59","paused()":"5c975abb","recordActivity(address)":"2f7c88f5","reputationCalculator()":"ccbc10d0","safeTransferFrom(address,address,uint256)":"42842e0e","safeTransferFrom(address,address,uint256,bytes)":"b88d4fde","sbtData(uint256)":"776fafac","setApprovalForAll(address,bool)":"a22cb465","setDAOMultisig(address)":"4f8cc065","setMinLockAmount(uint256)":"0f68ae40","setMintFee(uint256)":"eddd0d9c","setRegistry(address)":"a91ee0dc","setReputationCalculator(address)":"a6109650","setSuperPaymaster(address)":"e79e9739","supportsInterface(bytes4)":"01ffc9a7","symbol()":"95d89b41","tokenURI(uint256)":"c87b56dd","transferFrom(address,address,uint256)":"23b872dd","unpause()":"3f4ba83a","userToSBT(address)":"2d5a7f4f","verifyCommunityMembership(address,address)":"5bb5bf0c","version()":"54fd4d50","versionString()":"dcaff6c5","weeklyActivity(uint256,address,uint256)":"7e215791"},"id":94}