{"abi":[{"type":"constructor","inputs":[{"name":"_gtoken","type":"address","internalType":"address"},{"name":"_gtokenStaking","type":"address","internalType":"address"},{"name":"_mysbt","type":"address","internalType":"address"}],"stateMutability":"nonpayable"},{"type":"function","name":"GTOKEN_STAKING","inputs":[],"outputs":[{"name":"","type":"address","internalType":"contract IGTokenStakingV3"}],"stateMutability":"view"},{"type":"function","name":"MYSBT","inputs":[],"outputs":[{"name":"","type":"address","internalType":"contract IMySBTV3"}],"stateMutability":"view"},{"type":"function","name":"ROLE_COMMUNITY","inputs":[],"outputs":[{"name":"","type":"bytes32","internalType":"bytes32"}],"stateMutability":"view"},{"type":"function","name":"ROLE_ENDUSER","inputs":[],"outputs":[{"name":"","type":"bytes32","internalType":"bytes32"}],"stateMutability":"view"},{"type":"function","name":"ROLE_KMS","inputs":[],"outputs":[{"name":"","type":"bytes32","internalType":"bytes32"}],"stateMutability":"view"},{"type":"function","name":"ROLE_PAYMASTER_AOA","inputs":[],"outputs":[{"name":"","type":"bytes32","internalType":"bytes32"}],"stateMutability":"view"},{"type":"function","name":"ROLE_PAYMASTER_SUPER","inputs":[],"outputs":[{"name":"","type":"bytes32","internalType":"bytes32"}],"stateMutability":"view"},{"type":"function","name":"VERSION","inputs":[],"outputs":[{"name":"","type":"string","internalType":"string"}],"stateMutability":"view"},{"type":"function","name":"VERSION_CODE","inputs":[],"outputs":[{"name":"","type":"uint256","internalType":"uint256"}],"stateMutability":"view"},{"type":"function","name":"accountToUser","inputs":[{"name":"","type":"address","internalType":"address"}],"outputs":[{"name":"","type":"address","internalType":"address"}],"stateMutability":"view"},{"type":"function","name":"batchUpdateGlobalReputation","inputs":[{"name":"users","type":"address[]","internalType":"address[]"},{"name":"newScores","type":"uint256[]","internalType":"uint256[]"},{"name":"epoch","type":"uint256","internalType":"uint256"},{"name":"","type":"bytes","internalType":"bytes"}],"outputs":[],"stateMutability":"nonpayable"},{"type":"function","name":"burnHistory","inputs":[{"name":"","type":"uint256","internalType":"uint256"}],"outputs":[{"name":"roleId","type":"bytes32","internalType":"bytes32"},{"name":"user","type":"address","internalType":"address"},{"name":"amount","type":"uint256","internalType":"uint256"},{"name":"timestamp","type":"uint256","internalType":"uint256"},{"name":"reason","type":"string","internalType":"string"}],"stateMutability":"view"},{"type":"function","name":"calculateExitFee","inputs":[{"name":"","type":"bytes32","internalType":"bytes32"},{"name":"","type":"uint256","internalType":"uint256"}],"outputs":[{"name":"","type":"uint256","internalType":"uint256"}],"stateMutability":"pure"},{"type":"function","name":"checkRole","inputs":[{"name":"roleId","type":"bytes32","internalType":"bytes32"},{"name":"user","type":"address","internalType":"address"}],"outputs":[{"name":"","type":"bool","internalType":"bool"}],"stateMutability":"view"},{"type":"function","name":"communityByENSV3","inputs":[{"name":"","type":"string","internalType":"string"}],"outputs":[{"name":"","type":"address","internalType":"address"}],"stateMutability":"view"},{"type":"function","name":"communityByNameV3","inputs":[{"name":"","type":"string","internalType":"string"}],"outputs":[{"name":"","type":"address","internalType":"address"}],"stateMutability":"view"},{"type":"function","name":"configureRole","inputs":[{"name":"roleId","type":"bytes32","internalType":"bytes32"},{"name":"config","type":"tuple","internalType":"struct IRegistryV3.RoleConfig","components":[{"name":"minStake","type":"uint256","internalType":"uint256"},{"name":"entryBurn","type":"uint256","internalType":"uint256"},{"name":"slashThreshold","type":"uint256","internalType":"uint256"},{"name":"slashBase","type":"uint256","internalType":"uint256"},{"name":"slashIncrement","type":"uint256","internalType":"uint256"},{"name":"slashMax","type":"uint256","internalType":"uint256"},{"name":"isActive","type":"bool","internalType":"bool"},{"name":"description","type":"string","internalType":"string"}]}],"outputs":[],"stateMutability":"nonpayable"},{"type":"function","name":"creditTierConfig","inputs":[{"name":"","type":"uint256","internalType":"uint256"}],"outputs":[{"name":"","type":"uint256","internalType":"uint256"}],"stateMutability":"view"},{"type":"function","name":"exitRole","inputs":[{"name":"roleId","type":"bytes32","internalType":"bytes32"}],"outputs":[],"stateMutability":"nonpayable"},{"type":"function","name":"getBurnHistory","inputs":[{"name":"user","type":"address","internalType":"address"}],"outputs":[{"name":"","type":"tuple[]","internalType":"struct IRegistryV3.BurnRecord[]","components":[{"name":"roleId","type":"bytes32","internalType":"bytes32"},{"name":"user","type":"address","internalType":"address"},{"name":"amount","type":"uint256","internalType":"uint256"},{"name":"timestamp","type":"uint256","internalType":"uint256"},{"name":"reason","type":"string","internalType":"string"}]}],"stateMutability":"view"},{"type":"function","name":"getCreditLimit","inputs":[{"name":"user","type":"address","internalType":"address"}],"outputs":[{"name":"","type":"uint256","internalType":"uint256"}],"stateMutability":"view"},{"type":"function","name":"getRoleConfig","inputs":[{"name":"roleId","type":"bytes32","internalType":"bytes32"}],"outputs":[{"name":"","type":"tuple","internalType":"struct IRegistryV3.RoleConfig","components":[{"name":"minStake","type":"uint256","internalType":"uint256"},{"name":"entryBurn","type":"uint256","internalType":"uint256"},{"name":"slashThreshold","type":"uint256","internalType":"uint256"},{"name":"slashBase","type":"uint256","internalType":"uint256"},{"name":"slashIncrement","type":"uint256","internalType":"uint256"},{"name":"slashMax","type":"uint256","internalType":"uint256"},{"name":"isActive","type":"bool","internalType":"bool"},{"name":"description","type":"string","internalType":"string"}]}],"stateMutability":"view"},{"type":"function","name":"getRoleUserCount","inputs":[{"name":"roleId","type":"bytes32","internalType":"bytes32"}],"outputs":[{"name":"","type":"uint256","internalType":"uint256"}],"stateMutability":"view"},{"type":"function","name":"getUserRoles","inputs":[{"name":"user","type":"address","internalType":"address"}],"outputs":[{"name":"","type":"bytes32[]","internalType":"bytes32[]"}],"stateMutability":"view"},{"type":"function","name":"globalReputation","inputs":[{"name":"","type":"address","internalType":"address"}],"outputs":[{"name":"","type":"uint256","internalType":"uint256"}],"stateMutability":"view"},{"type":"function","name":"hasRole","inputs":[{"name":"","type":"bytes32","internalType":"bytes32"},{"name":"","type":"address","internalType":"address"}],"outputs":[{"name":"","type":"bool","internalType":"bool"}],"stateMutability":"view"},{"type":"function","name":"isReputationSource","inputs":[{"name":"","type":"address","internalType":"address"}],"outputs":[{"name":"","type":"bool","internalType":"bool"}],"stateMutability":"view"},{"type":"function","name":"lastReputationEpoch","inputs":[{"name":"","type":"address","internalType":"address"}],"outputs":[{"name":"","type":"uint256","internalType":"uint256"}],"stateMutability":"view"},{"type":"function","name":"owner","inputs":[],"outputs":[{"name":"","type":"address","internalType":"address"}],"stateMutability":"view"},{"type":"function","name":"proposedRoleNames","inputs":[{"name":"","type":"bytes32","internalType":"bytes32"}],"outputs":[{"name":"","type":"string","internalType":"string"}],"stateMutability":"view"},{"type":"function","name":"registerRole","inputs":[{"name":"roleId","type":"bytes32","internalType":"bytes32"},{"name":"user","type":"address","internalType":"address"},{"name":"roleData","type":"bytes","internalType":"bytes"}],"outputs":[],"stateMutability":"nonpayable"},{"type":"function","name":"registerRoleSelf","inputs":[{"name":"roleId","type":"bytes32","internalType":"bytes32"},{"name":"roleData","type":"bytes","internalType":"bytes"}],"outputs":[{"name":"sbtTokenId","type":"uint256","internalType":"uint256"}],"stateMutability":"nonpayable"},{"type":"function","name":"renounceOwnership","inputs":[],"outputs":[],"stateMutability":"nonpayable"},{"type":"function","name":"roleConfigs","inputs":[{"name":"","type":"bytes32","internalType":"bytes32"}],"outputs":[{"name":"minStake","type":"uint256","internalType":"uint256"},{"name":"entryBurn","type":"uint256","internalType":"uint256"},{"name":"slashThreshold","type":"uint256","internalType":"uint256"},{"name":"slashBase","type":"uint256","internalType":"uint256"},{"name":"slashIncrement","type":"uint256","internalType":"uint256"},{"name":"slashMax","type":"uint256","internalType":"uint256"},{"name":"isActive","type":"bool","internalType":"bool"},{"name":"description","type":"string","internalType":"string"}],"stateMutability":"view"},{"type":"function","name":"roleLockDurations","inputs":[{"name":"","type":"bytes32","internalType":"bytes32"}],"outputs":[{"name":"","type":"uint256","internalType":"uint256"}],"stateMutability":"view"},{"type":"function","name":"roleMembers","inputs":[{"name":"","type":"bytes32","internalType":"bytes32"},{"name":"","type":"uint256","internalType":"uint256"}],"outputs":[{"name":"","type":"address","internalType":"address"}],"stateMutability":"view"},{"type":"function","name":"roleMetadata","inputs":[{"name":"","type":"bytes32","internalType":"bytes32"},{"name":"","type":"address","internalType":"address"}],"outputs":[{"name":"","type":"bytes","internalType":"bytes"}],"stateMutability":"view"},{"type":"function","name":"roleOwners","inputs":[{"name":"","type":"bytes32","internalType":"bytes32"}],"outputs":[{"name":"","type":"address","internalType":"address"}],"stateMutability":"view"},{"type":"function","name":"roleSBTTokenIds","inputs":[{"name":"","type":"bytes32","internalType":"bytes32"},{"name":"","type":"address","internalType":"address"}],"outputs":[{"name":"","type":"uint256","internalType":"uint256"}],"stateMutability":"view"},{"type":"function","name":"roleStakes","inputs":[{"name":"","type":"bytes32","internalType":"bytes32"},{"name":"","type":"address","internalType":"address"}],"outputs":[{"name":"","type":"uint256","internalType":"uint256"}],"stateMutability":"view"},{"type":"function","name":"safeMintForRole","inputs":[{"name":"roleId","type":"bytes32","internalType":"bytes32"},{"name":"user","type":"address","internalType":"address"},{"name":"data","type":"bytes","internalType":"bytes"}],"outputs":[{"name":"tokenId","type":"uint256","internalType":"uint256"}],"stateMutability":"nonpayable"},{"type":"function","name":"setCreditTier","inputs":[{"name":"level","type":"uint256","internalType":"uint256"},{"name":"limit","type":"uint256","internalType":"uint256"}],"outputs":[],"stateMutability":"nonpayable"},{"type":"function","name":"setReputationSource","inputs":[{"name":"source","type":"address","internalType":"address"},{"name":"active","type":"bool","internalType":"bool"}],"outputs":[],"stateMutability":"nonpayable"},{"type":"function","name":"transferOwnership","inputs":[{"name":"newOwner","type":"address","internalType":"address"}],"outputs":[],"stateMutability":"nonpayable"},{"type":"function","name":"userBurnHistory","inputs":[{"name":"","type":"address","internalType":"address"},{"name":"","type":"uint256","internalType":"uint256"}],"outputs":[{"name":"","type":"uint256","internalType":"uint256"}],"stateMutability":"view"},{"type":"event","name":"BurnExecuted","inputs":[{"name":"user","type":"address","indexed":true,"internalType":"address"},{"name":"roleId","type":"bytes32","indexed":true,"internalType":"bytes32"},{"name":"amount","type":"uint256","indexed":false,"internalType":"uint256"},{"name":"reason","type":"string","indexed":false,"internalType":"string"}],"anonymous":false},{"type":"event","name":"CreditTierUpdated","inputs":[{"name":"level","type":"uint256","indexed":false,"internalType":"uint256"},{"name":"creditLimit","type":"uint256","indexed":false,"internalType":"uint256"}],"anonymous":false},{"type":"event","name":"GlobalReputationUpdated","inputs":[{"name":"user","type":"address","indexed":true,"internalType":"address"},{"name":"newScore","type":"uint256","indexed":false,"internalType":"uint256"},{"name":"epoch","type":"uint256","indexed":false,"internalType":"uint256"}],"anonymous":false},{"type":"event","name":"OwnershipTransferred","inputs":[{"name":"previousOwner","type":"address","indexed":true,"internalType":"address"},{"name":"newOwner","type":"address","indexed":true,"internalType":"address"}],"anonymous":false},{"type":"event","name":"ReputationSourceUpdated","inputs":[{"name":"source","type":"address","indexed":true,"internalType":"address"},{"name":"isActive","type":"bool","indexed":false,"internalType":"bool"}],"anonymous":false},{"type":"event","name":"RoleConfigured","inputs":[{"name":"roleId","type":"bytes32","indexed":true,"internalType":"bytes32"},{"name":"config","type":"tuple","indexed":false,"internalType":"struct IRegistryV3.RoleConfig","components":[{"name":"minStake","type":"uint256","internalType":"uint256"},{"name":"entryBurn","type":"uint256","internalType":"uint256"},{"name":"slashThreshold","type":"uint256","internalType":"uint256"},{"name":"slashBase","type":"uint256","internalType":"uint256"},{"name":"slashIncrement","type":"uint256","internalType":"uint256"},{"name":"slashMax","type":"uint256","internalType":"uint256"},{"name":"isActive","type":"bool","internalType":"bool"},{"name":"description","type":"string","internalType":"string"}]},{"name":"timestamp","type":"uint256","indexed":false,"internalType":"uint256"}],"anonymous":false},{"type":"event","name":"RoleExited","inputs":[{"name":"roleId","type":"bytes32","indexed":true,"internalType":"bytes32"},{"name":"user","type":"address","indexed":true,"internalType":"address"},{"name":"exitFee","type":"uint256","indexed":false,"internalType":"uint256"},{"name":"timestamp","type":"uint256","indexed":false,"internalType":"uint256"}],"anonymous":false},{"type":"event","name":"RoleRegistered","inputs":[{"name":"roleId","type":"bytes32","indexed":true,"internalType":"bytes32"},{"name":"user","type":"address","indexed":true,"internalType":"address"},{"name":"burnAmount","type":"uint256","indexed":false,"internalType":"uint256"},{"name":"timestamp","type":"uint256","indexed":false,"internalType":"uint256"}],"anonymous":false},{"type":"error","name":"InsufficientStake","inputs":[{"name":"provided","type":"uint256","internalType":"uint256"},{"name":"required","type":"uint256","internalType":"uint256"}]},{"type":"error","name":"InvalidParameter","inputs":[{"name":"message","type":"string","internalType":"string"}]},{"type":"error","name":"OwnableInvalidOwner","inputs":[{"name":"owner","type":"address","internalType":"address"}]},{"type":"error","name":"OwnableUnauthorizedAccount","inputs":[{"name":"account","type":"address","internalType":"address"}]},{"type":"error","name":"ReentrancyGuardReentrantCall","inputs":[]},{"type":"error","name":"RoleAlreadyGranted","inputs":[{"name":"roleId","type":"bytes32","internalType":"bytes32"},{"name":"user","type":"address","internalType":"address"}]},{"type":"error","name":"RoleNotConfigured","inputs":[{"name":"roleId","type":"bytes32","internalType":"bytes32"}]},{"type":"error","name":"RoleNotGranted","inputs":[{"name":"roleId","type":"bytes32","internalType":"bytes32"},{"name":"user","type":"address","internalType":"address"}]}],"bytecode":{"object":"0x60c0604052346114845761467f6060813803918261001c816114a8565b93849283398101031261148457610032816114cd565b5061004b6040610044602084016114cd565b92016114cd565b3315611471575f8054336001600160a01b0319821681178355604051949290916001600160a01b0316907f8be0079c531659141344cd1fd0a4f28419497f9722a3daafe3b4186f6b6457e09080a3600180556001600160a01b031691821561143d57506001600160a01b031690811561140a5760805260a0526100ce60406114a8565b600d81526c20a7a0902830bcb6b0b9ba32b960991b602082015260076100f2611488565b6801a055690d9db8000081526729a2241af62c00006020808301918252600a6040840181815260026060860181815260016080880181815260a0890195865260c0890191825260e089019a8b525f51602061463f5f395f51905f525f529290955295517f62cab8ae2b11b8b89a6aeec867aea04066879f1332e69de6e580ce3c9df2d8da90815594517f62cab8ae2b11b8b89a6aeec867aea04066879f1332e69de6e580ce3c9df2d8db5590517f62cab8ae2b11b8b89a6aeec867aea04066879f1332e69de6e580ce3c9df2d8dc5593517f62cab8ae2b11b8b89a6aeec867aea04066879f1332e69de6e580ce3c9df2d8dd5592517f62cab8ae2b11b8b89a6aeec867aea04066879f1332e69de6e580ce3c9df2d8de5591517f62cab8ae2b11b8b89a6aeec867aea04066879f1332e69de6e580ce3c9df2d8df55905161025b9015157f62cab8ae2b11b8b89a6aeec867aea04066879f1332e69de6e580ce3c9df2d8e06114e1565b01905190815160018060401b038111611059578154600181811c91168015611400575b602082101461103b57601f81116113bb575b50602092601f821160011461135c57928192935f92611351575b50508160011b915f199060031b1c19161790555b5f51602061463f5f395f51905f525f5260106020527f413f8e704dfa69286ceea633003bb8d41c2205618c221ad684c62f493ad2294780546001600160a01b0319163317905561030e60406114a8565b600e81526d29bab832b92830bcb6b0b9ba32b960911b60208201526007610333611488565b6802b5e3af16b18800008152674563918244f400006020808301918252600a6040840181815260026060860181815260016080880181815260a0890195865260c0890191825260e089019a8b525f51602061461f5f395f51905f525f529290955295517fb4741b428dfef425fc3add4e8f8bd29f7934ab6d611612e2205aa0df7d64747590815594517fb4741b428dfef425fc3add4e8f8bd29f7934ab6d611612e2205aa0df7d6474765590517fb4741b428dfef425fc3add4e8f8bd29f7934ab6d611612e2205aa0df7d6474775593517fb4741b428dfef425fc3add4e8f8bd29f7934ab6d611612e2205aa0df7d6474785592517fb4741b428dfef425fc3add4e8f8bd29f7934ab6d611612e2205aa0df7d6474795591517fb4741b428dfef425fc3add4e8f8bd29f7934ab6d611612e2205aa0df7d64747a55905161049c9015157fb4741b428dfef425fc3add4e8f8bd29f7934ab6d611612e2205aa0df7d64747b6114e1565b01905190815160018060401b038111611059578154600181811c91168015611347575b602082101461103b57601f8111611302575b50602092601f82116001146112a357928192935f92611298575b50508160011b915f199060031b1c19161790555b5f51602061461f5f395f51905f525f5260106020527f50548ca8d22fb24dd757378b076c9d51067404597318263fe14d95981af7363f80546001600160a01b0319163317905561054f60406114a8565b6005815264414e4f444560d81b6020820152600761056b611488565b6801158e460913d000008152671bc16d674ec800006020808301918252600f6040840190815260016060850181815260808601828152600560a0880190815260c0880193845260e08801998a525f51602061465f5f395f51905f525f52600290955295517f94c8b539f4346cacec6243d5b4361ab263597bfb2e961081d902fe6ff26e24a590815594517f94c8b539f4346cacec6243d5b4361ab263597bfb2e961081d902fe6ff26e24a65591517f94c8b539f4346cacec6243d5b4361ab263597bfb2e961081d902fe6ff26e24a75590517f94c8b539f4346cacec6243d5b4361ab263597bfb2e961081d902fe6ff26e24a85592517f94c8b539f4346cacec6243d5b4361ab263597bfb2e961081d902fe6ff26e24a955517f94c8b539f4346cacec6243d5b4361ab263597bfb2e961081d902fe6ff26e24aa5590516106d49015157f94c8b539f4346cacec6243d5b4361ab263597bfb2e961081d902fe6ff26e24ab6114e1565b01905190815160018060401b038111611059578154600181811c9116801561128e575b602082101461103b57601f8111611249575b50602092601f82116001146111ea57928192935f926111df575b50508160011b915f199060031b1c19161790555b5f51602061465f5f395f51905f525f5260106020527fe5221cb99999323965d85b84c912b8744e9cbcaca07c9ed2c528b499ee7bbc6b80546001600160a01b0319163317905561078760406114a8565b60038152624b4d5360e81b602082015260076107a1611488565b68056bc75e2d631000008152678ac7230489e80000602080830191825260056040840181815260608501918252600260808601818152601460a08801908152600160c0890190815260e089019a8b525f5160206145df5f395f51905f525f529290955295517fb6d6f2ef81599646430ffd77c4fd3b257cab16577a0a1dc7b59269fa85f7076190815594517fb6d6f2ef81599646430ffd77c4fd3b257cab16577a0a1dc7b59269fa85f707625590517fb6d6f2ef81599646430ffd77c4fd3b257cab16577a0a1dc7b59269fa85f707635590517fb6d6f2ef81599646430ffd77c4fd3b257cab16577a0a1dc7b59269fa85f707645592517fb6d6f2ef81599646430ffd77c4fd3b257cab16577a0a1dc7b59269fa85f7076555517fb6d6f2ef81599646430ffd77c4fd3b257cab16577a0a1dc7b59269fa85f7076655905161090b9015157fb6d6f2ef81599646430ffd77c4fd3b257cab16577a0a1dc7b59269fa85f707676114e1565b01905190815160018060401b038111611059578154600181811c911680156111d5575b602082101461103b57601f8111611190575b50602092601f821160011461113157928192935f92611126575b50508160011b915f199060031b1c19161790555b5f5160206145df5f395f51905f525f5260106020527f56120646997546de0a4b799f27c2ec69164d8d6054cb12e0782cb7789559d68480546001600160a01b031916331790556109be60406114a8565b6009815268436f6d6d756e69747960b81b602082015260076109de611488565b678ac7230489e800008152670de0b6b3a76400006020808301918252600a6040840181815260026060860181815260016080880181815260a0890195865260c0890191825260e089019a8b525f5160206145ff5f395f51905f525f529290955295517fe7952ca73c012fd94dc1983a49b24a9ff27c985c27245c669928b72e5714189a90815594517fe7952ca73c012fd94dc1983a49b24a9ff27c985c27245c669928b72e5714189b5590517fe7952ca73c012fd94dc1983a49b24a9ff27c985c27245c669928b72e5714189c5593517fe7952ca73c012fd94dc1983a49b24a9ff27c985c27245c669928b72e5714189d5592517fe7952ca73c012fd94dc1983a49b24a9ff27c985c27245c669928b72e5714189e5591517fe7952ca73c012fd94dc1983a49b24a9ff27c985c27245c669928b72e5714189f559051610b469015157fe7952ca73c012fd94dc1983a49b24a9ff27c985c27245c669928b72e571418a06114e1565b01905190815160018060401b038111611059578154600181811c9116801561111c575b602082101461103b57601f81116110d7575b50602092601f821160011461107857928192935f9261106d575b50508160011b915f199060031b1c19161790555b5f5160206145ff5f395f51905f525f5260106020527f01b4e3122866af6b78c3743e9fa35f8de4551fa2682a4b0c7ba5b7d01fb5fc4880546001600160a01b03191633179055610bf960406114a8565b600781526622b7322ab9b2b960c91b60208201526007610c17611488565b5f808252602080830182815260408401838152606085018481526080860185815260a08701868152600160c0890190815260e089019a8b527f0c34ecc75d3bf122e0609d2576e167f53fb42429262ce8c9b33cab91ff670e3a909752600290955295517f81f7a8f564b61e7963bfdc536ab87a0854d48d19c43323c1f4c080720d74681590815592517f81f7a8f564b61e7963bfdc536ab87a0854d48d19c43323c1f4c080720d7468165590517f81f7a8f564b61e7963bfdc536ab87a0854d48d19c43323c1f4c080720d74681755517f81f7a8f564b61e7963bfdc536ab87a0854d48d19c43323c1f4c080720d7468185592517f81f7a8f564b61e7963bfdc536ab87a0854d48d19c43323c1f4c080720d74681955517f81f7a8f564b61e7963bfdc536ab87a0854d48d19c43323c1f4c080720d74681a5551610d7d9015157f81f7a8f564b61e7963bfdc536ab87a0854d48d19c43323c1f4c080720d74681b6114e1565b01905190815160018060401b038111611059578154600181811c9116801561104f575b602082101461103b57601f8111610ff6575b50602092601f8211600114610f9757928192935f92610f8c575b50508160011b915f199060031b1c19161790555b7f48321f0c6d92a6c32306ec23130880ef8feb85690265117eed2314f0e6488d6080546001600160a01b031916339081179091555f7ffd54ff1ed53f34a900b24c5ba64f85761163b5d82d98a47b9bd80e45466993c581905568056bc75e2d631000007f10a81eed9d63d16face5e76357905348e6253d3394086026bb2bf2145d7cc24955681043561a88293000007f26b4a10d0f0b04925c23bd4480ee147c916e5e87a7d68206a533dad160ac81e255682086ac3510526000007fafafe8948a4ed9d478b1e9a5780b119b5edd00ea7d07bc35bef7c814824eb94b55683635c9adc5dea000007fa5049387d9cb649c59f4bda666105ba636c2a103d8e2b232ba4d125737cd214955686c6b935b8bbd4000007fa48544818c2c710afa9849c61ec9c60e8acdb3eaa2885f33b37e118cc8fd04ac55908152600e602052604090819020805460ff19166001179055516130ec90816114f38239608051818181610b4601528181610e22015281816111010152818161166001528181611e19015261236d015260a051818181611059015281816116c701528181611c0501528181611e8101526123d50152f35b015190505f80610dcc565b601f19821693835f52805f20915f5b868110610fde5750836001959610610fc6575b505050811b019055610de0565b01515f1960f88460031b161c191690555f8080610fb9565b91926020600181928685015181550194019201610fa6565b825f5260205f20601f830160051c81019160208410611031575b601f0160051c01905b8181106110265750610db2565b5f8155600101611019565b9091508190611010565b634e487b7160e01b5f52602260045260245ffd5b90607f1690610da0565b634e487b7160e01b5f52604160045260245ffd5b015190505f80610b95565b601f19821693835f52805f20915f5b8681106110bf57508360019596106110a7575b505050811b019055610ba9565b01515f1960f88460031b161c191690555f808061109a565b91926020600181928685015181550194019201611087565b825f5260205f20601f830160051c81019160208410611112575b601f0160051c01905b8181106111075750610b7b565b5f81556001016110fa565b90915081906110f1565b90607f1690610b69565b015190505f8061095a565b601f19821693835f52805f20915f5b8681106111785750836001959610611160575b505050811b01905561096e565b01515f1960f88460031b161c191690555f8080611153565b91926020600181928685015181550194019201611140565b825f5260205f20601f830160051c810191602084106111cb575b601f0160051c01905b8181106111c05750610940565b5f81556001016111b3565b90915081906111aa565b90607f169061092e565b015190505f80610723565b601f19821693835f52805f20915f5b8681106112315750836001959610611219575b505050811b019055610737565b01515f1960f88460031b161c191690555f808061120c565b919260206001819286850151815501940192016111f9565b825f5260205f20601f830160051c81019160208410611284575b601f0160051c01905b8181106112795750610709565b5f815560010161126c565b9091508190611263565b90607f16906106f7565b015190505f806104eb565b601f19821693835f52805f20915f5b8681106112ea57508360019596106112d2575b505050811b0190556104ff565b01515f1960f88460031b161c191690555f80806112c5565b919260206001819286850151815501940192016112b2565b825f5260205f20601f830160051c8101916020841061133d575b601f0160051c01905b81811061133257506104d1565b5f8155600101611325565b909150819061131c565b90607f16906104bf565b015190505f806102aa565b601f19821693835f52805f20915f5b8681106113a3575083600195961061138b575b505050811b0190556102be565b01515f1960f88460031b161c191690555f808061137e565b9192602060018192868501518155019401920161136b565b825f5260205f20601f830160051c810191602084106113f6575b601f0160051c01905b8181106113eb5750610290565b5f81556001016113de565b90915081906113d5565b90607f169061027e565b60405162461bcd60e51b815260206004820152600b60248201526a125b9d985b1a590814d09560aa1b6044820152606490fd5b62461bcd60e51b815260206004820152600f60248201526e496e76616c6964205374616b696e6760881b6044820152606490fd5b631e4fbdf760e01b5f525f60045260245ffd5b5f80fd5b6040519061010082016001600160401b0381118382101761105957604052565b6040519190601f01601f191682016001600160401b0381118382101761105957604052565b51906001600160a01b038216820361148457565b9060ff80198354169115151617905556fe60806040526004361015610011575f80fd5b5f5f3560e01c806306a36aee146125a657806307cf0ee91461258c5780630ab0c75e1461219a57806310fdfea71461216057806311c85b0b1461212857806312d9a6ad146120df57806315de32ca1461208357806317e1c59514611c3457806319c46e8114611bf05780631cae041214611ba257806326d9815c14611b4a5780632c333e2514611ab057806336db9caf14611a6c57806343e6a16014611a455780634b8b8a6e14611a1b57806359dc9126146119d35780636229738c1461194d57806362970f9b1461188e578063669d7762146114a15780636acb091f14611255578063715018a614611211578063727b52a514610bc05780637f52815514610b75578063826600ce14610b3057806386166d5d14610ace5780638da5cb5b14610aa757806391d1485414610a5d578063920983fb14610a1c5780639b1465a3146109e1578063a2d0020e146109b9578063aa9e8cf714610986578063af5eda021461095c578063b5e936ab1461083d578063b991118f146107ae578063bf0cb04214610773578063bf28c98a14610734578063c8ee23ef146106ef578063d727cbd41461068d578063d84951b9146103ec578063e350d77b146103c2578063e74c7bd714610389578063e97630631461036c578063f2fde38b146102f9578063f538e1dc146102585763ffa1ad7414610209575f80fd5b346102555780600319360112610255575061025160405161022b6040826127d0565b60058152640332e302e360dc1b60208201526040519182916020835260208301906127f3565b0390f35b80fd5b503461025557602036600319011261025557604090600435815260026020522080546102516007600184015493600281015460038201546004830154906005840154926102be60ff600687015416956102b76040518099819301612718565b03876127d0565b6040519889988952602089015260408801526060870152608086015260a0850152151560c084015261010060e08401526101008301906127f3565b503461025557602036600319011261025557610313612617565b61031b612ac3565b6001600160a01b031680156103585781546001600160a01b03198116821783556001600160a01b03165f5160206130375f395f51905f528380a380f35b631e4fbdf760e01b82526004829052602482fd5b503461025557806003193601126102555760206040516175308152f35b5034610255576020366003190112610255576020906040906001600160a01b036103b1612617565b168152600c83522054604051908152f35b50346102555760203660031901126102555760406020916004358152601183522054604051908152f35b5034610255576040366003190112610255576004356024356001600160401b03811161064d578036039061010060031983011261068957828452601060205260408420546001600160a01b03163303610655578284526002602052604084209181600401359283815560248301358060018301556044840135806002840155606485013580600385015560848601359081600486015560a48701359283600587015560c4880135948515159687870361065157806104bb886006600794019060ff801983541691151516179055565b0160e48a01359860221901891215610651578c898b016004810135906001600160401b03821161064d57813603602482011361064d57610505826104ff86546126e0565b8661294d565b82601f83116001146105e257610524939091836105d4575b505061299c565b90555b6040519960408b5260408b015260608a0152608089015260a088015260c087015260e08601525061010084015201906024600483013592019160018060401b0381116105d05780360383136105d0578181610160927ff9ac505d807e2451357e4b230cb299623579d310261f80013bc89bf5b108b10b9561010061012085015281610140850152848401378181018301879052426020830152601f01601f19168101030190a280f35b8480fd5b016024013590505f8061051d565b9192601f19841685845260208420935b8181106106325750908460019594939210610615575b505050811b019055610527565b6024910101355f19600384901b60f8161c191690555f8080610608565b602484840101358555600190940193602092830192016105f2565b8280fd5b8c80fd5b60405162461bcd60e51b815260206004820152600c60248201526b155b985d5d1a1bdc9a5e995960a21b6044820152606490fd5b8380fd5b503461025557602036600319011261025557600435906001600160401b0382116102555760206106c0366004850161288b565b8160405191805191829101835e600890820190815281900382019020546040516001600160a01b039091168152f35b503461025557604036600319011261025557604061070b61262d565b9160043581526004602052209060018060a01b03165f52602052602060405f2054604051908152f35b50346102555760203660031901126102555760209060ff906040906001600160a01b0361075f612617565b168152600e84522054166040519015158152f35b503461025557806003193601126102555760206040517ff86d13979a91272f2c54c4147e588ecbeaad32dd1e0a5332a77356847049a70e8152f35b503461025557602036600319011261025557600435601254811015610839576107d6906128f0565b508054610251600460018060a01b0360018501541693600281015461081160038301549261080a6040518096819301612718565b03846127d0565b604051958695865260208601526040850152606084015260a0608084015260a08301906127f3565b5080fd5b503461025557602036600319011261025557604090606060e0835161086181612799565b838152836020820152838582015283838201528360808201528360a08201528360c08201520152600435815260026020522060405161089f81612799565b815481526102516007600184015493602084019485526002810154604085019081526003820154606086019081526004830154906080870191825260058401549260a0880193845261090c60ff6006870154169560c08a0196151587526102b76040518099819301612718565b60e0880195865260405198899860208a525160208a01525160408901525160608801525160808701525160a08601525160c085015251151560e084015251610100808401526101208301906127f3565b50346102555760203660031901126102555760406020916004358152600d83522054604051908152f35b503461025557602036600319011261025557602090600435815260108252604060018060a01b0391205416604051908152f35b503461025557806003193601126102555760206040515f5160206130175f395f51905f528152f35b503461025557806003193601126102555760206040517f6fb2b25080d21c908f32ff8ff99eb1d552c210854f7de48a40406764c09c68f88152f35b5034610255576020366003190112610255576020906001600160a01b03610a41612617565b168152600a8252604060018060a01b0391205416604051908152f35b5034610255576040366003190112610255576040610a7961262d565b9160043581526003602052209060018060a01b03165f52602052602060ff60405f2054166040519015158152f35b5034610255578060031936011261025557546040516001600160a01b039091168152602090f35b503461025557602036600319011261025557600435906001600160401b038211610255576020610b01366004850161288b565b8160405191805191829101835e600990820190815281900382019020546040516001600160a01b039091168152f35b50346102555780600319360112610255576040517f00000000000000000000000000000000000000000000000000000000000000006001600160a01b03168152602090f35b503461025557610b8436612657565b91908152600560205260408120908154831015610255576020610ba78484612817565b905460405160039290921b1c6001600160a01b03168152f35b5034610ec0576020366003190112610ec057600435610bdd612ae9565b5f81815260036020908152604080832033845290915290205460ff16156111fb57805f52601160205260405f2054806110de575b505f81815260046020908152604080832033808552818452828520805487875260038652848720928752918552928520805460ff19169055925291909155907ff3cb1338a2c40edd1f9f62da891e980ac04bdbd6d9d317364cc3546e0098f1c681016110d957805f52600760205260405f2060018060a01b0333165f52602052610ca7610cae60405f2060405192838092612718565b03826127d0565b805180610f93575b50505b60405191610cc6836127b5565b81835260208301338152604084019382855260608101428152604095865193610cef88866127d0565b6004855263115e1a5d60e21b602086015260808401948552601254600160401b811015610f7f57806001610d2692016012556128f0565b949094610f6b57518455516001840180546001600160a01b0319166001600160a01b03929092169190911790555160028301555160038201559051805160049290920191906001600160401b038211610ed657610d8d82610d8785546126e0565b8561294d565b602090601f8311600114610f0957610dae9291889183610efe57505061299c565b90555b33845260136020528284206012545f19810191908211610eea57805490600160401b821015610ed65790610dea91600182018155612817565b819291549060031b91821b915f19901b1916179055825163374e4d7360e01b815260208180610e1d863360048401612a7a565b0381887f00000000000000000000000000000000000000000000000000000000000000006001600160a01b03165af1908115610ecc578591610e89575b50610e73905f516020612fd75f395f51905f5292612a37565b9280519384524260208501523393a36001805580f35b90506020813d602011610ec4575b81610ea4602093836127d0565b81010312610ec057515f516020612fd75f395f51905f52610e5a565b5f80fd5b3d9150610e97565b84513d87823e3d90fd5b634e487b7160e01b87526041600452602487fd5b634e487b7160e01b86526011600452602486fd5b015190505f8061051d565b8388528188209190601f198416895b818110610f535750908460019594939210610f3b575b505050811b019055610db1565b01515f1960f88460031b161c191690555f8080610f2e565b92936020600181928786015181550195019301610f18565b634e487b7160e01b8a5260048a905260248afd5b634e487b7160e01b8a52604160045260248afd5b81016020810191602081830312610ec0576020810151906001600160401b038211610ec057019060a09082900312610ec05760405190610fd2826127b5565b610fde60208201612a95565b8252610fec60408201612a95565b6020830190815260608201519093906001600160401b038111610ec05781602061101892850101612aa9565b60408401526080820151916001600160401b038311610ec05761104460a0926020608095840101612aa9565b60608501520151910152516001600160a01b037f000000000000000000000000000000000000000000000000000000000000000081169116813b15610ec0575f9160448392604051948593849263d977b66b60e01b845233600485015260248401525af180156110ce576110b9575b80610cb6565b6110c69193505f906127d0565b5f915f6110b3565b6040513d5f823e3d90fd5b610cb9565b6040516318581cf760e11b8152905f82806110fd863360048401612a7a565b03817f00000000000000000000000000000000000000000000000000000000000000006001600160a01b03165afa9182156110ce575f926111a0575b50810180911161118c57421061114f575f610c11565b60405162461bcd60e51b8152602060048201526015602482015274131bd8dac8191d5c985d1a5bdb881b9bdd081b595d605a1b6044820152606490fd5b634e487b7160e01b5f52601160045260245ffd5b9091503d805f833e6111b281836127d0565b810160a082820312610ec0576060820151608083015190926001600160401b038211610ec057019080601f83011215610ec05781516111f392602001612a44565b50905f611139565b633a401ef360e21b5f526004523360245260445ffd5b34610ec0575f366003190112610ec057611229612ac3565b5f80546001600160a01b0319811682556001600160a01b03165f5160206130375f395f51905f528280a3005b34610ec0576080366003190112610ec0576004356001600160401b038111610ec057611285903690600401612840565b906024356001600160401b038111610ec0576112a5903690600401612840565b9092604435906064356001600160401b038111610ec0576112ca90369060040161266d565b50506112d4612ae9565b335f52600e60205260ff60405f2054161561145c57828103611425575f5b8181106112ff5760018055005b61130a818387612a27565b356001600160a01b0381169190829003610ec057815f52600c60205260405f205484111561141c57815f52600b60205260405f20549161134b82878a612a27565b3592808411156113c95760646113618286612a37565b116113a9575b505f5160206130975f395f51905f5260406001945b835f52600b60205280825f2055835f52600c60205287825f20558151908152876020820152a25b016112f2565b92506064830180931161118c575f5160206130975f395f51905f52611367565b8381116113ea575b505f5160206130975f395f51905f52604060019461137c565b60646113f68583612a37565b11156113d15760631981019350831161118c575f5160206130975f395f51905f526113d1565b600191506113a3565b60405162461bcd60e51b815260206004820152600f60248201526e098cadccee8d040dad2e6dac2e8c6d608b1b6044820152606490fd5b60405162461bcd60e51b815260206004820152601e60248201527f556e617574686f72697a65642052657075746174696f6e20536f7572636500006044820152606490fd5b34610ec0576114af3661269a565b6114ba939293612ae9565b825f52600260205260405f206040516114d281612799565b8154815260018201549160208201928352600281015460408301526003810154606083015260048101546080830152600581015460a0830152600761153260ff6006840154169260c085019315158452610ca76040518094819301612718565b60e0830152511561187b57845f52600360205260405f2060018060a01b0387165f5260205260ff60405f2054166118585761156e838587612cab565b905180821061184257505f8581526003602090815260408083206001600160a01b038a16808552908352818420805460ff19166001179055888452600483528184209084528252808320849055878352600590915290206115d090879061290c565b5f8581526007602090815260408083206001600160a01b038a1684529091529020906001600160401b03841161182e57869061161085610d8785546126e0565b5f9285601f81116001146117c4578061163491602095965f916117b9575b5061299c565b90555b8351604051635f7d2b8760e11b8152938492839261165b92918b83600487016129ae565b03815f7f00000000000000000000000000000000000000000000000000000000000000006001600160a01b03165af180156110ce5761178a575b506116c260406116a784868989612e74565b815180938192631f1f342160e11b8352898b60048501612a00565b03815f7f00000000000000000000000000000000000000000000000000000000000000006001600160a01b03165af19283156110ce575f5160206130775f395f51905f529460409461173d935f9161175c575b505f888152600660209081528782206001600160a01b038c1683529052869020558787612ee5565b5181519081524260208201526001600160a01b0390941693a360018055005b61177c9150863d8811611783575b61177481836127d0565b8101906129e1565b5089611715565b503d61176a565b6020813d6020116117b1575b816117a3602093836127d0565b81010312610ec05751611695565b3d9150611796565b90508901358c61162e565b50601f19861693815f5260205f2090875f5b878110611810575060209596106117f7575b5050600186811b019055611637565b8801355f19600389901b60f8161c1916905589806117e8565b8a83013584558c96506001909301926020928301928a9250016117d6565b634e487b7160e01b5f52604160045260245ffd5b906322df051360e11b5f5260045260245260445ffd5b631b753c1b60e21b5f90815260048690526001600160a01b038716602452604490fd5b84631b4b909b60e21b5f5260045260245ffd5b34610ec0576020366003190112610ec0576118a7612617565b5060206040516118b782826127d0565b5f81526040519082820192808352815180945260408301938160408260051b8601019301915f955b8287106118ec5785850386f35b90919293828061193d600193603f198a820301865260a060808a51805184528780841b03868201511686850152604081015160408501526060810151606085015201519181608082015201906127f3565b96019201960195929190926118df565b34610ec0576040366003190112610ec057611966612617565b6024359081151590818303610ec0577f6be30291a8f228c9342613e5e66df1a1b85aa570ac1bca9219f3ac7b7f73bbf3916119ca6020926119a5612ac3565b60018060a01b031694855f52600e845260405f209060ff801983541691151516179055565b604051908152a2005b34610ec0576020366003190112610ec0576004355f52600f602052610251610ca7611a0760405f2060405192838092612718565b6040519182916020835260208301906127f3565b34610ec0576020366003190112610ec0576004355f526005602052602060405f2054604051908152f35b34610ec0575f366003190112610ec05760206040515f516020612ff75f395f51905f528152f35b34610ec0576040366003190112610ec057611a8561262d565b6004355f52600660205260405f209060018060a01b03165f52602052602060405f2054604051908152f35b34610ec0576020366003190112610ec0576001600160a01b03611ad1612617565b165f908152600b60205260409020546001906102628110611b0757505060065b5f52600d602052602060405f2054604051908152f35b60e98110611b1957505060055b611af1565b60598110611b2a5750506004611af1565b60228110611b3b5750506003611af1565b600d11611b1457506002611af1565b34610ec0576040366003190112610ec057611b63612617565b6001600160a01b03165f90815260136020526040902080546024359190821015610ec057602091611b9391612817565b90549060031b1c604051908152f35b34610ec0576040366003190112610ec057611bbb61262d565b6004355f52600760205260405f209060018060a01b03165f52602052610251610ca7611a0760405f2060405192838092612718565b34610ec0575f366003190112610ec0576040517f00000000000000000000000000000000000000000000000000000000000000006001600160a01b03168152602090f35b34610ec057611c423661269a565b92611c4e929192612ae9565b805f52600260205260405f2060405194611c6786612799565b8154865260018201549160208701928352600281015460408801526003810154606088015260048101546080880152600581015460a08801526007611cc760ff6006840154169260c08a019315158452610ca76040518094819301612718565b60e0880152511561207057825f52600360205260405f2060018060a01b0385165f5260205260ff60405f20541661205157335f9081525f5160206130575f395f51905f52602052604090205460ff161561201157611d26818685612cab565b9551808710611ffb57505f8381526003602090815260408083206001600160a01b038816808552908352818420805460ff1916600117905586845260048352818420908452825280832089905585835260059091529020611d8890859061290c565b5f8381526007602090815260408083206001600160a01b038816845290915290206001600160401b03821161182e57611dcb82611dc583546126e0565b8361294d565b5f601f8311600114611f925796602091611df08480611e149b5f91611f87575061299c565b90555b8351604051635f7d2b8760e11b815298899283923391898b600487016129ae565b03815f7f00000000000000000000000000000000000000000000000000000000000000006001600160a01b03165af180156110ce57611f54575b611e7c95506040611e6182878787612e74565b8151809881926362c00b1f60e11b8352878960048501612a00565b03815f7f00000000000000000000000000000000000000000000000000000000000000006001600160a01b03165af19485156110ce576020965f96611f1a575b5091611ef66040925f5160206130775f395f51905f5294865f5260068a52845f2060018060a01b0389165f528a5288855f20558787612ee5565b51815190815242878201526001600160a01b0390941693a360018055604051908152f35b5f5160206130775f395f51905f5293919650604092611f48611ef692853d87116117835761177481836127d0565b50979294509250611ebc565b6020863d602011611f7f575b81611f6d602093836127d0565b81010312610ec057611e7c9550611e4e565b3d9150611f60565b90508a01358c61162e565b601f19831690825f5260205f20915f5b818110611fe35750916020939185611e149b9410611fca575b5050600184811b019055611df3565b8901355f19600387901b60f8161c191690558980611fbb565b9192602060018192868d013581550194019201611fa2565b866322df051360e11b5f5260045260245260445ffd5b60405162461bcd60e51b815260206004820152601860248201527743616c6c6572206d75737420626520436f6d6d756e69747960401b6044820152606490fd5b5050631b753c1b60e21b5f5260045260018060a01b031660245260445ffd5b82631b4b909b60e21b5f5260045260245ffd5b34610ec0576040366003190112610ec0577f7e684e0b76ed13bc9cf7e4fbac7d11873036be9c9a83f9958382721eeda4601060406004356024356120c5612ac3565b815f52600d60205280835f205582519182526020820152a1005b34610ec0576040366003190112610ec0576120f861262d565b6004355f52600360205260405f209060018060a01b03165f52602052602060ff60405f2054166040519015158152f35b34610ec0576020366003190112610ec0576001600160a01b03612149612617565b165f52600b602052602060405f2054604051908152f35b34610ec0575f366003190112610ec05760206040517f2024516755f401845808190bb830b0e4523d0df0845503cab52130a794699a0f8152f35b34610ec0576040366003190112610ec0576004356024356001600160401b038111610ec0576121cd90369060040161266d565b6121d8929192612ae9565b815f52600260205260405f2090604051936121f285612799565b8254855260018301549260208601938452600281015460408701526003810154606087015260048101546080870152600581015460a0870152600761225260ff6006840154169260c089019315158452610ca76040518094819301612718565b60e08701525115612579575f84815260036020908152604080832033845290915290205460ff1661256257612288828286612cab565b945180861061254c57505f84815260036020908152604080832033808552908352818420805460ff1916600117905587845260048352818420818552835281842089905587845260059092529091206122e1919061290c565b5f8481526007602090815260408083203384529091529020946001600160401b03831161182e5761231c8361231688546126e0565b8861294d565b5f95601f84116001146124e25790602091612344858061236898999a5f916124d7575061299c565b90555b8551604051635f7d2b8760e11b8152958692839233918b83600487016129ae565b03815f7f00000000000000000000000000000000000000000000000000000000000000006001600160a01b03165af180156110ce576124a4575b6123d0925060406123b583833389612e74565b815180958192631f1f342160e11b8352893360048501612a00565b03815f7f00000000000000000000000000000000000000000000000000000000000000006001600160a01b03165af180156110ce57612437935f91612484575b50855f52600660205260405f2060018060a01b0333165f5260205260405f20553385612ee5565b51604051908152426020820152815f5160206130775f395f51905f5260403393a3600180555f52600660205260405f2060018060a01b0333165f52602052602060405f2054604051908152f35b61249d915060403d6040116117835761177481836127d0565b5086612410565b6020833d6020116124cf575b816124bd602093836127d0565b81010312610ec0576123d092506123a2565b3d91506124b0565b90508601358b61162e565b601f198416815f5260205f20905f5b8181106125345750906123689697988660209594931061251b575b5050600185811b019055612347565b8501355f19600388901b60f8161c19169055888061250c565b858a013583556020998a0199600190930192016124f1565b856322df051360e11b5f5260045260245260445ffd5b83631b753c1b60e21b5f526004523360245260445ffd5b83631b4b909b60e21b5f5260045260245ffd5b34610ec05761259a36612657565b505060206040515f8152f35b34610ec0576020366003190112610ec0576125bf612617565b5060405160206125cf81836127d0565b5f82525f368137604051918183928301818452825180915281604085019301915f5b82811061260057505050500390f35b8351855286955093810193928101926001016125f1565b600435906001600160a01b0382168203610ec057565b602435906001600160a01b0382168203610ec057565b35906001600160a01b0382168203610ec057565b6040906003190112610ec0576004359060243590565b9181601f84011215610ec0578235916001600160401b038311610ec05760208381860195010111610ec057565b6060600319820112610ec057600435916024356001600160a01b0381168103610ec05791604435906001600160401b038211610ec0576126dc9160040161266d565b9091565b90600182811c9216801561270e575b60208310146126fa57565b634e487b7160e01b5f52602260045260245ffd5b91607f16916126ef565b5f9291815491612727836126e0565b808352926001811690811561277c575060011461274357505050565b5f9081526020812093945091925b838310612762575060209250010190565b600181602092949394548385870101520191019190612751565b915050602093945060ff929192191683830152151560051b010190565b61010081019081106001600160401b0382111761182e57604052565b60a081019081106001600160401b0382111761182e57604052565b601f909101601f19168101906001600160401b0382119082101761182e57604052565b805180835260209291819084018484015e5f828201840152601f01601f1916010190565b805482101561282c575f5260205f2001905f90565b634e487b7160e01b5f52603260045260245ffd5b9181601f84011215610ec0578235916001600160401b038311610ec0576020808501948460051b010111610ec057565b6001600160401b03811161182e57601f01601f191660200190565b81601f82011215610ec0578035906128a282612870565b926128b060405194856127d0565b82845260208383010111610ec057815f926020809301838601378301015290565b60208091604051928184925191829101835e8101600881520301902090565b60125481101561282c5760125f52600560205f20910201905f90565b8054600160401b81101561182e5761292991600182018155612817565b81546001600160a01b0393841660039290921b91821b9390911b1916919091179055565b601f821161295a57505050565b5f5260205f20906020601f840160051c83019310612992575b601f0160051c01905b818110612987575050565b5f815560010161297c565b9091508190612973565b8160011b915f199060031b1c19161790565b6001600160a01b039182168152602081019290925260408201929092526060810192909252909116608082015260a00190565b9190826040910312610ec057602082519201518015158103610ec05790565b612a24939260609260018060a01b03168252602082015281604082015201906127f3565b90565b919081101561282c5760051b0190565b9190820391821161118c57565b929192612a5082612870565b91612a5e60405193846127d0565b829481845281830111610ec0578281602093845f96015e010152565b6001600160a01b039091168152602081019190915260400190565b51906001600160a01b0382168203610ec057565b9080601f83011215610ec0578151612a2492602001612a44565b5f546001600160a01b03163303612ad657565b63118cdaa760e01b5f523360045260245ffd5b600260015414612afa576002600155565b633ee5aeb560e01b5f5260045ffd5b602081830312610ec0578035906001600160401b038211610ec057019060a082820312610ec05760405191612b3d836127b5565b612b4681612643565b8352612b5460208201612643565b602084015260408101356001600160401b038111610ec05782612b7891830161288b565b604084015260608101356001600160401b038111610ec057608092612b9e91830161288b565b60608401520135608082015290565b602081830312610ec0578035906001600160401b038211610ec057019060c082820312610ec0576040519160c083016001600160401b0381118482101761182e5760405280356001600160401b038111610ec05782612c0d91830161288b565b835260208101356001600160401b038111610ec05782612c2e91830161288b565b602084015260408101356001600160401b038111610ec05782612c5291830161288b565b604084015260608101356001600160401b038111610ec05782612c7691830161288b565b606084015260808101356001600160401b038111610ec05760a092612c9c91830161288b565b6080840152013560a082015290565b92915f5f5160206130175f395f51905f528503612d7c575090612cd091810190612bad565b80515115612d465780516001600160a01b0390612cec906128d1565b5416612d135760a00151915b8215612d015750565b9091505f52600260205260405f205490565b6040516305519d6f60e51b815260206004820152600a6024820152692730b6b2903a30b5b2b760b11b6044820152606490fd5b6040516305519d6f60e51b815260206004820152600d60248201526c13985b59481c995c5d5a5c9959609a1b6044820152606490fd5b5f516020612ff75f395f51905f528503612e27575090612d9e91810190612b09565b5f5160206130175f395f51905f525f90815260036020908152828101516001600160a01b031682525f5160206130575f395f51905f529052604090205460ff1615612ded576080015191612cf8565b6040516305519d6f60e51b8152602060048201526011602482015270496e76616c696420636f6d6d756e69747960781b6044820152606490fd5b93919060208114612e3a575b5050612cf8565b819294509060209181010312610ec05735915f80612e33565b6001600160a01b0390911681526040602082018190525f9082015260600190565b909291905f516020612ff75f395f51905f5214612eb1575050612a24612ea39160405192839160208301612e53565b03601f1981018352826127d0565b612ea39250612a24916001600160a01b0391602091612ed39190810190612b09565b01511660405192839160208301612e53565b909291905f5160206130175f395f51905f528103612f78575080602092612f0d920190612bad565b612f1781516128d1565b80546001600160a01b0319166001600160a01b0385161790550151805180612f3e57505050565b60209181839260405194859301835e60099082019081520301902080546001600160a01b0319166001600160a01b03909216919091179055565b5f516020612ff75f395f51905f5214612f9057505050565b6001600160a01b0391612fa69190810190612b09565b51165f908152600a6020526040812080546001600160a01b0319166001600160a01b03909316929092179091555056fe0d9361411a652b66cd4aed24a96d36c0b048899896c927d879a9d3ba2790d9c60c34ecc75d3bf122e0609d2576e167f53fb42429262ce8c9b33cab91ff670e3ae94d78b6d8fb99b2c21131eb4552924a60f564d8515a3cc90ef300fc9735c0748be0079c531659141344cd1fd0a4f28419497f9722a3daafe3b4186f6b6457e0ff2ee81dab119a3c44ab55016c33ff3eb0f6d539478c634479d44f3f915202dd2c48d754bbf59f20e71c13710fac35aa1ea020da58dcbb366de0ef7f75c9377dbb42fde0252fd03324102c3666f457311508c4dd05f96e66e0fd26f0c28e8542a2646970667358221220732d17c114034f9db3fcc96e3a4b5cc7c6f713d5879f01a5267503952a17f56664736f6c634300081c00336fb2b25080d21c908f32ff8ff99eb1d552c210854f7de48a40406764c09c68f8e94d78b6d8fb99b2c21131eb4552924a60f564d8515a3cc90ef300fc9735c0742024516755f401845808190bb830b0e4523d0df0845503cab52130a794699a0ff86d13979a91272f2c54c4147e588ecbeaad32dd1e0a5332a77356847049a70e3aa2e9509f29532b71f822e18bcde843a8070a508d564188ec8a6adf59eff28a","linkReferences":{}},"methodIdentifiers":{"GTOKEN_STAKING()":"826600ce","MYSBT()":"19c46e81","ROLE_COMMUNITY()":"a2d0020e","ROLE_ENDUSER()":"43e6a160","ROLE_KMS()":"9b1465a3","ROLE_PAYMASTER_AOA()":"bf0cb042","ROLE_PAYMASTER_SUPER()":"10fdfea7","VERSION()":"ffa1ad74","VERSION_CODE()":"e9763063","accountToUser(address)":"920983fb","batchUpdateGlobalReputation(address[],uint256[],uint256,bytes)":"6acb091f","burnHistory(uint256)":"b991118f","calculateExitFee(bytes32,uint256)":"07cf0ee9","checkRole(bytes32,address)":"12d9a6ad","communityByENSV3(string)":"86166d5d","communityByNameV3(string)":"d727cbd4","configureRole(bytes32,(uint256,uint256,uint256,uint256,uint256,uint256,bool,string))":"d84951b9","creditTierConfig(uint256)":"af5eda02","exitRole(bytes32)":"727b52a5","getBurnHistory(address)":"62970f9b","getCreditLimit(address)":"2c333e25","getRoleConfig(bytes32)":"b5e936ab","getRoleUserCount(bytes32)":"4b8b8a6e","getUserRoles(address)":"06a36aee","globalReputation(address)":"11c85b0b","hasRole(bytes32,address)":"91d14854","isReputationSource(address)":"bf28c98a","lastReputationEpoch(address)":"e74c7bd7","owner()":"8da5cb5b","proposedRoleNames(bytes32)":"59dc9126","registerRole(bytes32,address,bytes)":"669d7762","registerRoleSelf(bytes32,bytes)":"0ab0c75e","renounceOwnership()":"715018a6","roleConfigs(bytes32)":"f538e1dc","roleLockDurations(bytes32)":"e350d77b","roleMembers(bytes32,uint256)":"7f528155","roleMetadata(bytes32,address)":"1cae0412","roleOwners(bytes32)":"aa9e8cf7","roleSBTTokenIds(bytes32,address)":"36db9caf","roleStakes(bytes32,address)":"c8ee23ef","safeMintForRole(bytes32,address,bytes)":"17e1c595","setCreditTier(uint256,uint256)":"15de32ca","setReputationSource(address,bool)":"6229738c","transferOwnership(address)":"f2fde38b","userBurnHistory(address,uint256)":"26d9815c"},"id":45}