{"abi":[{"type":"constructor","inputs":[{"name":"_gtoken","type":"address","internalType":"address"},{"name":"_gtokenStaking","type":"address","internalType":"address"},{"name":"_mysbt","type":"address","internalType":"address"}],"stateMutability":"nonpayable"},{"type":"function","name":"GTOKEN_STAKING","inputs":[],"outputs":[{"name":"","type":"address","internalType":"contract IGTokenStakingV3"}],"stateMutability":"view"},{"type":"function","name":"MYSBT","inputs":[],"outputs":[{"name":"","type":"address","internalType":"contract IMySBTV3"}],"stateMutability":"view"},{"type":"function","name":"ROLE_COMMUNITY","inputs":[],"outputs":[{"name":"","type":"bytes32","internalType":"bytes32"}],"stateMutability":"view"},{"type":"function","name":"ROLE_ENDUSER","inputs":[],"outputs":[{"name":"","type":"bytes32","internalType":"bytes32"}],"stateMutability":"view"},{"type":"function","name":"ROLE_KMS","inputs":[],"outputs":[{"name":"","type":"bytes32","internalType":"bytes32"}],"stateMutability":"view"},{"type":"function","name":"ROLE_PAYMASTER_AOA","inputs":[],"outputs":[{"name":"","type":"bytes32","internalType":"bytes32"}],"stateMutability":"view"},{"type":"function","name":"ROLE_PAYMASTER_SUPER","inputs":[],"outputs":[{"name":"","type":"bytes32","internalType":"bytes32"}],"stateMutability":"view"},{"type":"function","name":"VERSION","inputs":[],"outputs":[{"name":"","type":"string","internalType":"string"}],"stateMutability":"view"},{"type":"function","name":"VERSION_CODE","inputs":[],"outputs":[{"name":"","type":"uint256","internalType":"uint256"}],"stateMutability":"view"},{"type":"function","name":"accountToUser","inputs":[{"name":"","type":"address","internalType":"address"}],"outputs":[{"name":"","type":"address","internalType":"address"}],"stateMutability":"view"},{"type":"function","name":"batchUpdateGlobalReputation","inputs":[{"name":"users","type":"address[]","internalType":"address[]"},{"name":"newScores","type":"uint256[]","internalType":"uint256[]"},{"name":"epoch","type":"uint256","internalType":"uint256"},{"name":"","type":"bytes","internalType":"bytes"}],"outputs":[],"stateMutability":"nonpayable"},{"type":"function","name":"burnHistory","inputs":[{"name":"","type":"uint256","internalType":"uint256"}],"outputs":[{"name":"roleId","type":"bytes32","internalType":"bytes32"},{"name":"user","type":"address","internalType":"address"},{"name":"amount","type":"uint256","internalType":"uint256"},{"name":"timestamp","type":"uint256","internalType":"uint256"},{"name":"reason","type":"string","internalType":"string"}],"stateMutability":"view"},{"type":"function","name":"calculateExitFee","inputs":[{"name":"","type":"bytes32","internalType":"bytes32"},{"name":"","type":"uint256","internalType":"uint256"}],"outputs":[{"name":"","type":"uint256","internalType":"uint256"}],"stateMutability":"pure"},{"type":"function","name":"checkRole","inputs":[{"name":"roleId","type":"bytes32","internalType":"bytes32"},{"name":"user","type":"address","internalType":"address"}],"outputs":[{"name":"","type":"bool","internalType":"bool"}],"stateMutability":"view"},{"type":"function","name":"communityByENSV3","inputs":[{"name":"","type":"string","internalType":"string"}],"outputs":[{"name":"","type":"address","internalType":"address"}],"stateMutability":"view"},{"type":"function","name":"communityByNameV3","inputs":[{"name":"","type":"string","internalType":"string"}],"outputs":[{"name":"","type":"address","internalType":"address"}],"stateMutability":"view"},{"type":"function","name":"configureRole","inputs":[{"name":"roleId","type":"bytes32","internalType":"bytes32"},{"name":"config","type":"tuple","internalType":"struct IRegistryV3.RoleConfig","components":[{"name":"minStake","type":"uint256","internalType":"uint256"},{"name":"entryBurn","type":"uint256","internalType":"uint256"},{"name":"slashThreshold","type":"uint256","internalType":"uint256"},{"name":"slashBase","type":"uint256","internalType":"uint256"},{"name":"slashIncrement","type":"uint256","internalType":"uint256"},{"name":"slashMax","type":"uint256","internalType":"uint256"},{"name":"exitFeePercent","type":"uint256","internalType":"uint256"},{"name":"minExitFee","type":"uint256","internalType":"uint256"},{"name":"isActive","type":"bool","internalType":"bool"},{"name":"description","type":"string","internalType":"string"}]}],"outputs":[],"stateMutability":"nonpayable"},{"type":"function","name":"createNewRole","inputs":[{"name":"roleId","type":"bytes32","internalType":"bytes32"},{"name":"config","type":"tuple","internalType":"struct IRegistryV3.RoleConfig","components":[{"name":"minStake","type":"uint256","internalType":"uint256"},{"name":"entryBurn","type":"uint256","internalType":"uint256"},{"name":"slashThreshold","type":"uint256","internalType":"uint256"},{"name":"slashBase","type":"uint256","internalType":"uint256"},{"name":"slashIncrement","type":"uint256","internalType":"uint256"},{"name":"slashMax","type":"uint256","internalType":"uint256"},{"name":"exitFeePercent","type":"uint256","internalType":"uint256"},{"name":"minExitFee","type":"uint256","internalType":"uint256"},{"name":"isActive","type":"bool","internalType":"bool"},{"name":"description","type":"string","internalType":"string"}]},{"name":"roleOwner","type":"address","internalType":"address"}],"outputs":[],"stateMutability":"nonpayable"},{"type":"function","name":"creditTierConfig","inputs":[{"name":"","type":"uint256","internalType":"uint256"}],"outputs":[{"name":"","type":"uint256","internalType":"uint256"}],"stateMutability":"view"},{"type":"function","name":"exitRole","inputs":[{"name":"roleId","type":"bytes32","internalType":"bytes32"}],"outputs":[],"stateMutability":"nonpayable"},{"type":"function","name":"getBurnHistory","inputs":[{"name":"user","type":"address","internalType":"address"}],"outputs":[{"name":"","type":"tuple[]","internalType":"struct IRegistryV3.BurnRecord[]","components":[{"name":"roleId","type":"bytes32","internalType":"bytes32"},{"name":"user","type":"address","internalType":"address"},{"name":"amount","type":"uint256","internalType":"uint256"},{"name":"timestamp","type":"uint256","internalType":"uint256"},{"name":"reason","type":"string","internalType":"string"}]}],"stateMutability":"view"},{"type":"function","name":"getCreditLimit","inputs":[{"name":"user","type":"address","internalType":"address"}],"outputs":[{"name":"","type":"uint256","internalType":"uint256"}],"stateMutability":"view"},{"type":"function","name":"getRoleConfig","inputs":[{"name":"roleId","type":"bytes32","internalType":"bytes32"}],"outputs":[{"name":"","type":"tuple","internalType":"struct IRegistryV3.RoleConfig","components":[{"name":"minStake","type":"uint256","internalType":"uint256"},{"name":"entryBurn","type":"uint256","internalType":"uint256"},{"name":"slashThreshold","type":"uint256","internalType":"uint256"},{"name":"slashBase","type":"uint256","internalType":"uint256"},{"name":"slashIncrement","type":"uint256","internalType":"uint256"},{"name":"slashMax","type":"uint256","internalType":"uint256"},{"name":"exitFeePercent","type":"uint256","internalType":"uint256"},{"name":"minExitFee","type":"uint256","internalType":"uint256"},{"name":"isActive","type":"bool","internalType":"bool"},{"name":"description","type":"string","internalType":"string"}]}],"stateMutability":"view"},{"type":"function","name":"getRoleUserCount","inputs":[{"name":"roleId","type":"bytes32","internalType":"bytes32"}],"outputs":[{"name":"","type":"uint256","internalType":"uint256"}],"stateMutability":"view"},{"type":"function","name":"getUserRoles","inputs":[{"name":"user","type":"address","internalType":"address"}],"outputs":[{"name":"","type":"bytes32[]","internalType":"bytes32[]"}],"stateMutability":"view"},{"type":"function","name":"globalReputation","inputs":[{"name":"","type":"address","internalType":"address"}],"outputs":[{"name":"","type":"uint256","internalType":"uint256"}],"stateMutability":"view"},{"type":"function","name":"hasRole","inputs":[{"name":"","type":"bytes32","internalType":"bytes32"},{"name":"","type":"address","internalType":"address"}],"outputs":[{"name":"","type":"bool","internalType":"bool"}],"stateMutability":"view"},{"type":"function","name":"isReputationSource","inputs":[{"name":"","type":"address","internalType":"address"}],"outputs":[{"name":"","type":"bool","internalType":"bool"}],"stateMutability":"view"},{"type":"function","name":"lastReputationEpoch","inputs":[{"name":"","type":"address","internalType":"address"}],"outputs":[{"name":"","type":"uint256","internalType":"uint256"}],"stateMutability":"view"},{"type":"function","name":"owner","inputs":[],"outputs":[{"name":"","type":"address","internalType":"address"}],"stateMutability":"view"},{"type":"function","name":"proposedRoleNames","inputs":[{"name":"","type":"bytes32","internalType":"bytes32"}],"outputs":[{"name":"","type":"string","internalType":"string"}],"stateMutability":"view"},{"type":"function","name":"registerRole","inputs":[{"name":"roleId","type":"bytes32","internalType":"bytes32"},{"name":"user","type":"address","internalType":"address"},{"name":"roleData","type":"bytes","internalType":"bytes"}],"outputs":[],"stateMutability":"nonpayable"},{"type":"function","name":"registerRoleSelf","inputs":[{"name":"roleId","type":"bytes32","internalType":"bytes32"},{"name":"roleData","type":"bytes","internalType":"bytes"}],"outputs":[{"name":"sbtTokenId","type":"uint256","internalType":"uint256"}],"stateMutability":"nonpayable"},{"type":"function","name":"renounceOwnership","inputs":[],"outputs":[],"stateMutability":"nonpayable"},{"type":"function","name":"roleConfigs","inputs":[{"name":"","type":"bytes32","internalType":"bytes32"}],"outputs":[{"name":"minStake","type":"uint256","internalType":"uint256"},{"name":"entryBurn","type":"uint256","internalType":"uint256"},{"name":"slashThreshold","type":"uint256","internalType":"uint256"},{"name":"slashBase","type":"uint256","internalType":"uint256"},{"name":"slashIncrement","type":"uint256","internalType":"uint256"},{"name":"slashMax","type":"uint256","internalType":"uint256"},{"name":"exitFeePercent","type":"uint256","internalType":"uint256"},{"name":"minExitFee","type":"uint256","internalType":"uint256"},{"name":"isActive","type":"bool","internalType":"bool"},{"name":"description","type":"string","internalType":"string"}],"stateMutability":"view"},{"type":"function","name":"roleLockDurations","inputs":[{"name":"","type":"bytes32","internalType":"bytes32"}],"outputs":[{"name":"","type":"uint256","internalType":"uint256"}],"stateMutability":"view"},{"type":"function","name":"roleMembers","inputs":[{"name":"","type":"bytes32","internalType":"bytes32"},{"name":"","type":"uint256","internalType":"uint256"}],"outputs":[{"name":"","type":"address","internalType":"address"}],"stateMutability":"view"},{"type":"function","name":"roleMetadata","inputs":[{"name":"","type":"bytes32","internalType":"bytes32"},{"name":"","type":"address","internalType":"address"}],"outputs":[{"name":"","type":"bytes","internalType":"bytes"}],"stateMutability":"view"},{"type":"function","name":"roleOwners","inputs":[{"name":"","type":"bytes32","internalType":"bytes32"}],"outputs":[{"name":"","type":"address","internalType":"address"}],"stateMutability":"view"},{"type":"function","name":"roleSBTTokenIds","inputs":[{"name":"","type":"bytes32","internalType":"bytes32"},{"name":"","type":"address","internalType":"address"}],"outputs":[{"name":"","type":"uint256","internalType":"uint256"}],"stateMutability":"view"},{"type":"function","name":"roleStakes","inputs":[{"name":"","type":"bytes32","internalType":"bytes32"},{"name":"","type":"address","internalType":"address"}],"outputs":[{"name":"","type":"uint256","internalType":"uint256"}],"stateMutability":"view"},{"type":"function","name":"safeMintForRole","inputs":[{"name":"roleId","type":"bytes32","internalType":"bytes32"},{"name":"user","type":"address","internalType":"address"},{"name":"data","type":"bytes","internalType":"bytes"}],"outputs":[{"name":"tokenId","type":"uint256","internalType":"uint256"}],"stateMutability":"nonpayable"},{"type":"function","name":"setCreditTier","inputs":[{"name":"level","type":"uint256","internalType":"uint256"},{"name":"limit","type":"uint256","internalType":"uint256"}],"outputs":[],"stateMutability":"nonpayable"},{"type":"function","name":"setReputationSource","inputs":[{"name":"source","type":"address","internalType":"address"},{"name":"active","type":"bool","internalType":"bool"}],"outputs":[],"stateMutability":"nonpayable"},{"type":"function","name":"setRoleOwner","inputs":[{"name":"roleId","type":"bytes32","internalType":"bytes32"},{"name":"newOwner","type":"address","internalType":"address"}],"outputs":[],"stateMutability":"nonpayable"},{"type":"function","name":"transferOwnership","inputs":[{"name":"newOwner","type":"address","internalType":"address"}],"outputs":[],"stateMutability":"nonpayable"},{"type":"function","name":"userBurnHistory","inputs":[{"name":"","type":"address","internalType":"address"},{"name":"","type":"uint256","internalType":"uint256"}],"outputs":[{"name":"","type":"uint256","internalType":"uint256"}],"stateMutability":"view"},{"type":"event","name":"BurnExecuted","inputs":[{"name":"user","type":"address","indexed":true,"internalType":"address"},{"name":"roleId","type":"bytes32","indexed":true,"internalType":"bytes32"},{"name":"amount","type":"uint256","indexed":false,"internalType":"uint256"},{"name":"reason","type":"string","indexed":false,"internalType":"string"}],"anonymous":false},{"type":"event","name":"CreditTierUpdated","inputs":[{"name":"level","type":"uint256","indexed":false,"internalType":"uint256"},{"name":"creditLimit","type":"uint256","indexed":false,"internalType":"uint256"}],"anonymous":false},{"type":"event","name":"GlobalReputationUpdated","inputs":[{"name":"user","type":"address","indexed":true,"internalType":"address"},{"name":"newScore","type":"uint256","indexed":false,"internalType":"uint256"},{"name":"epoch","type":"uint256","indexed":false,"internalType":"uint256"}],"anonymous":false},{"type":"event","name":"OwnershipTransferred","inputs":[{"name":"previousOwner","type":"address","indexed":true,"internalType":"address"},{"name":"newOwner","type":"address","indexed":true,"internalType":"address"}],"anonymous":false},{"type":"event","name":"ReputationSourceUpdated","inputs":[{"name":"source","type":"address","indexed":true,"internalType":"address"},{"name":"isActive","type":"bool","indexed":false,"internalType":"bool"}],"anonymous":false},{"type":"event","name":"RoleConfigured","inputs":[{"name":"roleId","type":"bytes32","indexed":true,"internalType":"bytes32"},{"name":"config","type":"tuple","indexed":false,"internalType":"struct IRegistryV3.RoleConfig","components":[{"name":"minStake","type":"uint256","internalType":"uint256"},{"name":"entryBurn","type":"uint256","internalType":"uint256"},{"name":"slashThreshold","type":"uint256","internalType":"uint256"},{"name":"slashBase","type":"uint256","internalType":"uint256"},{"name":"slashIncrement","type":"uint256","internalType":"uint256"},{"name":"slashMax","type":"uint256","internalType":"uint256"},{"name":"exitFeePercent","type":"uint256","internalType":"uint256"},{"name":"minExitFee","type":"uint256","internalType":"uint256"},{"name":"isActive","type":"bool","internalType":"bool"},{"name":"description","type":"string","internalType":"string"}]},{"name":"timestamp","type":"uint256","indexed":false,"internalType":"uint256"}],"anonymous":false},{"type":"event","name":"RoleExited","inputs":[{"name":"roleId","type":"bytes32","indexed":true,"internalType":"bytes32"},{"name":"user","type":"address","indexed":true,"internalType":"address"},{"name":"exitFee","type":"uint256","indexed":false,"internalType":"uint256"},{"name":"timestamp","type":"uint256","indexed":false,"internalType":"uint256"}],"anonymous":false},{"type":"event","name":"RoleRegistered","inputs":[{"name":"roleId","type":"bytes32","indexed":true,"internalType":"bytes32"},{"name":"user","type":"address","indexed":true,"internalType":"address"},{"name":"burnAmount","type":"uint256","indexed":false,"internalType":"uint256"},{"name":"timestamp","type":"uint256","indexed":false,"internalType":"uint256"}],"anonymous":false},{"type":"error","name":"InsufficientStake","inputs":[{"name":"provided","type":"uint256","internalType":"uint256"},{"name":"required","type":"uint256","internalType":"uint256"}]},{"type":"error","name":"InvalidParameter","inputs":[{"name":"message","type":"string","internalType":"string"}]},{"type":"error","name":"OwnableInvalidOwner","inputs":[{"name":"owner","type":"address","internalType":"address"}]},{"type":"error","name":"OwnableUnauthorizedAccount","inputs":[{"name":"account","type":"address","internalType":"address"}]},{"type":"error","name":"ReentrancyGuardReentrantCall","inputs":[]},{"type":"error","name":"RoleAlreadyGranted","inputs":[{"name":"roleId","type":"bytes32","internalType":"bytes32"},{"name":"user","type":"address","internalType":"address"}]},{"type":"error","name":"RoleNotConfigured","inputs":[{"name":"roleId","type":"bytes32","internalType":"bytes32"}]},{"type":"error","name":"RoleNotGranted","inputs":[{"name":"roleId","type":"bytes32","internalType":"bytes32"},{"name":"user","type":"address","internalType":"address"}]}],"bytecode":{"object":"0x60c0604052346116ee57614e806060813803918261001c81611712565b9384928339810103126116ee5761003281611737565b5061004b604061004460208401611737565b9201611737565b33156116db575f8054336001600160a01b0319821681178355604051949290916001600160a01b0316907f8be0079c531659141344cd1fd0a4f28419497f9722a3daafe3b4186f6b6457e09080a3600180556001600160a01b03169182156116a757506001600160a01b03169081156116745760805260a0526100ce6040611712565b600d81526c20a7a0902830bcb6b0b9ba32b960991b602082015260096100f26116f2565b6801a055690d9db8000081526729a2241af62c00006020808301918252600a6040840181815260026060860181815260016080880181815260a089019586526103e860c08a01908152670de0b6b3a764000060e08b019081526101008b019384526101208b019c8d525f516020614e405f395f51905f525f529490975297517f62cab8ae2b11b8b89a6aeec867aea04066879f1332e69de6e580ce3c9df2d8da90815596517f62cab8ae2b11b8b89a6aeec867aea04066879f1332e69de6e580ce3c9df2d8db5592517f62cab8ae2b11b8b89a6aeec867aea04066879f1332e69de6e580ce3c9df2d8dc55517f62cab8ae2b11b8b89a6aeec867aea04066879f1332e69de6e580ce3c9df2d8dd5594517f62cab8ae2b11b8b89a6aeec867aea04066879f1332e69de6e580ce3c9df2d8de5590517f62cab8ae2b11b8b89a6aeec867aea04066879f1332e69de6e580ce3c9df2d8df5590517f62cab8ae2b11b8b89a6aeec867aea04066879f1332e69de6e580ce3c9df2d8e05591517f62cab8ae2b11b8b89a6aeec867aea04066879f1332e69de6e580ce3c9df2d8e15590516102be9015157f62cab8ae2b11b8b89a6aeec867aea04066879f1332e69de6e580ce3c9df2d8e261174b565b01905190815160018060401b0381116112c3578154600181811c9116801561166a575b60208210146112a557601f8111611625575b50602092601f82116001146115c657928192935f926115bb575b50508160011b915f199060031b1c19161790555b5f516020614e405f395f51905f525f5260106020527f413f8e704dfa69286ceea633003bb8d41c2205618c221ad684c62f493ad2294780546001600160a01b031916331790556103716040611712565b600e81526d29bab832b92830bcb6b0b9ba32b960911b602082015260096103966116f2565b6802b5e3af16b18800008152674563918244f400006020808301918252600a6040840181815260026060860181815260016080880181815260a089019586526103e860c08a01908152671bc16d674ec8000060e08b019081526101008b019384526101208b019c8d525f516020614e205f395f51905f525f529490975297517fb4741b428dfef425fc3add4e8f8bd29f7934ab6d611612e2205aa0df7d64747590815596517fb4741b428dfef425fc3add4e8f8bd29f7934ab6d611612e2205aa0df7d6474765592517fb4741b428dfef425fc3add4e8f8bd29f7934ab6d611612e2205aa0df7d64747755517fb4741b428dfef425fc3add4e8f8bd29f7934ab6d611612e2205aa0df7d6474785594517fb4741b428dfef425fc3add4e8f8bd29f7934ab6d611612e2205aa0df7d6474795590517fb4741b428dfef425fc3add4e8f8bd29f7934ab6d611612e2205aa0df7d64747a5590517fb4741b428dfef425fc3add4e8f8bd29f7934ab6d611612e2205aa0df7d64747b5591517fb4741b428dfef425fc3add4e8f8bd29f7934ab6d611612e2205aa0df7d64747c5590516105629015157fb4741b428dfef425fc3add4e8f8bd29f7934ab6d611612e2205aa0df7d64747d61174b565b01905190815160018060401b0381116112c3578154600181811c911680156115b1575b60208210146112a557601f811161156c575b50602092601f821160011461150d57928192935f92611502575b50508160011b915f199060031b1c19161790555b5f516020614e205f395f51905f525f5260106020527f50548ca8d22fb24dd757378b076c9d51067404597318263fe14d95981af7363f80546001600160a01b031916331790556106156040611712565b6005815264414e4f444560d81b602082015260096106316116f2565b6801158e460913d000008152671bc16d674ec800006020808301918252600f6040840190815260016060850181815260808601828152600560a088019081526103e860c08901908152670de0b6b3a764000060e08a019081526101008a019586526101208a019b8c525f516020614e605f395f51905f525f52600290975297517f94c8b539f4346cacec6243d5b4361ab263597bfb2e961081d902fe6ff26e24a590815596517f94c8b539f4346cacec6243d5b4361ab263597bfb2e961081d902fe6ff26e24a65593517f94c8b539f4346cacec6243d5b4361ab263597bfb2e961081d902fe6ff26e24a75590517f94c8b539f4346cacec6243d5b4361ab263597bfb2e961081d902fe6ff26e24a855517f94c8b539f4346cacec6243d5b4361ab263597bfb2e961081d902fe6ff26e24a95590517f94c8b539f4346cacec6243d5b4361ab263597bfb2e961081d902fe6ff26e24aa5592517f94c8b539f4346cacec6243d5b4361ab263597bfb2e961081d902fe6ff26e24ab55517f94c8b539f4346cacec6243d5b4361ab263597bfb2e961081d902fe6ff26e24ac5590516107fd9015157f94c8b539f4346cacec6243d5b4361ab263597bfb2e961081d902fe6ff26e24ad61174b565b01905190815160018060401b0381116112c3578154600181811c911680156114f8575b60208210146112a557601f81116114b3575b50602092601f821160011461145457928192935f92611449575b50508160011b915f199060031b1c19161790555b5f516020614e605f395f51905f525f5260106020527fe5221cb99999323965d85b84c912b8744e9cbcaca07c9ed2c528b499ee7bbc6b80546001600160a01b031916331790556108b06040611712565b60038152624b4d5360e81b602082015260096108ca6116f2565b68056bc75e2d631000008152678ac7230489e80000602080830191825260056040840181815260608501918252600260808601818152601460a088019081526103e860c08901908152674563918244f4000060e08a0190815260016101008b019081526101208b019c8d525f516020614de05f395f51905f525f529490975297517fb6d6f2ef81599646430ffd77c4fd3b257cab16577a0a1dc7b59269fa85f7076190815596517fb6d6f2ef81599646430ffd77c4fd3b257cab16577a0a1dc7b59269fa85f707625592517fb6d6f2ef81599646430ffd77c4fd3b257cab16577a0a1dc7b59269fa85f707635592517fb6d6f2ef81599646430ffd77c4fd3b257cab16577a0a1dc7b59269fa85f707645591517fb6d6f2ef81599646430ffd77c4fd3b257cab16577a0a1dc7b59269fa85f7076555517fb6d6f2ef81599646430ffd77c4fd3b257cab16577a0a1dc7b59269fa85f707665592517fb6d6f2ef81599646430ffd77c4fd3b257cab16577a0a1dc7b59269fa85f7076755517fb6d6f2ef81599646430ffd77c4fd3b257cab16577a0a1dc7b59269fa85f70768559051610a979015157fb6d6f2ef81599646430ffd77c4fd3b257cab16577a0a1dc7b59269fa85f7076961174b565b01905190815160018060401b0381116112c3578154600181811c9116801561143f575b60208210146112a557601f81116113fa575b50602092601f821160011461139b57928192935f92611390575b50508160011b915f199060031b1c19161790555b5f516020614de05f395f51905f525f5260106020527f56120646997546de0a4b799f27c2ec69164d8d6054cb12e0782cb7789559d68480546001600160a01b03191633179055610b4a6040611712565b6009815268436f6d6d756e69747960b81b60208201526009610b6a6116f2565b6801a055690d9db8000081526729a2241af62c00006020808301918252600a6040840181815260026060860181815260016080880181815260a089019586526101f460c08a01908152670de0b6b3a764000060e08b019081526101008b019384526101208b019c8d525f516020614e005f395f51905f525f529490975297517fe7952ca73c012fd94dc1983a49b24a9ff27c985c27245c669928b72e5714189a90815596517fe7952ca73c012fd94dc1983a49b24a9ff27c985c27245c669928b72e5714189b5592517fe7952ca73c012fd94dc1983a49b24a9ff27c985c27245c669928b72e5714189c55517fe7952ca73c012fd94dc1983a49b24a9ff27c985c27245c669928b72e5714189d5594517fe7952ca73c012fd94dc1983a49b24a9ff27c985c27245c669928b72e5714189e5590517fe7952ca73c012fd94dc1983a49b24a9ff27c985c27245c669928b72e5714189f5590517fe7952ca73c012fd94dc1983a49b24a9ff27c985c27245c669928b72e571418a05591517fe7952ca73c012fd94dc1983a49b24a9ff27c985c27245c669928b72e571418a1559051610d369015157fe7952ca73c012fd94dc1983a49b24a9ff27c985c27245c669928b72e571418a261174b565b01905190815160018060401b0381116112c3578154600181811c91168015611386575b60208210146112a557601f8111611341575b50602092601f82116001146112e257928192935f926112d7575b50508160011b915f199060031b1c19161790555b5f516020614e005f395f51905f525f5260106020527f01b4e3122866af6b78c3743e9fa35f8de4551fa2682a4b0c7ba5b7d01fb5fc4880546001600160a01b03191633179055610de96040611712565b600781526622b7322ab9b2b960c91b60208201526009610e076116f2565b670429d069189e0000815266b1a2bc2ec5000060208083018281525f60408501818152606086018281526080870183815260a088018481526103e860c08a0190815260e08a0198895260016101008b019081526101208b019c8d527f0c34ecc75d3bf122e0609d2576e167f53fb42429262ce8c9b33cab91ff670e3a909652600290975297517f81f7a8f564b61e7963bfdc536ab87a0854d48d19c43323c1f4c080720d74681590815594517f81f7a8f564b61e7963bfdc536ab87a0854d48d19c43323c1f4c080720d7468165591517f81f7a8f564b61e7963bfdc536ab87a0854d48d19c43323c1f4c080720d74681755517f81f7a8f564b61e7963bfdc536ab87a0854d48d19c43323c1f4c080720d74681855517f81f7a8f564b61e7963bfdc536ab87a0854d48d19c43323c1f4c080720d7468195593517f81f7a8f564b61e7963bfdc536ab87a0854d48d19c43323c1f4c080720d74681a5590517f81f7a8f564b61e7963bfdc536ab87a0854d48d19c43323c1f4c080720d74681b5590517f81f7a8f564b61e7963bfdc536ab87a0854d48d19c43323c1f4c080720d74681c559051610fd99015157f81f7a8f564b61e7963bfdc536ab87a0854d48d19c43323c1f4c080720d74681d61174b565b01905190815160018060401b0381116112c3578154600181811c911680156112b9575b60208210146112a557601f8111611260575b50602092601f821160011461120157928192935f926111f6575b50508160011b915f199060031b1c19161790555b7f48321f0c6d92a6c32306ec23130880ef8feb85690265117eed2314f0e6488d6080546001600160a01b031916339081179091555f7ffd54ff1ed53f34a900b24c5ba64f85761163b5d82d98a47b9bd80e45466993c581905568056bc75e2d631000007f10a81eed9d63d16face5e76357905348e6253d3394086026bb2bf2145d7cc24955681043561a88293000007f26b4a10d0f0b04925c23bd4480ee147c916e5e87a7d68206a533dad160ac81e255682086ac3510526000007fafafe8948a4ed9d478b1e9a5780b119b5edd00ea7d07bc35bef7c814824eb94b55683635c9adc5dea000007fa5049387d9cb649c59f4bda666105ba636c2a103d8e2b232ba4d125737cd214955686c6b935b8bbd4000007fa48544818c2c710afa9849c61ec9c60e8acdb3eaa2885f33b37e118cc8fd04ac55908152600e602052604090819020805460ff1916600117905551613683908161175d82396080518181816105c601528181610c3801528181610f0f015281816111eb0152818161178801528181611e460152818161221f015261279d015260a051818181611146015281816117ef01528181611ff50152818161228701526128050152f35b015190505f80611028565b601f19821693835f52805f20915f5b8681106112485750836001959610611230575b505050811b01905561103c565b01515f1960f88460031b161c191690555f8080611223565b91926020600181928685015181550194019201611210565b825f5260205f20601f830160051c8101916020841061129b575b601f0160051c01905b818110611290575061100e565b5f8155600101611283565b909150819061127a565b634e487b7160e01b5f52602260045260245ffd5b90607f1690610ffc565b634e487b7160e01b5f52604160045260245ffd5b015190505f80610d85565b601f19821693835f52805f20915f5b8681106113295750836001959610611311575b505050811b019055610d99565b01515f1960f88460031b161c191690555f8080611304565b919260206001819286850151815501940192016112f1565b825f5260205f20601f830160051c8101916020841061137c575b601f0160051c01905b8181106113715750610d6b565b5f8155600101611364565b909150819061135b565b90607f1690610d59565b015190505f80610ae6565b601f19821693835f52805f20915f5b8681106113e257508360019596106113ca575b505050811b019055610afa565b01515f1960f88460031b161c191690555f80806113bd565b919260206001819286850151815501940192016113aa565b825f5260205f20601f830160051c81019160208410611435575b601f0160051c01905b81811061142a5750610acc565b5f815560010161141d565b9091508190611414565b90607f1690610aba565b015190505f8061084c565b601f19821693835f52805f20915f5b86811061149b5750836001959610611483575b505050811b019055610860565b01515f1960f88460031b161c191690555f8080611476565b91926020600181928685015181550194019201611463565b825f5260205f20601f830160051c810191602084106114ee575b601f0160051c01905b8181106114e35750610832565b5f81556001016114d6565b90915081906114cd565b90607f1690610820565b015190505f806105b1565b601f19821693835f52805f20915f5b868110611554575083600195961061153c575b505050811b0190556105c5565b01515f1960f88460031b161c191690555f808061152f565b9192602060018192868501518155019401920161151c565b825f5260205f20601f830160051c810191602084106115a7575b601f0160051c01905b81811061159c5750610597565b5f815560010161158f565b9091508190611586565b90607f1690610585565b015190505f8061030d565b601f19821693835f52805f20915f5b86811061160d57508360019596106115f5575b505050811b019055610321565b01515f1960f88460031b161c191690555f80806115e8565b919260206001819286850151815501940192016115d5565b825f5260205f20601f830160051c81019160208410611660575b601f0160051c01905b81811061165557506102f3565b5f8155600101611648565b909150819061163f565b90607f16906102e1565b60405162461bcd60e51b815260206004820152600b60248201526a125b9d985b1a590814d09560aa1b6044820152606490fd5b62461bcd60e51b815260206004820152600f60248201526e496e76616c6964205374616b696e6760881b6044820152606490fd5b631e4fbdf760e01b5f525f60045260245ffd5b5f80fd5b6040519061014082016001600160401b038111838210176112c357604052565b6040519190601f01601f191682016001600160401b038111838210176112c357604052565b51906001600160a01b03821682036116ee57565b9060ff80198354169115151617905556fe60806040526004361015610011575f80fd5b5f5f3560e01c806306a36aee146129d657806307cf0ee9146129bc5780630ab0c75e146125b457806310fdfea71461257a57806311c85b0b1461254257806312d9a6ad146124f957806315de32ca1461249d57806317e1c5951461202457806319c46e8114611fe05780631cae041214611f92578063208fe7c414611cc857806326d9815c14611c715780632c333e2514611bda57806336db9caf14611b9557806343e6a16014611b6d5780634b8b8a6e14611b4357806359dc912614611afa5780636229738c14611a7b57806362970f9b146119bf578063669d7762146115b25780636acb091f1461134d578063715018a614611306578063727b52a514610cb25780637f52815514610c67578063826600ce14610c2257806386166d5d14610bc05780638da5cb5b14610b9957806391d1485414610b4f578063920983fb14610b0e5780639b1465a314610ad3578063a2d0020e14610aab578063a9d5652314610a47578063aa9e8cf714610a14578063af5eda02146109ea578063b5e936ab14610894578063b991118f14610809578063bf0cb042146107ce578063bf28c98a1461078f578063c8ee23ef1461074a578063d50208951461047b578063d727cbd414610419578063e350d77b146103ef578063e74c7bd7146103b6578063e976306314610399578063f2fde38b14610326578063f538e1dc1461026e5763ffa1ad741461021f575f80fd5b3461026b578060031936011261026b5750610267604051610241604082612c00565b60058152640332e302e360dc1b6020820152604051918291602083526020830190612c23565b0390f35b80fd5b503461026b57602036600319011261026b576040906004358152600260205220805461026760096001840154936002810154600382015460048301546005840154906006850154926007860154946102df60ff600889015416976102d8604051809b819301612b48565b0389612c00565b6040519a8b9a8b5260208b015260408a01526060890152608088015260a087015260c086015260e08501521515610100840152610140610120840152610140830190612c23565b503461026b57602036600319011261026b57610340612a47565b61034861303a565b6001600160a01b031680156103855781546001600160a01b03198116821783556001600160a01b03165f5160206135ae5f395f51905f528380a380f35b631e4fbdf760e01b82526004829052602482fd5b503461026b578060031936011261026b5760206040516175308152f35b503461026b57602036600319011261026b576020906040906001600160a01b036103de612a47565b168152600c83522054604051908152f35b503461026b57602036600319011261026b5760406020916004358152601183522054604051908152f35b503461026b57602036600319011261026b57600435906001600160401b03821161026b57602061044c3660048501612cbb565b8160405191805191829101835e600890820190815281900382019020546040516001600160a01b039091168152f35b503461026b57604036600319011261026b57602435906004356001600160401b038311610746578260040183360361014060031982011261067557828452601060205260408420546001600160a01b031633141580610732575b6106fe5782845260026020526040842090823582556024860135600183015560448601356002830155606486013560038301556084860135600483015560a4860135600583015560c48601359081600684015560e48701359283600782015561010488013580151581036106fa579061055360099260088301612d3c565b019661012481013591602219018212156106f657019560048701356001600160401b0381116106f65780360360248901136106f65761059c816105968454612b10565b84612d8e565b86601f82116001146106875790806105c192899a8a98999a92610679575b5050612ddd565b90555b7f00000000000000000000000000000000000000000000000000000000000000006001600160a01b031691823b156106755761061a92849283604051809681958294636b26335560e11b84528c60048501612ea4565b03925af1801561066a57610651575b505061064b5f51602061362e5f395f51905f5291604051918291429083612eba565b0390a280f35b8161065b91612c00565b61066657825f610629565b8280fd5b6040513d84823e3d90fd5b8380fd5b016024013590505f806105ba565b8288526020882090601f198316895b8181106106db5750998392916001948b9c9b999a9b106106be575b505050811b0190556105c4565b6024910101355f19600384901b60f8161c191690555f80806106b1565b60248c84010135845560019093019260209283019201610696565b8680fd5b8780fd5b60405162461bcd60e51b815260206004820152600c60248201526b155b985d5d1a1bdc9a5e995960a21b6044820152606490fd5b5083546001600160a01b03163314156104d5565b5080fd5b503461026b57604036600319011261026b576040610766612a5d565b9160043581526004602052209060018060a01b03165f52602052602060405f2054604051908152f35b503461026b57602036600319011261026b5760209060ff906040906001600160a01b036107ba612a47565b168152600e84522054166040519015158152f35b503461026b578060031936011261026b5760206040517ff86d13979a91272f2c54c4147e588ecbeaad32dd1e0a5332a77356847049a70e8152f35b503461026b57602036600319011261026b576004356012548110156107465761083190612d20565b508054610267600460018060a01b0360018501541693600281015461086c6003830154926108656040518096819301612b48565b0384612c00565b604051958695865260208601526040850152606084015260a0608084015260a0830190612c23565b503461026b57602036600319011261026b57604090606061012083516108b981612bc9565b838152836020820152838582015283838201528360808201528360a08201528360c08201528360e0820152836101008201520152600435815260026020522060405161090481612bc9565b8154815261026760096001840154936020840194855260028101546040850190815260038201546060860190815260048301546080870190815260058401549060a0880191825260068501549260c0890193845260078601549460e08a0195865261098b60ff600889015416976101008c0198151589526102d8604051809b819301612b48565b6101208a019788526040519a8b9a60208c525160208c01525160408b01525160608a01525160808901525160a08801525160c08701525160e0860152516101008501525115156101208401525161014080840152610160830190612c23565b503461026b57602036600319011261026b5760406020916004358152600d83522054604051908152f35b503461026b57602036600319011261026b57602090600435815260108252604060018060a01b0391205416604051908152f35b503461026b57604036600319011261026b57610a61612a5d565b610a6961303a565b610a7d6001600160a01b0382161515612e68565b600435825260106020526040822080546001600160a01b0319166001600160a01b0390921691909117905580f35b503461026b578060031936011261026b5760206040515f51602061358e5f395f51905f528152f35b503461026b578060031936011261026b5760206040517f6fb2b25080d21c908f32ff8ff99eb1d552c210854f7de48a40406764c09c68f88152f35b503461026b57602036600319011261026b576020906001600160a01b03610b33612a47565b168152600a8252604060018060a01b0391205416604051908152f35b503461026b57604036600319011261026b576040610b6b612a5d565b9160043581526003602052209060018060a01b03165f52602052602060ff60405f2054166040519015158152f35b503461026b578060031936011261026b57546040516001600160a01b039091168152602090f35b503461026b57602036600319011261026b57600435906001600160401b03821161026b576020610bf33660048501612cbb565b8160405191805191829101835e600990820190815281900382019020546040516001600160a01b039091168152f35b503461026b578060031936011261026b576040517f00000000000000000000000000000000000000000000000000000000000000006001600160a01b03168152602090f35b503461026b57610c7636612a87565b9190815260056020526040812090815483101561026b576020610c998484612c47565b905460405160039290921b1c6001600160a01b03168152f35b503461026b57602036600319011261026b57600435610ccf613060565b808252600360209081526040808420335f908152925290205460ff16156112f05780825260116020526040822054806111c8575b50808252600460208181526040808520335f81815291845282822054868852600385528388208284528552838320805460ff191690558688529484528287209082529092529020839055905f51602061356e5f395f51905f5281036111c35780835260076020526040832060018060a01b0333165f5260205282610d93610d9a60405f2060405192838092612b48565b0382612c00565b805180611080575b5050505b60405191610db383612be5565b81835260208301338152604084019382855260608101428152604095865193610ddc8886612c00565b6004855263115e1a5d60e21b602086015260808401948552601254600160401b81101561106c57806001610e139201601255612d20565b94909461105857518455516001840180546001600160a01b0319166001600160a01b03929092169190911790555160028301555160038201559051805160049290920191906001600160401b038211610fc357610e7a82610e748554612b10565b85612d8e565b602090601f8311600114610ff657610e9b9291889183610feb575050612ddd565b90555b33845260136020528284206012545f19810191908211610fd757805490600160401b821015610fc35790610ed791600182018155612c47565b819291549060031b91821b915f19901b1916179055825163374e4d7360e01b815260208180610f0a863360048401612ff1565b0381887f00000000000000000000000000000000000000000000000000000000000000006001600160a01b03165af1908115610fb9578591610f76575b50610f60905f51602061354e5f395f51905f5292612f9a565b9280519384524260208501523393a36001805580f35b90506020813d602011610fb1575b81610f9160209383612c00565b81010312610fad57515f51602061354e5f395f51905f52610f47565b5f80fd5b3d9150610f84565b84513d87823e3d90fd5b634e487b7160e01b87526041600452602487fd5b634e487b7160e01b86526011600452602486fd5b015190505f806105ba565b8388528188209190601f198416895b8181106110405750908460019594939210611028575b505050811b019055610e9e565b01515f1960f88460031b161c191690555f808061101b565b92936020600181928786015181550195019301611005565b634e487b7160e01b8a5260048a905260248afd5b634e487b7160e01b8a52604160045260248afd5b81016020810191602081830312610675576020810151906001600160401b0382116111bf57019060a0908290031261066657604051906110bf82612be5565b6110cb6020820161300c565b82526110d96040820161300c565b6020830190815260608201519093906001600160401b0381116111bb5781602061110592850101613020565b60408401526080820151916001600160401b0383116111bb5761113160a0926020608095840101613020565b60608501520151910152516001600160a01b037f000000000000000000000000000000000000000000000000000000000000000081169116813b1561066657829160448392604051948593849263d977b66b60e01b845233600485015260248401525af1801561066a576111a6575b80610da2565b816111b091612c00565b61066657825f6111a0565b8580fd5b8480fd5b610da6565b6040516318581cf760e11b8152908382806111e7863360048401612ff1565b03817f00000000000000000000000000000000000000000000000000000000000000006001600160a01b03165afa9182156112e557849261128a575b508101809111611276574210611239575f610d03565b60405162461bcd60e51b8152602060048201526015602482015274131bd8dac8191d5c985d1a5bdb881b9bdd081b595d605a1b6044820152606490fd5b634e487b7160e01b83526011600452602483fd5b9091503d8085833e61129c8183612c00565b810160a0828203126111bf576060820151608083015190926001600160401b0382116106f657019080601f830112156111bb5781516112dd92602001612fbb565b50905f611223565b6040513d86823e3d90fd5b633a401ef360e21b825260045233602452604490fd5b503461026b578060031936011261026b5761131f61303a565b80546001600160a01b03198116825581906001600160a01b03165f5160206135ae5f395f51905f528280a380f35b503461026b57608036600319011261026b576004356001600160401b0381116107465761137e903690600401612c70565b906024356001600160401b0381116106755761139e903690600401612c70565b9092604435906064356001600160401b0381116106f6576113c3903690600401612a9d565b50506113cd613060565b338652600e60205260ff6040872054161561156d5782810361153657855b8181106113fa57866001805580f35b611405818387612f8a565b356001600160a01b038116908190036106fa57808852600c602052604088205484111561152d57808852600b602052604088205461144483878a612f8a565b3590808211156114d857606461145a8284612f9a565b116114a4575b50905f51602061360e5f395f51905f526040600194935b838c52600b60205280828d2055838c52600c60205287828d20558151908152876020820152a25b016113eb565b9050606481018091116114c4575f51602061360e5f395f51905f52611460565b634e487b7160e01b89526011600452602489fd5b8181116114fb575b50905f51602061360e5f395f51905f52604060019493611477565b60646115078383612f9a565b11156114e0576063198101915081116114c4575f51602061360e5f395f51905f526114e0565b5060019061149e565b60405162461bcd60e51b815260206004820152600f60248201526e098cadccee8d040dad2e6dac2e8c6d608b1b6044820152606490fd5b60405162461bcd60e51b815260206004820152601e60248201527f556e617574686f72697a65642052657075746174696f6e20536f7572636500006044820152606490fd5b503461026b576115c136612aca565b6115cc939293613060565b8285526002602052604085206040516115e481612bc9565b8154815260018201549160208201928352600281015460408301526003810154606083015260048101546080830152600581015460a0830152600681015460c0830152600781015460e0830152600961165960ff6008840154169261010085019315158452610d936040518094819301612b48565b61012083015251156119ab5784875260036020526040872060018060a01b0387165f5260205260ff60405f20541661198a57611696838587613222565b905180821061197257508487526003602090815260408089206001600160a01b0389165f818152918452828220805460ff19166001179055888b5260048452828b209082528352819020839055868952600590915287206116f8908790612d4d565b8487526007602090815260408089206001600160a01b0389165f90815292529020906001600160401b03841161195e57869061173885610e748554612b10565b889285601f81116001146118f5578061175c91602095968d916118ea575b50612ddd565b90555b8351604051635f7d2b8760e11b8152938492839261178392918b8360048701612def565b03818a7f00000000000000000000000000000000000000000000000000000000000000006001600160a01b03165af180156118b0576118bb575b506117ea60406117cf848689896133eb565b815180938192631f1f342160e11b8352898b60048501612e41565b03818a7f00000000000000000000000000000000000000000000000000000000000000006001600160a01b03165af19283156118b0575f5160206135ee5f395f51905f5294604094611862938a91611882575b50878a526006602052858a2060018060a01b038a165f52602052855f2055878761345c565b5181519081524260208201526001600160a01b0390941693a36001805580f35b6118a29150863d88116118a9575b61189a8183612c00565b810190612e22565b505f61183d565b503d611890565b6040513d89823e3d90fd5b6020813d6020116118e2575b816118d460209383612c00565b81010312610fad57516117bd565b3d91506118c7565b90508901355f611756565b50808a5260208a20601f19871694878c5b87811061194057506020959610611927575b5050600186811b01905561175f565b8801355f19600389901b60f8161c191690555f80611918565b8a83013584558c96506001909301926020928301928a925001611906565b634e487b7160e01b88526041600452602488fd5b6322df051360e11b8852600491909152602452604486fd5b631b753c1b60e21b875260048590526001600160a01b038616602452604487fd5b631b4b909b60e21b87526004859052602487fd5b503461026b57602036600319011261026b576119d9612a47565b5060206040516119e98282612c00565b8281526040805183815282518185018190529093600582901b850183019381019285015b828710611a1a5785850386f35b909192938280611a6b600193603f198a820301865260a060808a51805184528780841b0386820151168685015260408101516040850152606081015160608501520151918160808201520190612c23565b9601920196019592919092611a0d565b503461026b57604036600319011261026b57611a95612a47565b6024359081151590818303610675577f6be30291a8f228c9342613e5e66df1a1b85aa570ac1bca9219f3ac7b7f73bbf391611af0602092611ad461303a565b6001600160a01b0316808752600e845260408720909590612d3c565b604051908152a280f35b503461026b57602036600319011261026b57610d93611b2f6040610267936004358152600f6020522060405192838092612b48565b604051918291602083526020830190612c23565b503461026b57602036600319011261026b5760406020916004358152600583522054604051908152f35b503461026b578060031936011261026b5760206040515f51602061356e5f395f51905f528152f35b503461026b57604036600319011261026b576040611bb1612a5d565b9160043581526006602052209060018060a01b03165f52602052602060405f2054604051908152f35b503461026b57602036600319011261026b576020906040906001600160a01b03611c02612a47565b168152600b8352818120546001906102628110611c2e57505060065b8152600d83522054604051908152f35b60e98110611c4057505060055b611c1e565b60598110611c515750506004611c1e565b60228110611c625750506003611c1e565b600d11611c3b57506002611c1e565b503461026b57604036600319011261026b57611c8b612a47565b6001600160a01b031681526013602052604081208054602435929083101561026b576020611cb98484612c47565b90549060031b1c604051908152f35b5034610fad576060366003190112610fad576004356024356001600160401b038111610fad578060040190803603610140600319820112610fad576044356001600160a01b03811690819003610fad57611d2061303a565b5f858152601060205260409020546001600160a01b0316611f5757611d46811515612e68565b845f52600260205260405f2092843584556024810135600185015560448101356002850155606481013560038501556084810135600485015560a4810135600585015560c48101359283600686015560e482013594856007820155610104830135908115158203610fad57611dc060099260088301612d3c565b01916101248101359160221901821215610fad57016004810135906001600160401b038211610fad578136036024820113610fad57611e0382610e748554612b10565b5f90601f8311600114611eec57611e2392915f9183610679575050612ddd565b90555b5f85815260106020526040902080546001600160a01b03191690911790557f00000000000000000000000000000000000000000000000000000000000000006001600160a01b031691823b15610fad57611e9a925f9283604051809681958294636b26335560e11b84528b60048501612ea4565b03925af18015611ee157611eca575b5061064b5f51602061362e5f395f51905f5291604051918291429083612eba565b611ed79193505f90612c00565b5f9161064b611ea9565b6040513d5f823e3d90fd5b601f19831691845f5260205f20925f5b818110611f3c5750908460019594939210611f1f575b505050811b019055611e26565b6024910101355f19600384901b60f8161c191690555f8080611f12565b60248484010135855560019094019360209283019201611efc565b60405162461bcd60e51b8152602060048201526013602482015272526f6c6520616c72656164792065786973747360681b6044820152606490fd5b34610fad576040366003190112610fad57611fab612a5d565b6004355f52600760205260405f209060018060a01b03165f52602052610267610d93611b2f60405f2060405192838092612b48565b34610fad575f366003190112610fad576040517f00000000000000000000000000000000000000000000000000000000000000006001600160a01b03168152602090f35b34610fad5761203236612aca565b9261203e929192613060565b805f52600260205260405f206040519461205786612bc9565b8154865260018201549160208701928352600281015460408801526003810154606088015260048101546080880152600581015460a0880152600681015460c0880152600781015460e088015260096120cc60ff600884015416926101008a019315158452610d936040518094819301612b48565b610120880152511561248a57825f52600360205260405f2060018060a01b0385165f5260205260ff60405f20541661246b57335f9081525f5160206135ce5f395f51905f52602052604090205460ff161561242b5761212c818685613222565b955180871061241557505f8381526003602090815260408083206001600160a01b038816808552908352818420805460ff191660011790558684526004835281842090845282528083208990558583526005909152902061218e908590612d4d565b5f8381526007602090815260408083206001600160a01b038816845290915290206001600160401b038211612401576121d1826121cb8354612b10565b83612d8e565b5f601f831160011461239857966020916121f6848061221a9b5f9161238d5750612ddd565b90555b8351604051635f7d2b8760e11b815298899283923391898b60048701612def565b03815f7f00000000000000000000000000000000000000000000000000000000000000006001600160a01b03165af18015611ee15761235a575b61228295506040612267828787876133eb565b8151809881926362c00b1f60e11b8352878960048501612e41565b03815f7f00000000000000000000000000000000000000000000000000000000000000006001600160a01b03165af1948515611ee1576020965f96612320575b50916122fc6040925f5160206135ee5f395f51905f5294865f5260068a52845f2060018060a01b0389165f528a5288855f2055878761345c565b51815190815242878201526001600160a01b0390941693a360018055604051908152f35b5f5160206135ee5f395f51905f529391965060409261234e6122fc92853d87116118a95761189a8183612c00565b509792945092506122c2565b6020863d602011612385575b8161237360209383612c00565b81010312610fad576122829550612254565b3d9150612366565b90508a01358c611756565b601f19831690825f5260205f20915f5b8181106123e9575091602093918561221a9b94106123d0575b5050600184811b0190556121f9565b8901355f19600387901b60f8161c1916905589806123c1565b9192602060018192868d0135815501940192016123a8565b634e487b7160e01b5f52604160045260245ffd5b866322df051360e11b5f5260045260245260445ffd5b60405162461bcd60e51b815260206004820152601860248201527743616c6c6572206d75737420626520436f6d6d756e69747960401b6044820152606490fd5b5050631b753c1b60e21b5f5260045260018060a01b031660245260445ffd5b82631b4b909b60e21b5f5260045260245ffd5b34610fad576040366003190112610fad577f7e684e0b76ed13bc9cf7e4fbac7d11873036be9c9a83f9958382721eeda4601060406004356024356124df61303a565b815f52600d60205280835f205582519182526020820152a1005b34610fad576040366003190112610fad57612512612a5d565b6004355f52600360205260405f209060018060a01b03165f52602052602060ff60405f2054166040519015158152f35b34610fad576020366003190112610fad576001600160a01b03612563612a47565b165f52600b602052602060405f2054604051908152f35b34610fad575f366003190112610fad5760206040517f2024516755f401845808190bb830b0e4523d0df0845503cab52130a794699a0f8152f35b34610fad576040366003190112610fad576004356024356001600160401b038111610fad576125e7903690600401612a9d565b6125f2929192613060565b815f52600260205260405f20906040519361260c85612bc9565b8254855260018301549260208601938452600281015460408701526003810154606087015260048101546080870152600581015460a0870152600681015460c0870152600781015460e0870152600961268160ff6008840154169261010089019315158452610d936040518094819301612b48565b61012087015251156129a9575f84815260036020908152604080832033845290915290205460ff16612992576126b8828286613222565b945180861061297c57505f84815260036020908152604080832033808552908352818420805460ff1916600117905587845260048352818420818552835281842089905587845260059092529091206127119190612d4d565b5f8481526007602090815260408083203384529091529020946001600160401b0383116124015761274c836127468854612b10565b88612d8e565b5f95601f84116001146129125790602091612774858061279898999a5f916129075750612ddd565b90555b8551604051635f7d2b8760e11b8152958692839233918b8360048701612def565b03815f7f00000000000000000000000000000000000000000000000000000000000000006001600160a01b03165af18015611ee1576128d4575b612800925060406127e5838333896133eb565b815180958192631f1f342160e11b8352893360048501612e41565b03815f7f00000000000000000000000000000000000000000000000000000000000000006001600160a01b03165af18015611ee157612867935f916128b4575b50855f52600660205260405f2060018060a01b0333165f5260205260405f2055338561345c565b51604051908152426020820152815f5160206135ee5f395f51905f5260403393a3600180555f52600660205260405f2060018060a01b0333165f52602052602060405f2054604051908152f35b6128cd915060403d6040116118a95761189a8183612c00565b5086612840565b6020833d6020116128ff575b816128ed60209383612c00565b81010312610fad5761280092506127d2565b3d91506128e0565b90508601358b611756565b601f198416815f5260205f20905f5b8181106129645750906127989697988660209594931061294b575b5050600185811b019055612777565b8501355f19600388901b60f8161c19169055888061293c565b858a013583556020998a019960019093019201612921565b856322df051360e11b5f5260045260245260445ffd5b83631b753c1b60e21b5f526004523360245260445ffd5b83631b4b909b60e21b5f5260045260245ffd5b34610fad576129ca36612a87565b505060206040515f8152f35b34610fad576020366003190112610fad576129ef612a47565b5060405160206129ff8183612c00565b5f82525f368137604051918183928301818452825180915281604085019301915f5b828110612a3057505050500390f35b835185528695509381019392810192600101612a21565b600435906001600160a01b0382168203610fad57565b602435906001600160a01b0382168203610fad57565b35906001600160a01b0382168203610fad57565b6040906003190112610fad576004359060243590565b9181601f84011215610fad578235916001600160401b038311610fad5760208381860195010111610fad57565b6060600319820112610fad57600435916024356001600160a01b0381168103610fad5791604435906001600160401b038211610fad57612b0c91600401612a9d565b9091565b90600182811c92168015612b3e575b6020831014612b2a57565b634e487b7160e01b5f52602260045260245ffd5b91607f1691612b1f565b5f9291815491612b5783612b10565b8083529260018116908115612bac5750600114612b7357505050565b5f9081526020812093945091925b838310612b92575060209250010190565b600181602092949394548385870101520191019190612b81565b915050602093945060ff929192191683830152151560051b010190565b61014081019081106001600160401b0382111761240157604052565b60a081019081106001600160401b0382111761240157604052565b601f909101601f19168101906001600160401b0382119082101761240157604052565b805180835260209291819084018484015e5f828201840152601f01601f1916010190565b8054821015612c5c575f5260205f2001905f90565b634e487b7160e01b5f52603260045260245ffd5b9181601f84011215610fad578235916001600160401b038311610fad576020808501948460051b010111610fad57565b6001600160401b03811161240157601f01601f191660200190565b81601f82011215610fad57803590612cd282612ca0565b92612ce06040519485612c00565b82845260208383010111610fad57815f926020809301838601378301015290565b60208091604051928184925191829101835e8101600881520301902090565b601254811015612c5c5760125f52600560205f20910201905f90565b9060ff801983541691151516179055565b8054600160401b81101561240157612d6a91600182018155612c47565b81546001600160a01b0393841660039290921b91821b9390911b1916919091179055565b601f8211612d9b57505050565b5f5260205f20906020601f840160051c83019310612dd3575b601f0160051c01905b818110612dc8575050565b5f8155600101612dbd565b9091508190612db4565b8160011b915f199060031b1c19161790565b6001600160a01b039182168152602081019290925260408201929092526060810192909252909116608082015260a00190565b9190826040910312610fad57602082519201518015158103610fad5790565b612e65939260609260018060a01b0316825260208201528160408201520190612c23565b90565b15612e6f57565b60405162461bcd60e51b815260206004820152600d60248201526c24b73b30b634b21037bbb732b960991b6044820152606490fd5b6040919493926060820195825260208201520152565b92919060408452803560408501526020810135606085015260408101356080850152606081013560a0850152608081013560c085015260a081013560e085015260c081013561010085015260e0810135610120850152610100810135801515809103610fad57610140850152610120810135601e1982360301811215610fad57018035906020016001600160401b038211610fad578136038113610fad57816020926101a09261014061016089015281610180890152838801375f828288010152601f8019910116850101930152565b9190811015612c5c5760051b0190565b91908203918211612fa757565b634e487b7160e01b5f52601160045260245ffd5b929192612fc782612ca0565b91612fd56040519384612c00565b829481845281830111610fad578281602093845f96015e010152565b6001600160a01b039091168152602081019190915260400190565b51906001600160a01b0382168203610fad57565b9080601f83011215610fad578151612e6592602001612fbb565b5f546001600160a01b0316330361304d57565b63118cdaa760e01b5f523360045260245ffd5b600260015414613071576002600155565b633ee5aeb560e01b5f5260045ffd5b602081830312610fad578035906001600160401b038211610fad57019060a082820312610fad57604051916130b483612be5565b6130bd81612a73565b83526130cb60208201612a73565b602084015260408101356001600160401b038111610fad57826130ef918301612cbb565b604084015260608101356001600160401b038111610fad57608092613115918301612cbb565b60608401520135608082015290565b602081830312610fad578035906001600160401b038211610fad57019060c082820312610fad576040519160c083016001600160401b038111848210176124015760405280356001600160401b038111610fad5782613184918301612cbb565b835260208101356001600160401b038111610fad57826131a5918301612cbb565b602084015260408101356001600160401b038111610fad57826131c9918301612cbb565b604084015260608101356001600160401b038111610fad57826131ed918301612cbb565b606084015260808101356001600160401b038111610fad5760a092613213918301612cbb565b6080840152013560a082015290565b92915f5f51602061358e5f395f51905f5285036132f357509061324791810190613124565b805151156132bd5780516001600160a01b039061326390612d01565b541661328a5760a00151915b82156132785750565b9091505f52600260205260405f205490565b6040516305519d6f60e51b815260206004820152600a6024820152692730b6b2903a30b5b2b760b11b6044820152606490fd5b6040516305519d6f60e51b815260206004820152600d60248201526c13985b59481c995c5d5a5c9959609a1b6044820152606490fd5b5f51602061356e5f395f51905f52850361339e57509061331591810190613080565b5f51602061358e5f395f51905f525f90815260036020908152828101516001600160a01b031682525f5160206135ce5f395f51905f529052604090205460ff161561336457608001519161326f565b6040516305519d6f60e51b8152602060048201526011602482015270496e76616c696420636f6d6d756e69747960781b6044820152606490fd5b939190602081146133b1575b505061326f565b819294509060209181010312610fad5735915f806133aa565b6001600160a01b0390911681526040602082018190525f9082015260600190565b909291905f51602061356e5f395f51905f5214613428575050612e6561341a91604051928391602083016133ca565b03601f198101835282612c00565b61341a9250612e65916001600160a01b039160209161344a9190810190613080565b015116604051928391602083016133ca565b909291905f51602061358e5f395f51905f5281036134ef575080602092613484920190613124565b61348e8151612d01565b80546001600160a01b0319166001600160a01b03851617905501518051806134b557505050565b60209181839260405194859301835e60099082019081520301902080546001600160a01b0319166001600160a01b03909216919091179055565b5f51602061356e5f395f51905f521461350757505050565b6001600160a01b039161351d9190810190613080565b51165f908152600a6020526040812080546001600160a01b0319166001600160a01b03909316929092179091555056fe0d9361411a652b66cd4aed24a96d36c0b048899896c927d879a9d3ba2790d9c60c34ecc75d3bf122e0609d2576e167f53fb42429262ce8c9b33cab91ff670e3ae94d78b6d8fb99b2c21131eb4552924a60f564d8515a3cc90ef300fc9735c0748be0079c531659141344cd1fd0a4f28419497f9722a3daafe3b4186f6b6457e0ff2ee81dab119a3c44ab55016c33ff3eb0f6d539478c634479d44f3f915202dd2c48d754bbf59f20e71c13710fac35aa1ea020da58dcbb366de0ef7f75c9377dbb42fde0252fd03324102c3666f457311508c4dd05f96e66e0fd26f0c28e8542a012070f9d68d0a65b2623c3104bf3eee05c9dd5fd4e2ce7df410bbfcb8856b2a26469706673582212205259aa1c0e7fc7de7d4d35a1f0b17325383d35ebc94ddb36c09aab8491ded81564736f6c634300081c00336fb2b25080d21c908f32ff8ff99eb1d552c210854f7de48a40406764c09c68f8e94d78b6d8fb99b2c21131eb4552924a60f564d8515a3cc90ef300fc9735c0742024516755f401845808190bb830b0e4523d0df0845503cab52130a794699a0ff86d13979a91272f2c54c4147e588ecbeaad32dd1e0a5332a77356847049a70e3aa2e9509f29532b71f822e18bcde843a8070a508d564188ec8a6adf59eff28a","linkReferences":{}},"methodIdentifiers":{"GTOKEN_STAKING()":"826600ce","MYSBT()":"19c46e81","ROLE_COMMUNITY()":"a2d0020e","ROLE_ENDUSER()":"43e6a160","ROLE_KMS()":"9b1465a3","ROLE_PAYMASTER_AOA()":"bf0cb042","ROLE_PAYMASTER_SUPER()":"10fdfea7","VERSION()":"ffa1ad74","VERSION_CODE()":"e9763063","accountToUser(address)":"920983fb","batchUpdateGlobalReputation(address[],uint256[],uint256,bytes)":"6acb091f","burnHistory(uint256)":"b991118f","calculateExitFee(bytes32,uint256)":"07cf0ee9","checkRole(bytes32,address)":"12d9a6ad","communityByENSV3(string)":"86166d5d","communityByNameV3(string)":"d727cbd4","configureRole(bytes32,(uint256,uint256,uint256,uint256,uint256,uint256,uint256,uint256,bool,string))":"d5020895","createNewRole(bytes32,(uint256,uint256,uint256,uint256,uint256,uint256,uint256,uint256,bool,string),address)":"208fe7c4","creditTierConfig(uint256)":"af5eda02","exitRole(bytes32)":"727b52a5","getBurnHistory(address)":"62970f9b","getCreditLimit(address)":"2c333e25","getRoleConfig(bytes32)":"b5e936ab","getRoleUserCount(bytes32)":"4b8b8a6e","getUserRoles(address)":"06a36aee","globalReputation(address)":"11c85b0b","hasRole(bytes32,address)":"91d14854","isReputationSource(address)":"bf28c98a","lastReputationEpoch(address)":"e74c7bd7","owner()":"8da5cb5b","proposedRoleNames(bytes32)":"59dc9126","registerRole(bytes32,address,bytes)":"669d7762","registerRoleSelf(bytes32,bytes)":"0ab0c75e","renounceOwnership()":"715018a6","roleConfigs(bytes32)":"f538e1dc","roleLockDurations(bytes32)":"e350d77b","roleMembers(bytes32,uint256)":"7f528155","roleMetadata(bytes32,address)":"1cae0412","roleOwners(bytes32)":"aa9e8cf7","roleSBTTokenIds(bytes32,address)":"36db9caf","roleStakes(bytes32,address)":"c8ee23ef","safeMintForRole(bytes32,address,bytes)":"17e1c595","setCreditTier(uint256,uint256)":"15de32ca","setReputationSource(address,bool)":"6229738c","setRoleOwner(bytes32,address)":"a9d56523","transferOwnership(address)":"f2fde38b","userBurnHistory(address,uint256)":"26d9815c"},"id":24}