{"abi":[{"type":"constructor","inputs":[{"name":"_gtoken","type":"address","internalType":"address"},{"name":"_gtokenStaking","type":"address","internalType":"address"},{"name":"_mysbt","type":"address","internalType":"address"}],"stateMutability":"nonpayable"},{"type":"function","name":"GTOKEN_STAKING","inputs":[],"outputs":[{"name":"","type":"address","internalType":"contract IGTokenStakingV3"}],"stateMutability":"view"},{"type":"function","name":"MYSBT","inputs":[],"outputs":[{"name":"","type":"address","internalType":"contract IMySBTV3"}],"stateMutability":"view"},{"type":"function","name":"ROLE_COMMUNITY","inputs":[],"outputs":[{"name":"","type":"bytes32","internalType":"bytes32"}],"stateMutability":"view"},{"type":"function","name":"ROLE_ENDUSER","inputs":[],"outputs":[{"name":"","type":"bytes32","internalType":"bytes32"}],"stateMutability":"view"},{"type":"function","name":"ROLE_KMS","inputs":[],"outputs":[{"name":"","type":"bytes32","internalType":"bytes32"}],"stateMutability":"view"},{"type":"function","name":"ROLE_PAYMASTER_AOA","inputs":[],"outputs":[{"name":"","type":"bytes32","internalType":"bytes32"}],"stateMutability":"view"},{"type":"function","name":"ROLE_PAYMASTER_SUPER","inputs":[],"outputs":[{"name":"","type":"bytes32","internalType":"bytes32"}],"stateMutability":"view"},{"type":"function","name":"VERSION","inputs":[],"outputs":[{"name":"","type":"string","internalType":"string"}],"stateMutability":"view"},{"type":"function","name":"VERSION_CODE","inputs":[],"outputs":[{"name":"","type":"uint256","internalType":"uint256"}],"stateMutability":"view"},{"type":"function","name":"accountToUser","inputs":[{"name":"","type":"address","internalType":"address"}],"outputs":[{"name":"","type":"address","internalType":"address"}],"stateMutability":"view"},{"type":"function","name":"batchUpdateGlobalReputation","inputs":[{"name":"users","type":"address[]","internalType":"address[]"},{"name":"newScores","type":"uint256[]","internalType":"uint256[]"},{"name":"epoch","type":"uint256","internalType":"uint256"},{"name":"","type":"bytes","internalType":"bytes"}],"outputs":[],"stateMutability":"nonpayable"},{"type":"function","name":"burnHistory","inputs":[{"name":"","type":"uint256","internalType":"uint256"}],"outputs":[{"name":"roleId","type":"bytes32","internalType":"bytes32"},{"name":"user","type":"address","internalType":"address"},{"name":"amount","type":"uint256","internalType":"uint256"},{"name":"timestamp","type":"uint256","internalType":"uint256"},{"name":"reason","type":"string","internalType":"string"}],"stateMutability":"view"},{"type":"function","name":"calculateExitFee","inputs":[{"name":"","type":"bytes32","internalType":"bytes32"},{"name":"","type":"uint256","internalType":"uint256"}],"outputs":[{"name":"","type":"uint256","internalType":"uint256"}],"stateMutability":"pure"},{"type":"function","name":"checkRole","inputs":[{"name":"roleId","type":"bytes32","internalType":"bytes32"},{"name":"user","type":"address","internalType":"address"}],"outputs":[{"name":"","type":"bool","internalType":"bool"}],"stateMutability":"view"},{"type":"function","name":"communityByENSV3","inputs":[{"name":"","type":"string","internalType":"string"}],"outputs":[{"name":"","type":"address","internalType":"address"}],"stateMutability":"view"},{"type":"function","name":"communityByNameV3","inputs":[{"name":"","type":"string","internalType":"string"}],"outputs":[{"name":"","type":"address","internalType":"address"}],"stateMutability":"view"},{"type":"function","name":"configureRole","inputs":[{"name":"roleId","type":"bytes32","internalType":"bytes32"},{"name":"config","type":"tuple","internalType":"struct IRegistryV3.RoleConfig","components":[{"name":"minStake","type":"uint256","internalType":"uint256"},{"name":"entryBurn","type":"uint256","internalType":"uint256"},{"name":"slashThreshold","type":"uint256","internalType":"uint256"},{"name":"slashBase","type":"uint256","internalType":"uint256"},{"name":"slashIncrement","type":"uint256","internalType":"uint256"},{"name":"slashMax","type":"uint256","internalType":"uint256"},{"name":"exitFeePercent","type":"uint256","internalType":"uint256"},{"name":"minExitFee","type":"uint256","internalType":"uint256"},{"name":"isActive","type":"bool","internalType":"bool"},{"name":"description","type":"string","internalType":"string"}]}],"outputs":[],"stateMutability":"nonpayable"},{"type":"function","name":"createNewRole","inputs":[{"name":"roleId","type":"bytes32","internalType":"bytes32"},{"name":"config","type":"tuple","internalType":"struct IRegistryV3.RoleConfig","components":[{"name":"minStake","type":"uint256","internalType":"uint256"},{"name":"entryBurn","type":"uint256","internalType":"uint256"},{"name":"slashThreshold","type":"uint256","internalType":"uint256"},{"name":"slashBase","type":"uint256","internalType":"uint256"},{"name":"slashIncrement","type":"uint256","internalType":"uint256"},{"name":"slashMax","type":"uint256","internalType":"uint256"},{"name":"exitFeePercent","type":"uint256","internalType":"uint256"},{"name":"minExitFee","type":"uint256","internalType":"uint256"},{"name":"isActive","type":"bool","internalType":"bool"},{"name":"description","type":"string","internalType":"string"}]},{"name":"roleOwner","type":"address","internalType":"address"}],"outputs":[],"stateMutability":"nonpayable"},{"type":"function","name":"creditTierConfig","inputs":[{"name":"","type":"uint256","internalType":"uint256"}],"outputs":[{"name":"","type":"uint256","internalType":"uint256"}],"stateMutability":"view"},{"type":"function","name":"exitRole","inputs":[{"name":"roleId","type":"bytes32","internalType":"bytes32"}],"outputs":[],"stateMutability":"nonpayable"},{"type":"function","name":"getBurnHistory","inputs":[{"name":"user","type":"address","internalType":"address"}],"outputs":[{"name":"","type":"tuple[]","internalType":"struct IRegistryV3.BurnRecord[]","components":[{"name":"roleId","type":"bytes32","internalType":"bytes32"},{"name":"user","type":"address","internalType":"address"},{"name":"amount","type":"uint256","internalType":"uint256"},{"name":"timestamp","type":"uint256","internalType":"uint256"},{"name":"reason","type":"string","internalType":"string"}]}],"stateMutability":"view"},{"type":"function","name":"getCreditLimit","inputs":[{"name":"user","type":"address","internalType":"address"}],"outputs":[{"name":"","type":"uint256","internalType":"uint256"}],"stateMutability":"view"},{"type":"function","name":"getRoleConfig","inputs":[{"name":"roleId","type":"bytes32","internalType":"bytes32"}],"outputs":[{"name":"","type":"tuple","internalType":"struct IRegistryV3.RoleConfig","components":[{"name":"minStake","type":"uint256","internalType":"uint256"},{"name":"entryBurn","type":"uint256","internalType":"uint256"},{"name":"slashThreshold","type":"uint256","internalType":"uint256"},{"name":"slashBase","type":"uint256","internalType":"uint256"},{"name":"slashIncrement","type":"uint256","internalType":"uint256"},{"name":"slashMax","type":"uint256","internalType":"uint256"},{"name":"exitFeePercent","type":"uint256","internalType":"uint256"},{"name":"minExitFee","type":"uint256","internalType":"uint256"},{"name":"isActive","type":"bool","internalType":"bool"},{"name":"description","type":"string","internalType":"string"}]}],"stateMutability":"view"},{"type":"function","name":"getRoleUserCount","inputs":[{"name":"roleId","type":"bytes32","internalType":"bytes32"}],"outputs":[{"name":"","type":"uint256","internalType":"uint256"}],"stateMutability":"view"},{"type":"function","name":"getUserRoles","inputs":[{"name":"user","type":"address","internalType":"address"}],"outputs":[{"name":"","type":"bytes32[]","internalType":"bytes32[]"}],"stateMutability":"view"},{"type":"function","name":"globalReputation","inputs":[{"name":"","type":"address","internalType":"address"}],"outputs":[{"name":"","type":"uint256","internalType":"uint256"}],"stateMutability":"view"},{"type":"function","name":"hasRole","inputs":[{"name":"","type":"bytes32","internalType":"bytes32"},{"name":"","type":"address","internalType":"address"}],"outputs":[{"name":"","type":"bool","internalType":"bool"}],"stateMutability":"view"},{"type":"function","name":"isReputationSource","inputs":[{"name":"","type":"address","internalType":"address"}],"outputs":[{"name":"","type":"bool","internalType":"bool"}],"stateMutability":"view"},{"type":"function","name":"lastReputationEpoch","inputs":[{"name":"","type":"address","internalType":"address"}],"outputs":[{"name":"","type":"uint256","internalType":"uint256"}],"stateMutability":"view"},{"type":"function","name":"owner","inputs":[],"outputs":[{"name":"","type":"address","internalType":"address"}],"stateMutability":"view"},{"type":"function","name":"proposedRoleNames","inputs":[{"name":"","type":"bytes32","internalType":"bytes32"}],"outputs":[{"name":"","type":"string","internalType":"string"}],"stateMutability":"view"},{"type":"function","name":"registerRole","inputs":[{"name":"roleId","type":"bytes32","internalType":"bytes32"},{"name":"user","type":"address","internalType":"address"},{"name":"roleData","type":"bytes","internalType":"bytes"}],"outputs":[],"stateMutability":"nonpayable"},{"type":"function","name":"registerRoleSelf","inputs":[{"name":"roleId","type":"bytes32","internalType":"bytes32"},{"name":"roleData","type":"bytes","internalType":"bytes"}],"outputs":[{"name":"sbtTokenId","type":"uint256","internalType":"uint256"}],"stateMutability":"nonpayable"},{"type":"function","name":"renounceOwnership","inputs":[],"outputs":[],"stateMutability":"nonpayable"},{"type":"function","name":"roleConfigs","inputs":[{"name":"","type":"bytes32","internalType":"bytes32"}],"outputs":[{"name":"minStake","type":"uint256","internalType":"uint256"},{"name":"entryBurn","type":"uint256","internalType":"uint256"},{"name":"slashThreshold","type":"uint256","internalType":"uint256"},{"name":"slashBase","type":"uint256","internalType":"uint256"},{"name":"slashIncrement","type":"uint256","internalType":"uint256"},{"name":"slashMax","type":"uint256","internalType":"uint256"},{"name":"exitFeePercent","type":"uint256","internalType":"uint256"},{"name":"minExitFee","type":"uint256","internalType":"uint256"},{"name":"isActive","type":"bool","internalType":"bool"},{"name":"description","type":"string","internalType":"string"}],"stateMutability":"view"},{"type":"function","name":"roleLockDurations","inputs":[{"name":"","type":"bytes32","internalType":"bytes32"}],"outputs":[{"name":"","type":"uint256","internalType":"uint256"}],"stateMutability":"view"},{"type":"function","name":"roleMembers","inputs":[{"name":"","type":"bytes32","internalType":"bytes32"},{"name":"","type":"uint256","internalType":"uint256"}],"outputs":[{"name":"","type":"address","internalType":"address"}],"stateMutability":"view"},{"type":"function","name":"roleMetadata","inputs":[{"name":"","type":"bytes32","internalType":"bytes32"},{"name":"","type":"address","internalType":"address"}],"outputs":[{"name":"","type":"bytes","internalType":"bytes"}],"stateMutability":"view"},{"type":"function","name":"roleOwners","inputs":[{"name":"","type":"bytes32","internalType":"bytes32"}],"outputs":[{"name":"","type":"address","internalType":"address"}],"stateMutability":"view"},{"type":"function","name":"roleSBTTokenIds","inputs":[{"name":"","type":"bytes32","internalType":"bytes32"},{"name":"","type":"address","internalType":"address"}],"outputs":[{"name":"","type":"uint256","internalType":"uint256"}],"stateMutability":"view"},{"type":"function","name":"roleStakes","inputs":[{"name":"","type":"bytes32","internalType":"bytes32"},{"name":"","type":"address","internalType":"address"}],"outputs":[{"name":"","type":"uint256","internalType":"uint256"}],"stateMutability":"view"},{"type":"function","name":"safeMintForRole","inputs":[{"name":"roleId","type":"bytes32","internalType":"bytes32"},{"name":"user","type":"address","internalType":"address"},{"name":"data","type":"bytes","internalType":"bytes"}],"outputs":[{"name":"tokenId","type":"uint256","internalType":"uint256"}],"stateMutability":"nonpayable"},{"type":"function","name":"setCreditTier","inputs":[{"name":"level","type":"uint256","internalType":"uint256"},{"name":"limit","type":"uint256","internalType":"uint256"}],"outputs":[],"stateMutability":"nonpayable"},{"type":"function","name":"setReputationSource","inputs":[{"name":"source","type":"address","internalType":"address"},{"name":"active","type":"bool","internalType":"bool"}],"outputs":[],"stateMutability":"nonpayable"},{"type":"function","name":"transferOwnership","inputs":[{"name":"newOwner","type":"address","internalType":"address"}],"outputs":[],"stateMutability":"nonpayable"},{"type":"function","name":"userBurnHistory","inputs":[{"name":"","type":"address","internalType":"address"},{"name":"","type":"uint256","internalType":"uint256"}],"outputs":[{"name":"","type":"uint256","internalType":"uint256"}],"stateMutability":"view"},{"type":"event","name":"BurnExecuted","inputs":[{"name":"user","type":"address","indexed":true,"internalType":"address"},{"name":"roleId","type":"bytes32","indexed":true,"internalType":"bytes32"},{"name":"amount","type":"uint256","indexed":false,"internalType":"uint256"},{"name":"reason","type":"string","indexed":false,"internalType":"string"}],"anonymous":false},{"type":"event","name":"CreditTierUpdated","inputs":[{"name":"level","type":"uint256","indexed":false,"internalType":"uint256"},{"name":"creditLimit","type":"uint256","indexed":false,"internalType":"uint256"}],"anonymous":false},{"type":"event","name":"GlobalReputationUpdated","inputs":[{"name":"user","type":"address","indexed":true,"internalType":"address"},{"name":"newScore","type":"uint256","indexed":false,"internalType":"uint256"},{"name":"epoch","type":"uint256","indexed":false,"internalType":"uint256"}],"anonymous":false},{"type":"event","name":"OwnershipTransferred","inputs":[{"name":"previousOwner","type":"address","indexed":true,"internalType":"address"},{"name":"newOwner","type":"address","indexed":true,"internalType":"address"}],"anonymous":false},{"type":"event","name":"ReputationSourceUpdated","inputs":[{"name":"source","type":"address","indexed":true,"internalType":"address"},{"name":"isActive","type":"bool","indexed":false,"internalType":"bool"}],"anonymous":false},{"type":"event","name":"RoleConfigured","inputs":[{"name":"roleId","type":"bytes32","indexed":true,"internalType":"bytes32"},{"name":"config","type":"tuple","indexed":false,"internalType":"struct IRegistryV3.RoleConfig","components":[{"name":"minStake","type":"uint256","internalType":"uint256"},{"name":"entryBurn","type":"uint256","internalType":"uint256"},{"name":"slashThreshold","type":"uint256","internalType":"uint256"},{"name":"slashBase","type":"uint256","internalType":"uint256"},{"name":"slashIncrement","type":"uint256","internalType":"uint256"},{"name":"slashMax","type":"uint256","internalType":"uint256"},{"name":"exitFeePercent","type":"uint256","internalType":"uint256"},{"name":"minExitFee","type":"uint256","internalType":"uint256"},{"name":"isActive","type":"bool","internalType":"bool"},{"name":"description","type":"string","internalType":"string"}]},{"name":"timestamp","type":"uint256","indexed":false,"internalType":"uint256"}],"anonymous":false},{"type":"event","name":"RoleExited","inputs":[{"name":"roleId","type":"bytes32","indexed":true,"internalType":"bytes32"},{"name":"user","type":"address","indexed":true,"internalType":"address"},{"name":"exitFee","type":"uint256","indexed":false,"internalType":"uint256"},{"name":"timestamp","type":"uint256","indexed":false,"internalType":"uint256"}],"anonymous":false},{"type":"event","name":"RoleRegistered","inputs":[{"name":"roleId","type":"bytes32","indexed":true,"internalType":"bytes32"},{"name":"user","type":"address","indexed":true,"internalType":"address"},{"name":"burnAmount","type":"uint256","indexed":false,"internalType":"uint256"},{"name":"timestamp","type":"uint256","indexed":false,"internalType":"uint256"}],"anonymous":false},{"type":"error","name":"InsufficientStake","inputs":[{"name":"provided","type":"uint256","internalType":"uint256"},{"name":"required","type":"uint256","internalType":"uint256"}]},{"type":"error","name":"InvalidParameter","inputs":[{"name":"message","type":"string","internalType":"string"}]},{"type":"error","name":"OwnableInvalidOwner","inputs":[{"name":"owner","type":"address","internalType":"address"}]},{"type":"error","name":"OwnableUnauthorizedAccount","inputs":[{"name":"account","type":"address","internalType":"address"}]},{"type":"error","name":"ReentrancyGuardReentrantCall","inputs":[]},{"type":"error","name":"RoleAlreadyGranted","inputs":[{"name":"roleId","type":"bytes32","internalType":"bytes32"},{"name":"user","type":"address","internalType":"address"}]},{"type":"error","name":"RoleNotConfigured","inputs":[{"name":"roleId","type":"bytes32","internalType":"bytes32"}]},{"type":"error","name":"RoleNotGranted","inputs":[{"name":"roleId","type":"bytes32","internalType":"bytes32"},{"name":"user","type":"address","internalType":"address"}]}],"bytecode":{"object":"0x60c0604052346116ed576150bd6060813803918261001c81611711565b9384928339810103126116ed5761003281611736565b5061004b604061004460208401611736565b9201611736565b33156116da575f8054336001600160a01b0319821681178355604051949290916001600160a01b0316907f8be0079c531659141344cd1fd0a4f28419497f9722a3daafe3b4186f6b6457e09080a3600180556001600160a01b03169182156116a657506001600160a01b03169081156116735760805260a0526100ce6040611711565b600d81526c20a7a0902830bcb6b0b9ba32b960991b602082015260096100f26116f1565b6801a055690d9db8000081526729a2241af62c00006020808301918252600a6040840181815260026060860181815260016080880181815260a089019586526103e860c08a01908152670de0b6b3a764000060e08b019081526101008b019384526101208b019c8d525f51602061507d5f395f51905f525f529490975297517f62cab8ae2b11b8b89a6aeec867aea04066879f1332e69de6e580ce3c9df2d8da90815596517f62cab8ae2b11b8b89a6aeec867aea04066879f1332e69de6e580ce3c9df2d8db5592517f62cab8ae2b11b8b89a6aeec867aea04066879f1332e69de6e580ce3c9df2d8dc55517f62cab8ae2b11b8b89a6aeec867aea04066879f1332e69de6e580ce3c9df2d8dd5594517f62cab8ae2b11b8b89a6aeec867aea04066879f1332e69de6e580ce3c9df2d8de5590517f62cab8ae2b11b8b89a6aeec867aea04066879f1332e69de6e580ce3c9df2d8df5590517f62cab8ae2b11b8b89a6aeec867aea04066879f1332e69de6e580ce3c9df2d8e05591517f62cab8ae2b11b8b89a6aeec867aea04066879f1332e69de6e580ce3c9df2d8e15590516102be9015157f62cab8ae2b11b8b89a6aeec867aea04066879f1332e69de6e580ce3c9df2d8e261174a565b01905190815160018060401b0381116112c2578154600181811c91168015611669575b60208210146112a457601f8111611624575b50602092601f82116001146115c557928192935f926115ba575b50508160011b915f199060031b1c19161790555b5f51602061507d5f395f51905f525f5260106020527f413f8e704dfa69286ceea633003bb8d41c2205618c221ad684c62f493ad2294780546001600160a01b031916331790556103716040611711565b600e81526d29bab832b92830bcb6b0b9ba32b960911b602082015260096103966116f1565b6802b5e3af16b18800008152674563918244f400006020808301918252600a6040840181815260026060860181815260016080880181815260a089019586526103e860c08a01908152671bc16d674ec8000060e08b019081526101008b019384526101208b019c8d525f51602061505d5f395f51905f525f529490975297517fb4741b428dfef425fc3add4e8f8bd29f7934ab6d611612e2205aa0df7d64747590815596517fb4741b428dfef425fc3add4e8f8bd29f7934ab6d611612e2205aa0df7d6474765592517fb4741b428dfef425fc3add4e8f8bd29f7934ab6d611612e2205aa0df7d64747755517fb4741b428dfef425fc3add4e8f8bd29f7934ab6d611612e2205aa0df7d6474785594517fb4741b428dfef425fc3add4e8f8bd29f7934ab6d611612e2205aa0df7d6474795590517fb4741b428dfef425fc3add4e8f8bd29f7934ab6d611612e2205aa0df7d64747a5590517fb4741b428dfef425fc3add4e8f8bd29f7934ab6d611612e2205aa0df7d64747b5591517fb4741b428dfef425fc3add4e8f8bd29f7934ab6d611612e2205aa0df7d64747c5590516105629015157fb4741b428dfef425fc3add4e8f8bd29f7934ab6d611612e2205aa0df7d64747d61174a565b01905190815160018060401b0381116112c2578154600181811c911680156115b0575b60208210146112a457601f811161156b575b50602092601f821160011461150c57928192935f92611501575b50508160011b915f199060031b1c19161790555b5f51602061505d5f395f51905f525f5260106020527f50548ca8d22fb24dd757378b076c9d51067404597318263fe14d95981af7363f80546001600160a01b031916331790556106156040611711565b6005815264414e4f444560d81b602082015260096106316116f1565b6801158e460913d000008152671bc16d674ec800006020808301918252600f6040840190815260016060850181815260808601828152600560a088019081526103e860c08901908152670de0b6b3a764000060e08a019081526101008a019586526101208a019b8c525f51602061509d5f395f51905f525f52600290975297517f94c8b539f4346cacec6243d5b4361ab263597bfb2e961081d902fe6ff26e24a590815596517f94c8b539f4346cacec6243d5b4361ab263597bfb2e961081d902fe6ff26e24a65593517f94c8b539f4346cacec6243d5b4361ab263597bfb2e961081d902fe6ff26e24a75590517f94c8b539f4346cacec6243d5b4361ab263597bfb2e961081d902fe6ff26e24a855517f94c8b539f4346cacec6243d5b4361ab263597bfb2e961081d902fe6ff26e24a95590517f94c8b539f4346cacec6243d5b4361ab263597bfb2e961081d902fe6ff26e24aa5592517f94c8b539f4346cacec6243d5b4361ab263597bfb2e961081d902fe6ff26e24ab55517f94c8b539f4346cacec6243d5b4361ab263597bfb2e961081d902fe6ff26e24ac5590516107fd9015157f94c8b539f4346cacec6243d5b4361ab263597bfb2e961081d902fe6ff26e24ad61174a565b01905190815160018060401b0381116112c2578154600181811c911680156114f7575b60208210146112a457601f81116114b2575b50602092601f821160011461145357928192935f92611448575b50508160011b915f199060031b1c19161790555b5f51602061509d5f395f51905f525f5260106020527fe5221cb99999323965d85b84c912b8744e9cbcaca07c9ed2c528b499ee7bbc6b80546001600160a01b031916331790556108b06040611711565b60038152624b4d5360e81b602082015260096108ca6116f1565b68056bc75e2d631000008152678ac7230489e80000602080830191825260056040840181815260608501918252600260808601818152601460a088019081526103e860c08901908152674563918244f4000060e08a0190815260016101008b019081526101208b019c8d525f51602061501d5f395f51905f525f529490975297517fb6d6f2ef81599646430ffd77c4fd3b257cab16577a0a1dc7b59269fa85f7076190815596517fb6d6f2ef81599646430ffd77c4fd3b257cab16577a0a1dc7b59269fa85f707625592517fb6d6f2ef81599646430ffd77c4fd3b257cab16577a0a1dc7b59269fa85f707635592517fb6d6f2ef81599646430ffd77c4fd3b257cab16577a0a1dc7b59269fa85f707645591517fb6d6f2ef81599646430ffd77c4fd3b257cab16577a0a1dc7b59269fa85f7076555517fb6d6f2ef81599646430ffd77c4fd3b257cab16577a0a1dc7b59269fa85f707665592517fb6d6f2ef81599646430ffd77c4fd3b257cab16577a0a1dc7b59269fa85f7076755517fb6d6f2ef81599646430ffd77c4fd3b257cab16577a0a1dc7b59269fa85f70768559051610a979015157fb6d6f2ef81599646430ffd77c4fd3b257cab16577a0a1dc7b59269fa85f7076961174a565b01905190815160018060401b0381116112c2578154600181811c9116801561143e575b60208210146112a457601f81116113f9575b50602092601f821160011461139a57928192935f9261138f575b50508160011b915f199060031b1c19161790555b5f51602061501d5f395f51905f525f5260106020527f56120646997546de0a4b799f27c2ec69164d8d6054cb12e0782cb7789559d68480546001600160a01b03191633179055610b4a6040611711565b6009815268436f6d6d756e69747960b81b60208201526009610b6a6116f1565b678ac7230489e800008152670de0b6b3a76400006020808301918252600a6040840181815260026060860181815260016080880181815260a089019586526103e860c08a019081526706f05b59d3b2000060e08b019081526101008b019384526101208b019c8d525f51602061503d5f395f51905f525f529490975297517fe7952ca73c012fd94dc1983a49b24a9ff27c985c27245c669928b72e5714189a90815596517fe7952ca73c012fd94dc1983a49b24a9ff27c985c27245c669928b72e5714189b5592517fe7952ca73c012fd94dc1983a49b24a9ff27c985c27245c669928b72e5714189c55517fe7952ca73c012fd94dc1983a49b24a9ff27c985c27245c669928b72e5714189d5594517fe7952ca73c012fd94dc1983a49b24a9ff27c985c27245c669928b72e5714189e5590517fe7952ca73c012fd94dc1983a49b24a9ff27c985c27245c669928b72e5714189f5590517fe7952ca73c012fd94dc1983a49b24a9ff27c985c27245c669928b72e571418a05591517fe7952ca73c012fd94dc1983a49b24a9ff27c985c27245c669928b72e571418a1559051610d359015157fe7952ca73c012fd94dc1983a49b24a9ff27c985c27245c669928b72e571418a261174a565b01905190815160018060401b0381116112c2578154600181811c91168015611385575b60208210146112a457601f8111611340575b50602092601f82116001146112e157928192935f926112d6575b50508160011b915f199060031b1c19161790555b5f51602061503d5f395f51905f525f5260106020527f01b4e3122866af6b78c3743e9fa35f8de4551fa2682a4b0c7ba5b7d01fb5fc4880546001600160a01b03191633179055610de86040611711565b600781526622b7322ab9b2b960c91b60208201526009610e066116f1565b670429d069189e0000815266b1a2bc2ec5000060208083018281525f60408501818152606086018281526080870183815260a088018481526103e860c08a0190815260e08a0198895260016101008b019081526101208b019c8d527f0c34ecc75d3bf122e0609d2576e167f53fb42429262ce8c9b33cab91ff670e3a909652600290975297517f81f7a8f564b61e7963bfdc536ab87a0854d48d19c43323c1f4c080720d74681590815594517f81f7a8f564b61e7963bfdc536ab87a0854d48d19c43323c1f4c080720d7468165591517f81f7a8f564b61e7963bfdc536ab87a0854d48d19c43323c1f4c080720d74681755517f81f7a8f564b61e7963bfdc536ab87a0854d48d19c43323c1f4c080720d74681855517f81f7a8f564b61e7963bfdc536ab87a0854d48d19c43323c1f4c080720d7468195593517f81f7a8f564b61e7963bfdc536ab87a0854d48d19c43323c1f4c080720d74681a5590517f81f7a8f564b61e7963bfdc536ab87a0854d48d19c43323c1f4c080720d74681b5590517f81f7a8f564b61e7963bfdc536ab87a0854d48d19c43323c1f4c080720d74681c559051610fd89015157f81f7a8f564b61e7963bfdc536ab87a0854d48d19c43323c1f4c080720d74681d61174a565b01905190815160018060401b0381116112c2578154600181811c911680156112b8575b60208210146112a457601f811161125f575b50602092601f821160011461120057928192935f926111f5575b50508160011b915f199060031b1c19161790555b7f48321f0c6d92a6c32306ec23130880ef8feb85690265117eed2314f0e6488d6080546001600160a01b031916339081179091555f7ffd54ff1ed53f34a900b24c5ba64f85761163b5d82d98a47b9bd80e45466993c581905568056bc75e2d631000007f10a81eed9d63d16face5e76357905348e6253d3394086026bb2bf2145d7cc24955681043561a88293000007f26b4a10d0f0b04925c23bd4480ee147c916e5e87a7d68206a533dad160ac81e255682086ac3510526000007fafafe8948a4ed9d478b1e9a5780b119b5edd00ea7d07bc35bef7c814824eb94b55683635c9adc5dea000007fa5049387d9cb649c59f4bda666105ba636c2a103d8e2b232ba4d125737cd214955686c6b935b8bbd4000007fa48544818c2c710afa9849c61ec9c60e8acdb3eaa2885f33b37e118cc8fd04ac55908152600e602052604090819020805460ff19166001179055516138c1908161175c82396080518181816105b401528181610bae01528181610e8501528181611161015281816117e001528181611e99015281816122a70152612856015260a0518181816110bc015281816118460152818161207d0152818161230f01526128bc0152f35b015190505f80611027565b601f19821693835f52805f20915f5b868110611247575083600195961061122f575b505050811b01905561103b565b01515f1960f88460031b161c191690555f8080611222565b9192602060018192868501518155019401920161120f565b825f5260205f20601f830160051c8101916020841061129a575b601f0160051c01905b81811061128f575061100d565b5f8155600101611282565b9091508190611279565b634e487b7160e01b5f52602260045260245ffd5b90607f1690610ffb565b634e487b7160e01b5f52604160045260245ffd5b015190505f80610d84565b601f19821693835f52805f20915f5b8681106113285750836001959610611310575b505050811b019055610d98565b01515f1960f88460031b161c191690555f8080611303565b919260206001819286850151815501940192016112f0565b825f5260205f20601f830160051c8101916020841061137b575b601f0160051c01905b8181106113705750610d6a565b5f8155600101611363565b909150819061135a565b90607f1690610d58565b015190505f80610ae6565b601f19821693835f52805f20915f5b8681106113e157508360019596106113c9575b505050811b019055610afa565b01515f1960f88460031b161c191690555f80806113bc565b919260206001819286850151815501940192016113a9565b825f5260205f20601f830160051c81019160208410611434575b601f0160051c01905b8181106114295750610acc565b5f815560010161141c565b9091508190611413565b90607f1690610aba565b015190505f8061084c565b601f19821693835f52805f20915f5b86811061149a5750836001959610611482575b505050811b019055610860565b01515f1960f88460031b161c191690555f8080611475565b91926020600181928685015181550194019201611462565b825f5260205f20601f830160051c810191602084106114ed575b601f0160051c01905b8181106114e25750610832565b5f81556001016114d5565b90915081906114cc565b90607f1690610820565b015190505f806105b1565b601f19821693835f52805f20915f5b868110611553575083600195961061153b575b505050811b0190556105c5565b01515f1960f88460031b161c191690555f808061152e565b9192602060018192868501518155019401920161151b565b825f5260205f20601f830160051c810191602084106115a6575b601f0160051c01905b81811061159b5750610597565b5f815560010161158e565b9091508190611585565b90607f1690610585565b015190505f8061030d565b601f19821693835f52805f20915f5b86811061160c57508360019596106115f4575b505050811b019055610321565b01515f1960f88460031b161c191690555f80806115e7565b919260206001819286850151815501940192016115d4565b825f5260205f20601f830160051c8101916020841061165f575b601f0160051c01905b81811061165457506102f3565b5f8155600101611647565b909150819061163e565b90607f16906102e1565b60405162461bcd60e51b815260206004820152600b60248201526a125b9d985b1a590814d09560aa1b6044820152606490fd5b62461bcd60e51b815260206004820152600f60248201526e496e76616c6964205374616b696e6760881b6044820152606490fd5b631e4fbdf760e01b5f525f60045260245ffd5b5f80fd5b6040519061014082016001600160401b038111838210176112c257604052565b6040519190601f01601f191682016001600160401b038111838210176112c257604052565b51906001600160a01b03821682036116ed57565b9060ff80198354169115151617905556fe60806040526004361015610011575f80fd5b5f5f3560e01c806306a36aee14612a8857806307cf0ee914612a6e5780630ab0c75e1461263c57806310fdfea71461260257806311c85b0b146125ca57806312d9a6ad1461258157806315de32ca1461252557806317e1c595146120ac57806319c46e81146120685780631cae04121461201a578063208fe7c414611d2057806326d9815c14611cc95780632c333e2514611c3257806336db9caf14611bed57806343e6a16014611bc55780634b8b8a6e14611b9b57806359dc912614611b525780636229738c14611ad357806362970f9b14611a17578063669d7762146115285780636acb091f146112c3578063715018a61461127c578063727b52a514610c285780637f52815514610bdd578063826600ce14610b9857806386166d5d14610b365780638da5cb5b14610b0f57806391d1485414610ac5578063920983fb14610a845780639b1465a314610a49578063a2d0020e14610a21578063aa9e8cf7146109ee578063af5eda02146109c4578063b5e936ab1461086e578063b991118f146107e3578063bf0cb042146107a8578063bf28c98a14610769578063c8ee23ef14610724578063d502089514610470578063d727cbd41461040e578063e350d77b146103e4578063e74c7bd7146103ab578063e97630631461038e578063f2fde38b1461031b578063f538e1dc146102635763ffa1ad7414610214575f80fd5b346102605780600319360112610260575061025c604051610236604082612cb2565b60058152640332e302e360dc1b6020820152604051918291602083526020830190612cd5565b0390f35b80fd5b5034610260576020366003190112610260576040906004358152600260205220805461025c60096001840154936002810154600382015460048301546005840154906006850154926007860154946102d460ff600889015416976102cd604051809b819301612bfa565b0389612cb2565b6040519a8b9a8b5260208b015260408a01526060890152608088015260a087015260c086015260e08501521515610100840152610140610120840152610140830190612cd5565b503461026057602036600319011261026057610335612af9565b61033d6130b0565b6001600160a01b0316801561037a5781546001600160a01b03198116821783556001600160a01b03165f5160206137ec5f395f51905f528380a380f35b631e4fbdf760e01b82526004829052602482fd5b503461026057806003193601126102605760206040516175308152f35b5034610260576020366003190112610260576020906040906001600160a01b036103d3612af9565b168152600c83522054604051908152f35b50346102605760203660031901126102605760406020916004358152601183522054604051908152f35b503461026057602036600319011261026057600435906001600160401b0382116102605760206104413660048501612d6d565b8160405191805191829101835e600890820190815281900382019020546040516001600160a01b039091168152f35b503461026057604036600319011261026057602435906004356001600160401b038311610720578260040183360361014060031982011261066357828452601060205260408420546001600160a01b031633036106ec5782845260026020526040842090823582556024860135600183015560448601356002830155606486013560038301556084860135600483015560a4860135600583015560c48601359081600684015560e48701359283600782015561010488013580151581036106e8579061054160099260088301612dee565b019661012481013591602219018212156106e457019560048701356001600160401b0381116106e45780360360248901136106e45761058a816105848454612bc2565b84612e40565b86601f82116001146106755790806105af92899a8a98999a92610667575b5050612e8f565b90555b7f00000000000000000000000000000000000000000000000000000000000000006001600160a01b031691823b156106635761060892849283604051809681958294636b26335560e11b84528c60048501612f1a565b03925af180156106585761063f575b50506106395f51602061386c5f395f51905f5291604051918291429083612f30565b0390a280f35b8161064991612cb2565b61065457825f610617565b8280fd5b6040513d84823e3d90fd5b8380fd5b016024013590505f806105a8565b8288526020882090601f198316895b8181106106c95750998392916001948b9c9b999a9b106106ac575b505050811b0190556105b2565b6024910101355f19600384901b60f8161c191690555f808061069f565b60248c84010135845560019093019260209283019201610684565b8680fd5b8780fd5b60405162461bcd60e51b815260206004820152600c60248201526b155b985d5d1a1bdc9a5e995960a21b6044820152606490fd5b5080fd5b5034610260576040366003190112610260576040610740612b0f565b9160043581526004602052209060018060a01b03165f52602052602060405f2054604051908152f35b50346102605760203660031901126102605760209060ff906040906001600160a01b03610794612af9565b168152600e84522054166040519015158152f35b503461026057806003193601126102605760206040517ff86d13979a91272f2c54c4147e588ecbeaad32dd1e0a5332a77356847049a70e8152f35b5034610260576020366003190112610260576004356012548110156107205761080b90612dd2565b50805461025c600460018060a01b0360018501541693600281015461084660038301549261083f6040518096819301612bfa565b0384612cb2565b604051958695865260208601526040850152606084015260a0608084015260a0830190612cd5565b5034610260576020366003190112610260576040906060610120835161089381612c7b565b838152836020820152838582015283838201528360808201528360a08201528360c08201528360e082015283610100820152015260043581526002602052206040516108de81612c7b565b8154815261025c60096001840154936020840194855260028101546040850190815260038201546060860190815260048301546080870190815260058401549060a0880191825260068501549260c0890193845260078601549460e08a0195865261096560ff600889015416976101008c0198151589526102cd604051809b819301612bfa565b6101208a019788526040519a8b9a60208c525160208c01525160408b01525160608a01525160808901525160a08801525160c08701525160e0860152516101008501525115156101208401525161014080840152610160830190612cd5565b50346102605760203660031901126102605760406020916004358152600d83522054604051908152f35b503461026057602036600319011261026057602090600435815260108252604060018060a01b0391205416604051908152f35b503461026057806003193601126102605760206040515f5160206137cc5f395f51905f528152f35b503461026057806003193601126102605760206040517f6fb2b25080d21c908f32ff8ff99eb1d552c210854f7de48a40406764c09c68f88152f35b5034610260576020366003190112610260576020906001600160a01b03610aa9612af9565b168152600a8252604060018060a01b0391205416604051908152f35b5034610260576040366003190112610260576040610ae1612b0f565b9160043581526003602052209060018060a01b03165f52602052602060ff60405f2054166040519015158152f35b5034610260578060031936011261026057546040516001600160a01b039091168152602090f35b503461026057602036600319011261026057600435906001600160401b038211610260576020610b693660048501612d6d565b8160405191805191829101835e600990820190815281900382019020546040516001600160a01b039091168152f35b50346102605780600319360112610260576040517f00000000000000000000000000000000000000000000000000000000000000006001600160a01b03168152602090f35b503461026057610bec36612b39565b91908152600560205260408120908154831015610260576020610c0f8484612cf9565b905460405160039290921b1c6001600160a01b03168152f35b503461026057602036600319011261026057600435610c456130d6565b808252600360209081526040808420335f908152925290205460ff161561126657808252601160205260408220548061113e575b50808252600460208181526040808520335f81815291845282822054868852600385528388208284528552838320805460ff191690558688529484528287209082529092529020839055905f5160206137ac5f395f51905f5281036111395780835260076020526040832060018060a01b0333165f5260205282610d09610d1060405f2060405192838092612bfa565b0382612cb2565b805180610ff6575b5050505b60405191610d2983612c97565b81835260208301338152604084019382855260608101428152604095865193610d528886612cb2565b6004855263115e1a5d60e21b602086015260808401948552601254600160401b811015610fe257806001610d899201601255612dd2565b949094610fce57518455516001840180546001600160a01b0319166001600160a01b03929092169190911790555160028301555160038201559051805160049290920191906001600160401b038211610f3957610df082610dea8554612bc2565b85612e40565b602090601f8311600114610f6c57610e119291889183610f61575050612e8f565b90555b33845260136020528284206012545f19810191908211610f4d57805490600160401b821015610f395790610e4d91600182018155612cf9565b819291549060031b91821b915f19901b1916179055825163374e4d7360e01b815260208180610e80863360048401613067565b0381887f00000000000000000000000000000000000000000000000000000000000000006001600160a01b03165af1908115610f2f578591610eec575b50610ed6905f51602061378c5f395f51905f5292613010565b9280519384524260208501523393a36001805580f35b90506020813d602011610f27575b81610f0760209383612cb2565b81010312610f2357515f51602061378c5f395f51905f52610ebd565b5f80fd5b3d9150610efa565b84513d87823e3d90fd5b634e487b7160e01b87526041600452602487fd5b634e487b7160e01b86526011600452602486fd5b015190505f806105a8565b8388528188209190601f198416895b818110610fb65750908460019594939210610f9e575b505050811b019055610e14565b01515f1960f88460031b161c191690555f8080610f91565b92936020600181928786015181550195019301610f7b565b634e487b7160e01b8a5260048a905260248afd5b634e487b7160e01b8a52604160045260248afd5b81016020810191602081830312610663576020810151906001600160401b03821161113557019060a09082900312610654576040519061103582612c97565b61104160208201613082565b825261104f60408201613082565b6020830190815260608201519093906001600160401b0381116111315781602061107b92850101613096565b60408401526080820151916001600160401b038311611131576110a760a0926020608095840101613096565b60608501520151910152516001600160a01b037f000000000000000000000000000000000000000000000000000000000000000081169116813b1561065457829160448392604051948593849263d977b66b60e01b845233600485015260248401525af180156106585761111c575b80610d18565b8161112691612cb2565b61065457825f611116565b8580fd5b8480fd5b610d1c565b6040516318581cf760e11b81529083828061115d863360048401613067565b03817f00000000000000000000000000000000000000000000000000000000000000006001600160a01b03165afa91821561125b578492611200575b5081018091116111ec5742106111af575f610c79565b60405162461bcd60e51b8152602060048201526015602482015274131bd8dac8191d5c985d1a5bdb881b9bdd081b595d605a1b6044820152606490fd5b634e487b7160e01b83526011600452602483fd5b9091503d8085833e6112128183612cb2565b810160a082820312611135576060820151608083015190926001600160401b0382116106e457019080601f8301121561113157815161125392602001613031565b50905f611199565b6040513d86823e3d90fd5b633a401ef360e21b825260045233602452604490fd5b50346102605780600319360112610260576112956130b0565b80546001600160a01b03198116825581906001600160a01b03165f5160206137ec5f395f51905f528280a380f35b5034610260576080366003190112610260576004356001600160401b038111610720576112f4903690600401612d22565b906024356001600160401b03811161066357611314903690600401612d22565b9092604435906064356001600160401b0381116106e457611339903690600401612b4f565b50506113436130d6565b338652600e60205260ff604087205416156114e3578281036114ac57855b81811061137057866001805580f35b61137b818387613000565b356001600160a01b038116908190036106e857808852600c60205260408820548411156114a357808852600b60205260408820546113ba83878a613000565b35908082111561144e5760646113d08284613010565b1161141a575b50905f51602061384c5f395f51905f526040600194935b838c52600b60205280828d2055838c52600c60205287828d20558151908152876020820152a25b01611361565b90506064810180911161143a575f51602061384c5f395f51905f526113d6565b634e487b7160e01b89526011600452602489fd5b818111611471575b50905f51602061384c5f395f51905f526040600194936113ed565b606461147d8383613010565b11156114565760631981019150811161143a575f51602061384c5f395f51905f52611456565b50600190611414565b60405162461bcd60e51b815260206004820152600f60248201526e098cadccee8d040dad2e6dac2e8c6d608b1b6044820152606490fd5b60405162461bcd60e51b815260206004820152601e60248201527f556e617574686f72697a65642052657075746174696f6e20536f7572636500006044820152606490fd5b50346102605761153736612b7c565b906115439392936130d6565b5f806115c16115cf604051611559606082612cb2565b603181527f52656769737472793a207265676973746572526f6c65207374617274696e67206020820152703337b9103937b6329030b732103ab9b2b960791b604082015260405192839163104c13eb60e21b6020840152602060248401526044830190612cd5565b03601f198101835282612cb2565b6020815191016a636f6e736f6c652e6c6f675afa5082855260026020526040852091604051916115fe83612c7b565b8354835260018401549260208101938452600285015460408201526003850154606082015260048501546080820152600585015460a0820152600685015460c0820152600785015460e0820152600961167360ff6008880154169661010084019715158852610d096040518094819301612bfa565b61012082015284511515946116bc60409687516116908982612cb2565b601a8152792932b3b4b9ba393c9d1031b7b73334b39034b9a0b1ba34bb329d60311b602082015261372f565b5115611a0357858852600360205284882060018060a01b0388165f5260205260ff855f2054166119e2576116f1838388613298565b90518082106119ca5750858852600360209081528589206001600160a01b0389165f818152918352878220805460ff19166001179055888b5260048352878b20908252825286902082905586895260059052848820611751908890612dff565b858852600760209081528589206001600160a01b0389165f9081529152859020906001600160401b0384116119b657879061179085610dea8554612bc2565b8992858b601f821160011461194c579080602095966117b59391611941575b50612e8f565b90555b85518751635f7d2b8760e11b815293849283926117db92918c8360048701612ea1565b03818b7f00000000000000000000000000000000000000000000000000000000000000006001600160a01b03165af1801561190857611912575b506118418461182684848a8a6135db565b815180938192631f1f342160e11b83528a8c60048501612ef3565b03818b7f00000000000000000000000000000000000000000000000000000000000000006001600160a01b03165af190811561190857915f51602061382c5f395f51905f52959493916118ba938a916118da575b50878a526006602052858a2060018060a01b038a165f52602052855f2055878761363e565b5181519081524260208201526001600160a01b0390941693a36001805580f35b6118fa9150863d8811611901575b6118f28183612cb2565b810190612ed4565b505f611895565b503d6118e8565b85513d8a823e3d90fd5b6020813d602011611939575b8161192b60209383612cb2565b81010312610f235751611815565b3d915061191e565b90508701355f6117af565b5050808b5260208b20601f19871694878d5b8781106119985750602095961061197f575b5050600186811b0190556117b8565b8601355f19600389901b60f8161c191690555f80611970565b8883013584558d96506001909301926020928301928a92500161195e565b634e487b7160e01b89526041600452602489fd5b6322df051360e11b8952600491909152602452604487fd5b631b753c1b60e21b885260048690526001600160a01b038716602452604488fd5b631b4b909b60e21b88526004869052602488fd5b503461026057602036600319011261026057611a31612af9565b506020604051611a418282612cb2565b8281526040805183815282518185018190529093600582901b850183019381019285015b828710611a725785850386f35b909192938280611ac3600193603f198a820301865260a060808a51805184528780841b0386820151168685015260408101516040850152606081015160608501520151918160808201520190612cd5565b9601920196019592919092611a65565b503461026057604036600319011261026057611aed612af9565b6024359081151590818303610663577f6be30291a8f228c9342613e5e66df1a1b85aa570ac1bca9219f3ac7b7f73bbf391611b48602092611b2c6130b0565b6001600160a01b0316808752600e845260408720909590612dee565b604051908152a280f35b503461026057602036600319011261026057610d09611b87604061025c936004358152600f6020522060405192838092612bfa565b604051918291602083526020830190612cd5565b50346102605760203660031901126102605760406020916004358152600583522054604051908152f35b503461026057806003193601126102605760206040515f5160206137ac5f395f51905f528152f35b5034610260576040366003190112610260576040611c09612b0f565b9160043581526006602052209060018060a01b03165f52602052602060405f2054604051908152f35b5034610260576020366003190112610260576020906040906001600160a01b03611c5a612af9565b168152600b8352818120546001906102628110611c8657505060065b8152600d83522054604051908152f35b60e98110611c9857505060055b611c76565b60598110611ca95750506004611c76565b60228110611cba5750506003611c76565b600d11611c9357506002611c76565b503461026057604036600319011261026057611ce3612af9565b6001600160a01b0316815260136020526040812080546024359290831015610260576020611d118484612cf9565b90549060031b1c604051908152f35b5034610f23576060366003190112610f23576004356024356001600160401b038111610f23578060040190803603610140600319820112610f23576044356001600160a01b03811690819003610f2357611d786130b0565b5f858152601060205260409020546001600160a01b0316611fdf578015611faa57845f52600260205260405f2092843584556024810135600185015560448101356002850155606481013560038501556084810135600485015560a4810135600585015560c48101359283600686015560e482013594856007820155610104830135908115158203610f2357611e1360099260088301612dee565b01916101248101359160221901821215610f2357016004810135906001600160401b038211610f23578136036024820113610f2357611e5682610dea8554612bc2565b5f90601f8311600114611f3f57611e7692915f9183610667575050612e8f565b90555b5f85815260106020526040902080546001600160a01b03191690911790557f00000000000000000000000000000000000000000000000000000000000000006001600160a01b031691823b15610f2357611eed925f9283604051809681958294636b26335560e11b84528b60048501612f1a565b03925af18015611f3457611f1d575b506106395f51602061386c5f395f51905f5291604051918291429083612f30565b611f2a9193505f90612cb2565b5f91610639611efc565b6040513d5f823e3d90fd5b601f19831691845f5260205f20925f5b818110611f8f5750908460019594939210611f72575b505050811b019055611e79565b6024910101355f19600384901b60f8161c191690555f8080611f65565b60248484010135855560019094019360209283019201611f4f565b60405162461bcd60e51b815260206004820152600d60248201526c24b73b30b634b21037bbb732b960991b6044820152606490fd5b60405162461bcd60e51b8152602060048201526013602482015272526f6c6520616c72656164792065786973747360681b6044820152606490fd5b34610f23576040366003190112610f2357612033612b0f565b6004355f52600760205260405f209060018060a01b03165f5260205261025c610d09611b8760405f2060405192838092612bfa565b34610f23575f366003190112610f23576040517f00000000000000000000000000000000000000000000000000000000000000006001600160a01b03168152602090f35b34610f23576120ba36612b7c565b926120c69291926130d6565b805f52600260205260405f20604051946120df86612c7b565b8154865260018201549160208701928352600281015460408801526003810154606088015260048101546080880152600581015460a0880152600681015460c0880152600781015460e0880152600961215460ff600884015416926101008a019315158452610d096040518094819301612bfa565b610120880152511561251257825f52600360205260405f2060018060a01b0385165f5260205260ff60405f2054166124f357335f9081525f51602061380c5f395f51905f52602052604090205460ff16156124b3576121b4818685613298565b955180871061249d57505f8381526003602090815260408083206001600160a01b038816808552908352818420805460ff1916600117905586845260048352818420908452825280832089905585835260059091529020612216908590612dff565b5f8381526007602090815260408083206001600160a01b038816845290915290206001600160401b03821161248957612259826122538354612bc2565b83612e40565b5f601f8311600114612420579660209161227e84806122a29b5f916124155750612e8f565b90555b8351604051635f7d2b8760e11b815298899283923391898b60048701612ea1565b03815f7f00000000000000000000000000000000000000000000000000000000000000006001600160a01b03165af18015611f34576123e2575b61230a955060406122ef828787876135db565b8151809881926362c00b1f60e11b8352878960048501612ef3565b03815f7f00000000000000000000000000000000000000000000000000000000000000006001600160a01b03165af1948515611f34576020965f966123a8575b50916123846040925f51602061382c5f395f51905f5294865f5260068a52845f2060018060a01b0389165f528a5288855f2055878761363e565b51815190815242878201526001600160a01b0390941693a360018055604051908152f35b5f51602061382c5f395f51905f52939196506040926123d661238492853d8711611901576118f28183612cb2565b5097929450925061234a565b6020863d60201161240d575b816123fb60209383612cb2565b81010312610f235761230a95506122dc565b3d91506123ee565b90508a01358c6117af565b601f19831690825f5260205f20915f5b81811061247157509160209391856122a29b9410612458575b5050600184811b019055612281565b8901355f19600387901b60f8161c191690558980612449565b9192602060018192868d013581550194019201612430565b634e487b7160e01b5f52604160045260245ffd5b866322df051360e11b5f5260045260245260445ffd5b60405162461bcd60e51b815260206004820152601860248201527743616c6c6572206d75737420626520436f6d6d756e69747960401b6044820152606490fd5b5050631b753c1b60e21b5f5260045260018060a01b031660245260445ffd5b82631b4b909b60e21b5f5260045260245ffd5b34610f23576040366003190112610f23577f7e684e0b76ed13bc9cf7e4fbac7d11873036be9c9a83f9958382721eeda4601060406004356024356125676130b0565b815f52600d60205280835f205582519182526020820152a1005b34610f23576040366003190112610f235761259a612b0f565b6004355f52600360205260405f209060018060a01b03165f52602052602060ff60405f2054166040519015158152f35b34610f23576020366003190112610f23576001600160a01b036125eb612af9565b165f52600b602052602060405f2054604051908152f35b34610f23575f366003190112610f235760206040517f2024516755f401845808190bb830b0e4523d0df0845503cab52130a794699a0f8152f35b34610f23576040366003190112610f23576004356024356001600160401b038111610f235761266f903690600401612b4f565b916126786130d6565b5f806115c161268e604051611559606082612cb2565b6020815191016a636f6e736f6c652e6c6f675afa50805f52600260205260405f2091604051906126bd82612c7b565b8354825260018401549160208101928352600285015460408201526003850154606082015260048501546080820152600585015460a0820152600685015460c0820152600785015460e0820152600961273260ff6008880154169661010084019715158852610d096040518094819301612bfa565b610120820152845115159461274f60409687516116908982612cb2565b5115612a5b575f8481526003602090815286822033835290528590205460ff16612a445761277e868386613298565b9051808210612a2e57505f8481526003602090815286822033808452908252878320805460ff191660011790558683526004825287832081845282528783208490558683526005909152908690206127d69190612dff565b5f8481526007602090815286822033835290528590206001600160401b03871161248957612808876122538354612bc2565b865f601f82116001146129bf579161282e8261285195936020955f916129b45750612e8f565b90555b84518751635f7d2b8760e11b8152938492839233918a8360048701612ea1565b03815f7f00000000000000000000000000000000000000000000000000000000000000006001600160a01b03165af1801561297b57612985575b506128b78461289c878433886135db565b815180938192631f1f342160e11b8352883360048501612ef3565b03815f7f00000000000000000000000000000000000000000000000000000000000000006001600160a01b03165af190811561297b579160209691612920935f9161295d575b50855f5260068852865f2060018060a01b0333165f528852865f2055338561363e565b5182519081524284820152815f51602061382c5f395f51905f52843393a3600180555f908152600683528181203382528352819020549051908152f35b6129749150873d8911611901576118f28183612cb2565b50886128fd565b85513d5f823e3d90fd5b6020813d6020116129ac575b8161299e60209383612cb2565b81010312610f23575161288b565b3d9150612991565b90508701358c6117af565b5f8381526020812092508990601f198216905b818110612a1357509161285195939160209593106129fa575b5050600189811b019055612831565b8601355f1960038c901b60f8161c1916905589806129eb565b8784013585556001909401936020938401938c9350016129d2565b906322df051360e11b5f5260045260245260445ffd5b83631b753c1b60e21b5f526004523360245260445ffd5b83631b4b909b60e21b5f5260045260245ffd5b34610f2357612a7c36612b39565b505060206040515f8152f35b34610f23576020366003190112610f2357612aa1612af9565b506040516020612ab18183612cb2565b5f82525f368137604051918183928301818452825180915281604085019301915f5b828110612ae257505050500390f35b835185528695509381019392810192600101612ad3565b600435906001600160a01b0382168203610f2357565b602435906001600160a01b0382168203610f2357565b35906001600160a01b0382168203610f2357565b6040906003190112610f23576004359060243590565b9181601f84011215610f23578235916001600160401b038311610f235760208381860195010111610f2357565b6060600319820112610f2357600435916024356001600160a01b0381168103610f235791604435906001600160401b038211610f2357612bbe91600401612b4f565b9091565b90600182811c92168015612bf0575b6020831014612bdc57565b634e487b7160e01b5f52602260045260245ffd5b91607f1691612bd1565b5f9291815491612c0983612bc2565b8083529260018116908115612c5e5750600114612c2557505050565b5f9081526020812093945091925b838310612c44575060209250010190565b600181602092949394548385870101520191019190612c33565b915050602093945060ff929192191683830152151560051b010190565b61014081019081106001600160401b0382111761248957604052565b60a081019081106001600160401b0382111761248957604052565b601f909101601f19168101906001600160401b0382119082101761248957604052565b805180835260209291819084018484015e5f828201840152601f01601f1916010190565b8054821015612d0e575f5260205f2001905f90565b634e487b7160e01b5f52603260045260245ffd5b9181601f84011215610f23578235916001600160401b038311610f23576020808501948460051b010111610f2357565b6001600160401b03811161248957601f01601f191660200190565b81601f82011215610f2357803590612d8482612d52565b92612d926040519485612cb2565b82845260208383010111610f2357815f926020809301838601378301015290565b60208091604051928184925191829101835e8101600881520301902090565b601254811015612d0e5760125f52600560205f20910201905f90565b9060ff801983541691151516179055565b8054600160401b81101561248957612e1c91600182018155612cf9565b81546001600160a01b0393841660039290921b91821b9390911b1916919091179055565b601f8211612e4d57505050565b5f5260205f20906020601f840160051c83019310612e85575b601f0160051c01905b818110612e7a575050565b5f8155600101612e6f565b9091508190612e66565b8160011b915f199060031b1c19161790565b6001600160a01b039182168152602081019290925260408201929092526060810192909252909116608082015260a00190565b9190826040910312610f2357602082519201518015158103610f235790565b612f17939260609260018060a01b0316825260208201528160408201520190612cd5565b90565b6040919493926060820195825260208201520152565b92919060408452803560408501526020810135606085015260408101356080850152606081013560a0850152608081013560c085015260a081013560e085015260c081013561010085015260e0810135610120850152610100810135801515809103610f2357610140850152610120810135601e1982360301811215610f2357018035906020016001600160401b038211610f23578136038113610f2357816020926101a09261014061016089015281610180890152838801375f828288010152601f8019910116850101930152565b9190811015612d0e5760051b0190565b9190820391821161301d57565b634e487b7160e01b5f52601160045260245ffd5b92919261303d82612d52565b9161304b6040519384612cb2565b829481845281830111610f23578281602093845f96015e010152565b6001600160a01b039091168152602081019190915260400190565b51906001600160a01b0382168203610f2357565b9080601f83011215610f23578151612f1792602001613031565b5f546001600160a01b031633036130c357565b63118cdaa760e01b5f523360045260245ffd5b6002600154146130e7576002600155565b633ee5aeb560e01b5f5260045ffd5b602081830312610f23578035906001600160401b038211610f2357019060a082820312610f23576040519161312a83612c97565b61313381612b25565b835261314160208201612b25565b602084015260408101356001600160401b038111610f235782613165918301612d6d565b604084015260608101356001600160401b038111610f235760809261318b918301612d6d565b60608401520135608082015290565b602081830312610f23578035906001600160401b038211610f2357019060c082820312610f23576040519160c083016001600160401b038111848210176124895760405280356001600160401b038111610f2357826131fa918301612d6d565b835260208101356001600160401b038111610f23578261321b918301612d6d565b602084015260408101356001600160401b038111610f23578261323f918301612d6d565b604084015260608101356001600160401b038111610f235782613263918301612d6d565b606084015260808101356001600160401b038111610f235760a092613289918301612d6d565b6080840152013560a082015290565b92915f5f5160206137cc5f395f51905f5285036133695750906132bd9181019061319a565b805151156133335780516001600160a01b03906132d990612db3565b54166133005760a00151915b82156132ee5750565b9091505f52600260205260405f205490565b6040516305519d6f60e51b815260206004820152600a6024820152692730b6b2903a30b5b2b760b11b6044820152606490fd5b6040516305519d6f60e51b815260206004820152600d60248201526c13985b59481c995c5d5a5c9959609a1b6044820152606490fd5b5f5160206137ac5f395f51905f5285036134f557509061338b918101906130f6565b5f5160206137cc5f395f51905f525f9081526003602090815282810180516001600160a01b0390811684525f51602061380c5f395f51905f5290925260408084205491518151919460ff90931693839261343a9261344e92166133ee8883612cb2565b601d82527f52656769737472793a20436865636b696e6720636f6d6d756e6974793a0000006020830152875193849263319af33360e01b60208501528960248501526064840190612cd5565b90604483015203601f198101835282612cb2565b6020815191016a636f6e736f6c652e6c6f675afa506134ad818351613474606082612cb2565b602281527f52656769737472793a20436f6d6d756e69747920616374697665207374617475602082015261399d60f11b8582015261372f565b156134bd575060800151916132e5565b516305519d6f60e51b8152602060048201526011602482015270496e76616c696420636f6d6d756e69747960781b6044820152606490fd5b9391905f8061356861357c60405161350e606082612cb2565b602381527f52656769737472793a2047656e6572696320726f6c652064617461206c656e676020820152623a341d60e91b6040820152604051928391632d839cb360e21b6020840152604060248401526064830190612cd5565b86604483015203601f198101835282612cb2565b6020815191016a636f6e736f6c652e6c6f675afa50602081146135a1575b50506132e5565b819294509060209181010312610f235735915f8061359a565b6001600160a01b0390911681526040602082018190525f9082015260600190565b909291905f5160206137ac5f395f51905f521461360a575050612f176115c191604051928391602083016135ba565b6115c19250612f17916001600160a01b039160209161362c91908101906130f6565b015116604051928391602083016135ba565b909291905f5160206137cc5f395f51905f5281036136d157508060209261366692019061319a565b6136708151612db3565b80546001600160a01b0319166001600160a01b038516179055015180518061369757505050565b60209181839260405194859301835e60099082019081520301902080546001600160a01b0319166001600160a01b03909216919091179055565b5f5160206137ac5f395f51905f52146136e957505050565b6001600160a01b03916136ff91908101906130f6565b51165f908152600a6020526040812080546001600160a01b0319166001600160a01b039093169290921790915550565b61375e6137745f9392849360405193849263c3b5563560e01b6020850152604060248501526064840190612cd5565b901515604483015203601f198101835282612cb2565b6020815191016a636f6e736f6c652e6c6f675afa5056fe0d9361411a652b66cd4aed24a96d36c0b048899896c927d879a9d3ba2790d9c60c34ecc75d3bf122e0609d2576e167f53fb42429262ce8c9b33cab91ff670e3ae94d78b6d8fb99b2c21131eb4552924a60f564d8515a3cc90ef300fc9735c0748be0079c531659141344cd1fd0a4f28419497f9722a3daafe3b4186f6b6457e0ff2ee81dab119a3c44ab55016c33ff3eb0f6d539478c634479d44f3f915202dd2c48d754bbf59f20e71c13710fac35aa1ea020da58dcbb366de0ef7f75c9377dbb42fde0252fd03324102c3666f457311508c4dd05f96e66e0fd26f0c28e8542a012070f9d68d0a65b2623c3104bf3eee05c9dd5fd4e2ce7df410bbfcb8856b2a264697066735822122043fc3f8b948406c29498e49ab8b1bef5f481ef88030f268e7debb0e1d79caf5d64736f6c634300081c00336fb2b25080d21c908f32ff8ff99eb1d552c210854f7de48a40406764c09c68f8e94d78b6d8fb99b2c21131eb4552924a60f564d8515a3cc90ef300fc9735c0742024516755f401845808190bb830b0e4523d0df0845503cab52130a794699a0ff86d13979a91272f2c54c4147e588ecbeaad32dd1e0a5332a77356847049a70e3aa2e9509f29532b71f822e18bcde843a8070a508d564188ec8a6adf59eff28a","linkReferences":{}},"methodIdentifiers":{"GTOKEN_STAKING()":"826600ce","MYSBT()":"19c46e81","ROLE_COMMUNITY()":"a2d0020e","ROLE_ENDUSER()":"43e6a160","ROLE_KMS()":"9b1465a3","ROLE_PAYMASTER_AOA()":"bf0cb042","ROLE_PAYMASTER_SUPER()":"10fdfea7","VERSION()":"ffa1ad74","VERSION_CODE()":"e9763063","accountToUser(address)":"920983fb","batchUpdateGlobalReputation(address[],uint256[],uint256,bytes)":"6acb091f","burnHistory(uint256)":"b991118f","calculateExitFee(bytes32,uint256)":"07cf0ee9","checkRole(bytes32,address)":"12d9a6ad","communityByENSV3(string)":"86166d5d","communityByNameV3(string)":"d727cbd4","configureRole(bytes32,(uint256,uint256,uint256,uint256,uint256,uint256,uint256,uint256,bool,string))":"d5020895","createNewRole(bytes32,(uint256,uint256,uint256,uint256,uint256,uint256,uint256,uint256,bool,string),address)":"208fe7c4","creditTierConfig(uint256)":"af5eda02","exitRole(bytes32)":"727b52a5","getBurnHistory(address)":"62970f9b","getCreditLimit(address)":"2c333e25","getRoleConfig(bytes32)":"b5e936ab","getRoleUserCount(bytes32)":"4b8b8a6e","getUserRoles(address)":"06a36aee","globalReputation(address)":"11c85b0b","hasRole(bytes32,address)":"91d14854","isReputationSource(address)":"bf28c98a","lastReputationEpoch(address)":"e74c7bd7","owner()":"8da5cb5b","proposedRoleNames(bytes32)":"59dc9126","registerRole(bytes32,address,bytes)":"669d7762","registerRoleSelf(bytes32,bytes)":"0ab0c75e","renounceOwnership()":"715018a6","roleConfigs(bytes32)":"f538e1dc","roleLockDurations(bytes32)":"e350d77b","roleMembers(bytes32,uint256)":"7f528155","roleMetadata(bytes32,address)":"1cae0412","roleOwners(bytes32)":"aa9e8cf7","roleSBTTokenIds(bytes32,address)":"36db9caf","roleStakes(bytes32,address)":"c8ee23ef","safeMintForRole(bytes32,address,bytes)":"17e1c595","setCreditTier(uint256,uint256)":"15de32ca","setReputationSource(address,bool)":"6229738c","transferOwnership(address)":"f2fde38b","userBurnHistory(address,uint256)":"26d9815c"},"id":51}