{"abi":[{"type":"constructor","inputs":[{"name":"_entryPoint","type":"address","internalType":"contract IEntryPoint"},{"name":"_owner","type":"address","internalType":"address"},{"name":"_registry","type":"address","internalType":"contract IRegistryV3"},{"name":"_apntsToken","type":"address","internalType":"address"},{"name":"_ethUsdPriceFeed","type":"address","internalType":"address"},{"name":"_protocolTreasury","type":"address","internalType":"address"}],"stateMutability":"nonpayable"},{"type":"function","name":"APNTS_TOKEN","inputs":[],"outputs":[{"name":"","type":"address","internalType":"address"}],"stateMutability":"view"},{"type":"function","name":"BLS_AGGREGATOR","inputs":[],"outputs":[{"name":"","type":"address","internalType":"address"}],"stateMutability":"view"},{"type":"function","name":"BPS_DENOMINATOR","inputs":[],"outputs":[{"name":"","type":"uint256","internalType":"uint256"}],"stateMutability":"view"},{"type":"function","name":"ETH_USD_PRICE_FEED","inputs":[],"outputs":[{"name":"","type":"address","internalType":"contract AggregatorV3Interface"}],"stateMutability":"view"},{"type":"function","name":"MAX_ETH_USD_PRICE","inputs":[],"outputs":[{"name":"","type":"int256","internalType":"int256"}],"stateMutability":"view"},{"type":"function","name":"MIN_ETH_USD_PRICE","inputs":[],"outputs":[{"name":"","type":"int256","internalType":"int256"}],"stateMutability":"view"},{"type":"function","name":"PRICE_CACHE_DURATION","inputs":[],"outputs":[{"name":"","type":"uint256","internalType":"uint256"}],"stateMutability":"view"},{"type":"function","name":"REGISTRY","inputs":[],"outputs":[{"name":"","type":"address","internalType":"contract IRegistryV3"}],"stateMutability":"view"},{"type":"function","name":"SERVICE_FEE_BPS","inputs":[],"outputs":[{"name":"","type":"uint256","internalType":"uint256"}],"stateMutability":"view"},{"type":"function","name":"SUPER_PAYMASTER_TREASURY","inputs":[],"outputs":[{"name":"","type":"address","internalType":"address"}],"stateMutability":"view"},{"type":"function","name":"aPNTsPriceUSD","inputs":[],"outputs":[{"name":"","type":"uint256","internalType":"uint256"}],"stateMutability":"view"},{"type":"function","name":"addStake","inputs":[{"name":"unstakeDelaySec","type":"uint32","internalType":"uint32"}],"outputs":[],"stateMutability":"payable"},{"type":"function","name":"configureOperator","inputs":[{"name":"xPNTsToken","type":"address","internalType":"address"},{"name":"treasury","type":"address","internalType":"address"},{"name":"exchangeRate","type":"uint256","internalType":"uint256"}],"outputs":[],"stateMutability":"nonpayable"},{"type":"function","name":"deposit","inputs":[{"name":"amount","type":"uint256","internalType":"uint256"}],"outputs":[],"stateMutability":"nonpayable"},{"type":"function","name":"deposit","inputs":[],"outputs":[],"stateMutability":"payable"},{"type":"function","name":"entryPoint","inputs":[],"outputs":[{"name":"","type":"address","internalType":"contract IEntryPoint"}],"stateMutability":"view"},{"type":"function","name":"executeSlashWithBLS","inputs":[{"name":"operator","type":"address","internalType":"address"},{"name":"level","type":"uint8","internalType":"enum SuperPaymasterV3.SlashLevel"},{"name":"proof","type":"bytes","internalType":"bytes"}],"outputs":[],"stateMutability":"nonpayable"},{"type":"function","name":"getAvailableCredit","inputs":[{"name":"user","type":"address","internalType":"address"},{"name":"token","type":"address","internalType":"address"}],"outputs":[{"name":"","type":"uint256","internalType":"uint256"}],"stateMutability":"view"},{"type":"function","name":"getDeposit","inputs":[],"outputs":[{"name":"","type":"uint256","internalType":"uint256"}],"stateMutability":"view"},{"type":"function","name":"getLatestSlash","inputs":[{"name":"operator","type":"address","internalType":"address"}],"outputs":[{"name":"","type":"tuple","internalType":"struct SuperPaymasterV3.SlashRecord","components":[{"name":"timestamp","type":"uint256","internalType":"uint256"},{"name":"amount","type":"uint256","internalType":"uint256"},{"name":"reputationLoss","type":"uint256","internalType":"uint256"},{"name":"reason","type":"string","internalType":"string"},{"name":"level","type":"uint8","internalType":"enum SuperPaymasterV3.SlashLevel"}]}],"stateMutability":"view"},{"type":"function","name":"getSlashCount","inputs":[{"name":"operator","type":"address","internalType":"address"}],"outputs":[{"name":"","type":"uint256","internalType":"uint256"}],"stateMutability":"view"},{"type":"function","name":"getSlashHistory","inputs":[{"name":"operator","type":"address","internalType":"address"}],"outputs":[{"name":"","type":"tuple[]","internalType":"struct SuperPaymasterV3.SlashRecord[]","components":[{"name":"timestamp","type":"uint256","internalType":"uint256"},{"name":"amount","type":"uint256","internalType":"uint256"},{"name":"reputationLoss","type":"uint256","internalType":"uint256"},{"name":"reason","type":"string","internalType":"string"},{"name":"level","type":"uint8","internalType":"enum SuperPaymasterV3.SlashLevel"}]}],"stateMutability":"view"},{"type":"function","name":"notifyDeposit","inputs":[{"name":"amount","type":"uint256","internalType":"uint256"}],"outputs":[],"stateMutability":"nonpayable"},{"type":"function","name":"onTransferReceived","inputs":[{"name":"","type":"address","internalType":"address"},{"name":"from","type":"address","internalType":"address"},{"name":"value","type":"uint256","internalType":"uint256"},{"name":"","type":"bytes","internalType":"bytes"}],"outputs":[{"name":"","type":"bytes4","internalType":"bytes4"}],"stateMutability":"nonpayable"},{"type":"function","name":"operators","inputs":[{"name":"","type":"address","internalType":"address"}],"outputs":[{"name":"xPNTsToken","type":"address","internalType":"address"},{"name":"isConfigured","type":"bool","internalType":"bool"},{"name":"isPaused","type":"bool","internalType":"bool"},{"name":"_reserved","type":"uint80","internalType":"uint80"},{"name":"treasury","type":"address","internalType":"address"},{"name":"exchangeRate","type":"uint96","internalType":"uint96"},{"name":"aPNTsBalance","type":"uint256","internalType":"uint256"},{"name":"totalSpent","type":"uint256","internalType":"uint256"},{"name":"totalTxSponsored","type":"uint256","internalType":"uint256"},{"name":"reputation","type":"uint256","internalType":"uint256"}],"stateMutability":"view"},{"type":"function","name":"owner","inputs":[],"outputs":[{"name":"","type":"address","internalType":"address"}],"stateMutability":"view"},{"type":"function","name":"postOp","inputs":[{"name":"mode","type":"uint8","internalType":"enum IPaymaster.PostOpMode"},{"name":"context","type":"bytes","internalType":"bytes"},{"name":"actualGasCost","type":"uint256","internalType":"uint256"},{"name":"actualUserOpFeePerGas","type":"uint256","internalType":"uint256"}],"outputs":[],"stateMutability":"nonpayable"},{"type":"function","name":"protocolRevenue","inputs":[],"outputs":[{"name":"","type":"uint256","internalType":"uint256"}],"stateMutability":"view"},{"type":"function","name":"renounceOwnership","inputs":[],"outputs":[],"stateMutability":"nonpayable"},{"type":"function","name":"repayDebt","inputs":[{"name":"user","type":"address","internalType":"address"},{"name":"amount","type":"uint256","internalType":"uint256"}],"outputs":[],"stateMutability":"nonpayable"},{"type":"function","name":"setAPNTsToken","inputs":[{"name":"newAPNTsToken","type":"address","internalType":"address"}],"outputs":[],"stateMutability":"nonpayable"},{"type":"function","name":"setBLSAggregator","inputs":[{"name":"_bls","type":"address","internalType":"address"}],"outputs":[],"stateMutability":"nonpayable"},{"type":"function","name":"setOperatorPause","inputs":[{"name":"operator","type":"address","internalType":"address"},{"name":"paused","type":"bool","internalType":"bool"}],"outputs":[],"stateMutability":"nonpayable"},{"type":"function","name":"slashHistory","inputs":[{"name":"","type":"address","internalType":"address"},{"name":"","type":"uint256","internalType":"uint256"}],"outputs":[{"name":"timestamp","type":"uint256","internalType":"uint256"},{"name":"amount","type":"uint256","internalType":"uint256"},{"name":"reputationLoss","type":"uint256","internalType":"uint256"},{"name":"reason","type":"string","internalType":"string"},{"name":"level","type":"uint8","internalType":"enum SuperPaymasterV3.SlashLevel"}],"stateMutability":"view"},{"type":"function","name":"slashOperator","inputs":[{"name":"operator","type":"address","internalType":"address"},{"name":"level","type":"uint8","internalType":"enum SuperPaymasterV3.SlashLevel"},{"name":"penaltyAmount","type":"uint256","internalType":"uint256"},{"name":"reason","type":"string","internalType":"string"}],"outputs":[],"stateMutability":"nonpayable"},{"type":"function","name":"totalTrackedBalance","inputs":[],"outputs":[{"name":"","type":"uint256","internalType":"uint256"}],"stateMutability":"view"},{"type":"function","name":"transferOwnership","inputs":[{"name":"newOwner","type":"address","internalType":"address"}],"outputs":[],"stateMutability":"nonpayable"},{"type":"function","name":"unlockStake","inputs":[],"outputs":[],"stateMutability":"nonpayable"},{"type":"function","name":"updateReputation","inputs":[{"name":"operator","type":"address","internalType":"address"},{"name":"newScore","type":"uint256","internalType":"uint256"}],"outputs":[],"stateMutability":"nonpayable"},{"type":"function","name":"validatePaymasterUserOp","inputs":[{"name":"userOp","type":"tuple","internalType":"struct PackedUserOperation","components":[{"name":"sender","type":"address","internalType":"address"},{"name":"nonce","type":"uint256","internalType":"uint256"},{"name":"initCode","type":"bytes","internalType":"bytes"},{"name":"callData","type":"bytes","internalType":"bytes"},{"name":"accountGasLimits","type":"bytes32","internalType":"bytes32"},{"name":"preVerificationGas","type":"uint256","internalType":"uint256"},{"name":"gasFees","type":"bytes32","internalType":"bytes32"},{"name":"paymasterAndData","type":"bytes","internalType":"bytes"},{"name":"signature","type":"bytes","internalType":"bytes"}]},{"name":"userOpHash","type":"bytes32","internalType":"bytes32"},{"name":"maxCost","type":"uint256","internalType":"uint256"}],"outputs":[{"name":"context","type":"bytes","internalType":"bytes"},{"name":"validationData","type":"uint256","internalType":"uint256"}],"stateMutability":"nonpayable"},{"type":"function","name":"withdraw","inputs":[{"name":"amount","type":"uint256","internalType":"uint256"}],"outputs":[],"stateMutability":"nonpayable"},{"type":"function","name":"withdrawProtocolRevenue","inputs":[{"name":"to","type":"address","internalType":"address"},{"name":"amount","type":"uint256","internalType":"uint256"}],"outputs":[],"stateMutability":"nonpayable"},{"type":"function","name":"withdrawStake","inputs":[{"name":"to","type":"address","internalType":"address payable"}],"outputs":[],"stateMutability":"nonpayable"},{"type":"function","name":"withdrawTo","inputs":[{"name":"to","type":"address","internalType":"address payable"},{"name":"amount","type":"uint256","internalType":"uint256"}],"outputs":[],"stateMutability":"nonpayable"},{"type":"event","name":"APNTsTokenUpdated","inputs":[{"name":"oldToken","type":"address","indexed":true,"internalType":"address"},{"name":"newToken","type":"address","indexed":true,"internalType":"address"}],"anonymous":false},{"type":"event","name":"OperatorConfigured","inputs":[{"name":"operator","type":"address","indexed":true,"internalType":"address"},{"name":"xPNTsToken","type":"address","indexed":false,"internalType":"address"},{"name":"treasury","type":"address","indexed":false,"internalType":"address"},{"name":"exchangeRate","type":"uint256","indexed":false,"internalType":"uint256"}],"anonymous":false},{"type":"event","name":"OperatorDeposited","inputs":[{"name":"operator","type":"address","indexed":true,"internalType":"address"},{"name":"amount","type":"uint256","indexed":false,"internalType":"uint256"}],"anonymous":false},{"type":"event","name":"OperatorPaused","inputs":[{"name":"operator","type":"address","indexed":true,"internalType":"address"}],"anonymous":false},{"type":"event","name":"OperatorSlashed","inputs":[{"name":"operator","type":"address","indexed":true,"internalType":"address"},{"name":"amount","type":"uint256","indexed":false,"internalType":"uint256"},{"name":"level","type":"uint8","indexed":false,"internalType":"enum SuperPaymasterV3.SlashLevel"}],"anonymous":false},{"type":"event","name":"OperatorUnpaused","inputs":[{"name":"operator","type":"address","indexed":true,"internalType":"address"}],"anonymous":false},{"type":"event","name":"OperatorWithdrawn","inputs":[{"name":"operator","type":"address","indexed":true,"internalType":"address"},{"name":"amount","type":"uint256","indexed":false,"internalType":"uint256"}],"anonymous":false},{"type":"event","name":"OwnershipTransferred","inputs":[{"name":"previousOwner","type":"address","indexed":true,"internalType":"address"},{"name":"newOwner","type":"address","indexed":true,"internalType":"address"}],"anonymous":false},{"type":"event","name":"ReputationUpdated","inputs":[{"name":"operator","type":"address","indexed":true,"internalType":"address"},{"name":"newScore","type":"uint256","indexed":false,"internalType":"uint256"}],"anonymous":false},{"type":"event","name":"TransactionSponsored","inputs":[{"name":"operator","type":"address","indexed":true,"internalType":"address"},{"name":"user","type":"address","indexed":true,"internalType":"address"},{"name":"aPNTsCost","type":"uint256","indexed":false,"internalType":"uint256"},{"name":"xPNTsCost","type":"uint256","indexed":false,"internalType":"uint256"}],"anonymous":false},{"type":"event","name":"UserReputationAccrued","inputs":[{"name":"user","type":"address","indexed":true,"internalType":"address"},{"name":"aPNTsValue","type":"uint256","indexed":false,"internalType":"uint256"}],"anonymous":false},{"type":"error","name":"AddressEmptyCode","inputs":[{"name":"target","type":"address","internalType":"address"}]},{"type":"error","name":"AddressInsufficientBalance","inputs":[{"name":"account","type":"address","internalType":"address"}]},{"type":"error","name":"FailedInnerCall","inputs":[]},{"type":"error","name":"OwnableInvalidOwner","inputs":[{"name":"owner","type":"address","internalType":"address"}]},{"type":"error","name":"OwnableUnauthorizedAccount","inputs":[{"name":"account","type":"address","internalType":"address"}]},{"type":"error","name":"ReentrancyGuardReentrantCall","inputs":[]},{"type":"error","name":"SafeERC20FailedOperation","inputs":[{"name":"token","type":"address","internalType":"address"}]}],"bytecode":{"object":"0x6101003461022b57601f61305638819003918201601f19168301916001600160401b0383118484101761022f5780849260c09460405283398101031261022b5780516001600160a01b0381169182820361022b5761005f60208201610243565b60408201519092906001600160a01b038116810361022b5761008360608401610243565b9161009c60a061009560808701610243565b9501610243565b956001600160a01b038616908115610218575f80546001600160a01b031981168417825560405193916001600160a01b03909116907f8be0079c531659141344cd1fd0a4f28419497f9722a3daafe3b4186f6b6457e09080a3156101e157506080526001805566470de4df82000060055560a052600280546001600160a01b0319166001600160a01b0392831617905590811660c0528216156101da57505b60e052604051612dfe908161025882396080518181816105b9015281816106600152818161070601528181610ad701528181610cff01528181611362015281816116cb015281816118700152611c64015260a05181818161033b01528181610b7601528181611084015281816111bb0152818161150901528181611c0d015261213e015260c051818181610cba01526125b9015260e05181610d440152f35b905061013b565b62461bcd60e51b8152602060048201526012602482015271125b9d985b1a5908115b9d1c9e541bda5b9d60721b6044820152606490fd5b631e4fbdf760e01b5f525f60045260245ffd5b5f80fd5b634e487b7160e01b5f52604160045260245ffd5b51906001600160a01b038216820361022b5756fe60806040526004361015610011575f80fd5b5f5f3560e01c806301a1bb4d14611cd85780630396cb6014611c3c57806306433b1b14611bf7578063079d2d421461199257806313e7c9d8146118e0578063205c28781461184b5780632e1a7d4d14611774578063327266841461175457806339788cd91461173357806352b7512c1461168b578063539f51db1461166e5780635949a8f7146114be578063594a6f23146114a057806361ad446e1461148257806366c3687514611449578063715018a61461140257806374f053c4146113d957806379e20bdc146113b65780637af3816c146113985780637c627b211461131a578063847807f21461116557806388a7ca5c14610fea5780638da5cb5b14610fc35780638e58021314610f20578063a134d63a14610e1e578063a4b5328f14610d73578063ad961ea714610d2e578063b0d691fe14610ce9578063b0f0abe914610ca4578063b6b55f2514610b2b578063bb9fe6bf14610abb578063bc95910114610a76578063bfa5a1eb14610894578063c06f58e81461086b578063c1d9cb0814610772578063c23a5cea146106e1578063c399ec8814610633578063d0e30db0146105a2578063d20727d7146104f6578063e1a45218146104d9578063eafe74b5146102e9578063ef7d87a3146102cd578063f2fde38b1461025a5763f5c91a08146101fe575f80fd5b3461025757604036600319011261025757610217611d77565b5f516020612d095f395f51905f52602060243592610233612b2d565b6001600160a01b03168085526003825260408086206005018590555193845292a280f35b80fd5b503461025757602036600319011261025757610274611d77565b61027c612b2d565b6001600160a01b031680156102b95781546001600160a01b03198116821783556001600160a01b03165f516020612da95f395f51905f528380a380f35b631e4fbdf760e01b82526004829052602482fd5b5034610257578060031936011261025757602060405160c88152f35b503461025757604036600319011261025757610303611d77565b9061030c611d8d565b604051632c333e2560e01b81526001600160a01b039384166004820181905293909190602090839060249082907f0000000000000000000000000000000000000000000000000000000000000000165afa9182156104655783926104a5575b50604051634d3c739760e11b815260048101949094526001600160a01b0316602084602481845afa938415610465578394610470575b5092602060049460405195868092633ba0b9a960e01b82525afa93841561046557839461042d575b50670de0b6b3a7640000810290808204670de0b6b3a76400001490151715610419576020936103f791611fc4565b90818111156104125761040a9250612033565b604051908152f35b505061040a565b634e487b7160e01b83526011600452602483fd5b9093506020813d60201161045d575b8161044960209383611e9c565b810103126104595751925f6103c9565b5f80fd5b3d915061043c565b6040513d85823e3d90fd5b93506020843d60201161049d575b8161048b60209383611e9c565b810103126104595792519260206103a1565b3d915061047e565b9091506020813d6020116104d1575b816104c160209383611e9c565b810103126104595751905f61036b565b3d91506104b4565b503461025757806003193601126102575760206040516127108152f35b503461025757602036600319011261025757610510611d77565b610518612b2d565b6001600160a01b0316801561056b57600280546001600160a01b0319811683179091556001600160a01b03167f75f4cc3f3f70100dc11e396f47f8af2dec5cf7ec94e06062222be779cf2f3dec8380a380f35b60405162461bcd60e51b815260206004820152600f60248201526e496e76616c6964206164647265737360881b6044820152606490fd5b5080600319360112610257576105b6612b2d565b807f00000000000000000000000000000000000000000000000000000000000000006001600160a01b0316803b1561063057816024916040519283809263b760faf960e01b825230600483015234905af18015610625576106145750f35b8161061e91611e9c565b6102575780f35b6040513d84823e3d90fd5b50fd5b50346102575780600319360112610257576040516370a0823160e01b8152306004820152906020826024817f00000000000000000000000000000000000000000000000000000000000000006001600160a01b03165afa9081156106d557906106a2575b602090604051908152f35b506020813d6020116106cd575b816106bc60209383611e9c565b810103126104595760209051610697565b3d91506106af565b604051903d90823e3d90fd5b503461025757602036600319011261025757806106fc611d77565b610704612b2d565b7f00000000000000000000000000000000000000000000000000000000000000006001600160a01b031690813b1561076e5760405163611d2e7560e11b81526001600160a01b0390911660048201529082908290602490829084905af18015610625576106145750f35b5050fd5b50346102575760203660031901126102575761078c611d77565b81608060405161079b81611e6d565b828152826020820152826040820152606080820152015260018060a01b031680825260046020526040822054156108335780825260046020526040822090825260046020526040822054915f19830192831161081f5761081b6108076108018585611e08565b50612954565b604051918291602083526020830190611f7d565b0390f35b634e487b7160e01b81526011600452602490fd5b60405162461bcd60e51b815260206004820152601060248201526f4e6f20736c61736820686973746f727960801b6044820152606490fd5b50346102575780600319360112610257576009546040516001600160a01b039091168152602090f35b5034610257576080366003190112610257576108ae611d77565b6024356003811015610a7257606435836044356001600160401b038311610a6e575f516020612d495f395f51905f5260406109a7925f516020612d095f395f51905f52966109026020973690600401611da3565b95909961090d612b2d565b6001600160a01b031680885260038952848820909a8b97908961092f86611f5f565b856109f4575061098e90878b600a955b600581019d8e888154115f146109ee57905061095c888254612033565b90555b896109c5575b508b815260048e52209288519461097b86611e6d565b428652888e870152898601523691611ffd565b606083015261099c84611f5f565b8360808301526129a3565b82519182526109b581611f5f565b86820152a254604051908152a280f35b600201805482908b116109e757506109de8a8254612033565b90555b5f610965565b90556109e1565b5561095f565b6109fd86611f5f565b8a60018703610a165761098e929150889060149561093f565b9093610a2187611f5f565b60028714610a36575b61098e9291899161093f565b805460ff60a81b1916600160a81b1781556032945061098e929189918c5f516020612d295f395f51905f528380a29150919250610a2a565b5080fd5b8280fd5b503461025757602036600319011261025757610a90611d77565b610a98612b2d565b600980546001600160a01b0319166001600160a01b039290921691909117905580f35b5034610257578060031936011261025757610ad4612b2d565b807f00000000000000000000000000000000000000000000000000000000000000006001600160a01b0316803b156106305781809160046040518094819363bb9fe6bf60e01b83525af18015610625576106145750f35b503461025757602036600319011261025757600435610b48612b53565b604051632474521560e21b81525f516020612d895f395f51905f5260048201523360248201526020816044817f00000000000000000000000000000000000000000000000000000000000000006001600160a01b03165afa908115610465578391610c75575b5015610c36576002546040516323b872dd60e01b6020820152610bfa916001600160a01b0316610bf582610be786303360248501612932565b03601f198101845283611e9c565b612c17565b338252600360205260026040832001610c148282546120ef565b90556040519081525f516020612d695f395f51905f5260203392a26001805580f35b60405162461bcd60e51b815260206004820152601760248201527613dc195c985d1bdc881b9bdd081c9959da5cdd195c9959604a1b6044820152606490fd5b610c97915060203d602011610c9d575b610c8f8183611e9c565b8101906120b0565b5f610bae565b503d610c85565b50346102575780600319360112610257576040517f00000000000000000000000000000000000000000000000000000000000000006001600160a01b03168152602090f35b50346102575780600319360112610257576040517f00000000000000000000000000000000000000000000000000000000000000006001600160a01b03168152602090f35b50346102575780600319360112610257576040517f00000000000000000000000000000000000000000000000000000000000000006001600160a01b03168152602090f35b503461025757604036600319011261025757610d8d611d77565b602435610d98612b2d565b610da0612b53565b6001600160a01b0382161561056b57600b5491828211610de257610dc782610ddb94612033565b600b556002546001600160a01b0316612b73565b6001805580f35b60405162461bcd60e51b8152602060048201526014602482015273496e73756666696369656e7420726576656e756560601b6044820152606490fd5b5034610257576020366003190112610257576001600160a01b03610e40611d77565b16815260046020526040812080546001600160401b038111610f0c5760405190610e7060208260051b0183611e9c565b80825260208201809385526020852085915b838310610eee57868587604051928392602084019060208552518091526040840160408260051b8601019392905b828210610ebf57505050500390f35b91936001919395506020610ede8192603f198a82030186528851611f7d565b9601920192018594939192610eb0565b60056020600192610efe85612954565b815201920192019190610e82565b634e487b7160e01b83526041600452602483fd5b503461025757604036600319011261025757610f3a611d77565b6001600160a01b0316815260046020526040812080546024359190821015610a7257610f669250611e08565b508054600182015491610fb060028201549160ff6004610f8860038401611ebf565b920154169260405195869586526020860152604085015260a0606085015260a0840190611de4565b90610fba81611f5f565b60808301520390f35b5034610257578060031936011261025757546040516001600160a01b039091168152602090f35b503461025757608036600319011261025757611004611d77565b5061100d611d8d565b90604435906064356001600160401b038111610a6e57611031903690600401611da3565b50506002546001600160a01b0316330361112d57604051632474521560e21b81525f516020612d895f395f51905f5260048201526001600160a01b039384166024820181905293602090829060449082907f0000000000000000000000000000000000000000000000000000000000000000165afa90811561062557829161110e575b5015610c36575f516020612d695f395f51905f5291600260408386602095526003855220016110e48282546120ef565b90556110f281600a546120ef565b600a55604051908152a2604051632229f29760e21b8152602090f35b611127915060203d602011610c9d57610c8f8183611e9c565b5f6110b4565b60405162461bcd60e51b815260206004820152601060248201526f27b7363c9020a8272a29afaa27a5a2a760811b6044820152606490fd5b50346102575760603660031901126102575761117f611d77565b611187611d8d565b604051632474521560e21b81525f516020612d895f395f51905f5260048201523360248201526044803591906020908290817f00000000000000000000000000000000000000000000000000000000000000006001600160a01b03165afa90811561130f5785916112f0575b5015610c36576001600160a01b0383161580156112df575b80156112d7575b61129a573380855260036020526040808620805460a085901b6001600160a01b0319166001600160a01b038088169190911760018401556001600160a81b031990911690871617600160a01b1790555190937fff8a1775e676e9fe3cc41088a092f762a9c36c13098d2a9c6a02d1814e0ecbd793919283926112949284612932565b0390a280f35b60405162461bcd60e51b815260206004820152601560248201527424b73b30b634b21031b7b73334b3bab930ba34b7b760591b6044820152606490fd5b508015611212565b506001600160a01b0382161561120b565b611309915060203d602011610c9d57610c8f8183611e9c565b5f6111f3565b6040513d87823e3d90fd5b5034610257576080366003190112610257576004356003811015610a6e57602435906001600160401b038211610a725761135b611395923690600401611da3565b91611390337f00000000000000000000000000000000000000000000000000000000000000006001600160a01b031614612054565b61289a565b80f35b50346102575780600319360112610257576020600b54604051908152f35b5034610257576040366003190112610257576113d0611d77565b50610ddb612b53565b50346102575780600319360112610257576002546040516001600160a01b039091168152602090f35b503461025757806003193601126102575761141b612b2d565b80546001600160a01b03198116825581906001600160a01b03165f516020612da95f395f51905f528280a380f35b5034610257576020366003190112610257576020906040906001600160a01b03611471611d77565b168152600483522054604051908152f35b50346102575780600319360112610257576020600a54604051908152f35b50346102575780600319360112610257576020600554604051908152f35b5034610257576020366003190112610257576004356114db612b53565b604051632474521560e21b81525f516020612d895f395f51905f5260048201523360248201526020816044817f00000000000000000000000000000000000000000000000000000000000000006001600160a01b03165afa90811561046557839161164f575b5015610c36576002546040516370a0823160e01b815230600482015290602090829060249082906001600160a01b03165afa801561046557839061161b575b61158e9150600a5490612033565b81116115df573382526003602052600260408320016115ae8282546120ef565b90556115bc81600a546120ef565b600a556040519081525f516020612d695f395f51905f5260203392a26001805580f35b60405162461bcd60e51b815260206004820152601460248201527311195c1bdcda5d081b9bdd081d995c9a599a595960621b6044820152606490fd5b506020813d602011611647575b8161163560209383611e9c565b810103126104595761158e9051611580565b3d9150611628565b611668915060203d602011610c9d57610c8f8183611e9c565b5f611541565b5034610257578060031936011261025757602060405161012c8152f35b503461025757606036600319011261025757600435906001600160401b03821161025757610120600319833603011261025757611729611711836116f9337f00000000000000000000000000000000000000000000000000000000000000006001600160a01b031614612054565b611701612b53565b60443590602435906004016120fc565b60018055604051928392604084526040840190611de4565b9060208301520390f35b503461025757806003193601126102575760206040516509184e72a0008152f35b503461025757806003193601126102575760206040516402540be4008152f35b503461025757602036600319011261025757600435611791612b53565b33825260036020528060026040842001541061180f573382526003602052600260408320016117c1828254612033565b90556002546117dc90829033906001600160a01b0316612b73565b6040519081527f4eea589c35918e3c4d8e0371a062a1d544e41d78fb522381678923b9cd6e6dfa60203392a26001805580f35b60405162461bcd60e51b8152602060048201526014602482015273496e73756666696369656e742062616c616e636560601b6044820152606490fd5b50346102575760403660031901126102575780611866611d77565b61186e612b2d565b7f00000000000000000000000000000000000000000000000000000000000000006001600160a01b031690813b1561076e5760405163040b850f60e31b81526001600160a01b03909116600482015260248035908201529082908290604490829084905af18015610625576106145750f35b503461025757602036600319011261025757610140906040906001600160a01b03611909611d77565b168152600360205220805490600181015490600281015460038201549060056004840154930154936040519560018060a01b038116875260ff8160a01c161515602088015260ff8160a81c161515604088015260b01c606087015260018060a01b038116608087015260a01c60a086015260c085015260e0840152610100830152610120820152f35b5034610257576060366003190112610257576119ac611d77565b6024356003811015610a72576044356001600160401b038111611bf3576119d7903690600401611da3565b6009549093906001600160a01b03163303611bb8575f516020612d495f395f51905f529285611a0582611f5f565b60018214908115611b7b57506001600160a01b038316875260036020526040872060020154600a900492611b0291905b611a69604096875199611a48898c611e9c565b600d8b526c088aca8408498a640a6d8c2e6d609b1b60208c01523691611ffd565b506001600160a01b0316808952600360205285892090979091611a8b85611f5f565b84611b5b575060ff600a5b1691611aa185611f5f565b60028514611b45575b600581018a848254115f14611b3e5750611ac5848254612033565b90555b85611b19575b50878952600460205285892090865192611ae784611e6d565b42845286602085015287840152606083015261099c84611f5f565b8251918252611b1081611f5f565b6020820152a280f35b600201611b27868254612033565b9055611b3585600b546120ef565b600b555f611ace565b9055611ac8565b805460ff60a81b1916600160a81b178155611aaa565b611b6485611f5f565b15611b725760ff6014611a96565b60ff6032611a96565b92611b8583611f5f565b60028314611b98575b90611b0291611a35565b6001600160a01b0381168852600360205260408820600201549350611b8e565b60405162461bcd60e51b815260206004820152601360248201527227b7363c902126299020b3b3b932b3b0ba37b960691b6044820152606490fd5b8380fd5b50346102575780600319360112610257576040517f00000000000000000000000000000000000000000000000000000000000000006001600160a01b03168152602090f35b5060203660031901126104595760043563ffffffff811680910361045957611c62612b2d565b7f00000000000000000000000000000000000000000000000000000000000000006001600160a01b031690813b15610459575f90602460405180948193621cb65b60e51b8352600483015234905af18015611ccd57611cbf575080f35b611ccb91505f90611e9c565b005b6040513d5f823e3d90fd5b3461045957604036600319011261045957611cf1611d77565b6024358015159182820361045957611d07612b2d565b6001600160a01b03165f818152600360205260409020805460ff60a81b191660a89490941b60ff60a81b169390931790925515611d51575f516020612d295f395f51905f525f80a2005b7fae02c1bd695006b6d891af37fdeefea45a10ebcc17071e3471787db4f17728855f80a2005b600435906001600160a01b038216820361045957565b602435906001600160a01b038216820361045957565b9181601f84011215610459578235916001600160401b038311610459576020838186019501011161045957565b35906001600160a01b038216820361045957565b805180835260209291819084018484015e5f828201840152601f01601f1916010190565b8054821015611e21575f52600560205f20910201905f90565b634e487b7160e01b5f52603260045260245ffd5b90600182811c92168015611e63575b6020831014611e4f57565b634e487b7160e01b5f52602260045260245ffd5b91607f1691611e44565b60a081019081106001600160401b03821117611e8857604052565b634e487b7160e01b5f52604160045260245ffd5b601f909101601f19168101906001600160401b03821190821017611e8857604052565b9060405191825f825492611ed284611e35565b8084529360018116908115611f3d5750600114611ef9575b50611ef792500383611e9c565b565b90505f9291925260205f20905f915b818310611f21575050906020611ef7928201015f611eea565b6020919350806001915483858901015201910190918492611f08565b905060209250611ef794915060ff191682840152151560051b8201015f611eea565b60031115611f6957565b634e487b7160e01b5f52602160045260245ffd5b90815181526020820151602082015260408201516040820152608080611fb2606085015160a0606086015260a0850190611de4565b93015191611fbf83611f5f565b015290565b8115611fce570490565b634e487b7160e01b5f52601260045260245ffd5b6001600160401b038111611e8857601f01601f191660200190565b92919261200982611fe2565b916120176040519384611e9c565b829481845281830111610459578281602093845f960137010152565b9190820391821161204057565b634e487b7160e01b5f52601160045260245ffd5b1561205b57565b60405162461bcd60e51b815260206004820152602760248201527f426173655061796d61737465723a2063616c6c6572206973206e6f7420456e746044820152661c9e541bda5b9d60ca1b6064820152608490fd5b90816020910312610459575180151581036104595790565b356001600160a01b03811681036104595790565b8181029291811591840414171561204057565b9190820180921161204057565b90929161210882612bcc565b604051632474521560e21b81525f516020612d895f395f51905f5260048201526001600160a01b03918216602482018190525f967f0000000000000000000000000000000000000000000000000000000000000000909316929091602081604481875afa908115611ccd575f91612860575b501561282c57612189856120c8565b604051632474521560e21b81527f0c34ecc75d3bf122e0609d2576e167f53fb42429262ce8c9b33cab91ff670e3a60048201526001600160a01b039091166024820152602081604481875afa908115611ccd575f91612841575b501561282c57815f52600360205260405f20916020612201876120c8565b604051632c333e2560e01b81526001600160a01b03909116600482015294859060249082905afa938415611ccd575f946127f8575b5082546001600160a01b031694602061224e886120c8565b604051634d3c739760e11b81526001600160a01b03909116600482015296879060249082905afa958615611ccd575f966127c4575b50670de0b6b3a7640000860295808704670de0b6b3a76400001490151715612040576122b86001850196875460a01c90611fc4565b94858111156127bd576122cb8682612033565b915b61012c6122dc60075442612033565b1115806127b2575b156125aa576122ff6006545b60ff60085460501c16926120dc565b9060120360ff81116120405760ff16604d81116120405761234a61233f670de0b6b3a764000061233586958295600a0a906120dc565b0460055490611fc4565b995460a01c8a6120dc565b0496101590816125a0575b50612580578511918261250c575b50825460ff8160a01c16156124f55760a81c60ff166124df576002830180548681106124bf578661239391612033565b9055600383016123a48682546120ef565b90556123b285600b546120ef565b600b556004830180545f1981146124ab5760010190556001600160a01b036123d9876120c8565b16907fcde7e91a718e2439d8ff2a679ad52713e82a37b72622fb530c8c41039fdd5bf060408051888152876020820152a36001600160a01b0361241b866120c8565b167fd2d5a1362bcd0d05f9c4cdcf180554d9198405ba5a938a59bf2ae807acf90eba6020604051878152a261249257546001600160a01b03169261245e906120c8565b90604051936020850152604084015260018060a01b0316606083015260808201526080815261248e60a082611e9c565b9190565b505050506040516124a4602082611e9c565b8281529190565b634e487b7160e01b8a52601160045260248afd5b505050505050505090604051906124d7602083611e9c565b815290600190565b50505050505090604051906124d7602083611e9c565b5050505050505090604051906124d7602083611e9c565b83546001600160a01b031690612521886120c8565b90823b1561045957604051635c1d516f60e11b81526001600160a01b039092166004830152602482018790526044820152905f908290606490829084905af18015611ccd5715612363576125789198505f90611e9c565b5f965f612363565b505050505050509050604051612597602082611e9c565b5f815290600190565b905015155f612355565b604051633fabe5a360e21b81527f00000000000000000000000000000000000000000000000000000000000000006001600160a01b03169060a081600481855afa918215611ccd575f915f925f915f95612759575b506001600160501b0390811694168411908115612743575b508015612734575b8015612725575b6126f15760206004916040519283809263313ce56760e01b82525afa908115611ccd575f916126b5575b506040516080810193906001600160401b03851181861017611e88576122ff94604052838152426020820152816040820152606060ff841691015282600655426007556008549160ff60501b9060501b169160018060581b03191617176008556122f0565b90506020813d6020116126e9575b816126d060209383611e9c565b81010312610459575160ff81168103610459575f612650565b3d91506126c3565b60405162461bcd60e51b815260206004820152600c60248201526b27b930b1b6329032b93937b960a11b6044820152606490fd5b506509184e72a0008213612626565b506402540be40082131561261f565b610e1091506127529042612033565b115f612617565b93505050915060a0813d60a0116127aa575b8161277860a09383611e9c565b810103126104595761278981612c03565b916020820151926127a1608060608501519401612c03565b9392905f6125ff565b3d915061276b565b505f600654136122e4565b5f916122cd565b9095506020813d6020116127f0575b816127e060209383611e9c565b810103126104595751945f612283565b3d91506127d3565b9093506020813d602011612824575b8161281460209383611e9c565b810103126104595751925f612236565b3d9150612807565b50505050509050604051612597602082611e9c565b61285a915060203d602011610c9d57610c8f8183611e9c565b5f6121e3565b612879915060203d602011610c9d57610c8f8183611e9c565b5f61217a565b6001600160a01b039091168152602081019190915260400190565b91801561292d578160809181010312610459576128b681611dd0565b6128d66128c560408401611dd0565b6001600160a01b0390921693611f5f565b823b156104595760405163fa74542d60e01b8152925f92849283918591839161291291602090910135906001600160a01b03166004840161287f565b03925af18015611ccd576129235750565b5f611ef791611e9c565b505050565b6001600160a01b03918216815291166020820152604081019190915260600190565b9060405161296181611e6d565b608060ff6004839580548552600181015460208601526002810154604086015261298d60038201611ebf565b60608601520154169161299f83611f5f565b0152565b8054600160401b811015611e88576129c091600182018155611e08565b612b1a578151815560208201516001820155604082015160028201556060820151805160038301916001600160401b038211611e8857612a008354611e35565b601f8111612ad5575b50602090601f8311600114612a6c57918060049492608096945f92612a61575b50508160011b915f199060031b1c19161790555b01910151612a4a81611f5f565b612a5381611f5f565b60ff80198354169116179055565b015190505f80612a29565b90601f19831691845f52815f20925f5b818110612abd5750926001928592608098966004989610612aa5575b505050811b019055612a3d565b01515f1960f88460031b161c191690555f8080612a98565b92936020600181928786015181550195019301612a7c565b835f5260205f20601f840160051c81019160208510612b10575b601f0160051c01905b818110612b055750612a09565b5f8155600101612af8565b9091508190612aef565b634e487b7160e01b5f525f60045260245ffd5b5f546001600160a01b03163303612b4057565b63118cdaa760e01b5f523360045260245ffd5b600260015414612b64576002600155565b633ee5aeb560e01b5f5260045ffd5b610bf5611ef79392610be760405194859263a9059cbb60e01b60208501526024840161287f565b903590601e198136030182121561045957018035906001600160401b0382116104595760200191813603831361045957565b60e081016048612bdc8284612b9a565b905010612bfd57612bec91612b9a565b604811610459576034013560601c90565b50505f90565b51906001600160501b038216820361045957565b5f80612c5f9260018060a01b03169360208151910182865af13d15612ca2573d90612c4182611fe2565b91612c4f6040519384611e9c565b82523d5f602084013e5b83612caa565b8051908115159182612c87575b5050612c755750565b635274afe760e01b5f5260045260245ffd5b612c9a92506020809183010191016120b0565b155f80612c6c565b606090612c59565b90612cce5750805115612cbf57805190602001fd5b630a12f52160e11b5f5260045ffd5b81511580612cff575b612cdf575090565b639996b31560e01b5f9081526001600160a01b0391909116600452602490fd5b50803b15612cd756fefc577563f1b9a0461e24abef1e1fcc0d33d3d881f20b5df6dda59de4aae2c821c5437eb8dd091f69800961953f2bb0bc16ae1ff2d3e52caa96796db65f8271daa7503227727e36abb7f0ecf24f626347ccc20233c48c554d49d7d2077a1a304006653c045d0a3144153a51ac6909baae43b8d5b67184cb74e988b72858727fe4e94d78b6d8fb99b2c21131eb4552924a60f564d8515a3cc90ef300fc9735c0748be0079c531659141344cd1fd0a4f28419497f9722a3daafe3b4186f6b6457e0a264697066735822122069d62fd98b7b36fefd0c083b2a4e1235b06b642c984095c663c94e2de2bd3ba664736f6c634300081c0033","linkReferences":{}},"methodIdentifiers":{"APNTS_TOKEN()":"74f053c4","BLS_AGGREGATOR()":"c06f58e8","BPS_DENOMINATOR()":"e1a45218","ETH_USD_PRICE_FEED()":"b0f0abe9","MAX_ETH_USD_PRICE()":"39788cd9","MIN_ETH_USD_PRICE()":"32726684","PRICE_CACHE_DURATION()":"539f51db","REGISTRY()":"06433b1b","SERVICE_FEE_BPS()":"ef7d87a3","SUPER_PAYMASTER_TREASURY()":"ad961ea7","aPNTsPriceUSD()":"594a6f23","addStake(uint32)":"0396cb60","configureOperator(address,address,uint256)":"847807f2","deposit()":"d0e30db0","deposit(uint256)":"b6b55f25","entryPoint()":"b0d691fe","executeSlashWithBLS(address,uint8,bytes)":"079d2d42","getAvailableCredit(address,address)":"eafe74b5","getDeposit()":"c399ec88","getLatestSlash(address)":"c1d9cb08","getSlashCount(address)":"66c36875","getSlashHistory(address)":"a134d63a","notifyDeposit(uint256)":"5949a8f7","onTransferReceived(address,address,uint256,bytes)":"88a7ca5c","operators(address)":"13e7c9d8","owner()":"8da5cb5b","postOp(uint8,bytes,uint256,uint256)":"7c627b21","protocolRevenue()":"7af3816c","renounceOwnership()":"715018a6","repayDebt(address,uint256)":"79e20bdc","setAPNTsToken(address)":"d20727d7","setBLSAggregator(address)":"bc959101","setOperatorPause(address,bool)":"01a1bb4d","slashHistory(address,uint256)":"8e580213","slashOperator(address,uint8,uint256,string)":"bfa5a1eb","totalTrackedBalance()":"61ad446e","transferOwnership(address)":"f2fde38b","unlockStake()":"bb9fe6bf","updateReputation(address,uint256)":"f5c91a08","validatePaymasterUserOp((address,uint256,bytes,bytes,bytes32,uint256,bytes32,bytes,bytes),bytes32,uint256)":"52b7512c","withdraw(uint256)":"2e1a7d4d","withdrawProtocolRevenue(address,uint256)":"a4b5328f","withdrawStake(address)":"c23a5cea","withdrawTo(address,uint256)":"205c2878"},"id":35}