{"abi":[{"type":"constructor","inputs":[{"name":"name","type":"string","internalType":"string"},{"name":"symbol","type":"string","internalType":"string"},{"name":"_communityOwner","type":"address","internalType":"address"},{"name":"_communityName","type":"string","internalType":"string"},{"name":"_communityENS","type":"string","internalType":"string"},{"name":"_exchangeRate","type":"uint256","internalType":"uint256"}],"stateMutability":"nonpayable"},{"type":"function","name":"DOMAIN_SEPARATOR","inputs":[],"outputs":[{"name":"","type":"bytes32","internalType":"bytes32"}],"stateMutability":"view"},{"type":"function","name":"FACTORY","inputs":[],"outputs":[{"name":"","type":"address","internalType":"address"}],"stateMutability":"view"},{"type":"function","name":"SUPERPAYMASTER_ADDRESS","inputs":[],"outputs":[{"name":"","type":"address","internalType":"address"}],"stateMutability":"view"},{"type":"function","name":"VERSION","inputs":[],"outputs":[{"name":"","type":"string","internalType":"string"}],"stateMutability":"view"},{"type":"function","name":"VERSION_CODE","inputs":[],"outputs":[{"name":"","type":"uint256","internalType":"uint256"}],"stateMutability":"view"},{"type":"function","name":"addAutoApprovedSpender","inputs":[{"name":"spender","type":"address","internalType":"address"}],"outputs":[],"stateMutability":"nonpayable"},{"type":"function","name":"allowance","inputs":[{"name":"owner","type":"address","internalType":"address"},{"name":"spender","type":"address","internalType":"address"}],"outputs":[{"name":"","type":"uint256","internalType":"uint256"}],"stateMutability":"view"},{"type":"function","name":"approve","inputs":[{"name":"spender","type":"address","internalType":"address"},{"name":"value","type":"uint256","internalType":"uint256"}],"outputs":[{"name":"","type":"bool","internalType":"bool"}],"stateMutability":"nonpayable"},{"type":"function","name":"autoApprovedSpenders","inputs":[{"name":"","type":"address","internalType":"address"}],"outputs":[{"name":"","type":"bool","internalType":"bool"}],"stateMutability":"view"},{"type":"function","name":"balanceOf","inputs":[{"name":"account","type":"address","internalType":"address"}],"outputs":[{"name":"","type":"uint256","internalType":"uint256"}],"stateMutability":"view"},{"type":"function","name":"burn","inputs":[{"name":"amount","type":"uint256","internalType":"uint256"}],"outputs":[],"stateMutability":"nonpayable"},{"type":"function","name":"burn","inputs":[{"name":"from","type":"address","internalType":"address"},{"name":"amount","type":"uint256","internalType":"uint256"}],"outputs":[],"stateMutability":"nonpayable"},{"type":"function","name":"burnFromWithOpHash","inputs":[{"name":"from","type":"address","internalType":"address"},{"name":"amount","type":"uint256","internalType":"uint256"},{"name":"userOpHash","type":"bytes32","internalType":"bytes32"}],"outputs":[],"stateMutability":"nonpayable"},{"type":"function","name":"communityENS","inputs":[],"outputs":[{"name":"","type":"string","internalType":"string"}],"stateMutability":"view"},{"type":"function","name":"communityName","inputs":[],"outputs":[{"name":"","type":"string","internalType":"string"}],"stateMutability":"view"},{"type":"function","name":"communityOwner","inputs":[],"outputs":[{"name":"","type":"address","internalType":"address"}],"stateMutability":"view"},{"type":"function","name":"debts","inputs":[{"name":"","type":"address","internalType":"address"}],"outputs":[{"name":"","type":"uint256","internalType":"uint256"}],"stateMutability":"view"},{"type":"function","name":"decimals","inputs":[],"outputs":[{"name":"","type":"uint8","internalType":"uint8"}],"stateMutability":"view"},{"type":"function","name":"eip712Domain","inputs":[],"outputs":[{"name":"fields","type":"bytes1","internalType":"bytes1"},{"name":"name","type":"string","internalType":"string"},{"name":"version","type":"string","internalType":"string"},{"name":"chainId","type":"uint256","internalType":"uint256"},{"name":"verifyingContract","type":"address","internalType":"address"},{"name":"salt","type":"bytes32","internalType":"bytes32"},{"name":"extensions","type":"uint256[]","internalType":"uint256[]"}],"stateMutability":"view"},{"type":"function","name":"exchangeRate","inputs":[],"outputs":[{"name":"","type":"uint256","internalType":"uint256"}],"stateMutability":"view"},{"type":"function","name":"getDebt","inputs":[{"name":"user","type":"address","internalType":"address"}],"outputs":[{"name":"","type":"uint256","internalType":"uint256"}],"stateMutability":"view"},{"type":"function","name":"getMetadata","inputs":[],"outputs":[{"name":"_name","type":"string","internalType":"string"},{"name":"_symbol","type":"string","internalType":"string"},{"name":"_communityName","type":"string","internalType":"string"},{"name":"_communityENS","type":"string","internalType":"string"},{"name":"_communityOwner","type":"address","internalType":"address"}],"stateMutability":"view"},{"type":"function","name":"mint","inputs":[{"name":"to","type":"address","internalType":"address"},{"name":"amount","type":"uint256","internalType":"uint256"}],"outputs":[],"stateMutability":"nonpayable"},{"type":"function","name":"name","inputs":[],"outputs":[{"name":"","type":"string","internalType":"string"}],"stateMutability":"view"},{"type":"function","name":"needsApproval","inputs":[{"name":"owner","type":"address","internalType":"address"},{"name":"spender","type":"address","internalType":"address"},{"name":"amount","type":"uint256","internalType":"uint256"}],"outputs":[{"name":"","type":"bool","internalType":"bool"}],"stateMutability":"view"},{"type":"function","name":"nonces","inputs":[{"name":"owner","type":"address","internalType":"address"}],"outputs":[{"name":"","type":"uint256","internalType":"uint256"}],"stateMutability":"view"},{"type":"function","name":"permit","inputs":[{"name":"owner","type":"address","internalType":"address"},{"name":"spender","type":"address","internalType":"address"},{"name":"value","type":"uint256","internalType":"uint256"},{"name":"deadline","type":"uint256","internalType":"uint256"},{"name":"v","type":"uint8","internalType":"uint8"},{"name":"r","type":"bytes32","internalType":"bytes32"},{"name":"s","type":"bytes32","internalType":"bytes32"}],"outputs":[],"stateMutability":"nonpayable"},{"type":"function","name":"recordDebt","inputs":[{"name":"user","type":"address","internalType":"address"},{"name":"amountXPNTs","type":"uint256","internalType":"uint256"}],"outputs":[],"stateMutability":"nonpayable"},{"type":"function","name":"removeAutoApprovedSpender","inputs":[{"name":"spender","type":"address","internalType":"address"}],"outputs":[],"stateMutability":"nonpayable"},{"type":"function","name":"setSuperPaymasterAddress","inputs":[{"name":"_spAddress","type":"address","internalType":"address"}],"outputs":[],"stateMutability":"nonpayable"},{"type":"function","name":"symbol","inputs":[],"outputs":[{"name":"","type":"string","internalType":"string"}],"stateMutability":"view"},{"type":"function","name":"totalSupply","inputs":[],"outputs":[{"name":"","type":"uint256","internalType":"uint256"}],"stateMutability":"view"},{"type":"function","name":"transfer","inputs":[{"name":"to","type":"address","internalType":"address"},{"name":"value","type":"uint256","internalType":"uint256"}],"outputs":[{"name":"","type":"bool","internalType":"bool"}],"stateMutability":"nonpayable"},{"type":"function","name":"transferAndCall","inputs":[{"name":"to","type":"address","internalType":"address"},{"name":"amount","type":"uint256","internalType":"uint256"}],"outputs":[{"name":"","type":"bool","internalType":"bool"}],"stateMutability":"nonpayable"},{"type":"function","name":"transferAndCall","inputs":[{"name":"to","type":"address","internalType":"address"},{"name":"amount","type":"uint256","internalType":"uint256"},{"name":"data","type":"bytes","internalType":"bytes"}],"outputs":[{"name":"","type":"bool","internalType":"bool"}],"stateMutability":"nonpayable"},{"type":"function","name":"transferCommunityOwnership","inputs":[{"name":"newOwner","type":"address","internalType":"address"}],"outputs":[],"stateMutability":"nonpayable"},{"type":"function","name":"transferFrom","inputs":[{"name":"from","type":"address","internalType":"address"},{"name":"to","type":"address","internalType":"address"},{"name":"value","type":"uint256","internalType":"uint256"}],"outputs":[{"name":"","type":"bool","internalType":"bool"}],"stateMutability":"nonpayable"},{"type":"function","name":"updateExchangeRate","inputs":[{"name":"newRate","type":"uint256","internalType":"uint256"}],"outputs":[],"stateMutability":"nonpayable"},{"type":"function","name":"usedOpHashes","inputs":[{"name":"","type":"bytes32","internalType":"bytes32"}],"outputs":[{"name":"","type":"bool","internalType":"bool"}],"stateMutability":"view"},{"type":"event","name":"Approval","inputs":[{"name":"owner","type":"address","indexed":true,"internalType":"address"},{"name":"spender","type":"address","indexed":true,"internalType":"address"},{"name":"value","type":"uint256","indexed":false,"internalType":"uint256"}],"anonymous":false},{"type":"event","name":"AutoApprovedSpenderAdded","inputs":[{"name":"spender","type":"address","indexed":true,"internalType":"address"}],"anonymous":false},{"type":"event","name":"AutoApprovedSpenderRemoved","inputs":[{"name":"spender","type":"address","indexed":true,"internalType":"address"}],"anonymous":false},{"type":"event","name":"CommunityOwnerUpdated","inputs":[{"name":"oldOwner","type":"address","indexed":true,"internalType":"address"},{"name":"newOwner","type":"address","indexed":true,"internalType":"address"}],"anonymous":false},{"type":"event","name":"DebtRecorded","inputs":[{"name":"user","type":"address","indexed":true,"internalType":"address"},{"name":"amount","type":"uint256","indexed":false,"internalType":"uint256"}],"anonymous":false},{"type":"event","name":"DebtRepaid","inputs":[{"name":"user","type":"address","indexed":true,"internalType":"address"},{"name":"amountRepaid","type":"uint256","indexed":false,"internalType":"uint256"},{"name":"remainingDebt","type":"uint256","indexed":false,"internalType":"uint256"}],"anonymous":false},{"type":"event","name":"EIP712DomainChanged","inputs":[],"anonymous":false},{"type":"event","name":"ExchangeRateUpdated","inputs":[{"name":"oldRate","type":"uint256","indexed":false,"internalType":"uint256"},{"name":"newRate","type":"uint256","indexed":false,"internalType":"uint256"}],"anonymous":false},{"type":"event","name":"SuperPaymasterAddressUpdated","inputs":[{"name":"newSuperPaymaster","type":"address","indexed":true,"internalType":"address"}],"anonymous":false},{"type":"event","name":"Transfer","inputs":[{"name":"from","type":"address","indexed":true,"internalType":"address"},{"name":"to","type":"address","indexed":true,"internalType":"address"},{"name":"value","type":"uint256","indexed":false,"internalType":"uint256"}],"anonymous":false},{"type":"error","name":"ECDSAInvalidSignature","inputs":[]},{"type":"error","name":"ECDSAInvalidSignatureLength","inputs":[{"name":"length","type":"uint256","internalType":"uint256"}]},{"type":"error","name":"ECDSAInvalidSignatureS","inputs":[{"name":"s","type":"bytes32","internalType":"bytes32"}]},{"type":"error","name":"ERC20InsufficientAllowance","inputs":[{"name":"spender","type":"address","internalType":"address"},{"name":"allowance","type":"uint256","internalType":"uint256"},{"name":"needed","type":"uint256","internalType":"uint256"}]},{"type":"error","name":"ERC20InsufficientBalance","inputs":[{"name":"sender","type":"address","internalType":"address"},{"name":"balance","type":"uint256","internalType":"uint256"},{"name":"needed","type":"uint256","internalType":"uint256"}]},{"type":"error","name":"ERC20InvalidApprover","inputs":[{"name":"approver","type":"address","internalType":"address"}]},{"type":"error","name":"ERC20InvalidReceiver","inputs":[{"name":"receiver","type":"address","internalType":"address"}]},{"type":"error","name":"ERC20InvalidSender","inputs":[{"name":"sender","type":"address","internalType":"address"}]},{"type":"error","name":"ERC20InvalidSpender","inputs":[{"name":"spender","type":"address","internalType":"address"}]},{"type":"error","name":"ERC2612ExpiredSignature","inputs":[{"name":"deadline","type":"uint256","internalType":"uint256"}]},{"type":"error","name":"ERC2612InvalidSigner","inputs":[{"name":"signer","type":"address","internalType":"address"},{"name":"owner","type":"address","internalType":"address"}]},{"type":"error","name":"InvalidAccountNonce","inputs":[{"name":"account","type":"address","internalType":"address"},{"name":"currentNonce","type":"uint256","internalType":"uint256"}]},{"type":"error","name":"InvalidAddress","inputs":[{"name":"addr","type":"address","internalType":"address"}]},{"type":"error","name":"InvalidShortString","inputs":[]},{"type":"error","name":"OperationAlreadyProcessed","inputs":[{"name":"userOpHash","type":"bytes32","internalType":"bytes32"}]},{"type":"error","name":"StringTooLong","inputs":[{"name":"str","type":"string","internalType":"string"}]},{"type":"error","name":"Unauthorized","inputs":[{"name":"caller","type":"address","internalType":"address"}]}],"bytecode":{"object":"0x6101808060405234610755576126cc803803809161001d8285610759565b833981019060c0818303126107555780516001600160401b038111610755578261004891830161077c565b60208201516001600160401b038111610755578361006791840161077c565b60408301519091906001600160a01b038116908190036107555760608401516001600160401b03811161075557856100a091860161077c565b60808501519095906001600160401b0381116107555760a0916100c491870161077c565b940151916040938451916100d88684610759565b60018352603160f81b6020840190815281519092906001600160401b03811161048f57600354600181811c9116801561074b575b602082101461047157601f81116106e8575b50806020601f8211600114610684575f91610679575b508160011b915f199060031b1c1916176003555b8051906001600160401b03821161048f5760045490600182811c9216801561066f575b60208310146104715781601f849311610601575b50602090601f831160011461059b575f92610590575b50508160011b915f199060031b1c1916176004555b6101b3816107d1565b610120526101c083610958565b6101405260208151910120918260e05251902080610100524660a05284519060208201927f8b73c3c69bb8fe3d512ecc4cf759cc79239f7b179b0ffacaa9a75d522b39400f84528683015260608201524660808201523060a082015260a0815261022b60c082610759565b5190206080523060c052801561057e573361016052600880546001600160a01b03191691909117905583516001600160401b03811161048f57600c54600181811c91168015610574575b602082101461047157601f8111610511575b50602094601f82116001146104ae579481929394955f926104a3575b50508160011b915f199060031b1c191617600c555b82516001600160401b03811161048f57600d54600181811c91168015610485575b602082101461047157601f811161040e575b506020601f82116001146103ab57819293945f926103a0575b50508160011b915f199060031b1c191617600d555b8015610391575b600e5551611c3b9081610a91823960805181611581015260a0518161163e015260c0518161154b015260e051816115d0015261010051816115f601526101205181610909015261014051816109320152610160518181816106e301528181610a6c01528181610ccb0152610e960152f35b50670de0b6b3a7640000610320565b015190505f80610304565b601f19821690600d5f52805f20915f5b8181106103f6575095836001959697106103de575b505050811b01600d55610319565b01515f1960f88460031b161c191690555f80806103d0565b9192602060018192868b0151815501940192016103bb565b600d5f527fd7b6990105719101dabeb77144f2a3385c8033acd3af97e9423a695e81ad1eb5601f830160051c81019160208410610467575b601f0160051c01905b81811061045c57506102eb565b5f815560010161044f565b9091508190610446565b634e487b7160e01b5f52602260045260245ffd5b90607f16906102d9565b634e487b7160e01b5f52604160045260245ffd5b015190505f806102a3565b601f19821695600c5f52805f20915f5b8881106104f9575083600195969798106104e1575b505050811b01600c556102b8565b01515f1960f88460031b161c191690555f80806104d3565b919260206001819286850151815501940192016104be565b600c5f527fdf6966c971051c3d54ec59162606531493a51404a002842f56009d7e5cf4a8c7601f830160051c8101916020841061056a575b601f0160051c01905b81811061055f5750610287565b5f8155600101610552565b9091508190610549565b90607f1690610275565b634726455360e11b5f5260045260245ffd5b015190505f80610195565b60045f9081528281209350601f198516905b8181106105e957509084600195949392106105d1575b505050811b016004556101aa565b01515f1960f88460031b161c191690555f80806105c3565b929360206001819287860151815501950193016105ad565b60045f529091507f8a35acfbc15ff81a39ae7d344fd709f28e8600b4aa8c65c6b64bfe7fe36bd19b601f840160051c81019160208510610665575b90601f859493920160051c01905b818110610657575061017f565b5f815584935060010161064a565b909150819061063c565b91607f169161016b565b90508301515f610134565b60035f9081528181209250601f198416905b8181106106d0575090836001949392106106b8575b5050811b01600355610148565b8501515f1960f88460031b161c191690555f806106ab565b9192602060018192868a015181550194019201610696565b60035f527fc2575a0e9e593c00f959f8c92f12db2869c3395a3b0502d05e2516446f71f85b601f830160051c81019160208410610741575b601f0160051c01905b818110610736575061011e565b5f8155600101610729565b9091508190610720565b90607f169061010c565b5f80fd5b601f909101601f19168101906001600160401b0382119082101761048f57604052565b81601f82011215610755578051906001600160401b03821161048f57604051926107b0601f8401601f191660200185610759565b8284526020838301011161075557815f9260208093018386015e8301015290565b908151602081105f1461084b575090601f81511161080b5760208151910151602082106107fc571790565b5f198260200360031b1b161790565b604460209160405192839163305a27a960e01b83528160048401528051918291826024860152018484015e5f828201840152601f01601f19168101030190fd5b6001600160401b03811161048f57600554600181811c9116801561094e575b602082101461047157601f811161091b575b50602092601f82116001146108ba57928192935f926108af575b50508160011b915f199060031b1c19161760055560ff90565b015190505f80610896565b601f1982169360055f52805f20915f5b86811061090357508360019596106108eb575b505050811b0160055560ff90565b01515f1960f88460031b161c191690555f80806108dd565b919260206001819286850151815501940192016108ca565b60055f52601f60205f20910160051c810190601f830160051c015b818110610943575061087c565b5f8155600101610936565b90607f169061086a565b908151602081105f14610983575090601f81511161080b5760208151910151602082106107fc571790565b6001600160401b03811161048f57600654600181811c91168015610a86575b602082101461047157601f8111610a53575b50602092601f82116001146109f257928192935f926109e7575b50508160011b915f199060031b1c19161760065560ff90565b015190505f806109ce565b601f1982169360065f52805f20915f5b868110610a3b5750836001959610610a23575b505050811b0160065560ff90565b01515f1960f88460031b161c191690555f8080610a15565b91926020600181928685015181550194019201610a02565b60065f52601f60205f20910160051c810190601f830160051c015b818110610a7b57506109b4565b5f8155600101610a6e565b90607f16906109a256fe60806040526004361015610011575f80fd5b5f3560e01c806306fdde0314611087578063095ea7b3146110615780631296ee621461102357806318160ddd1461100657806323b872dd14610ec55780632dd3100014610e815780632ecd4e7d1461087b578063313ce56714610e665780633644e51514610e4c57806338518bfe14610e245780633ba0b9a914610e075780634000aea014610d5157806340c10f1914610caf57806342966c6814610c925780635054dbd014610c6a578063623330ae14610be157806366b48f9114610bc657806370a0823114610b8f5780637a5b4f5914610afc5780637ade132c14610a505780637ecebe0014610a185780637fd6327a146109e957806384b0196e146108f15780638d074547146108ce57806395d89b41146108b35780639a78e72e1461087b5780639dc29fac14610743578063a9059cbb14610712578063aae64da21461064f578063b83aa2de146105c0578063b9e205ae1461051d578063c504e209146104ae578063c6d572ae1461047f578063d505accf1461033a578063dd62ed3e14610306578063e9763063146102ea578063f1d85d55146102ad578063fa74542d1461021c5763ffa1ad74146101c6575f80fd5b34610218575f366003190112610218576102146040516101e7604082611145565b600c81526b0c8b8c8b8c0b58dc99591a5d60a21b60208201526040519182916020835260208301906110a2565b0390f35b5f80fd5b34610218576040366003190112610218576102356110c6565b60095460243591906001600160a01b0316330361029a5760207f99cf5cc1e3146bd15204f8eae4fe16c690d6123fbdac32515502fe688b86b8f59160018060a01b031692835f52600f825260405f2061028f8282546114ec565b9055604051908152a2005b63472511eb60e11b5f523360045260245ffd5b34610218576020366003190112610218576001600160a01b036102ce6110c6565b165f52600a602052602060ff60405f2054166040519015158152f35b34610218575f366003190112610218576020604051614e848152f35b346102185760403660031901126102185760206103326103246110c6565b61032c6110dc565b9061149d565b604051908152f35b346102185760e0366003190112610218576103536110c6565b61035b6110dc565b604435906064359260843560ff811681036102185784421161046c5761042f6104389160018060a01b03841696875f52600760205260405f20908154916001830190556040519060208201927f6e71edae12b1b97f4d1f60370fef10105fa2faae0126114a169c64845d6126c984528a604084015260018060a01b038916606084015289608084015260a083015260c082015260c081526103fd60e082611145565b519020610408611548565b906040519161190160f01b83526002830152602282015260c43591604260a4359220611a36565b90929192611ab9565b6001600160a01b031684810361045557506104539350611750565b005b84906325c0072360e11b5f5260045260245260445ffd5b8463313c898160e11b5f5260045260245ffd5b34610218575f3660031901126102185761021461049a611381565b6040519182916020835260208301906110a2565b34610218576020366003190112610218576104c76110c6565b6008546001600160a01b0316330361029a576001600160a01b03165f818152600a60205260408120805460ff191690557f49debedb360a6c155dc3046b522ec5e27906afea1be0015b4625302e9192e2d89080a2005b3461021857602036600319011261021857600854600435906001600160a01b0316330361029a5780156105835760407fc8d1043f24843c0a1c9251fdc30017d84e87498fbcf232af9f86816b5e182bde91600e549080600e5582519182526020820152a1005b60405162461bcd60e51b815260206004820152601560248201527452617465206d75737420626520706f73697469766560581b6044820152606490fd5b34610218576060366003190112610218576105d96110c6565b60095460443591906001600160a01b0316330361063a57815f52600b60205260ff60405f20541661062757610453915f52600b60205260405f20600160ff1982541617905560243590611736565b5063070c5a0360e51b5f5260045260245ffd5b63472511eb60e11b5f90815233600452602490fd5b34610218576020366003190112610218576106686110c6565b6008546001600160a01b0316331415806106df575b61029a576001600160a01b031680156106cd57805f52600a60205260405f20600160ff198254161790557fcd244ccee31904b178ff7bfc95631cea7812a955f9a330ac216c0c8c9dbfaf205f80a2005b634726455360e11b5f5260045260245ffd5b50337f00000000000000000000000000000000000000000000000000000000000000006001600160a01b0316141561067d565b346102185760403660031901126102185761073861072e6110c6565b60243590336114f9565b602060405160018152f35b346102185760403660031901126102185761075c6110c6565b600954602435906001600160a01b03163314610821576001600160a01b038216330361078c575b61045391611736565b610796338361149d565b918183106107d05781610453935f1981036107b5575b50509150610783565b6107c9916107c29161146c565b3383611750565b81846107ac565b60405162461bcd60e51b8152602060048201526024808201527f45524332303a206275726e20616d6f756e74206578636565647320616c6c6f77604482015263616e636560e01b6064820152608490fd5b60405162461bcd60e51b815260206004820152602c60248201527f53757065725061796d6173746572206d75737420757365206275726e46726f6d60448201526b576974684f7048617368282960a01b6064820152608490fd5b34610218576020366003190112610218576001600160a01b0361089c6110c6565b165f52600f602052602060405f2054604051908152f35b34610218575f3660031901126102185761021461049a6112ec565b346102185760206108e86108e1366110f2565b929161149d565b10604051908152f35b34610218575f3660031901126102185761098d61092d7f0000000000000000000000000000000000000000000000000000000000000000611881565b6109567f000000000000000000000000000000000000000000000000000000000000000061197e565b602061099b604051926109698385611145565b5f84525f368137604051958695600f60f81b875260e08588015260e08701906110a2565b9085820360408701526110a2565b4660608501523060808501525f60a085015283810360c08501528180845192838152019301915f5b8281106109d257505050500390f35b8351855286955093810193928101926001016109c3565b34610218576020366003190112610218576004355f52600b602052602060ff60405f2054166040519015158152f35b34610218576020366003190112610218576001600160a01b03610a396110c6565b165f526007602052602060405f2054604051908152f35b3461021857602036600319011261021857610a696110c6565b337f00000000000000000000000000000000000000000000000000000000000000006001600160a01b0316141580610ae7575b61029a576001600160a01b031680156106cd57600980546001600160a01b031916821790557f3c84f1b682ac1493ee72abc0427a570b681583551f8fadd1b98ea9cce545ec6a5f80a2005b506008546001600160a01b0316331415610a9c565b34610218575f36600319011261021857610b5b610b176111a0565b610b1f6112ec565b6008546001600160a01b031690610b8590610b77610b3b611381565b610b69610b46611257565b9360405198899860a08a5260a08a01906110a2565b9088820360208a01526110a2565b9086820360408801526110a2565b9084820360608601526110a2565b9060808301520390f35b34610218576020366003190112610218576001600160a01b03610bb06110c6565b165f525f602052602060405f2054604051908152f35b34610218575f3660031901126102185761021461049a611257565b3461021857602036600319011261021857610bfa6110c6565b600854906001600160a01b038216903382900361029a576001600160a01b03169182908115610c57576001600160a01b031916176008557f1191f7dd7e510e69e54c21c704f6f3c1179351c8a1a8d6a2a66d1e20aed6fd0f5f80a3005b50634726455360e11b5f5260045260245ffd5b34610218575f366003190112610218576009546040516001600160a01b039091168152602090f35b346102185760203660031901126102185761045360043533611736565b3461021857604036600319011261021857610cc86110c6565b337f00000000000000000000000000000000000000000000000000000000000000006001600160a01b0316141580610d3c575b61063a576001600160a01b03811615610d1c5761045390602435905f6117b3565b634726455360e11b5f9081526001600160a01b0391909116600452602490fd5b506008546001600160a01b0316331415610cfb565b3461021857606036600319011261021857610d6a6110c6565b60243590604435906001600160401b0382116102185736602383011215610218576004820135926001600160401b038411610df35760405191610db7601f8601601f191660200184611145565b8483523660248686010111610218575f602086610738976024610dee98018388013785010152610de7828261148d565b5033611664565b611416565b634e487b7160e01b5f52604160045260245ffd5b34610218575f366003190112610218576020600e54604051908152f35b34610218575f366003190112610218576008546040516001600160a01b039091168152602090f35b34610218575f366003190112610218576020610332611548565b34610218575f36600319011261021857602060405160128152f35b34610218575f366003190112610218576040517f00000000000000000000000000000000000000000000000000000000000000006001600160a01b03168152602090f35b3461021857610ed3366110f2565b9060018060a01b03600954163314610f8d57610eef338461149d565b9260018401610f03575b61073893506114f9565b828410610f72576001600160a01b038116938415610f5f573315610f4c57610738945f52600160205260405f2060018060a01b0333165f526020528360405f2091039055610ef9565b634a1406b160e11b5f525f60045260245ffd5b63e602df0560e01b5f525f60045260245ffd5b8284637dc7a0d960e11b5f523360045260245260445260645ffd5b60405162461bcd60e51b815260206004820152604560248201527f53757065725061796d61737465722063616e6e6f7420757365207472616e736660448201527f657246726f6d3b206d75737420757365206275726e46726f6d576974684f7048606482015264617368282960d81b608482015260a490fd5b34610218575f366003190112610218576020600254604051908152f35b3461021857604036600319011261021857610738610dee6110426110c6565b60243560405191611054602084611145565b5f8352610de7828261148d565b346102185760403660031901126102185761073861107d6110c6565b6024359033611750565b34610218575f3660031901126102185761021461049a6111a0565b805180835260209291819084018484015e5f828201840152601f01601f1916010190565b600435906001600160a01b038216820361021857565b602435906001600160a01b038216820361021857565b6060906003190112610218576004356001600160a01b038116810361021857906024356001600160a01b0381168103610218579060443590565b6001600160a01b03165f908152600f6020526040902090565b601f909101601f19168101906001600160401b03821190821017610df357604052565b90600182811c92168015611196575b602083101461118257565b634e487b7160e01b5f52602260045260245ffd5b91607f1691611177565b604051905f82600354916111b383611168565b808352926001811690811561123857506001146111d9575b6111d792500383611145565b565b5060035f90815290917fc2575a0e9e593c00f959f8c92f12db2869c3395a3b0502d05e2516446f71f85b5b81831061121c5750509060206111d7928201016111cb565b6020919350806001915483858901015201910190918492611204565b602092506111d794915060ff191682840152151560051b8201016111cb565b604051905f82600d549161126a83611168565b8083529260018116908115611238575060011461128d576111d792500383611145565b50600d5f90815290917fd7b6990105719101dabeb77144f2a3385c8033acd3af97e9423a695e81ad1eb55b8183106112d05750509060206111d7928201016111cb565b60209193508060019154838589010152019101909184926112b8565b604051905f82600454916112ff83611168565b80835292600181169081156112385750600114611322576111d792500383611145565b5060045f90815290917f8a35acfbc15ff81a39ae7d344fd709f28e8600b4aa8c65c6b64bfe7fe36bd19b5b8183106113655750509060206111d7928201016111cb565b602091935080600191548385890101520191019091849261134d565b604051905f82600c549161139483611168565b808352926001811690811561123857506001146113b7576111d792500383611145565b50600c5f90815290917fdf6966c971051c3d54ec59162606531493a51404a002842f56009d7e5cf4a8c75b8183106113fa5750509060206111d7928201016111cb565b60209193508060019154838589010152019101909184926113e2565b1561141d57565b60405162461bcd60e51b815260206004820152602160248201527f455243313336333a207472616e7366657220746f206e6f6e2d726563656976656044820152603960f91b6064820152608490fd5b9190820391821161147957565b634e487b7160e01b5f52601160045260245ffd5b9061149891336114f9565b600190565b6001600160a01b0382165f908152600a602052604090205460ff166114e55760018060a01b03165f52600160205260405f209060018060a01b03165f5260205260405f205490565b50505f1990565b9190820180921161147957565b91906001600160a01b03831615611535576001600160a01b03811615611522576111d7926117b3565b63ec442f0560e01b5f525f60045260245ffd5b634b637e8f60e11b5f525f60045260245ffd5b307f00000000000000000000000000000000000000000000000000000000000000006001600160a01b0316148061163b575b156115a3577f000000000000000000000000000000000000000000000000000000000000000090565b60405160208101907f8b73c3c69bb8fe3d512ecc4cf759cc79239f7b179b0ffacaa9a75d522b39400f82527f000000000000000000000000000000000000000000000000000000000000000060408201527f000000000000000000000000000000000000000000000000000000000000000060608201524660808201523060a082015260a0815261163560c082611145565b51902090565b507f0000000000000000000000000000000000000000000000000000000000000000461461157a565b919290803b1561172d576116b3935f60209460405196879586948593632229f29760e21b855233600486015260018060a01b0316602485015260448401526080606484015260848301906110a2565b03926001600160a01b03165af15f91816116e8575b506116d257505f90565b6001600160e01b031916632229f29760e21b1490565b9091506020813d602011611725575b8161170460209383611145565b8101031261021857516001600160e01b03198116810361021857905f6116c8565b3d91506116f7565b50505050600190565b906001600160a01b03821615611535575f6111d7926117b3565b6001600160a01b0316908115610f5f576001600160a01b0316918215610f4c5760207f8c5be1e5ebec7d5bd14f71427d1e84f3dd0314c0f7b2291e5b200ac8c7c3b92591835f526001825260405f20855f5282528060405f2055604051908152a3565b6001600160a01b03821692919083151580611878575b6117d8575b6111d79350611b2d565b835f52600f60205260405f2054806117f057506117ce565b928261181e9293948083115f1461187057935b61180c8261112c565b61181786825461146c565b9055611b2d565b8061182857505050565b6118328183611736565b61185c7f798353030d4251a345706609acf9ea7527f2ace26f73150a098c0fae89e5886d9261112c565b5460408051928352602083019190915290a2565b508193611803565b508215156117c9565b60ff81146118c75760ff811690601f82116118b857604051916118a5604084611145565b6020808452838101919036833783525290565b632cd44ac360e21b5f5260045ffd5b50604051600554815f6118d983611168565b808352926001811690811561195f5750600114611900575b6118fd92500382611145565b90565b5060055f90815290917f036b6384b5eca791c62761152d0c79bb0604c104a5fb6f4eb0703f3154bb3db05b8183106119435750509060206118fd928201016118f1565b602091935080600191548385880101520191019091839261192b565b602092506118fd94915060ff191682840152151560051b8201016118f1565b60ff81146119a25760ff811690601f82116118b857604051916118a5604084611145565b50604051600654815f6119b483611168565b808352926001811690811561195f57506001146119d7576118fd92500382611145565b5060065f90815290917ff652222313e28459528d920b65115c16c04f3efc82aaedc97be59f3f377c0d3f5b818310611a1a5750509060206118fd928201016118f1565b6020919350806001915483858801015201910190918392611a02565b91906fa2a8918ca85bafe22016d0b997e4df60600160ff1b038411611aae579160209360809260ff5f9560405194855216868401526040830152606082015282805260015afa15611aa3575f516001600160a01b03811615611a9957905f905f90565b505f906001905f90565b6040513d5f823e3d90fd5b5050505f9160039190565b6004811015611b195780611acb575050565b60018103611ae25763f645eedf60e01b5f5260045ffd5b60028103611afd575063fce698f760e01b5f5260045260245ffd5b600314611b075750565b6335e2f38360e21b5f5260045260245ffd5b634e487b7160e01b5f52602160045260245ffd5b6001600160a01b03169081611b935760205f516020611be65f395f51905f5291611b59856002546114ec565b6002555b6001600160a01b03169384611b7e5780600254036002555b604051908152a3565b845f525f825260405f20818154019055611b75565b815f525f60205260405f2054838110611bca575f516020611be65f395f51905f529184602092855f525f84520360405f2055611b5d565b91905063391434e360e21b5f5260045260245260445260645ffdfeddf252ad1be2c89b69c2b068fc378daa952ba7f163c4a11628f55a4df523b3efa2646970667358221220be12d3eab4bb6c51f801bf48433e6a36431376ad26db2f4c520f6a8538e4c4f064736f6c634300081c0033","linkReferences":{}},"methodIdentifiers":{"DOMAIN_SEPARATOR()":"3644e515","FACTORY()":"2dd31000","SUPERPAYMASTER_ADDRESS()":"5054dbd0","VERSION()":"ffa1ad74","VERSION_CODE()":"e9763063","addAutoApprovedSpender(address)":"aae64da2","allowance(address,address)":"dd62ed3e","approve(address,uint256)":"095ea7b3","autoApprovedSpenders(address)":"f1d85d55","balanceOf(address)":"70a08231","burn(address,uint256)":"9dc29fac","burn(uint256)":"42966c68","burnFromWithOpHash(address,uint256,bytes32)":"b83aa2de","communityENS()":"66b48f91","communityName()":"c6d572ae","communityOwner()":"38518bfe","debts(address)":"2ecd4e7d","decimals()":"313ce567","eip712Domain()":"84b0196e","exchangeRate()":"3ba0b9a9","getDebt(address)":"9a78e72e","getMetadata()":"7a5b4f59","mint(address,uint256)":"40c10f19","name()":"06fdde03","needsApproval(address,address,uint256)":"8d074547","nonces(address)":"7ecebe00","permit(address,address,uint256,uint256,uint8,bytes32,bytes32)":"d505accf","recordDebt(address,uint256)":"fa74542d","removeAutoApprovedSpender(address)":"c504e209","setSuperPaymasterAddress(address)":"7ade132c","symbol()":"95d89b41","totalSupply()":"18160ddd","transfer(address,uint256)":"a9059cbb","transferAndCall(address,uint256)":"1296ee62","transferAndCall(address,uint256,bytes)":"4000aea0","transferCommunityOwnership(address)":"623330ae","transferFrom(address,address,uint256)":"23b872dd","updateExchangeRate(uint256)":"b9e205ae","usedOpHashes(bytes32)":"7fd6327a"},"id":47}